:020000040800F2
:10000000D8330020DD010008DF570008B552000892
:10001000DD57000811300008D97300080000000007
:10002000000000000000000000000000D15900089E
:1000300069300008000000005B590008895A000878
:10004000F7010008F7010008F7010008F7010008B0
:10005000F7010008F7010008F7010008F7010008A0
:10006000F7010008F7010008F7010008F701000890
:10007000F7010008F7010008F7010008F701000880
:10008000F7010008F7010008F7010008F701000870
:10009000F7010008F7010008F7010008F701000860
:1000A000F7010008F7010008F7010008F701000850
:1000B000615B0008F7010008F7010008F70100087C
:1000C000F7010008F7010008F7010008F701000830
:1000D000F7010008F7010008F7010008F701000820
:1000E000F7010008F7010008F7010008F701000810
:1000F000F7010008F7010008F7010008F701000800
:10010000F7010008F7010008F7010008F7010008EF
:10011000F7010008F7010008F7010008F7010008DF
:10012000F7010008F7010008F7010008F7010008CF
:10013000F70100080000000000000000F7010008BF
:1001400015300008F7010008F7010008E157000822
:10015000F7010008F7010008F7010008F70100089F
:10016000F7010008F7010008F7010008F70100088F
:10017000F7010008F7010008F7010008000000007F
:1001800000000000F701000800000000000000006F
:10019000F70100080000000000000000F70100085F
:1001A000000000000000000000000000F70100084F
:1001B000F7010008F7010008F7010008F70100083F
:1001C000F7010008DFF810D002F0D8FE0048004721
:1001D000F1A30008AFF30080D83300200648804721
:1001E00006480047FEE7FEE7FEE7FEE7FEE7FEE71C
:1001F000FEE7FEE7FEE7FEE7455B0008C5010008F5
:1002000010B5F949C4074FF040434FF0804205D084
:100210008B66CB66C1E91C328A67CA67840709D539
:10022000C1F80031C1F80431C1E94232C1F81021EE
:10023000C1F81421400709D5C1F89831C1F89C31A3
:10024000C1E96832C1F8A821C1F8AC2110BD2DE97F
:10025000F14F82B0002102988A468946806F0028BB
:100260007DD000220020401C0428FCDB02984FF0C7
:10027000000C00EBC203D3E90010A1FB0167D3E936
:10028000065400FB017701FB0077CDE90067A64625
:10029000AE1B64EB0704AB460327A6FB075804FB21
:1002A000078406FB0C44DDE90067AD197C41A5FB22
:1002B000016704FB017405FB0045D3E90C47341BBF
:1002C00065EB0705CDE900455D46A5FB0567032401
:1002D000A6FB04580EFB0B770BFB0E7707FB048481
:1002E00006FB0C44D3E91263761B63EB04034C1842
:1002F000A4FB017C40EB000505FB01C504FB005598
:10030000A7FB014C05FB01C507FB0055A4FB017CC5
:1003100005FB01C504FB0054F6196341DDE9004506
:10032000AD0045EA9475A400A4FB017C05FB01C166
:1003300004FB0014F01B73EB040103D500234042BF
:1003400063EB0101BAEB000479EB010301DA8246A9
:100350008946521C032A85DB5046494600E010E0DE
:1003600002F05FFCA149896B02F064FA02F099FC8B
:100370009D4AD2F80C2203B09200BDE8F04F02F083
:100380007EB9002003B00146BDE8F08F2DE9F14FA2
:100390000020009A0146926FF2B300240022521C02
:1003A000042AFCDB009A02EBC405AA46D5E9002921
:1003B000A2FB023CD5E906769E46FB1A0325A3FB69
:1003C000057809FB02CC02FB09CB66EB0B0606FBAA
:1003D00005854FF0000C03FB0C5617EB0E03A3FB37
:1003E000027C46EB0B0606FB02C203FB0923DAE99B
:1003F0000C25BA1AAB4103D50025524265EB030325
:10040000851A71EB030501DA10461946641C032CAA
:10041000C4DB02F006FC00E00EE07449896B02F0D8
:1004200009FA02F03EFC704AD2F80C22BDE8F84FFF
:1004300002EB420202F023B900200146BDE8F88F2A
:100440002DE9FE43684D80460024D5F810626F46C2
:1004500005EBC4013246D1E9020102F001F905EBD6
:100460008401B1F884100904401847F8240004F10D
:100470000104032CECDB5C489821083002F038F9C9
:100480000120FFF7BDFE95F8E8010199042807D186
:10049000D5F81802B0F5201F02DD052085F8E80127
:1004A000524C0098636AC11A01D40E4600E01E1A2D
:1004B0000198A26A801A01D4074601E0019FD71B68
:1004C000BE4206DD002901D4084606E00098181A4D
:1004D00003E0002801D50198101A029AE16A521A25
:1004E00001D4134601E0029BCB1A834205DB002AAC
:1004F00001D4104601E00298081AD8F8241009F037
:10050000D2FAD5F81812814206DD0321684609F0B7
:100510006BFE022009F0BAFE009860620198A062AA
:100520000298E062BDE8FE83304AC2E902017047EA
:100530002E4AC2E9060170472C4AC2E904017047FD
:10054000294AD2F8E0310360D2E97402C1E900021D
:100550007047254AD2F8E0310360D2E97602C1E95A
:10056000000270472DE9FE4781460020EA468A6F67
:1005700022B901EB800339F91020DA6701EB800220
:1005800039F91030D46F1D1B4AF82050136E9D426C
:1005900000DD1566D36E9D4200DAD5660123002486
:1005A00022464FEAE578A3FB056704FB057403FBCD
:1005B0000844334602EB420601EBC60606EBC00CCC
:1005C000DCE90076FF186641CCE90076521C042A6B
:1005D000E9DB401C0328CADB886F401C88670120C8
:1005E000C1F89000BDE8FE87182100207823002084
:1005F00030B5002302EB830550F823405B1CEC660A
:10060000032BF7DBC2F88810916F79B1002102EB60
:10061000810450F82130E56F5B1B00D55B42256EED
:100620009D4200DA2366491C0329F0DB906F401CD1
:1006300090670120C2F8900030BD10B500210B4634
:1006400000EB8102491CD46ED46713660329F7DBE3
:10065000D0F8881040F8783FC0E9051310BDD0E904
:100660002210081A70470146D1E91802824200DBC5
:100670001046896E814200DB084670472DE9F0473D
:100680008046501E012686408946C2F1200740461A
:1006900001F0F5FF04460D46404649463A4601F052
:1006A000DFFF3A4601F0EBFFB04203DD641C45F189
:1006B000000505E07142884202DA641E45F1FF350B
:1006C00020462946BDE8F087F749002008624862C5
:1006D0008862C862086448648864C86408634863C0
:1006E0008863C863086548658865C865704730B524
:1006F000EE4AD2F8483223B1D2E990542D1A8C41F7
:1007000001DAC2E990015B1CC2F8483230BD30B555
:10071000E64AD2F8583223B1D2E994542D1A8C41CA
:1007200001DAC2E994015B1CC2F8583230BD30B521
:10073000DE4AD2F828322BB1D2E98845041B71EB8E
:10074000050401DAC2E988015B1CC2F8283230BD19
:1007500030B5D64AD2F838322BB1D2E98C45041BD9
:1007600071EB050401DAC2E98C015B1CC2F8383276
:1007700030BD2DE9F0470246CC48012508308046BF
:10078000C36E016E046FC91A436E1B1B8B4200DBE4
:100790001946836ED8F87400181A884200DB0146A7
:1007A000C14F6037F86B884204DA002400F00AFA7F
:1007B000204687E7108E0124BC4EC0054FF0000193
:1007C0000ED5D6F880303068834209DBB2F8742049
:1007D000D20506D5D6F8B021824201DB052400E01F
:1007E0000C4674B3600719D5AF48C8388146FFF787
:1007F0002EFD000D40EA01300915C6E97601D7E962
:1008000004321B1A8A4102DA0025FFF7A1FF982162
:10081000484601F06DFF0420FFF7F2FCE0070ED020
:100820004046FFF714FDC6E97C01D7E906340246CD
:10083000181A8C4103DA00251046FFF778FF284686
:1008400040E7FFE702203DE71EB5044690F8300080
:10085000C0F38110032804D19449201D0831FFF70B
:1008600081FE94F87400C0F38110032805D18E49ED
:1008700004F14800C839FFF775FED4F8B8008B4A78
:10088000C0F38113A0326946032B0FD0C0F341108F
:1008900003281AD1002004EB8003D3F8A0309B1367
:1008A00041F82030401C0328F5DB09E0002004EB70
:1008B0004003B3F98C3041F82030401C0328F6DBAC
:1008C0006846D4F8C010FFF793FE1EBD2DE9F0472F
:1008D00005460020296BCA0567D501F05001402963
:1008E00000D1012095F8741001F05001402900D189
:1008F000012095F8B8106D4C01F05001402900D04E
:1009000030B100F05FF90020C4F8E00184F8E8019C
:10091000654ED4F80812E86A6036814225D0C4F8E2
:1009200008020A28306B0ADA40002060716B491C0B
:10093000C4F80C1202F067F90AF0CFFC04E0206062
:10094000706BC4F80C02B06BC4F81402D4F80C023B
:10095000C0F11000C4F810024FF48040C4F818022F
:1009600096F8341019208840F0632846FFF76CFF92
:1009700094F8E811DFF8349105274FF0020809F1E7
:10098000A009072911D2DFE801F0041127305E7EAB
:100990008500D4F8E001411CC4F8E0110A2804DB0A
:1009A00000F010F9012084F8E80186E0D4F89800FE
:1009B000012810D12846FFF7DCFE10B1012803D032
:1009C00004E084F8E87101E084F8E8814846FFF724
:1009D00034FEFFF779FE70E0032084F8E801284632
:1009E000FFF72EFD00F0EEF867E02846FFF7C1FEA6
:1009F000F0B3012861D1B5F8B8004FF00403C00589
:100A000015D54846FFF72FFE0146C017C4E97410FC
:100A1000D6E902C2BCEB0101824102DA84F8E87136
:100A200008E04846FFF71BFE316A884202D384F88B
:100A3000E83124E0F4E97601FFF769FED4E9060124
:100A4000FFF755FE39E0B5F8B800C0050BD54846AC
:100A5000FFF709FE0146C017C4E97410D6E9023257
:100A6000591A824108DB2846FFF783FE00B100E0F7
:100A700002E0012803D020E084F8E8711DE0284658
:100A8000FFF7DEFCD6E7062084F8E801012009F034
:100A9000FDFB0DE02846FFF76CFE012801D038B1C0
:100AA0000BE084F8E88108E01823002018210020DA
:100AB00000F088F84846FFF7C0FD002002E610B5B8
:100AC00000214010002802D001F10101F9DC454C61
:100AD0004FF0010001F1010100FA01F0C4E90C013D
:100AE00002F091F80AF0F9FBA06394F83410192091
:100AF0008840E06310BD10B54FF418713A4801F01A
:100B0000F7FD4021374801F0F3FD0720FFF778FBA0
:100B1000344840F2DC510022C0E906121421C0E939
:100B200002124FF41671C0E9041230492E4C0162D2
:100B30000120C4F8E4011920FFF7C1FF0020C4F828
:100B4000080210BD10B54FF41871274801F0D0FD10
:100B50000720FFF755FB244801210022C0F8E411CB
:100B600080F8E8110321012009F086FB07226421A7
:100B7000AFF2A720BDE8104009F0D8B910B50120A8
:100B800009F084FBAFF2BB20BDE8104009F0E0BBE8
:100B900010B5FFF7B0FF002805D1AFF25700BDE850
:100BA000104009F04BBA10BD10B5FFF7E7FFAFF2E8
:100BB0006B00BDE8104009F0F1BB0B49D1E97C01A5
:100BC00070477047084810B59821083001F090FD33
:100BD0009821074801F08CFDBDE810400520FFF783
:100BE0000FBB000078230020182100200008AF2F41
:100BF000502200202DE9FC5F0D460026416B9946EE
:100C00009246B046002904DBD0F8BC00032800D18E
:100C10000126FF492422081F01F043FDFC4FC03F7D
:100C20000024C7F8E05007EB8400D0F8BC10404621
:100C300001F076FD641C80460A2CF4DBF54901F0D6
:100C4000F9FDF54C80464FF0C80BC7F8E400BAF147
:100C5000320F21DB4846C7F81CB101F0D4FF0090E9
:100C60000190EE49284601F0E5FD019901F0B0FD43
:100C7000214601F0DFFD0446BAF57A7F33DBE8490F
:100C80002846009C01F0D6FD214601F0A1FDE24975
:100C900001F0D0FD044626E041F2883199FBF1F0E5
:100CA0004042D7F81C1100EB80004018C7F81C0127
:100CB00002D50020C7F81C01484601F0A4FF824677
:100CC000D849284601F0B6FD514601F081FD214684
:100CD00001F0B0FD0446D7F81C0120B9D7F828016F
:100CE000012800D10024D7F8200100B12C46CE49BC
:100CF000894500D12C4614F0FF4F11D04046C7F86B
:100D0000E880414601F05EFD20F00040C74902F056
:100D100059F822D2D7F8B80010F0FF4F03D01CE0EA
:100D2000D7F8E800EDE7C6B14846C7F81CB101F0B6
:100D30008EFF04460E46284601F0F3FF0022BC4B0E
:100D400001F0DBFE2246334601F065FE0022B94B7E
:100D500001F0D3FE02F010F804462046BDE8FC9FE7
:100D60002DE9F04FABB04FF0000AA94FCDF810A01D
:100D7000C03FCDF814A0CDF818A00446D7F8201134
:100D8000022003297DD0002620AD07EB8600D0F895
:100D9000A80001F038FF6FF01D0101F089FD45F852
:100DA0002600761C042EF0DB0FA808F0ABFB24A86D
:100DB00008F0EEFB964B24AA183B0FA92046279378
:100DC00000F0F4F9064604F1180008F03FFC82092F
:100DD0009548D7F83031834200DB03463146204640
:100DE000FFF708FFBB4607F1B806D7F8EC1001F093
:100DF000EFFC30600BA808F085FB13A90BA809F0E5
:100E000028F883480FAA3C300BA9064608F0A7FE35
:100E100031460BA808F080FE00210DF13C080DF1D1
:100E20004C090DF1100E00221346104601EB410C47
:100E30000CEB000759F8276008EB8007401C7F681F
:100E40000328C6FB0723F3DB900F40EA83004EF82C
:100E50002100491C0329E6DBDBF820015F4600285E
:100E60007DD05046CDF818A0404201F0CCFE6FF086
:100E70001D09494601F01CFD08F06AF8D0465646A7
:100E800000E074E0CDE9000A0698CDF808A04042E1
:100E900001F0B9FE494601F00BFD0AF016FA039085
:100EA000D7F8300141F2883190FBF1F04FF0804AE1
:100EB00001F0A9FE28902990069801F0A4FEDFF821
:100EC00078B1594601F0B6FC299901F0B3FC5146BE
:100ED00001F0B0FC01F0CCFE40000690DDF8A0A0CF
:100EE00001F091FE594601F073FC514601F070FC8F
:100EF00001F0BEFE069001F086FE494601F0D8FCE6
:100F000008F026F8CDE907060996069801F07BFE61
:100F1000494601F0CDFC0AF0D8F90A901CAA6946AE
:100F200020A808F074FE6A4607A91CA808F06FFE06
:100F3000D4F8BC00EA46002810DD00261E215AF82D
:100F4000260045F8260001F0B3FC01F091FE07EB06
:100F50008601761CC1F8A800042EEFDB00E00BE050
:100F6000D4F8BC004FF0FF3503280AD106E0C7F8DB
:100F700020012BB0BDE8F08F069875E701F007FB64
:100F8000F0B357F8A80F01F03EFE4E46494601F077
:100F90008FFC1C90786801F036FE314601F088FC29
:100FA0001D90B86801F02FFE314601F081FC1E90C3
:100FB000F86801F028FE314601F07AFC1F90B86F06
:100FC000A83F0028D5D0D7F8B8002946A83701F0A7
:100FD0006FFC07F0BDFF1E2101F06AFC01F048FE26
:100FE000C7E90008C7F808802946386901F060FCA5
:100FF0000AF06BF91E2101F05BFC01F039FE00E004
:101000001CE0F860D4F8C010A83F279844E0000026
:10101000782400200000204100409C450000484307
:10102000000048420000C84340420F000E2DB23D70
:10103000000079400088B340E10237472946D7F8DD
:10104000B80001F035FC07F083FFCDE90708CDF8C3
:1010500024802946D7F8B80001F02AFC0AF035F9B7
:101060000A906A4607A920A808F0D1FD684608F052
:1010700079FE002556461E2156F8250001F018FC81
:1010800001F0F6FD07EB85016D1CC1F8A800042DE9
:10109000F1DBD4F8C010279809F050F8D7F82001F8
:1010A00000288FD0401E62E770B590F8B810664AED
:1010B000CC064FF000034FF0030101D4C2E94813FE
:1010C000B0F82041E40509D4048EE40503D5B0F856
:1010D0007440E40502D4C2E948131AE0D2F834118E
:1010E00039B1D0E93013C91A4FF47A73B1FBF3F177
:1010F00005E0D0F8B01044F62064A14202DBC2F84B
:1011000030110AE0D2F82C512944C2F82C11A14226
:1011100001DA002070BDC2E94B31FFF721FEF8E78C
:1011200010B54FF49C71484801F0E2FA464C4FF07C
:1011300080400021C4F8FC0044F8A80F4248A830C1
:1011400008F0FCFF4FF47A7060674FF07E506064E7
:1011500010BD3D49C1F8EC00002070473A49C1F884
:101160002801002070473849C1F834010020704739
:1011700004224FF41671AFF2CF0008F0D7BEAFF2E1
:10118000D70009F0E5B810B5FFF7CAFF2E490020D7
:10119000C1F82801C1F83401AFF22B00BDE81040BE
:1011A00008F04CBFAFF2370009F0F8B82DE9FF475F
:1011B0000C4625491546074699463C220C312248E3
:1011C00001F06FFA204950225831A1F1100001F0CE
:1011D00068FA1D4E95E8070006F13C031B4D83E8B5
:1011E00007001ECC06F1980080E81E00D6F8240106
:1011F000401CC6F82401062802DD0620C6F824019A
:10120000C0F1060407F1A00818E006EB04116A46D5
:101210004846483108F0A3FC04EB440006EB80018B
:101220006A46404607F0F6FF074625F0004120F0E9
:10123000004001F0BDFD00D23D46641C062CE4DBFD
:1012400004B02846BDE8F087B82300200024744984
:101250001FB501461022684601F023FAF6489DE8C2
:101260000E0080E80E00F5499DF80C0081F8B001F1
:10127000002004B010BD1FB5EF490EC98DE80E0067
:10128000EE49102291F8B0118DF80C10694601F06A
:1012900008FA0020EDE72DE9F04F91B00025182164
:1012A000684601F025FA0024182106A801F020FA6A
:1012B000E249A046C14691F8C00101287ED1D1F88B
:1012C000B8B1D1F8B4A10022C2EBC20000EB4001DA
:1012D000DA4800EB810E9EF850000F90002863D092
:1012E00000215EE05EF82130DDE900676D1CD81753
:1012F0000E939B197841CDE900300EEB8100EDB2E1
:1013000043690D93DDE9027CDE17DB1946EB0C0621
:10131000CDE90236836ADDE9047CDE170C93DB1924
:1013200046EB0C06CDE90436C06B0E9BDDE9067C6E
:1013300083FB0063360C46EA0346F6194CEB234365
:10134000CDE906630D9BDDE9087C83FB00634FEA72
:10135000164646EA0346F6194CEB2343CDE90863EB
:101360000C9BDDE90A7C83FB00634FEA164646EAE4
:101370000346F6194CEB2343CDE90A6380FB006377
:101380004FEA164646EA034616EB080849EB23499E
:101390000444584501DA834602E0504500DD8246A8
:1013A000491C0F9888429DDC521C052A8CDBA348FF
:1013B000AAEB0B01D0F8BC01814200E053E052DB04
:1013C000A5FB0872E01700260F9006FB082005FB1E
:1013D00009000E9084FB0410090C41EA004100143E
:1013E000CDE90C0106A800EBC601D1E90002A0FB83
:1013F00005BC02FB05C2002100FB012C684600EB86
:10140000C601D1E90002A0FB043802FB04820F9957
:1014100000FB0120190C0CAA41EA00494FEA204ABE
:1014200092E80B0087EA010283EA000852EA080208
:1014300012D07A1A63EB0003BBEB09006CEB0A0CC9
:101440004FEA0C4141EA1041000401F0D8F87B4911
:1014500001EB8601C1F8A401761C032EC2DB77489C
:10146000012180F8B01111B00020BDE8F08FF8B56F
:10147000724D0E460446D5E96D01091A052291FB0D
:10148000F2F1301A90FBF1F0C0B28DF800000428A0
:1014900001D92020F8BDC0EBC00000EB400005EBF7
:1014A000800191F85000052816D0421C81F8502088
:1014B0009DF80010C1EBC10101EB410105EB810278
:1014C00002EB8001CE63236842F8203060684861F7
:1014D000A06888620020F8BD01F14003181F1022A7
:1014E000194601F0DEF89DF800001022C0EBC000A4
:1014F00000EB400005EB8000011D01F0D2F89DF8E3
:1015000000001022C0EBC00000EB400005EB8000A3
:1015100000F11801143001F0C4F89DF80000102209
:10152000C0EBC00000EB400005EB800000F12C0197
:10153000283001F0B6F80420BAE730B585B004468B
:1015400003A9684608F05CF804A808F0E5F802284A
:101550002BD0D4F8E4000399401A384991F8B0210F
:1015600012B308B3D1F8A421009C80FB0232150409
:1015700045EA134222440092D1F8A821019C80FB45
:101580000232150445EA134222440192D1F8AC110B
:10159000029A80FB0110030443EA114010440290B8
:1015A0000321684608F020FE0CE0606B032809D197
:1015B00008F038F830B168460399FFF758FF08B9CA
:1015C000FFF769FE05B0002030BD10B54FF4E271A1
:1015D0001A4801F08DF819481949C0F8B4114FF4B0
:1015E000AA01C0F8B8114FF4A021C0F8BC11012124
:1015F00080F8C011002010BD1049C1F8B8010020CA
:1016000070470E49C1F8B401002070470B49C1F87A
:10161000BC010020704758B10849D1F8A4210260EC
:10162000D1F8A8214260D1F8AC1181600020704748
:10163000052070472420704794260020F0240020C5
:101640000000D8FF20B12D4981F8C001002070476B
:1016500024207047294B93F8B101002818D0D3E912
:101660006D10401A052190FBF1F00020C0EBC00185
:1016700001EB410103EB810191F8502022B10021DF
:1016800000E0491C8A42FCDC401C0528EEDB0020FF
:101690007047082296211A4808F048BC184808F0FC
:1016A00057BE10B5FFF791FF4FF49A7310221549FA
:1016B000154808F08DFC20B9AFF2290008F0BEFCF7
:1016C00008B1012010BD0D49012081F8B1010020B1
:1016D00010BD10B5094C94F8B101002808D0084895
:1016E00008F036FEAFF2550008F058FE08B10120B0
:1016F00010BD002084F8B10110BD0000F0240020CE
:101700003B15000877120008511200082DE9F0433C
:10171000044699B01D4691460E46806801F073FA62
:10172000014601F055F88046606801F06CFA014608
:1017300001F04EF80746206801F065FA014601F015
:1017400047F8394600F0ECFF414600F0E9FF09F0A8
:10175000C4FD074620F000404FF08D4101F032FB00
:101760007ED2306801F04FFA6FF01D08414601F05B
:101770009FF80490706801F046FA414601F098F82D
:101780000590B06801F03FFA414601F091F80690EB
:10179000F06801F038FA414601F08AF800260C960C
:1017A0000790206801F02FFA394601F043F80D90B8
:1017B000606801F028FA394601F03CF80E90A06804
:1017C00001F021FA394601F035F80F9010AA0CA962
:1017D00004A808F01CFA14A904A808F0A9F96A469C
:1017E00014A910A808F013FA0199084600F0F0FFB8
:1017F00002990446084600F0EBFF214600F090FFF6
:10180000FE49884201DAFE4C0BE0FE49884201DACB
:10181000FD4C06E0FD49884202DA4FF07A5400E0C0
:10182000FB4C484601F0EFF9FA4901F003F8214674
:1018300000F0CEFF044608962146029800F0C8FF4B
:1018400009900198214680F0004000F0C1FFCDE9E9
:101850000A066A4604A908A808F0D9F96A4600E011
:1018600025E004A9104608F036F9684608F038FA71
:101870001E21009801F01CF801F0FAF928601E21E1
:10188000019801F015F801F0F3F968601E21029843
:1018900001F00EF801F0ECF9A8601E21039801F0A8
:1018A00007F801F0E5F9E86019B0BDE8F08396E8C3
:1018B0000F0085E80F00F7E72DE9F05F05460C46BD
:1018C000806801F0A0F9014600F082FF07466868D1
:1018D00001F099F9014600F07BFF0646286801F007
:1018E00092F9014600F074FF314600F019FF3946C5
:1018F00000F016FF09F0F1FC4FF07E590027064674
:101900004FF08048484505DCC4E90087A760E760E0
:10191000BDE8F09FA86801F076F9314600F08AFF33
:1019200082460146484600F04DFF4FF40006B042A3
:1019300000DA00204FF0FF3100F0BAFF09F0CDFCD3
:1019400083464946504600F0EBFEB04200DA0020E4
:101950004FF0FF3100F0ACFF09F0BFFC8246686831
:1019600001F051F9014600F033FF0646286801F006
:101970004AF9014600F02CFF314600F0D1FE09F093
:10198000ACFC06464845BFDD1E21504600F090FFE6
:1019900001F06EF92060686801F035F9314600F019
:1019A00049FF594600F014FF1E2100F081FF01F0AD
:1019B0005FF96060286801F026F9314600F03AFFCF
:1019C000594600F005FF944900F002FF01F050F97C
:1019D000C4E902079CE72DE9F04105460C46C068C2
:1019E00001F011F9014600F0F3FE8046A86801F00D
:1019F0000AF9014600F0ECFE0746686801F003F9B9
:101A0000014600F0E5FE0646286801F0FCF80146B4
:101A100000F0DEFE314600F083FE394600F080FE25
:101A2000414600F07DFEB0F5000F06DA4FF0804031
:101A3000206000206060A0602DE009F04EFC0146AF
:101A40004FF07E5000F0F6FE1E2100F031FF0646FA
:101A5000286801F0D8F8314600F0BAFE01F008F924
:101A60002060686801F0CFF8314600F0B1FE01F067
:101A7000FFF86060A86801F0C6F8314600F0A8FEE3
:101A800001F0F6F8A060E86801F0BDF8314600F01A
:101A90009FFE01F0EDF8E060BDE8F08170B504460E
:101AA00090F8300088B0400676D5A069002801DBA8
:101AB000014600E041424FF480320026574D9142EA
:101AC0000BDAE169002900DA4942914205DA216A1C
:101AD000002900DA4942914260DB002800DA4042E6
:101AE0004FF4C80188420BDCE069002800DA40426C
:101AF000884205DC206A002800DA4042884201DD85
:101B0000032000E00220A863696BA06A814219D01B
:101B10006863A06A01F077F8414900F08BFE1D214F
:101B200000F0C6FE01F0FDF83E4A3F4B00F073FFA7
:101B3000082201F051F800223C4B00F0DEFF01F0DA
:101B4000D1F828630496296BA06907F0ACFF0590D3
:101B5000296BE06907F0A7FF0690296B206A07F060
:101B6000A2FF07906A4604A92C4807F0F8FF0098E6
:101B70002A4A8001009001986946800101900298EC
:101B800080010290039880010390104607F091FFB6
:101B900022490846FFF71FFF08B070BDAE63FBE7A0
:101BA0002DE9F0430446D0F820018FB041067CD5E2
:101BB0001A4DD4F810111E4B2A68891AD4F82C211A
:101BC0005A438A4201DA032100E00221A963810518
:101BD00004F58870804601D51049D4E0002104A89E
:101BE00007F00EFD0D490C223C3104A800F08BFDDE
:101BF00008BBD4F82801A96D88421BE017B75139FA
:101C0000A69BC43B0AD7233C8FC2753DCDCC4C3E2E
:101C1000CDCCCC3E0014CD47000080CEB4260020B1
:101C200000247449112D4454FB2109400080664072
:101C300071981C007ED0208807AB80B204AA616A2C
:101C400007F03EFB099800F0DEFF014600F0C0FD02
:101C50000746089800F0D7FF014600F0B9FD064698
:101C6000079800F0D0FF014600F0B2FD314600F0C9
:101C700057FD394600F054FD09F02FFB0646E849B0
:101C800000F0A6FDE74900F0D5FD6FF00F0100F070
:101C90000FFE0746D4F8280100F0B5FF394600F0E2
:101CA00097FDE14900F0C6FD00E06EE04FF0FF3126
:101CB00000F0FEFD074607F04BF98146384609F073
:101CC00004FB07464FF08040864204DAA8640020F7
:101CD000E864286533E01E21484600F0E9FD00F085
:101CE000C7FFA864079800F08EFF8146CF493846A9
:101CF00000F06EFD0746494600F06AFD314600F0EF
:101D000099FD00F0B5FFE864089800F07CFF0146FB
:101D1000384600F05DFD314600F08CFD00F0A8FF74
:101D20002865099800F06FFF0146384600F050FD25
:101D3000314600E00EE000F07DFD00F099FF04ABBD
:101D4000686593E8070005F13C0383E80700D4F8D1
:101D50002801A8656A46B649404607F000FFB44826
:101D60000AAA14306946044607F0F9FE21464046A7
:101D700007F0D2FEAE486A460AA9483807F0EFFEDF
:101D8000AB4968464839FFF726FE0FB08DE51FB511
:101D90000446A7486946483807F0BEFEA44A69468B
:101DA000283A204607F0DBFEA1491DCC383981E8EE
:101DB0001D001FBD2DE9F0479D4E0446483E90F89A
:101DC000740006F15C0A06F12008012500F05001BC
:101DD000103692B004F5887904F15C07402906D0EA
:101DE00094F8200100F0500040280DD01EE031464C
:101DF0003846FFF761FDB4F82001C0050CD5514607
:101E0000484607F089FE07E05146484607F084FE41
:101E1000B4F87400C00509D585486946483807F00C
:101E20007BFE42466946304607F099FEB4F8200131
:101E3000C005204602D5FFF7B3FE01E0FFF72EFEF6
:101E40007B4932464839404607F089FE94F87400D1
:101E5000400671D5208EB4F820110843C00578D50E
:101E60000FAA3946304607F0D5FFD4E9172080FB8A
:101E70000001C2FB0201626E6D4FC2FB0201483FCE
:101E80004FF08042801A71F1020014DB04A807F0C1
:101E90000FFCDDE9042080FB0001C2FB0201069A71
:101EA000C2FB02014FF08042801A71F1020002DB96
:101EB0000420B8630BE0B86B042808D041F28832E4
:101EC000022806D0032804D001283AD009E00025D2
:101ED00007E0E16E91FBF2F5012D00DA0125032800
:101EE00000D0AD0053480024454310980794800269
:101EF000294607F0D8FD08900F98294640428002F5
:101F000007F0D1FDCDE909040BAA314607A807F077
:101F100026FE32460BA9104607F0CBFD3146084697
:101F2000FFF759FD42486946483807F0F5FD42463B
:101F30006946304607F013FE12B00020BDE8F08776
:101F400007E0E06E90FBF2F0012800DA0120450086
:101F5000C7E7334619463846E26EFFF7D7FBE1E79D
:101F600070B50446008EC105D4F8200107D4B4F83A
:101F70007410C90503D4C10501D4002070BDC0F39D
:101F80000120032808D02046FFF714FF2848A16B42
:101F9000383808F0CDF9F0E704F5887124482EC9E7
:101FA000383880E82E00F1E7234808F0D1B92048FE
:101FB00010B56C21483800F09BFB1D484FF0804164
:101FC0004838016101600162C163C165002010BD34
:101FD0001D4810B5082219A1006800F094FB08B153
:101FE000322010BD1322BDE81040C821124807F06E
:101FF0009DBF10B5FFF7DBFF002805D1AFF22F0022
:10200000BDE8104008F01AB810BD10B50A4808F035
:102010009FF9AFF24300BDE8104008F0BFB90000DF
:10202000DB0F49400000344300247449000080CE97
:10203000FC260020A69BC400611F0008654D504C83
:1020400020352E3100000000C0010020002803DDF3
:10205000FE490122C1E920020020704710B5B821D5
:10206000FA4800F045FBF948F949C160F949816037
:10207000F9490160F94941604FF0804141664FF4F0
:10208000FA61C167F649C0F89C10002010BD2DE927
:10209000F041EE4C0E4607460025216800F092FE06
:1020A00011D33846616800F083FE0CD32069012803
:1020B00013D13046E16800F085FE04D33046A168B4
:1020C00000F076FE09D2606F20B9E048A16D1830AB
:1020D00008F034F80120C4E91D05D4E91E01884246
:1020E00004DB606F012800D1E5656567BDE8F0811C
:1020F00070B50C46054607F00FFAD44A002110B916
:10210000D848854202DD1161516102E01069002862
:1021100008D1506920445061B0F5FA7F02DD0120FA
:10212000C2E9040170BDF0B58DB00D4614460646F7
:10213000694607F08EFE09AA3146284607F00FFDD2
:102140002946304607F0E8FC0021EC460DF1240E4C
:1021500000231A46184601EB41073D180EEB800696
:102160005CF825507668401CC5FB06320328F4DB7A
:10217000980F40EA820044F82100491C0329E7DB5C
:102180000DB0F0BDB1490020C1F88C00704770B5AA
:102190000446806800F037FD014600F019FB054653
:1021A000606800F030FD014600F012FB0646206832
:1021B00000F029FD014600F00BFB314600F0B0FABB
:1021C000294600F0ADFA09F088F8BDE870406FF0DC
:1021D0000F0100F06DBB70B50E4600259B4C012130
:1021E00030B101280CD0C4F8981044F88C5F29E075
:1021F000C4F8A060C4E92965E4E92415A56070BDB0
:102200003046D4F8A01000F0DDFA20F00040D4F8F9
:102210009C1000F0CDFD13D254F8945F31466D1C34
:102220002560206900F07CFA2061943C312DE6DDC8
:10223000022144F8901F8C4900F0FCFAA06170BDA7
:1022400044F8905F656070BD2DE9FF4F8BB00026AC
:102250007E4C0546039604960596D4F8880093466E
:10226000374600287ED007F0E9F910B103A807F03F
:10227000B9F9D4F88000A146002819DD01204C46A8
:10228000C9F8840007F0DAF948B103A807F0DEF9CD
:102290008009B0F5C87F02D2D4F8800004E0D4F8F9
:1022A0008000401BC4F88000002801DCC4F8847062
:1022B00007F04EFB002855D000240E9850F824005B
:1022C00000F0A1FC82465BF8240000F09CFC6FF05B
:1022D0000F08414600F0ECFA514600F079FA414609
:1022E00000F0E6FA314600F01BFA641C0646032CA7
:1022F000E3DB5846FFF74BFF01460690304600F0FF
:1023000099FA4FF07E58DFF864A1404501DD404660
:1023100002E0504500D9504606F012FE8346D9F837
:102320008C004E4670B13168069800F041FD09D22C
:102330007168069800F046FD04D25946D6F8900020
:10234000FFF749FF684607F0D1F940490C22AC314C
:10235000684600F0D8F918B9D6F8980001286CD171
:102360003A4800E0C6E09DE80E00AC3080E80E0080
:10237000009818B9019808B9029858B36846FFF751
:1023800006FF044610F0FF4F57D0DFF8E4902046D8
:10239000494600F017FA014600F01AFA08F09DFFCE
:1023A00070604946204600F0BBF9014600F010FA83
:1023B00008F093FF3060029800F025FC6FF00F01E9
:1023C00000F076FA214600F035FA044640451FDD5C
:1023D000444620E02048306020487060D6F89800DD
:1023E000012804D01B48B0601948F06025E0D6F8F9
:1023F0009C80D6F8A8404146204600F0E3F9B06042
:102400004146204600F08CF9C6F89870F06014E060
:10241000544500D95446204606F092FDD6F89C104B
:1024200000F0D0F9B060204606F08AFDD6F89C1086
:1024300000F076F9C6F88C70F060DFF81080F16D6E
:1024400008F1580801BB0120002413E020270020D8
:102450000000B4420000B4C2000070420000F0412D
:102460007B142E3E00401C4600004842000080BF06
:1024700000002041F06506EB04104146183007F0DB
:1024800073F8641C042CF6DB434907AA0C460C982D
:10249000FFF749FE21460C9807F03EFB03A807F022
:1024A000D5F800F0B9FB6FF0050100F001FA2946FC
:1024B000FFF71EFE59460698FFF7E9FDD6E91E0113
:1024C000884201DA2844B067706F90B9306E2844B2
:1024D0003066B0F57A7F0CDD2F4930223C39A1F10E
:1024E0001000376600F0DDF82B4841461C3807F035
:1024F0003BF8706F0FB0BDE8F08F70B588B0044640
:1025000004A807F045F8D4E93001451A684606F0FA
:10251000F9FF064604AB04F1A00269462846FFF71E
:1025200093FE07F01BFE08B0304670BD04224FF446
:102530009671AFF2390007F0F9BCAFF2410007F035
:1025400007BF10B5FFF78AFD00280DD11248002102
:102550006438C0F88C100121C0F88810AFF2330045
:10256000BDE8104007F06ABD10BD10B5AFF27500B0
:1025700007F0EEFEAFF27D00BDE8104007F0E8BEC8
:10258000054901206439C1F88C00002070470248D9
:102590006438406F70470000842700202DE9F05F09
:1025A0000546002092469B468846064681464024C2
:1025B0001BE0284641464746224600F023FC53468E
:1025C0005A46C01A914110D311461846224600F0CF
:1025D00047F82D1A67EB01084F46224601200021DB
:1025E00000F03EF817EB00094E41201EA4F1010453
:1025F000DFDC484631462A464346BDE8F09F2DE9D8
:10260000F0410024061B254671F1000605DA01247D
:102610000027D0EB070067EB0101161E73F10006DF
:1026200005DA0027D2EB0702012567EB0303FFF76A
:10263000B5FF86460E4617469C46AC4204D00025A0
:10264000D0EB050E65EB010624B10020D2EB0007AC
:1026500060EB030C704631463A466346BDE8F081B4
:10266000202A04DB203A00FA02F100207047914052
:10267000C2F1200320FA03F3194390407047202A47
:1026800006DBCB17203A41FA02F043EAE07306E09A
:1026900041FA02F3D040C2F12002914008431946AA
:1026A000704710B5431A934209D28318881803E083
:1026B00010F8011D03F8011D521EF9D210BD40EAA9
:1026C00001039B0703D009E008C9121F08C0042AB0
:1026D000FAD203E011F8013B00F8013B521EF9D297
:1026E00010BDD2B201E000F8012B491EFBD27047A9
:1026F0000022F6E710B513460A4604461946FFF7CE
:10270000F0FF204610BD30B504460020034600E02F
:102710005B1C934203D2E05CCD5C401BF8D030BD23
:10272000F0B480EA0102D40F4200B2EB410F02D2B2
:102730000246084611464A0042D0C30DDDB2C1F33D
:10274000C752AD1A202D35DAC1F3160141F400024B
:1027500004B15242C5F1200602FA06F12A411044A2
:10276000B3EBD05F23D0C4B1012DA0EBC35009DC83
:10277000F0BC4FF0004202EAC352DBB200F50000A9
:1027800000F059BB400000F1807000EBC350A0F195
:10279000807040EAD170490009E0490841EAC071FF
:1027A000A0EBC35000F50000400800EBC350F0BCA4
:1027B00000F038BB6142012202EB4101001BF6E749
:1027C000F0BC704781F00041AAE780F00040A7E725
:1027D00080EA010210B502F00043400022D04A0016
:1027E0001FD0010E01EB1261C0F35600C2F3560276
:1027F00040F4000042F40002A0FB022000047F39F4
:10280000140400D0401C50EA124001D44000491E7C
:10281000C2B20C0604EBD010401C4008802A02D043
:1028200003E0002010BD20F00100002900DA0020A4
:10283000184310BD30B480EA010202F0004530F0C8
:10284000004221F0004013D090B1C30DD40DC2F36B
:102850001601C0F31600E41A41F4000140F400022E
:102860007D34914201D3641C00E04900002C02DA5F
:1028700030BC002070474FF400000023914201D388
:10288000891A034340084FEA4101F7D151B19142FF
:1028900002D14FF0004105E002D24FF0010101E00A
:1028A0006FF0010103EBC450284430BC00F0BABA09
:1028B000420005D0C0F3C7525242914201DC0020D1
:1028C000704700EBC15070472DE9FE4F804681EA0A
:1028D0000300C00F0C46009021F0004123F000459A
:1028E000B8EB0200A94105D24046214690461C465D
:1028F0000B46024623F00040104347D0270DC7F394
:102900000A00C3F30A510290401A019040286BDA82
:10291000C3F3130040F4801B0098924620B10023BB
:10292000D2EB030A63EB0B0B01985946C0F140024E
:102930005046FFF795FE06460D4650465946019A09
:10294000FFF79DFE10EB08006141002487EA115259
:1029500084EAE7731A4340D0009A62B3019A012ACD
:102960004FEA075215DC001B61EB02014FF00042F9
:1029700002EA0752CDE90042001C41F580113246BF
:102980002B4600F095FA03B0BDE8F08F4046214693
:10299000F9E7001B61EB0201001C41F580130018F0
:1029A0005B412018A2F5001747EB030140EAD57000
:1029B000B6196D4111E06D084FEA360645EAC0755B
:1029C0004FEA0752001B61EB0201001C41F5801128
:1029D00049084FEA30000019514132462B4603B0F6
:1029E000BDE8F04F00F055BA0098012240000023E6
:1029F000D0EB020263EBE073009821464FEAE074EB
:102A0000B8EB000061EB0401E9E783F000435BE70A
:102A100081F0004158E72DE9FE4F81EA030404F0FC
:102A2000004421F0004100944FF0000B23F00043DC
:102A300050EA01045ED052EA03045BD0C3F30A54A7
:102A4000C1F30A552C44A4F2F3340194A0FB0254C0
:102A5000C1F3130141F48011C3F3130343F4801352
:102A600001FB024400FB034E840A970A44EA8154A6
:102A700047EA8357A4FB076802958D0A05FB078583
:102A80004FEA932C04FB0C542705029D4FEA06588D
:102A900047EA1637B5EB08056EEB070C870E920E6A
:102AA00047EA811742EA8312A7FB0201B6EB0B014A
:102AB00064EB00042B0D43EA0C335E1844EB1C500E
:102AC000DA465146E7FB0201C5F313044FEA0B3324
:102AD00043EA14534FEA0432019C43EA0603A4F18B
:102AE0000C040294009CCDE900B400F0E1F903B0BD
:102AF000BDE8F08F00200146F9E72DE9F04D81EAAD
:102B0000030404F0004B21F0004514464FF0000A86
:102B100023F0004150EA050220D054EA01021DD002
:102B2000C5F30A570246C5F31303C1F31300C1F3FB
:102B30000A5640F4801543F48013A7EB0608101BD7
:102B4000D64608F2FD3873EB050002D308F1010800
:102B500001E092185B41B8F1000F03DA0020014652
:102B6000BDE8F08D00204FF48011064684460EE04B
:102B7000171B73EB050705D3121B63EB0503064315
:102B80004CEA010C49084FEA300092185B4150EAC8
:102B90000107EDD152EA030012D082EA040083EA71
:102BA0000501084305D0101BAB4106D201220023CA
:102BB00006E000224FF0004302E06FF001025310E4
:102BC0001AEB06004CEB085110EB0A0041EB0B012D
:102BD000BDE8F04D00F05DB970B521F0004303434E
:102BE0000CD0C1F30A550024D5EB040564EB0403B3
:102BF000D617AD1AB34102DB0020014670BD201884
:102C000041EB025170BDC10F80EAE0700844CA0771
:102C10009623002100F00FB996230022114600F000
:102C20000AB9F0B4CA17CB0F50405140C61841F151
:102C300000054FEAC372314628004FF0960303D0D7
:102C4000B623F0BC00F0F7B830460021F9E70EB526
:102C5000C10F80EAE0700844CA07002140F2334304
:102C60008DE80E000A460B4600F022F903B000BDC5
:102C700000F0004220F00040C10DC0F3160040F407
:102C800000007F2901DA00207047962903DCC1F19A
:102C90009601C84001E096398840002AF4D04042AD
:102CA000704710B500F0004420F00040C20DC0F3A2
:102CB000160040F400007F2A02DA0020014610BD11
:102CC0000021962A03DCC2F19602D04002E0963A37
:102CD000FFF7C6FC002CF2D00023D0EB030063EB1F
:102CE000010110BD70B5C1F30A5201F00045002486
:102CF000C1F3130140F2FF3341F480119A4201DA2B
:102D0000002070BD40F233439A42A2F2334203DC0A
:102D1000524200F077F800E090402C43F1D040425E
:102D200070BD00F0004230F000400AD0C10D01F546
:102D30006071C0F3160042EA0151C2084007114316
:102D4000704700200146704730B5041E71F1000441
:102D500004DB4FF00044404264EB0101141E73F1A8
:102D6000000405DB1C464FF00043524263EB0403B2
:102D7000994208BF904230BD01F0004330B421F0C9
:102D8000004150EA010206D00A0DA2F56072C1F3BB
:102D90001301002A02DC30BC00207047440F44EAD3
:102DA000C104C100E01830BC00EBC25000F03AB8DA
:102DB000002801DBC0F10040002901DBC1F1004126
:102DC00081427047002801DBC0F10040002901DB8F
:102DD000C1F100418842704730B50B4601460020E2
:102DE0002022012409E021FA02F59D4205D303FACD
:102DF00002F5491B04FA02F52844151EA2F101024E
:102E0000F1DC30BD202A04DB203A21FA02F0002157
:102E1000704721FA02F3D040C2F1200291400843EA
:102E2000194670470029A8BF7047401C490008BFD9
:102E300020F00100704710B4B0FA80FC00FA0CF0EA
:102E400050EA010404BF10BC704749B1CCF1200422
:102E500021FA04F411FA0CF118BF012121430843AF
:102E6000A3EB0C01CB1D4FEA00614FEA102042BFDB
:102E7000002010BC704700EBC35010440029A4BFD1
:102E800010BC7047401C490008BF20F0010010BC76
:102E9000704710B5141E73F1000408DA401C41F1AC
:102EA000000192185B411A4301D120F0010010BDCE
:102EB0002DE9F04D92469B4611B1B1FA81F202E044
:102EC000B0FA80F220329046FFF7CAFB04460F4664
:102ED00040EA0A0041EA0B0153465A46084313D020
:102EE000114653EA010019D0C8F140025046FFF7DD
:102EF00089FF05460E46504659464246FFF7B0FB4D
:102F0000084305D0012004E020463946BDE8F08D95
:102F10000020054346EAE0762C4337430A986305D0
:102F2000E40AA0EB08000022FD0A44EA47540A30F4
:102F300002D500200146E9E7010510196941DDE9E4
:102F4000084500196941BDE8F04DA2E7C1F30A52F6
:102F5000C1F3130140F2FF3341F480119A4202DAC7
:102F600000200146704740F233439A42A2F23342B6
:102F700002DC5242FFF746BFFFF772BB064C074D1B
:102F800006E0E06840F0010394E807009847103439
:102F9000AC42F6D3FDF71AF998B50008B8B50008A9
:102FA0000EB540F2334102910021CDE900110A46ED
:102FB0000B46FFF77DFF03B000BD70B58C1810F80D
:102FC000015B15F0070301D110F8013B2A1106D16E
:102FD00010F8012B03E010F8016B01F8016B5B1E88
:102FE000F9D12B0705D40023521E0DD401F8013B63
:102FF000FAE710F8013BCB1A921C03E013F8015BCF
:1030000001F8015B521EF9D5A142D8D3002070BD52
:10301000FEE70000014800F0A6B9000054020020BD
:10302000002070470020704710B500220449054871
:1030300002F03CFF0449034802F032FF002010BDBB
:103040008C0F0020BC0200208C07002010B5014628
:10305000034802F025FF024802F007FF002010BDE0
:10306000BC02002000207047704772B6FEE790F85F
:103070002020012A07D0022A05D0416A41F480218C
:10308000416201207047006842690A4342610020A2
:103090007047F0B590F820500468A468012D05D061
:1030A000022D03D0416A41F480215DE014F0406FAD
:1030B00001D1E50055D5C4F30164022C03D9416A5E
:1030C00041F4000150E00125A5401D608D684FF4DA
:1030D000C0739DB1CE6835434E6845EAC6050668A3
:1030E00003EB0417F5514FF4C275076805EB04159F
:1030F0000E697E51097D012905D009E00E88CD6851
:1031000045EA4655EBE701684E5946F480764E5144
:103110001179D579567941EA056195792D0445EA09
:10312000062529434FF4C676056806EB0416A95117
:103130001178D57841EA0561957852782D0445EAF1
:10314000022211434FF4C475026805EB0415515176
:10315000006803EB0411425842F001024250002083
:10316000F0BD416A41F4001141620120F0BD000050
:1031700010B590F82020012A07D0022A05D0416A14
:1031800041F480214162012010BD3B48D0F800226B
:1031900042F00102C0F80022D0F8002222F47C5252
:1031A000C0F80022D0F800224B6A42EA0322C0F89D
:1031B00000220A7D02F01F0301229A40D0F81C323F
:1031C0009343C0F81C32CB69B3B9D0F80C329343A7
:1031D000C0F80C328C894B6864F31F434C6900EBD8
:1031E000C404C4F840320C890B6864F31F434C6973
:1031F00000EBC404C4F84432CB69012B16D1D0F8DB
:103200000C321343C0F80C320C884B6864F31F4334
:103210004C6900EBC404C4F840320C89CB6864F3F9
:103220001F434C6900EBC404C4F844328B69002B83
:10323000D0F804320ED01343C0F804320B69002BCF
:10324000D0F8143208D01343C0F81432096A0129A7
:1032500004D008E09343EFE79343F5E7D0F81C125E
:103260001143C0F81C12D0F8001221F00101C0F87F
:103270000012002010BD000000640040704730B50F
:1032800090F82040012C05D0022C03D0416A41F473
:1032900080215DE00468002955D02469A40754D03A
:1032A0004FF4D874056804EB01142D5915F004058A
:1032B000956005682D594ED0ED08556005682C596C
:1032C00004F00204D4604FF4DA74056804EB0114CE
:1032D0002D5905F00F05156105682D59C5F3072512
:1032E000956105682C59240C54614FF4DC72046814
:1032F00002EB0112A4581C700468A458240A5C70E4
:103300000468A458240C9C700468A258120EDA7049
:103310004FF4DE72046802EB0112A4581C710468B9
:10332000A458240A5C710468A458240C9C71046895
:10333000A258120EDA71006881B1016941F02001D2
:103340000161002030BDE468A8E7416A41F4001142
:103350004162012030BD6D0D1560AFE7C16841F0DD
:103360002001C160EDE72DE9F05F0546006800240B
:103370004669D0F804908768D0F80CB0D0F810A057
:10338000D0F81880F10748D0F90714D001218160E6
:10339000B80703D5284600F01AFA0CE0780702D5E2
:1033A0004FF4006407E0380702D54FF4805402E080
:1033B000284600F00BFAF80516D529684FF48070FE
:1033C0008860B80503D5284600F003FA0CE07805BC
:1033D00002D544F4005407E0380502D544F4804493
:1033E00002E0284600F0F4F9F80316D529684FF4F6
:1033F00080308860B80303D5284600F0ECF90CE073
:10340000780302D544F4004407E0380302D544F4BD
:10341000803402E0284600F0DDF9300707D55FEA86
:10342000CB6004D52968102044F40074C86070078C
:103430004FF0080707D55FEA0B7004D52868C7600E
:10344000284600F061F9B00706D52868C0688007F3
:1034500002D0284600F05AF9700607D55FEACA6024
:1034600004D52968102044F480640861B00607D5AB
:103470005FEA0A7004D528680761284600F076F9EB
:10348000F00606D528680069800702D0284600F0BB
:103490006EF9B00308D55FEAC96005D52968102028
:1034A0004860284600F064F9F00307D55FEA097028
:1034B00004D528684760284600F08EF9300446D5C8
:1034C0005FEA497040D5F00504D55FEAC87001D0C5
:1034D00044F00104B00504D55FEA887001D544F0DA
:1034E0000204700504D55FEA487001D544F0040475
:1034F000300529D518F0700F26D008F0700040284C
:1035000015D006DC102809D020280AD0302816D182
:103510000AE050280ED0602811D10EE044F00804D3
:103520000DE044F010040AE044F0200407E044F009
:10353000400404E044F0800401E044F4807428680E
:10354000816921F070018161296804204860002CA4
:1035500005D0686A204368622846FFF78FFEBDE801
:10356000F09F70B5040003D094F8200010B104E07F
:10357000012070BD204600F081F82068016821F02C
:103580000201016000F022FA0546052604E000F081
:103590001DFA401B0A2811D8206840688007F6D41D
:1035A0002068016841F00101016000F00FFA054652
:1035B0000BE000F00BFA401B0A2806D9606A40F4C1
:1035C0000030606284F82060D2E720684068C0075D
:1035D000EFD0207E0128206801683DD021F08001D5
:1035E0000160607E01282068016838D021F0400128
:1035F0000160A07E01282068016833D021F02001FD
:103600000160E07E0128206801682ED041F01001A1
:103610000160207F01282068016829D021F008017D
:103620000160607F01282068016824D021F0040136
:103630000160D4E902010843D4E9041211430843AC
:103640006168491E08432168C8610020606201204A
:1036500084F82000002070BD41F08001C0E741F0F7
:103660004001C5E741F02001CAE721F01001CFE792
:1036700041F00801D4E741F00401D9E710B586B064
:10368000044614216846FFF733F81C492068884235
:1036900031D11B480021026842F08062026002685A
:1036A00002F080620592026842F0007202600068D7
:1036B00000F00070059012481038026842F00202D3
:1036C0000260006800F0020005904FF44050009046
:1036D0000220CDE9010103200390092004906946EE
:1036E000084800F08DF800221146402000F044FA0E
:1036F000402000F033FA06B010BD00000068004022
:1037000040380240000402407047000010B50446F3
:103710000121134800F04DF9124B134A00212046B5
:10372000FFF7ADFD0F4810490C3847F6FE7380686F
:103730000278012A04D04C689C4201D1012108E0A2
:10374000012A08D0032A05D1496811F47C1F01D051
:103750000621017010BD49689942FBD10221F8E7AA
:10376000000802400C000020000200207047704753
:103770007047000070B5044690F82000012804D07E
:10378000606A40F40020606218E0022084F82000A3
:103790002068016821F00101016000F017F9054679
:1037A0000EE000BF00F012F9401B0A2808D9606A39
:1037B00040F400306062052084F82000012070BDD4
:1037C00020684068C007EDD1606270BD70477047E7
:1037D00070477047704770477047000070B50446E7
:1037E00000F0F4F80546601C02D004480078044458
:1037F00000F0ECF8401BA042FAD370BD1800002086
:103800002DE9F84F00224FF0010803254FF00F0E6D
:103810000B6808FA02F42340A3426ED14E68012ED1
:1038200005D0022E03D0112E01D0122E12D186689F
:103830004FEA420C05FA0CF7BE43CF6807FA0CF7C3
:10384000374387604668A6430C79C4F3001494405C
:1038500034434460C668570005FA07FC8C6826EAC2
:103860000C06BC403443C4604C68022C01D0122CBE
:1038700013D1D40800EB8404A346D4F82090540755
:103880004FEAD46A0EFA0AF629EA06090E6906FA20
:103890000AF646EA0906CBF8206006680C7926EAA3
:1038A0000C0604F00304BC40344304604C68E4009C
:1038B00060D5334C266846F480462660246822F0A2
:1038C000030604F4804400942E4C3444A446D4F8F7
:1038D00008489607370F0EFA07F6B4432A4EB0424F
:1038E00001D100261FE0294EB04201D101261AE085
:1038F000274EB04202D1022615E03BE0254EB042F1
:1039000001D103260FE0244EB04201D104260AE083
:10391000224EB04201D1052605E0214EB04201D130
:10392000062600E00726BE402643CCF808681D4E58
:1039300034684F689C43FF0300D51C433460194E24
:10394000361D34684F689C43BF0300D51C43346068
:10395000144E083634684F689C43FF0200D51C4360
:103960003460104E0C3634684F689C43BF0200D55B
:103970001C433460521C102AFFF44AAFBDE8F88F94
:103980004438024000300140000002400004024080
:1039900000080240000C02400010024000140240E7
:1039A00000180240003C01400069084000D001209E
:1039B0007047426931EA020200D10904816170470F
:1039C0000AB1816170470904FBE700000148806883
:1039D00070470000180000202DE9F0471E46914670
:1039E0000C4601F069FC002811D0144F00203870FB
:1039F00001F02EFD204601F0F7FC01F073FD4FF0C1
:103A0000010808B100240FE087F800800120BDE81C
:103A1000F087651CB54201D0012000E0002001F0D4
:103A200093FC09F80400ACB2B442F2D301F068FC94
:103A300001F032FD87F800800020E8E71400002044
:103A40002DE9F047984691460C46089F01F034FC5A
:103A5000002822D0134D0020287001F0F9FC2046E8
:103A600001F0C2FC01F03EFD0126C0B1484601F064
:103A7000BBFC01F037FD90B1002408E018F8040009
:103A800001F0B2FC01F02EFD48B1641CA4B2BC42AE
:103A9000F4D301F001FD2E700020BDE8F0872E70F8
:103AA0000120FAE7140000200248816802781144DE
:103AB00081607047180000200B4810B5016841F480
:103AC00000710160016841F480610160016841F4A6
:103AD00080710160032000F06FF8002000F006F80C
:103AE00000F024F8002010BD003C024070B50D4DE0
:103AF00004464FF47A712878B1FBF0F00A4909685E
:103B0000B1FBF0F001F00CFA48B9102C07D20022FA
:103B10002146501E00F030F800206C6070BD01207E
:103B200070BD000018000020240000200A4808B5DD
:103B3000016841F480410160006800F48040009019
:103B40000548001F016841F080510160006800F0E5
:103B50008050009008BD000044380240002809DB76
:103B600000F01F02012191404009800000F1E02097
:103B7000C0F8001170470000F0B40E4B1B680C46F3
:103B8000C3F30223C3F10705042D00D90425191D31
:103B9000072901D2002300E0DB1E012606FA05F109
:103BA000491E214099409E40761E16403143F0BC8C
:103BB00003F093BC0CED00E0064900F00702086832
:103BC0004FF6FF03184040EA0220034A1043086002
:103BD000704700000CED00E00000FA0501220168CA
:103BE000C0F8FC23002280F8F423886940F00060CC
:103BF0008861486D024A1043486500207047000004
:103C00000300001070B5164D0446A1B1012911D171
:103C10002068D0F8001E41F00101C0F8001ED4F861
:103C2000040402F0D1FC206A002803D0286840F088
:103C30000600286070BD206A28B101F027FF2868BF
:103C400020F0060028602068D0F8001E21F0010155
:103C5000C0F8001ED4F80404BDE8704002F050BC67
:103C600010ED00E00068416200207047F0B5036885
:103C7000586A39B19C6A4FF4827600EB14440020F4
:103C80004D1E0AE040EA024098620FE006EB800712
:103C9000DF59401C04EB1744C0B2A842F6D344EAF3
:103CA00002404FF4807202EB810158500020F0BDB9
:103CB000D0F8040402F08FBBC1EBC10200EB82021A
:103CC000D0F80404926C02F0FABAC1EBC10200EB26
:103CD0008202D0F80404D2F8082202F045BBD0F8E2
:103CE000040402F07ABB70B504460B0601F00F0025
:103CF000C0EBC00104EB81014FF001024FF0000561
:103D000003D581F83D203C3103E081F8FD5101F5F8
:103D1000FE71087094F8BC03012808D084F8BC2315
:103D2000206802F0F3FE84F8BC53002070BD02202E
:103D300070BD70B5044601F00F006268904201D971
:103D4000012070BD0B0601F00F01C1EBC10104EBB6
:103D500081014FF001024FF0000503D581F83D20AD
:103D60003C3103E081F8FD5101F5FE718D70087062
:103D700094F8BC03012808D084F8BC23206803F021
:103D8000BDF884F8BC53002070BD022070BD01F066
:103D90000F01C1EBC10100EB8100D0F814027047A4
:103DA0002DE9F04104460F0601F00F00C0EBC00101
:103DB00004EB81014FF001064FF0000503D581F8B7
:103DC0003D603C3103E081F8FD5101F5FE71087062
:103DD0008A60CB704A7802B1C880022B00D10D7185
:103DE00094F8BC03012809D084F8BC63206802F071
:103DF000E9FD284684F8BC53BDE8F0810220FBE7CA
:103E000070B50C4601F00F05C5EBC50100EB810153
:103E1000C1F81032C1F808220023C1F8143281F829
:103E2000FD3181F8FC51036901F5FE71012B00D1D0
:103E30000A612207027C006803D003F0B7F8002073
:103E400070BD02F0A3FFFAE770B504460D4601F01D
:103E50000F006168884201D9012070BD29064FF02A
:103E600000064FF0010207D5C0EBC00104EB810151
:103E700081F83D203C3107E0C5EBC50104EB810131
:103E800081F8FD6101F5FE718A70087094F8BC0339
:103E9000012807D084F8BC23206803F05BF82807CA
:103EA00002D007E0022070BD217C04F57172206809
:103EB00002F0F8FF84F8BC63002070BD70B50C46BA
:103EC00001F00F05C5EBC50100EB81010B658A64AC
:103ED00000234B65012381F83D3001F83C5F036905
:103EE000012B00D10A612207027C006803D003F095
:103EF0005DF8002070BD02F049FFFAE72DE9FC5F94
:103F000005680446284603F07AF900287ED1206827
:103F100003F0A1F9002879D0206803F09CF980070C
:103F200004D52068416901F002014161206803F075
:103F300092F9C10604F57170009034D5206881694A
:103F400021F0100181612F6A07F00F00C0EBC00063
:103F500004EB8006C7F3434006F5FE76022802D044
:103F6000062811D01AE047F6F070074216D0C7F3C2
:103F70000A1217462846F16803F071F9F0683844D0
:103F8000F060B069384408E008222846009903F040
:103F900066F9B169C7F30A100844B0612068816905
:103FA00041F010018161206803F055F900034FF0E2
:103FB00001094FF0080B5BD50026206803F02AF9B1
:103FC0000746DFF8A4A351E0F8074DD0F1B220680E
:103FD00003F039F98046C00707D005EB4611C1F858
:103FE000089B3146204601F001FC5FEA087022D5AB
:103FF00005EB4611C1F808BB2068026C00EB4610C7
:104000000192D0F8081B524507D900E0A9E1090444
:1040100003D54FF40041C0F8081B204600F09AFA7F
:104020000198504507D92069012804D12068012151
:10403000009A02F037FF5FEAC86004D505EB46112D
:104040001020C1F8080B5FEA886004D505EB461123
:104050002020C1F8080B5FEA884005D505EB461122
:104060004FF40050C1F8080B7F08761C002FABD12D
:10407000206803F0F0F840034FF0000A5CD5206898
:1040800003F0C1F80746002654E0F80750D0F1B21B
:10409000206803F0C6F88046C00723D006F00F0260
:1040A00009FA02F0D5F834288243C5F8342805EB24
:1040B0004610C0F80899206901280FD1C6EBC60048
:1040C00004EB8000D0E911211144816436B9206DE0
:1040D00020B920680121009A02F0E4FEF1B22046E6
:1040E000FFF7EAFD5FEA087003D505EB4611C1F85A
:1040F00008B95FEAC86004D505EB46111020C1F885
:1041000008095FEA486004D505EB46114020C1F874
:1041100008095FEA887004D505EB46110220C1F852
:1041200008095FEA086003D53146204601F0C4FB68
:104130007F08761C002FA8D1206803F08CF8002897
:1041400011DAD5F8040820F00100C5F8040894F845
:10415000F403012839D0204600F0E0F920684169D5
:1041600001F000414161206803F075F800050BD5AE
:10417000D5F80808C00702D0204600F013FA2068DE
:10418000416901F400614161206803F064F80001B5
:104190000AD52068416901F00061416194F8F40397
:1041A000D0B1204600F0FEF9206803F054F8C004B6
:1041B00076D5D5F8040820F00100C5F804081021D0
:1041C000206802F0FDFF002135E084F8F4A300210F
:1041D0002046FFF717FDC1E784F8F4932068406D8F
:1041E0000121C0F38300C4F8F8032046FFF70AFD5D
:1041F000DAE700BF05EB41104FF67F32C0F808291F
:10420000D0F8003923F40013C0F80039D0F8003991
:1042100043F00063C0F80039C0F8082BD0F8002B39
:1042200022F40012C0F8002BD0F8002B42F00062FC
:10423000C0F8002B491C60688842DBD8D5F81C0800
:1042400040F00110C5F81C08206B60B1D5F8840857
:1042500040F00B00C5F88408D5F8440840F00B0086
:10426000C5F844080CE0D5F8141842F22B000143BD
:10427000C5F81418D5F8100840F00B00C5F8100860
:10428000D5F8000820F4FE60C5F80008217C2068FD
:10429000009A02F007FE2068416901F480514161F3
:1042A000206802F0D8FF800415D5206802F0CAFB10
:1042B000206802F097FFE06000F03EFC0146227BA0
:1042C000206803F003F8204600F012F920684169E5
:1042D00001F400514161206802F0BDFF000707D5DD
:1042E000204600F01FF92068416901F00801416192
:1042F000206802F0B0FFC00208D50021204600F07F
:1043000035F82068416901F480114161206802F0AC
:10431000A2FF800208D50021204600F02BF820687B
:10432000416901F400114161206802F094FF4000EE
:1043300007D52046FFF7BCFC2068416901F08041A9
:104340004161206802F087FF40070AD52068456870
:10435000680702D52046FFF7C2FC20684168294360
:104360004160BDE8FC9F00000A30544FD0F80404BF
:1043700002F084B8D0F8040402F082B82DE9F041CC
:104380008AB0040005D094F8BD032668002520B14A
:1043900008E001200AB0BDE8F08184F8BC53204653
:1043A00000F064F8032084F8BD03F06BC00500D46E
:1043B0002561206802F0E4FC04F1100128228846FF
:1043C0006846FEF76EF994E80F0002F049FB0226FA
:1043D000C8BB0021206802F050FF002001270EE03A
:1043E000C0EBC00104EB810181F83D7001F83C0F86
:1043F000C880CD708D60CD60401CC0B24D616168D9
:104400008142EDD8002011E0C0EBC00104EB810136
:1044100081F8FD5181F8FC0181F8FF51C1F8045287
:10442000C1F80852401CC0B2C1F810526168814204
:10443000EAD8282241466846FEF733F994E80F008F
:1044400002F0E6FB10B184F8BD63A2E784F83850AF
:1044500084F8BD73606A012802D12046FFF7BEFBD5
:10446000206802F0C7FB002094E7000010B586B07A
:10447000044614216846FEF73BF92068B0F1A04FCE
:104480002FD119480021026842F001020260006841
:1044900000F0010005904FF4C05000900220CDE9DB
:1044A0000101032003900A20049069460F48FFF79A
:1044B000A7F90D48001D016841F0800101600A481C
:1044C0001430016841F4804101600068002200F46A
:1044D0008040059011464320FFF74EFB4320FFF735
:1044E0003DFB06B010BD0000303802400000024025
:1044F00070B50446C068012570B1022801D0FEF7EE
:10450000B4FD2946D4F8040402F010F8D4F80404E9
:10451000BDE8704001F0CBBF0025F2E7D0F80404FD
:1045200001F0EEBFD0F8040401F0F4BF10B504466A
:1045300090F8BC0301280BD0012084F8BC0384F858
:104540003810206802F0B0FE002084F8BC0310BDD3
:10455000022010BDD0F8042400F57171104601F05E
:10456000F1BF10B50446006894F8BC13012906D0C9
:10457000012184F8BC13A16A012902D008E00220BD
:1045800010BDA169012903D0816B41F480318163A1
:10459000206802F0FFFD206802F01EFB002084F876
:1045A000BC0310BD10B50446D0F8040402F00CF8AA
:1045B0002068D0F8001E41F00101C0F8001E206AFA
:1045C000002804D00248016841F00601016010BDD6
:1045D00010ED00E02DE9F84F044600260078F84D74
:1045E0003746C00708D02868A16B20F0C060084398
:1045F0002860A06B00B901262078800708D52868BC
:10460000E16B20F0C05008432860E06B00B9012640
:10461000207840070ED52868216B20F4401008430D
:104620002860206BB0F5801F01D010B102E0012698
:1046300000E00127207800070ED52868616B20F480
:10464000400008432860606BB0F5800F01D010B1C6
:1046500002E0012600E0012720784FF0000A8006E2
:104660004FF0010B63D5D6484C38016841F08051BA
:1046700001600068DFF84C9300F080500090D9F89A
:10468000001041F48071C9F80010FFF79FF98046CF
:1046900006E000BFFFF79AF9A0EB080002286FD8E8
:1046A000D9F80000C005F5D5DFF81483A8F11C087F
:1046B000D8F8000010F4407024D0B4F8401001F491
:1046C000407181421ED0D8F80010BF4A21F44071D9
:1046D000C2F800B0C2F800A0C8F80010D8F8000076
:1046E000C0070FD0FFF772F9814607E0FFF76EF9B8
:1046F000A0EB090141F288308142D0D8D8F80000FF
:104700008007F3D5216CAE48C1F301228438032A17
:1047100037D0016821F4F811C0F80010D8F8001063
:10472000B4F84020C2F30B021143C8F800102078FF
:10473000C00604D5A54894F85810C0F8E0112078B8
:104740000106A34805D50168E26C21F4400111433C
:1047500001602178490605D50168A26C21F08061CD
:10476000114301602188C90514D50168626D21F0EB
:10477000006111430160616DB1F1006F09D009E082
:104780001DE10268934B22F4F81219400A430260BB
:10479000C4E701272188890505D50168626C21F0ED
:1047A0008051114301602188DFF82C92490509D519
:1047B0000168226D21F0005111430160206DB0F1BC
:1047C000005F04D01EB92068B0F5006F7ED1834928
:1047D000C1F868A0FFF7FAF8794E80468C3E05E0F4
:1047E000FFF7F4F8A0EB0800022886D83068000133
:1047F000F6D421687A48CA0701D0A26B1AB189079A
:1048000017D5E16BA9B901680268C1F30141491CE0
:10481000D4E9013C43EA8C1321F0004CC2F303625B
:1048200009EB0C4141EA02610B43217D43EA01712E
:10483000016021684A0703D5226BB2F5801F05D0BD
:10484000090721D5616BB1F5800F1DD101680268A0
:10485000C1F30141491CD4E9013C43EA8C1321F026
:10486000004C09EB0C4194F810C0C2F3027241EA0B
:104870000C610B4343EA027101602968A26A21F0CE
:104880001F01521E11432960218849051AD5216D47
:10489000B1F1005F16D101680268C1F30141491C02
:1048A000D4E9013C43EA8C13D4F80CC0C2F3027281
:1048B0004FEA5C0809EB084C4CEA41610B4343EAC0
:1048C000027101602188090511D500E01FE0D4E9DB
:1048D000011241EA8211E268530809EB0342237C8A
:1048E00042EA03621143227D41EA027101603B49C1
:1048F000C1F868B0FFF76AF8804605E0FFF766F890
:10490000A0EB0800022874D830680001F6D5EFB398
:10491000DFF8C880C8F870A0FFF758F8304E074697
:10492000843E04E0FFF752F8C01B022861D83068CB
:10493000C0438000F6D521682A484A0701D5226B7A
:104940001AB109071DD5616BD9B90168D4E90623ED
:10495000C1F30141491C42EA831221F0004309EBF3
:10496000034194F8243041EA03610A430260296854
:10497000E26A6FF0FF0321F4F85103EB02221143C6
:1049800029602188C90514D5616D00E038E0B1F1D6
:10499000006F0ED10168D4E9062342EA8312236A2C
:1049A000C1F303615C0809EB044343EA01610A4374
:1049B0000260C8F870B0FFF709F804461CE018E080
:1049C0008C38024000700040400E474200104742C1
:1049D00094380240FFFCFF0F0000FFFF0000474239
:1049E0008438024088380240FEF7F0FF001B02289E
:1049F00002D90320BDE8F88F3068C0438000F3D4AB
:104A00000020F7E72DE9F0470E46050065D0DFF8F6
:104A10001481D8F80000F7B200F00F00B04207D2BE
:104A200088F80070D8F8000000F00F00B04254D1B0
:104A300028683D4C810712D5400703D5206840F413
:104A4000E05020602878000703D5206840F46040DB
:104A500020602068A96820F0F000084320602878D2
:104A6000C0072DD0304968680839012812D00228C3
:104A700013D0032811D00968890700292DDA21688D
:104A800021F0030101432160FEF7A0FF814641F2BE
:104A9000883A0EE009688903EFE709688901ECE7C5
:104AA000FEF794FFA0EB0901514502D90320BDE8B0
:104AB000F0872068696800F00C00B0EB810FEFD13F
:104AC000D8F80010404601F00F01B14207D9077035
:104AD000006800F00F00B04201D00120E7E728781D
:104AE000400705D52068E96820F4E05008432060BD
:104AF0002878000706D52068296920F4604040EA3C
:104B0000C100206000F01EF82168084AC1F30311BB
:104B1000515CC8400649086006480068FEF7E6FF99
:104B20000020C4E7003C02400838024074B300088B
:104B3000240000201C00002001480068704700008D
:104B400024000020224810B5006810F00C02214813
:104B500015D02149042A11D01D4C241F082A0FD03A
:104B60000C2A0CD12268236802F03F025B0221D597
:104B70002068C0F38810A0FB010120E0084610BDAA
:104B80002268236802F03F025B0205D52068C0F36B
:104B90008810A0FB010104E02168C1F38811A1FB8A
:104BA00000010023FDF7FAFC2168C1F30141491C13
:104BB00049000AE02168C1F38811A1FB000100232C
:104BC000FDF7ECFC2168C1F30271B0FBF1F010BD00
:104BD000083802400024F400001BB7002DE9F84F0C
:104BE0000546DFF828B30078ABF10407C007A7F14A
:104BF000040451D0DBF800105846C1F381010129AB
:104C00000FD00168C1F38101022902D1396849023C
:104C100007D40068C0F38100032809D13868400236
:104C200006D52068800337D56868002872D033E045
:104C30006868B0F5803F10D0B0F5A02F206810D084
:104C400020F480302060206820F480202060686894
:104C5000A8B1FEF7BBFE06460DE0206840F48030A8
:104C6000F4E740F480202060F7E700BFFEF7AEFED7
:104C7000801B642878D820688003F7D50CE0FEF705
:104C8000A5FE064605E000BFFEF7A0FE801B6428D7
:104C9000F0D820688003F7D42878DFF87492800772
:104CA0004FF0000A46D5DBF80010584611F00C0F03
:104CB0000FD00168C1F38101022902D1396849028C
:104CC00007D50068C0F38100032809D13868400285
:104CD00006D42068800715D5E86801281AD111E0AC
:104CE000E868C0B10120C9F80000FEF76FFE064673
:104CF00005E000BFFEF76AFE801B0228BAD82068D4
:104D00008007F7D52068296920F0F80040EAC10043
:104D100020600FE0F7E0C9F800A0FEF757FE064656
:104D200005E000BFFEF752FE801B02281CD8206859
:104D30008007F7D42878000727D5DFF8D081754899
:104D4000696908F16C0881B101210160FEF73EFE3E
:104D5000064604E0FEF73AFE801B022804D8D8F885
:104D600000008007F6D510E089E0C0F800A0FEF74B
:104D70002DFE064605E000BFFEF728FE801B022838
:104D80007DD8D8F800008007F6D42878400769D588
:104D90005E484FF0000838300068C0000BD45B4814
:104DA0003830016841F08051016000684FF001081F
:104DB00000F080500090584E3068C00511D4306823
:104DC00040F480703060FEF701FE009006E000BF06
:104DD000FEF7FCFD0099401A022850D83068C00543
:104DE000F6D54A4EA868683601280FD005283068E5
:104DF00010D020F001003060306820F004003060F6
:104E0000A868B8B1FEF7E2FD00900FE0306840F00E
:104E10000100F4E740F004003060F7E7FEF7D6FD4C
:104E20000099411A41F28830814264D83068800785
:104E3000F4D50EE0FEF7CAFD009007E0FEF7C6FDD0
:104E40000099411A41F28830814254D83068800775
:104E5000F4D4B8F1000F05D02C483830016821F0A7
:104E600080510160A869A8B3DBF80010C1F381018B
:104E7000022948D00228C9F860A005D000E03AE035
:104E8000FEF7A4FD054639E0FEF7A0FD064604E066
:104E9000FEF79CFD801B02282DD820688001F7D4E6
:104EA000F5E907010843E9681C4A490802EB01419A
:104EB000AA6841EA82110843297C40EA0160297D01
:104EC00040EA017038600120C9F86000FEF77EFDFD
:104ED000054606E015E000BFFEF778FD401B0228FE
:104EE00009D820688001F7D50BE000BFFEF76EFD02
:104EF000401B022802D90320BDE8F88F20688001FA
:104F0000F4D40020F8E70120F6E70000083802405A
:104F100000004742800E4742007000400000FFFF43
:104F200010B5401EB0F1807F01D3012010BD4FF0BD
:104F3000E02460610F21601702F0CFFA0020A06129
:104F400007202061002010BD7047704770B590F8B1
:104F50003C20012A32D0012480F83C40022280F813
:104F60003D2003685A689D6822F070060A68324343
:104F70005A60134B02689A4214D0B2F1804F11D09C
:104F8000104B9A420ED0104B9A420BD00F4B9A42C4
:104F900008D00F4B9A4205D00E4B9A4202D00E4BCE
:104FA0009A4204D1496825F080031943916080F842
:104FB0003D40002180F83C10084670BD022070BDC5
:104FC000000001400004004000080040000C0040C8
:104FD00000040140004001400018004010B50400EA
:104FE00003D094F83D0010B107E0012010BD00206F
:104FF00084F83C00204600F00DF8022084F83D00C3
:10500000211D206800F0B2FD012084F83D00002041
:1050100010BD000008B50068B0F1804F12D10A48F9
:10502000016841F0010101600068002200F0010008
:10503000009011461C20FEF79FFDBDE808401C2093
:10504000FEF78CBD08BD0000403802400168CA6808
:1050500042F00102CA600068816801F00701062978
:1050600003D0016841F0010101600020704770B574
:10507000044690F83C00012817D0012584F83C50E4
:10508000022084F83D002068826822F0770222F432
:105090007F4282600868502830D00DDC20284DD037
:1050A00005DC98B310283BD148E0022070BD3028C1
:1050B00044D0402834D139E0602828D0702806D068
:1050C000B0F5805F2CD0B0F5005F29D10AE0CB6845
:1050D000D1E90121206800F0ADFD2068816841F030
:1050E000770109E0CB68D1E90121206800F0A2FD39
:1050F0002068816841F48041816011E0CA68496894
:10510000206800F0A9FD5021206807E016E0CA6879
:105110004968206800F0B1FD6021206800F094FD2E
:1051200084F83D50002084F83C0070BDCA6849688E
:10513000206800F091FD40212068EFE722680146D9
:105140001046EBE7704770B50446006801694FF000
:105150000005C943890715D4C168C943890711D41B
:10516000E91E0161012020772068806980072046C0
:1051700002D0FFF7E7FF04E000F098F8204600F0C7
:1051800096F8257720680169C943490717D4C16893
:10519000C943490713D46FF004010161022020774D
:1051A0002068806910F4407F204602D0FFF7CAFFD4
:1051B00004E000F07BF8204600F079F825772068BD
:1051C0000169C943090716D4C168C943090712D444
:1051D0006FF008010161042020772068C069800712
:1051E000204602D0FFF7AEFF04E000F05FF8204653
:1051F00000F05DF8257720680169C943C90617D416
:10520000C168C943C90613D46FF0100101610820B9
:1052100020772068C06910F4407F204602D0FFF755
:1052200091FF04E000F042F8204600F040F82577B6
:1052300020680169C943C90708D1C168C943C907C2
:1052400004D1891E0161204600F032F8206801690E
:10525000C943090609D4C168C943090605D46FF0DA
:10526000800101612046FFF76FFE20680169C94394
:10527000490609D4C168C943490605D46FF0400105
:105280000161204600F015F820680169C9438906CC
:105290000BD4C168C943890607D46FF020010161AE
:1052A0002046BDE87040FFF750BE70BD70477047A4
:1052B00070477047FEE7000070B586B0002400F02C
:1052C00061FB4FF40075002001210095CDE901013B
:1052D0000A4E039069463046FEF792FA691030464E
:1052E000FEF762FB28B129463046FEF75DFB00B1B0
:1052F000012400F033FB06B0204670BD00080240D8
:1053000070B5104D4FF40074002221462846FEF778
:1053100057FB012211022846FEF752FB00F044FB26
:10532000022003F01DFE012221462846FEF748FB1D
:10533000022003F015FE21462846BDE870400022F9
:10534000FEF73EBB000802402DE9F04780460024EE
:1053500000F018FB234E00254FF400774FF48079BE
:10536000002239463046FEF72BFB022003F0F8FD01
:10537000012239463046FEF723FB6006040E4946FB
:105380003046FEF711FB08B1641CE4B2022003F0C2
:10539000E7FD6D1CEDB2082DE2D3B8F1000F1ED071
:1053A000002239463046FEF70BFB002249463046C4
:1053B000FEF706FB00F0F8FA022003F0D1FD01220F
:1053C00039463046FEF7FCFA022003F0C9FD002200
:1053D00039463046FEF7F4FA2046BDE8F087FFF77D
:1053E0008FFFF9E7000802402DE9F041174E05460E
:1053F0004FF40077002239463046FEF7E1FA4FF4C9
:105400008078012241463046FEF7DAFA00F0CCFA05
:105410000024EA0941463046FEF7D2FA6806050E36
:10542000022003F09DFD012239463046FEF7C8FAFE
:10543000022003F095FD002239463046FEF7C0FAFF
:10544000641CE4B2082CE4D3BDE8F08100080240FB
:1054500070B501220F4D140221462846FEF7B0FA1E
:1054600000F0A2FA0122560231462846FEF7A8FAB9
:10547000022003F075FD002221462846FEF7A0FA1F
:10548000022003F06DFD31462846BDE87040002241
:10549000FEF796BA0008024070B5114D4FF48074C3
:1054A000002221462846FEF78BFA00F07DFA6600BE
:1054B000002231462846FEF783FA022003F050FD11
:1054C000012231462846FEF77BFA01222146284672
:1054D000FEF776FABDE87040022003F041BD0000FF
:1054E000000802402DE9F0410024022003F038FDBD
:1054F0000122144D560231462846FEF761FA01207A
:1055000003F02EFDAF150BE0641CE4B2022C04D9AD
:10551000FFF7C2FF0020BDE8F081012003F020FD6D
:1055200039462846FEF740FA0028EDD1C4F10200C2
:1055300003F016FD002231462846FEF741FA01200D
:10554000E9E7000000080240F0B500230A243025F6
:1055500037261F4611E000BFB4EB107F02D905EBE0
:10556000107C01E006EB107C01F813C001EB430C4A
:1055700000015B1C8CF80170DBB29342ECD3F0BDF0
:1055800000B58BB001210020CDE906010891009003
:105590001421CDE90401019002900390102009909C
:1055A00069460848FDF7E4FD0648FEF7E3F81321D5
:1055B0000448FDF75CFD002801D0FDF756FD0BB057
:1055C00000BD000054020020104810B50E490160D3
:1055D0000321416000214FF480228160C0E9031261
:1055E0004FF4401242610176012242768176C17603
:1055F00001774177FDF7B5FF002803D0BDE81040E3
:10560000FDF733BD10BD00000068004054020020CB
:105610002DE9F04F87B014216846FDF769F83C4842
:105620000024016841F004010160016801F00401F7
:105630000591016841F080010160016801F080017D
:105640000591016841F002010160016801F0020169
:105650000591016841F001010160016801F001015B
:105660000591016841F0080101600068DFF8A4B00D
:1056700000F0080046F21105059000222946584620
:10568000FEF79EF901260095CDE90164694658466A
:105690000394FEF7B5F830024FF0120A0325CDE966
:1056A000000ADFF87480CDE9026504276946049793
:1056B0004046FEF7A5F8F003CDE9000469464046F0
:1056C0000294FEF79DF830034FF00208CDE9000880
:1056D00002AA4FF0080982E8300269465846FEF7F0
:1056E0008FF802AA694682E83002CDE900780B48BB
:1056F000FEF786F81020CDE9000ACDE9026569467B
:1057000004970748FEF77CF807B0BDE8F08F00006B
:10571000303802400008024000000240000C024005
:105720000004024010B586B000241648009401948D
:105730000294039404944FF080410594016041F673
:105740001F41C0E901142821C0E903148461FFF757
:1057500045FC08B1FDF789FC4FF480500090694684
:105760000848FFF784FC08B1FDF77FFC049404A906
:1057700004480594FFF7EAFB002801D0FDF775FC0B
:1057800006B010BD7C02002010B500220F49104861
:1057900000F069FD08B1FDF768FC0E490C4800F007
:1057A0003BFF08B1FDF761FC0B49094800F071FBB4
:1057B00008B1FDF75AFC064800F0A8FF002803D006
:1057C000BDE81040FDF751BC10BD000028000020CE
:1057D000BC0200207801002088000020FEE7FEE7E0
:1057E0000148FEF78BBB00008C1700202DE9F0412B
:1057F00003680D4604461E6C03EB4511D1F8080BF7
:10580000D4F810E04FF400474FF0200C04F571720B
:10581000BEF1010F09D0DFF898E0764539D10204D6
:1058200032D500BFC1F8087B3FE0224B5FEA007E23
:1058300004D59E4239D90004F4D436E05FEA806E84
:1058400002D5C1F808CB30E010F0280F2DD19E42D0
:1058500001D90004E6D4C5EBC50004EB8000D1F803
:10586000101BD0F80432C1F31201591AC0F81412F7
:10587000D0F808121944C0F8081295B9D4F81002EB
:1058800078B9012120680AE080060AD5C1F808CB62
:1058900007E035B9D4F8100218B90021184601F014
:1058A00001FBE9B22046FEF710FA0020BDE8F081C6
:1058B0000A31544F0A30544F2DE9F84F0E46C1EBD0
:1058C000C60100EB810481460568D4E914103C341C
:1058D000884202D90120BDE8F88F081AA1688142E8
:1058E00000D20846C01C870805EB46181BE000BF25
:1058F000A0EB010AA068504500D282460AF10300DD
:10590000870899F8100000901FFA8AF3F2B228462F
:10591000E16801F04FFDE16801EB0A00E060A16978
:1059200001EB0A00A061D8F8180980B2B84205D38B
:10593000D4E90501814201D20028D9D1D4E9050179
:10594000884208D806F00F0101208840D5F83418A5
:105950008143C5F834180020BDE7704700B585B015
:105960004FF400700090112001900120029000205F
:10597000039069460248FDF743FF05B000BD0000F3
:105980000008024000B585B04FF480700090002000
:105990000121CDE90101039069460248FDF730FF7E
:1059A00005B000BD0008024000B585B04FF480701E
:1059B0000090112001900120029000200390694680
:1059C0000248FDF71DFF05B000BD000000080240C1
:1059D00070470178407841EA002070471CB5007894
:1059E0001C4B40F0905058608DF80010080A8DF85C
:1059F000010000208DF802008DF80300662A02D015
:105A0000732A13D01EE010EE100A1349020E030C85
:105A10000A704B70040A8C70C8708DF804008DF801
:105A200005408DF806308DF807200BE0BCEEC00A6B
:105A300010EE101A8DF804108DF805008DF8060090
:105A40008DF80700044B6A461B1F02490348FDF707
:105A500020FB1CBD1C02002004000020540200207A
:105A600010B5084C012251022046FDF7A9FF012282
:105A700011022046FDF7A4FFFFF770FFBDE81040BC
:105A8000FFF792BF00080240FEF70EB830B5ABB08A
:105A9000342117A8FCF72CFE142124A8FCF728FEBB
:105AA0005C216846FCF724FE24480025016841F08B
:105AB00080510160006800F0805029902048016802
:105AC00021F4404141F4804101600068022400F467
:105AD0004040299001201790000418908001CDE9E2
