:020000040800F2
:1000000008090020DD010008BF110008C50E000826
:10001000BD110008E9020008A51300080000000057
:10002000000000000000000000000000C3110008F4
:10003000EB02000800000000C1110008C511000813
:10004000F7010008F7010008F7010008F7010008B0
:10005000F7010008F7010008F7010008F7010008A0
:10006000F7010008F7010008F7010008F701000890
:10007000F7010008F7010008F7010008F701000880
:10008000F7010008F7010008F7010008F701000870
:10009000F7010008F7010008F7010008F701000860
:1000A000F7010008F7010008F7010008F701000850
:1000B000F7010008F7010008F7010008F701000840
:1000C000F7010008F7010008F7010008F701000830
:1000D000F7010008F7010008F7010008F701000820
:1000E000F7010008F7010008F7010008F701000810
:1000F000F7010008F7010008F7010008F701000800
:10010000F7010008F7010008F7010008F7010008EF
:10011000F7010008F7010008F7010008F7010008DF
:10012000F7010008F7010008F7010008F7010008CF
:10013000F70100080000000000000000F7010008BF
:10014000F7010008F7010008F7010008F7010008AF
:10015000F7010008F7010008F7010008F70100089F
:10016000F7010008F7010008F7010008F70100088F
:10017000F7010008F7010008F7010008000000007F
:1001800000000000F701000800000000000000006F
:10019000F70100080000000000000000F70100085F
:1001A000000000000000000000000000F70100084F
:1001B000F7010008F7010008F7010008F70100083F
:1001C000F7010008DFF810D000F07CF80048004785
:1001D00031140008AFF3008008090020064880476A
:1001E00006480047FEE7FEE7FEE7FEE7FEE7FEE71C
:1001F000FEE7FEE7FEE7FEE761120008C501000822
:100200002DE9F05F0546002092469B46884606464B
:10021000814640241BE0284641464746224600F0DE
:1002200041F853465A46C01A914110D31146184618
:10023000224600F028F82D1A67EB01084F462246A7
:100240000120002100F01FF817EB00094E41201E8D
:10025000A4F10104DFDC484631462A464346BDE8A6
:10026000F09FD2B201E000F8012B491EFBD270478B
:100270000022F6E710B513460A4604461946FFF772
:10028000F0FF204610BD202A04DB203A00FA02F1DC
:10029000002070479140C2F1200320FA03F3194374
:1002A00090407047202A04DB203A21FA02F0002116
:1002B000704721FA02F3D040C2F120029140084376
:1002C00019467047064C074D06E0E06840F0010310
:1002D00094E8070098471034AC42F6D3FFF776FF56
:1002E000C4140008E4140008FEE7704772B6FEE785
:1002F000F0B590F820500468A468012D05D0022DB7
:1003000003D0416A41F480215DE014F0406F01D1D7
:10031000E50055D5C4F30164022C03D9416A41F4C8
:10032000000150E00125A5401D608D684FF4C073A9
:100330009DB1CE6835434E6845EAC605066803EBB5
:100340000417F5514FF4C275076805EB04150E69E3
:100350007E51097D012905D009E00E88CD6845EA66
:100360004655EBE701684E5946F480764E511179B7
:10037000D579567941EA056195792D0445EA062536
:1003800029434FF4C676056806EB0416A951117887
:10039000D57841EA0561957852782D0445EA022224
:1003A00011434FF4C475026805EB04155151006800
:1003B00003EB0411425842F0010242500020F0BD0C
:1003C000416A41F4001141620120F0BD70B50400A2
:1003D00003D094F8200010B104E0012070BD204645
:1003E00000F082F82068016821F00201016000F04D
:1003F000A5F90546052604E000F0A0F9401B0A28EF
:1004000011D8206840688007F6D42068016841F060
:100410000101016000F092F905460BE000F08EF951
:10042000401B0A2806D9606A40F40030606284F8F4
:100430002060D2E720684068C007EFD0207E012806
:10044000206801683DD021F080010160607E0128B4
:100450002068016838D021F040010160A07E0128A9
:100460002068016833D021F020010160E07E01287E
:10047000206801682ED041F010010160207F012822
:100480002068016829D021F008010160607F0128FF
:100490002068016824D021F004010160D4E9020140
:1004A0000843D4E90412114308436168491E084314
:1004B0002168C86100206062012084F820000020CB
:1004C00070BD41F08001C0E741F04001C5E741F057
:1004D0002001CAE721F01001CFE741F00801D4E77D
:1004E00041F00401D9E7000010B586B0044614219C
:1004F0006846FFF7BDFE18492068884229D1174891
:100500000021026842F080620260026802F08062AC
:100510000592026842F000720260006800F000700C
:1005200005900E481038026842F00202026000682E
:1005300000F0020005904FF4405000900220CDE9F9
:10054000010103200390092004906946044800F04B
:100550001BF806B010BD00000068004040380240A3
:100560000004024070B5044600F0E8F80546601C3F
:1005700002D004480078044400F0E0F8401BA04298
:10058000FAD370BD140000202DE9F84F00224FF07F
:10059000010803254FF00F0E0B6808FA02F4234000
:1005A000A3426ED14E68012E05D0022E03D0112E2B
:1005B00001D0122E12D186684FEA420C05FA0CF7D0
:1005C000BE43CF6807FA0CF7374387604668A643F7
:1005D0000C79C4F30014944034434460C668570057
:1005E00005FA07FC8C6826EA0C06BC403443C4605C
:1005F0004C68022C01D0122C13D1D40800EB8404D7
:10060000A346D4F8209054074FEAD46A0EFA0AF6AB
:1006100029EA06090E6906FA0AF646EA0906CBF83F
:10062000206006680C7926EA0C0604F00304BC403E
:10063000344304604C68E40060D5334C266846F4CB
:1006400080462660246822F0030604F48044009467
:100650002E4C3444A446D4F808489607370F0EFAB7
:1006600007F6B4432A4EB04201D100261FE0294EBE
:10067000B04201D101261AE0274EB04202D1022633
:1006800015E03BE0254EB04201D103260FE0244E99
:10069000B04201D104260AE0224EB04201D1052623
:1006A00005E0214EB04201D1062600E00726BE40FB
:1006B0002643CCF808681D4E34684F689C43FF03FE
:1006C00000D51C433460194E361D34684F689C4376
:1006D000BF0300D51C433460144E083634684F689D
:1006E0009C43FF0200D51C433460104E0C36346826
:1006F0004F689C43BF0200D51C433460521C102A33
:10070000FFF44AAFBDE8F88F4438024000300140A2
:10071000000002400004024000080240000C0240B9
:10072000001002400014024000180240003C01404A
:100730000AB1816170470904FBE700000148806845
:1007400070470000140000200248816802781144BC
:1007500081607047140000200B4810B5016841F417
:1007600000710160016841F480610160016841F439
:1007700080710160032000F061F8002000F006F8AD
:1007800000F024F8002010BD003C024070B50D4D73
:1007900004464FF47A712878B1FBF0F00A490968F1
:1007A000B1FBF0F000F004FB48B9102C07D2002296
:1007B0002146501E00F022F800206C6070BD012020
:1007C00070BD000014000020200000200A4808B579
:1007D000016841F480410160006800F480400090AD
:1007E0000548001F016841F080510160006800F079
:1007F0008050009008BD000044380240F0B40E4B19
:100800001B680C46C3F30223C3F10705042D00D96E
:100810000425191D072901D2002300E0DB1E012653
:1008200006FA05F1491E214099409E40761E164069
:100830003143F0BC00F0B7BD0CED00E0064900F01C
:10084000070208684FF6FF03184040EA0220034AF7
:1008500010430860704700000CED00E00000FA054E
:100860002DE9F0470E46050065D0DFF81481D8F871
:100870000000F7B200F00F00B04207D288F8007015
:10088000D8F8000000F00F00B04254D128683D4C69
:10089000810712D5400703D5206840F4E05020605E
:1008A0002878000703D5206840F460402060206865
:1008B000A96820F0F000084320602878C0072DD0F8
:1008C000304968680839012812D0022813D003285B
:1008D00011D00968890700292DDA216821F0030168
:1008E00001432160FFF72AFF814641F2883A0EE07A
:1008F00009688903EFE709688901ECE7FFF71EFF44
:10090000A0EB0901514502D90320BDE8F08720681A
:10091000696800F00C00B0EB810FEFD1D8F800103F
:10092000404601F00F01B14207D90770006800F09E
:100930000F00B04201D00120E7E72878400705D535
:100940002068E96820F4E050084320602878000718
:1009500006D52068296920F4604040EAC100206083
:1009600000F038F82168084AC1F30311515CC8400F
:100970000649086006480068FFF708FF0020C4E742
:10098000003C024008380240AC140008200000205F
:10099000180000200448054900680968044AC1F3AA
:1009A0008221515CC8407047200000200838024076
:1009B000BC1400080448054900680968044AC1F3EA
:1009C0004231515CC8407047200000200838024086
:1009D000BC140008224810B5006810F00C02214831
:1009E00015D02149042A11D01D4C241F082A0FD0EC
:1009F0000C2A0CD12268236802F03F025B0221D549
:100A00002068C0F38810A0FB010120E0084610BD5B
:100A10002268236802F03F025B0205D52068C0F31C
:100A20008810A0FB010104E02168C1F38811A1FB3B
:100A300000010023FFF7E4FB2168C1F30141491CD9
:100A400049000AE02168C1F38811A1FB00010023DD
:100A5000FFF7D6FB2168C1F30271B0FBF1F010BDC6
:100A6000083802400024F400001BB7002DE9F84FBD
:100A70000546DFF828B30078ABF10407C007A7F1FB
:100A8000040451D0DBF800105846C1F3810101295C
:100A90000FD00168C1F38101022902D139684902EE
:100AA00007D40068C0F38100032809D138684002E8
:100AB00006D52068800337D56868002872D033E0F7
:100AC0006868B0F5803F10D0B0F5A02F206810D036
:100AD00020F480302060206820F480202060686846
:100AE000A8B1FFF72BFE06460DE0206840F48030E9
:100AF000F4E740F480202060F7E700BFFFF71EFE18
:100B0000801B642878D820688003F7D50CE0FFF7B5
:100B100015FE064605E000BFFFF710FE801B6428A7
:100B2000F0D820688003F7D42878DFF87492800723
:100B30004FF0000A46D5DBF80010584611F00C0FB4
:100B40000FD00168C1F38101022902D1396849023D
:100B500007D50068C0F38100032809D13868400236
:100B600006D42068800715D5E86801281AD111E05D
:100B7000E868C0B10120C9F80000FFF7DFFD0646B4
:100B800005E000BFFFF7DAFD801B0228BAD8206815
:100B90008007F7D52068296920F0F80040EAC100F5
:100BA00020600FE0F7E0C9F800A0FFF7C7FD064698
:100BB00005E000BFFFF7C2FD801B02281CD820689B
:100BC0008007F7D42878000727D5DFF8D08175484B
:100BD000696908F16C0881B101210160FFF7AEFD80
:100BE000064604E0FFF7AAFD801B022804D8D8F8C7
:100BF00000008007F6D510E089E0C0F800A0FFF7FC
:100C00009DFD064605E000BFFFF798FD801B02280A
:100C10007DD8D8F800008007F6D42878400769D539
:100C20005E484FF0000838300068C0000BD45B48C5
:100C30003830016841F08051016000684FF00108D0
:100C400000F080500090584E3068C00511D43068D4
:100C500040F480703060FFF771FD009006E000BF47
:100C6000FFF76CFD0099401A022850D83068C00583
:100C7000F6D54A4EA868683601280FD00528306896
:100C800010D020F001003060306820F004003060A7
:100C9000A868B8B1FFF752FD00900FE0306840F04F
:100CA0000100F4E740F004003060F7E7FFF746FD8D
:100CB0000099411A41F28830814264D83068800737
:100CC000F4D50EE0FFF73AFD009007E0FFF736FDA0
:100CD0000099411A41F28830814254D83068800727
:100CE000F4D4B8F1000F05D02C483830016821F059
:100CF00080510160A869A8B3DBF80010C1F381013D
:100D0000022948D00228C9F860A005D000E03AE0E6
:100D1000FFF714FD054639E0FFF710FD064604E035
:100D2000FFF70CFD801B02282DD820688001F7D426
:100D3000F5E907010843E9681C4A490802EB01414B
:100D4000AA6841EA82110843297C40EA0160297DB2
:100D500040EA017038600120C9F86000FFF7EEFC3E
:100D6000054606E015E000BFFFF7E8FC401B02283F
:100D700009D820688001F7D50BE000BFFFF7DEFC43
:100D8000401B022802D90320BDE8F88F20688001AB
:100D9000F4D40020F8E70120F6E70000083802400C
:100DA00000004742800E4742007000400000FFFFF5
:100DB00010B5401EB0F1807F01D3012010BD4FF06F
:100DC000E02460610F21601700F0EDFA0020A061BF
:100DD00007202061002010BD70B5040004D094F8F5
:100DE0003900002510B106E0012070BD84F83850AC
:100DF000204600F023F8242084F839002068C168D8
:100E000021F40051C160204600F038FA20680169E1
:100E100021F4904101612068416921F02A0141617A
:100E20002068C16841F40051C160E563202084F866
:100E3000390084F83A00002070BD0000F0B587B09A
:100E4000044614216846FFF713FA1A4920688842BD
:100E50002DD11948016841F480110160006800F447
:100E60008010059014481038016841F004010160B9
:100E7000016801F004010591016841F00801016079
:100E80000068022400F0080005904FF4805001250E
:100E9000032608278DE8F10069460848FFF774FB30
:100EA00004208DE8F10069460548FFF76DFB07B0A7
:100EB000F0BD0000005000404038024000080240F1
:100EC000000C0240FEE7000038B50A4908226B46D4
:100ED0000A6104228A600022CA6082684A6004684B
:100EE00000F10C022046FFF703FA002800D0FEE7CD
:100EF00038BD0000EC00002010B502468068F0EE1E
:100F0000412A20F0F85000F18070B0EE603A906015
:100F1000F0EE613A1020B2EE081AFAEE080A00F07C
:100F200061FA01469068B2EE091A61F3172020F0C9
:100F3000604090601020FAEE090AB0EE430A00F01B
:100F400051FA000A10731020B2EE091AFAEE090ADB
:100F5000B0EE430A00F046FA50731020B3EE0E1ABA
:100F6000FBEE0E0AB0EE620A00F03CFA000A907343
:100F70001020B3EE0E1AFBEE0E0AB0EE620A00F07D
:100F800031FADFED1A2A9FED1A3AD0731020B0EE35
:100F9000621AF0EE430AB0EE630A00F023FA000A88
:100FA00010741020B0EE621AF0EE430AB0EE630A3D
:100FB00000F018FA50741020B1EE041AF0EE430A53
:100FC000B0EE420A00F00EFA000A90741020B1EE62
:100FD000041AF0EE430AB0EE420A00F003FAD074AD
:100FE000BDE810401046FFF76FBF00000000FA4355
:100FF00000000000826822F0F85202F14072826024
:10100000017209490A78816862F3172121F0604171
:10101000816000210A464318491CC9B21A73082985
:10102000F9D3FFF751BF00000000002081680A4A91
:1010300021F0F8511140002281600272816821F094
:101040006041816011464318491CC9B21A730829CE
:10105000F9D3FFF739BF0000FF0000FF01607047C0
:101060000F4810B50D4901600721416000214FF084
:101070008072C0E90212D21102615201426101760E
:1010800041768176C17601774177FFF79FF9002895
:1010900003D0BDE81040FFF729B910BD006800403B
:1010A000540000202DE9F04387B014216846FFF773
:1010B000DFF830480024016841F004010160016854
:1010C00001F004010591016841F0800101600168AF
:1010D00001F080010591016841F0020101600168A1
:1010E00001F002010591016841F001010160016810
:1010F00001F001010591016841F0080101600068FB
:101100001D4E00F0080046F2110505900022294608
:101110003046FFF70DFB00950125CDE901546946E6
:1011200030460394FFF730FA28021226CDE9000674
:1011300002AA03274FF00408DFF8409082E8A001DC
:1011400069464846FFF720FAE803CDE900046946FE
:1011500048460294FFF718FA1020CDE9000602AACB
:10116000694682E8A0010648FFF70EFA07B0BDE81D
:10117000F0830000303802400008024000000240C6
:10118000000402400C4810B50A4901604FF4E131F7
:101190004160002181600C22C160C0E904128161BC
:1011A000C161FFF719FE002803D0BDE81040FFF72A
:1011B0009DB810BD005000407C000020FEE7FEE717
:1011C00070477047FFF7C0BA30B593B03421684616
:1011D000FFF74EF814210DA8FFF74AF81E48002526
:1011E000016841F080510160006800F08050129069
:1011F0001A48016841F4404101600068022400F48B
:101200004040129001200090000401908001CDE93F
:10121000064006200890A820CDE909040720CDE962
:101220000B046846FFF722FC08B172B6FEE70DA971
:101230000F2081E831004FF4A05010904FF48050FF
:10124000119005210DA8FFF70BFB002801D072B605
:10125000FEE713B030BD000040380240007000408F
:101260000548016841F47001016003494FF00060D6
:10127000803908607047000088ED00E02DE9F041FA
:10128000044600680169E26821F44051114301619C
:101290002169A068E2690843616911430843216834
:1012A000CA6849F20C639A430243CA6020684169E4
:1012B000A26921F4407111434161E0691927642555
:1012C0003226B0F5004F354A354920684FF0000806
:1012D00006D0884201D0904236D1FFF76BFB35E053
:1012E000884201D0904202D1FFF764FB01E0FFF792
:1012F00051FB61684A18A0FB070148EB0803FEF7A1
:101300007FFF0146B0FBF5F00201B1FBF5F06FF095
:101310001803584301EB800006EBC000B0FBF5F06A
:1013200000F0F80002EB4002B1FBF5F0584301EB8E
:10133000800006EBC000B0FBF5F000F0070021686C
:1013400010448860BDE8F081FFF724FB61688B0FD3
:101350008A00A0FB0701FEF753FF0146B0FBF5F042
:101360006FF01802504301EB800006EB0010B0FB59
:10137000F5F000F0F002B1FBF5F002EB0012B1FB6A
:10138000F5F06FF01803584301EB800006EB0010F6
:10139000B0FBF5F000F00F00D1E7000000140140B1
:1013A00000100140FEE70907090E002804DB00F1E8
:1013B000E02080F80014704700F00F0000F1E020FA
:1013C00080F8141D704702E008C8121F08C1002AE7
:1013D000FAD170477047002001E001C1121F002AB6
:1013E000FBD1704771EE601AB4EEC10AF1EE10FA4B
:1013F00002DDB0EE410A08E0B0EE601AB4EEC10AB8
:10140000F1EE10FA01D2B0EE600A0121814070EED7
:10141000600A491E00EE101AB8EEC00A20EE800ADB
:10142000C0EE210ABDEEE00A10EE100A704700007F
:10143000FFF792F9FFF7C8FEFFF734FEFFF710FE43
:10144000FFF7A0FE164C002201212046FFF770F99D
:101450000A20FFF787F8012210212046FFF768F9DC
:101460000A20FFF77FF80F490F48FFF7F7FD0E48F6
:10147000FFF7DCFD00210C48FFF7BCFDB7EE002AAA
:10148000F7EE001AB2EE041AF2EE080AB1EE000A04
:101490000548FFF731FD0A20FFF764F8EEE700008A
:1014A000000802405400002024000020000000003A
:1014B0000000000001020304060708090000000004
:1014C00001020304E41400080000002024000000CE
:1014D000C61300080815000824000020E4080000D6
:1014E000D61300080100000000000000000000000A
:1014F00000000000000000000100000010000000DB
:08150000000000000024F400CB
:04000005080001C529
:00000001FF
