:020000040800F2
:1000000020090020DD010008B11C0008251A0008A5
:10001000311C0008490500086520000800000000A8
:10002000000000000000000000000000B51C0008F7
:100030005905000800000000B31C00083D1D000821
:10004000F7010008F7010008F7010008F7010008B0
:10005000F7010008F7010008F7010008F7010008A0
:10006000F7010008F7010008F7010008F701000890
:10007000F7010008F7010008F7010008F701000880
:10008000F7010008F7010008F7010008F701000870
:10009000F7010008F7010008F7010008F701000860
:1000A000F7010008F7010008F7010008F701000850
:1000B000FD1D0008F7010008F7010008F70100081E
:1000C000F7010008F7010008F7010008F701000830
:1000D000F7010008F7010008F7010008F701000820
:1000E000F7010008F7010008F7010008F701000810
:1000F000F7010008F7010008F7010008F701000800
:10010000F7010008F7010008F7010008F7010008EF
:10011000F7010008F7010008F7010008F7010008DF
:10012000F7010008F7010008F7010008F7010008CF
:10013000F70100080000000000000000F7010008BF
:100140004D050008F7010008F7010008F701000855
:10015000F7010008F7010008F7010008F70100089F
:10016000F7010008F7010008F7010008F70100088F
:10017000F7010008F7010008F7010008000000007F
:1001800000000000F701000800000000000000006F
:10019000F70100080000000000000000F70100085F
:1001A000000000000000000000000000F70100084F
:1001B000F7010008F7010008F7010008F70100083F
:1001C000F7010008DFF810D000F0ACF90048004754
:1001D000D5200008AFF300802009002006488047A2
:1001E00006480047FEE7FEE7FEE7FEE7FEE7FEE71C
:1001F000FEE7FEE7FEE7FEE7E11D0008C501000897
:100200002DE9F05F0546002092469B46884606464B
:10021000814640241BE0284641464746224600F0DE
:10022000DCF853465A46C01A914110D3114618467D
:10023000224600F0C3F82D1A67EB01084F4622460C
:100240000120002100F0BAF817EB00094E41201EF2
:10025000A4F10104DFDC484631462A464346BDE8A6
:10026000F09FD2B201E000F8012B491EFBD270478B
:100270000022F6E710B513460A4604461946FFF772
:10028000F0FF204610BD2DE9FE4F81EA030404F083
:10029000004421F0004100944FF0000B23F0004394
:1002A00050EA01045ED052EA03045BD0C3F30A545F
:1002B000C1F30A552C44A4F2F3340194A0FB025478
:1002C000C1F3130141F48011C3F3130343F480130A
:1002D00001FB024400FB034E840A970A44EA81545E
:1002E00047EA8357A4FB076802958D0A05FB07853B
:1002F0004FEA932C04FB0C542705029D4FEA065845
:1003000047EA1637B5EB08056EEB070C870E920E21
:1003100047EA811742EA8312A7FB0201B6EB0B0101
:1003200064EB00042B0D43EA0C335E1844EB1C50C5
:10033000DA465146E7FB0201C5F313044FEA0B33DB
:1003400043EA14534FEA0432019C43EA0603A4F142
:100350000C040294009CCDE900B400F094F803B0C2
:10036000BDE8F08F00200146F9E70EB540F23341B9
:1003700002910021CDE900110A460B4600F083F8F6
:1003800003B000BD01F0004330B421F0004150EA59
:10039000010206D00A0DA2F56072C1F31301002A12
:1003A00002DC30BC00207047440F44EAC104C100A5
:1003B000E01830BC00EBC25000F01FB8202A04DB6C
:1003C000203A00FA02F1002070479140C2F1200368
:1003D00020FA03F3194390407047202A04DB203AA7
:1003E00021FA02F00021704721FA02F3D040C2F155
:1003F000200291400843194670470029A8BF704762
:10040000401C490008BF20F00100704710B4B0FA4A
:1004100080FC00FA0CF050EA010404BF10BC7047E5
:1004200049B1CCF1200421FA04F411FA0CF118BFFF
:10043000012121430843A3EB0C01CB1D4FEA0061CE
:100440004FEA102042BF002010BC704700EBC350A1
:1004500010440029A4BF10BC7047401C490008BFCD
:1004600020F0010010BC704710B5141E73F1000499
:1004700008DA401C41F1000192185B411A4301D196
:1004800020F0010010BD2DE9F04D92469B4611B1C0
:10049000B1FA81F202E0B0FA80F220329046FFF722
:1004A0008DFF04460F4640EA0A0041EA0B0153461D
:1004B0005A46084313D0114653EA010019D0C8F137
:1004C00040025046FFF789FF05460E465046594602
:1004D0004246FFF773FF084305D0012004E02046A1
:1004E0003946BDE8F08D0020054346EAE0762C430E
:1004F00037430A986305E40AA0EB08000022FD0ACE
:1005000044EA47540A3002D500200146E9E70105D4
:1005100010196941DDE9084500196941BDE8F04D50
:10052000A2E70000064C074D06E0E06840F001033A
:1005300094E8070098471034AC42F6D3FFF746FE24
:10054000C8210008E8210008FEE70000014800F08B
:1005500082B9000078000020704772B6FEE790F87C
:100560002020012A07D0022A05D0416A41F48021C7
:10057000416201207047006842690A4342610020DD
:100580007047F0B590F820500468A468012D05D09C
:10059000022D03D0416A41F480215DE014F0406FE8
:1005A00001D1E50055D5C4F30164022C03D9416A99
:1005B00041F4000150E00125A5401D608D684FF415
:1005C000C0739DB1CE6835434E6845EAC6050668DE
:1005D00003EB0417F5514FF4C275076805EB0415DA
:1005E0000E697E51097D012905D009E00E88CD688C
:1005F00045EA4655EBE701684E5946F480764E5180
:100600001179D579567941EA056195792D0445EA44
:10061000062529434FF4C676056806EB0416A95152
:100620001178D57841EA0561957852782D0445EA2C
:10063000022211434FF4C475026805EB04155151B1
:10064000006803EB0411425842F0010242500020BE
:10065000F0BD416A41F4001141620120F0BD00008B
:1006600010B590F82020012A07D0022A05D0416A4F
:1006700041F480214162012010BD3B48D0F80022A6
:1006800042F00102C0F80022D0F8002222F47C528D
:10069000C0F80022D0F800224B6A42EA0322C0F8D8
:1006A00000220A7D02F01F0301229A40D0F81C327A
:1006B0009343C0F81C32CB69B3B9D0F80C329343E2
:1006C000C0F80C328C894B6864F31F434C6900EB13
:1006D000C404C4F840320C890B6864F31F434C69AE
:1006E00000EBC404C4F84432CB69012B16D1D0F816
:1006F0000C321343C0F80C320C884B6864F31F4370
:100700004C6900EBC404C4F840320C89CB6864F334
:100710001F434C6900EBC404C4F844328B69002BBE
:10072000D0F804320ED01343C0F804320B69002B0A
:10073000D0F8143208D01343C0F81432096A0129E2
:1007400004D008E09343EFE79343F5E7D0F81C1299
:100750001143C0F81C12D0F8001221F00101C0F8BA
:100760000012002010BD000000640040704730B54A
:1007700090F82040012C05D0022C03D0416A41F4AE
:1007800080215DE00468002955D02469A40754D075
:100790004FF4D874056804EB01142D5915F00405C5
:1007A000956005682D594ED0ED08556005682C59A7
:1007B00004F00204D4604FF4DA74056804EB011409
:1007C0002D5905F00F05156105682D59C5F307254D
:1007D000956105682C59240C54614FF4DC7204684F
:1007E00002EB0112A4581C700468A458240A5C701F
:1007F0000468A458240C9C700468A258120EDA7085
:100800004FF4DE72046802EB0112A4581C710468F4
:10081000A458240A5C710468A458240C9C710468D0
:10082000A258120EDA71006881B1016941F020010D
:100830000161002030BDE468A8E7416A41F400117D
:100840004162012030BD6D0D1560AFE7C16841F018
:100850002001C160EDE72DE9F05F05460068002446
:100860004669D0F804908768D0F80CB0D0F810A092
:10087000D0F81880F10748D0F90714D00121816021
:10088000B80703D5284600F014FA0CE0780702D523
:100890004FF4006407E0380702D54FF4805402E0BB
:1008A000284600F005FAF80516D529684FF480703F
:1008B0008860B80503D5284600F0FDF90CE07805FE
:1008C00002D544F4005407E0380502D544F48044CE
:1008D00002E0284600F0EEF9F80316D529684FF437
:1008E00080308860B80303D5284600F0E6F90CE0B4
:1008F000780302D544F4004407E0380302D544F4F9
:10090000803402E0284600F0D7F9300707D55FEAC7
:10091000CB6004D52968102044F40074C8607007C7
:100920004FF0080707D55FEA0B7004D52868C76049
:10093000284600F061F9B00706D52868C06880072E
:1009400002D0284600F05AF9700607D55FEACA605F
:1009500004D52968102044F480640861B00607D5E6
:100960005FEA0A7004D528680761284600F070F92C
:10097000F00606D528680069800702D0284600F0F6
:1009800068F9B00308D55FEAC96005D52968102069
:100990004860284600F05EF9F00307D55FEA097069
:1009A00004D528684760284600F088F9300446D509
:1009B0005FEA497040D5F00504D55FEAC87001D000
:1009C00044F00104B00504D55FEA887001D544F015
:1009D0000204700504D55FEA487001D544F00404B0
:1009E000300529D518F0700F26D008F07000402887
:1009F00015D006DC102809D020280AD0302816D1BE
:100A00000AE050280ED0602811D10EE044F008040E
:100A10000DE044F010040AE044F0200407E044F044
:100A2000400404E044F0800401E044F48074286849
:100A3000816921F070018161296804204860002CDF
:100A400005D0686A204368622846FFF78FFEBDE83C
:100A5000F09F70B5040003D094F8200010B104E0BA
:100A6000012070BD204600F081F82068016821F067
:100A70000201016000F016FA0546052604E000F0C8
:100A800011FA401B0A2811D8206840688007F6D464
:100A90002068016841F00101016000F003FA054699
:100AA0000BE000F0FFF9401B0A2806D9606A40F409
:100AB0000030606284F82060D2E720684068C00798
:100AC000EFD0207E0128206801683DD021F0800110
:100AD0000160607E01282068016838D021F0400163
:100AE0000160A07E01282068016833D021F0200138
:100AF0000160E07E0128206801682ED041F01001DD
:100B00000160207F01282068016829D021F00801B8
:100B10000160607F01282068016824D021F0040171
:100B20000160D4E902010843D4E9041211430843E7
:100B30006168491E08432168C86100206062012085
:100B400084F82000002070BD41F08001C0E741F032
:100B50004001C5E741F02001CAE721F01001CFE7CD
:100B600041F00801D4E741F00401D9E710B586B09F
:100B7000044614216846FFF77BFB1C492068884225
:100B800031D11B480021026842F080620260026895
:100B900002F080620592026842F000720260006812
:100BA00000F00070059012481038026842F002020E
:100BB0000260006800F0020005904FF44050009081
:100BC0000220CDE901010320039009200490694629
:100BD000084800F087F800221146402000F0D0F9C4
:100BE000402000F0BFF906B010BD000000680040D2
:100BF00040380240000402407047000010B504462F
:100C00000121104800F042F90F4B104A0021204604
:100C1000FFF7ADFD0D480C4942680C39C2F30720BF
:100C200048607F280DD1100E06D008480C31BDE871
:100C30001040343000F0FEBF0348044934310078DE
:100C4000487010BD000802400C0000202400002065
:100C5000704770477047000070B5044690F8200058
:100C6000012804D0606A40F40020606218E002208D
:100C700084F820002068016821F00101016000F083
:100C800011F905460EE000BF00F00CF9401B0A28E0
:100C900008D9606A40F400306062052084F82000C2
:100CA000012070BD20684068C007EDD1606270BD52
:100CB0007047704770477047704770477047000033
:100CC00070B5044600F0EEF80546601C02D00448FA
:100CD0000078044400F0E6F8401BA042FAD370BD4F
:100CE000140000202DE9F84F00224FF001080325E1
:100CF0004FF00F0E0B6808FA02F42340A3426ED1A6
:100D00004E68012E05D0022E03D0112E01D0122ED6
:100D100012D186684FEA420C05FA0CF7BE43CF6841
:100D200007FA0CF7374387604668A6430C79C4F38B
:100D30000014944034434460C668570005FA07FC29
:100D40008C6826EA0C06BC403443C4604C68022C14
:100D500001D0122C13D1D40800EB8404A346D4F89C
:100D6000209054074FEAD46A0EFA0AF629EA0609D7
:100D70000E6906FA0AF646EA0906CBF8206006680C
:100D80000C7926EA0C0604F00304BC4034430460EA
:100D90004C68E40060D5334C266846F480462660F3
:100DA000246822F0030604F4804400942E4C34445A
:100DB000A446D4F808489607370F0EFA07F6B4434E
:100DC0002A4EB04201D100261FE0294EB04201D187
:100DD00001261AE0274EB04202D1022615E03BE080
:100DE000254EB04201D103260FE0244EB04201D17E
:100DF00004260AE0224EB04201D1052605E0214E2C
:100E0000B04201D1062600E00726BE402643CCF8BA
:100E100008681D4E34684F689C43FF0300D51C438F
:100E20003460194E361D34684F689C43BF0300D5AB
:100E30001C433460144E083634684F689C43FF02EC
:100E400000D51C433460104E0C3634684F689C4308
:100E5000BF0200D51C433460521C102AFFF44AAF75
:100E6000BDE8F88F443802400030014000000240E5
:100E70000004024000080240000C02400010024042
:100E80000014024000180240003C0140426931EA6F
:100E9000020200D10904816170470AB18161704783
:100EA0000904FBE701488068704700001400002037
:100EB0000248816802781144816070471400002064
:100EC0000B4810B5016841F400710160016841F4FC
:100ED00080610160016841F480710160032000F0CD
:100EE0006FF8002000F006F800F024F8002010BD94
:100EF000003C024070B50D4D04464FF47A712878DD
:100F0000B1FBF0F00A490968B1FBF0F000F04AFBD0
:100F100048B9102C07D200222146501E00F030F8AC
:100F200000206C6070BD012070BD00001400002026
:100F3000200000200A4808B5016841F480410160A2
:100F4000006800F4804000900548001F016841F0EF
:100F500080510160006800F08050009008BD0000E2
:100F600044380240002809DB00F01F0201219140B3
:100F70004009800000F1E020C0F800117047000037
:100F8000F0B40E4B1B680C46C3F30223C3F10705F4
:100F9000042D00D90425191D072901D2002300E0E2
:100FA000DB1E012606FA05F1491E214099409E40AC
:100FB000761E16403143F0BC01F055B80CED00E050
:100FC000064900F0070208684FF6FF03184040EAA0
:100FD0000220034A10430860704700000CED00E057
:100FE0000000FA052DE9F8431748016841F08051E7
:100FF00001600068154F00F08050012600903E64AB
:10100000FFF750FF05464FF47A78114C05E000BF1A
:10101000FFF748FF401B40450DD86068C003F7D577
:101020007E64FFF73FFF0546464607E0FFF73AFFBD
:10103000401BB04202D90320BDE8F88360688003FA
:10104000F4D50020F8E700004038024000000E42CE
:10105000007000402DE9F0470E46050065D0DFF82E
:101060001481D8F80000F7B200F00F00B04207D2A8
:1010700088F80070D8F8000000F00F00B04254D19A
:1010800028683D4C810712D5400703D5206840F4FD
:10109000E05020602878000703D5206840F46040C5
:1010A00020602068A96820F0F000084320602878BC
:1010B000C0072DD0304968680839012812D00228AD
:1010C00013D0032811D00968890700292DDA216877
:1010D00021F0030101432160FFF7E4FE814641F264
:1010E000883A0EE009688903EFE709688901ECE7AF
:1010F000FFF7D8FEA0EB0901514502D90320BDE856
:10110000F0872068696800F00C00B0EB810FEFD128
:10111000D8F80010404601F00F01B14207D907701E
:10112000006800F00F00B04201D00120E7E7287806
:10113000400705D52068E96820F4E05008432060A6
:101140002878000706D52068296920F4604040EA25
:10115000C100206000F038F82168084AC1F303118B
:10116000515CC8400649086006480068FFF7C2FEA7
:101170000020C4E7003C024008380240B0210008CB
:101180002000002018000020044805490068096874
:10119000044AC1F38221515CC840704720000020FE
:1011A00008380240C0210008044805490068096861
:1011B000044AC1F34231515CC8407047200000200E
:1011C00008380240C0210008224810B5006810F01D
:1011D0000C02214815D02149042A11D01D4C241F8E
:1011E000082A0FD00C2A0CD12268236802F03F0293
:1011F0005B0221D52068C0F38810A0FB010120E02C
:10120000084610BD2268236802F03F025B0205D544
:101210002068C0F38810A0FB010104E02168C1F33D
:101220008811A1FB00010023FEF7EAFF2168C1F34A
:101230000141491C49000AE02168C1F38811A1FB62
:1012400000010023FEF7DCFF2168C1F30271B0FB4F
:10125000F1F010BD083802400024F400001BB70074
:101260002DE9F84F0546DFF828B30078ABF1040705
:10127000C007A7F1040451D0DBF800105846C1F3B1
:10128000810101290FD00168C1F38101022902D136
:101290003968490207D40068C0F38100032809D1E6
:1012A0003868400206D52068800337D56868002872
:1012B00072D033E06868B0F5803F10D0B0F5A02F51
:1012C000206810D020F480302060206820F4802036
:1012D00020606868A8B1FFF7E5FD06460DE02068CC
:1012E00040F48030F4E740F480202060F7E700BF4E
:1012F000FFF7D8FD801B642878D820688003F7D5D5
:101300000CE0FFF7CFFD064605E000BFFFF7CAFD82
:10131000801B6428F0D820688003F7D42878DFF891
:10132000749280074FF0000A46D5DBF8001058464B
:1013300011F00C0F0FD00168C1F38101022902D115
:101340003968490207D50068C0F38100032809D134
:101350003868400206D42068800715D5E86801285F
:101360001AD111E0E868C0B10120C9F80000FFF708
:1013700099FD064605E000BFFFF794FD801B02289B
:10138000BAD820688007F7D52068296920F0F800CE
:1013900040EAC10020600FE0F7E0C9F800A0FFF7C5
:1013A00081FD064605E000BFFFF77CFD801B02289B
:1013B0001CD820688007F7D42878000727D5DFF8E5
:1013C000D0817548696908F16C0881B1012101601B
:1013D000FFF768FD064604E0FFF764FD801B022866
:1013E00004D8D8F800008007F6D510E089E0C0F8EE
:1013F00000A0FFF757FD064605E000BFFFF752FDCE
:10140000801B02287DD8D8F800008007F6D4287801
:10141000400769D55E484FF0000838300068C000CA
:101420000BD45B483830016841F08051016000689E
:101430004FF0010800F080500090584E3068C00511
:1014400011D4306840F480703060FFF72BFD0090BD
:1014500006E000BFFFF726FD0099401A022850D889
:101460003068C005F6D54A4EA868683601280FD006
:101470000528306810D020F001003060306820F07E
:1014800004003060A868B8B1FFF70CFD00900FE0D1
:10149000306840F00100F4E740F004003060F7E706
:1014A000FFF700FD0099411A41F28830814264D86B
:1014B00030688007F4D50EE0FFF7F4FC009007E0F9
:1014C000FFF7F0FC0099411A41F28830814254D86C
:1014D00030688007F4D4B8F1000F05D02C483830BC
:1014E000016821F080510160A869A8B3DBF8001001
:1014F000C1F38101022948D00228C9F860A005D0B3
:1015000000E03AE0FFF7CEFC054639E0FFF7CAFC01
:10151000064604E0FFF7C6FC801B02282DD8206891
:101520008001F7D4F5E907010843E9681C4A490836
:1015300002EB0141AA6841EA82110843297C40EA92
:101540000160297D40EA017038600120C9F860001F
:10155000FFF7A8FC054606E015E000BFFFF7A2FC78
:10156000401B022809D820688001F7D50BE000BF96
:10157000FFF798FC401B022802D90320BDE8F88F32
:1015800020688001F4D40020F8E70120F6E700008D
:101590000838024000004742800E47420070004079
:1015A0000000FFFF10B5401EB0F1807F01D3012085
:1015B00010BD4FF0E02460610F21601700F053FD73
:1015C0000020A06107202061002010BD70477047F7
:1015D00070B590F83C20012A32D0012480F83C40BC
:1015E000022280F83D2003685A689D6822F0700648
:1015F0000A6832435A60134B02689A4214D0B2F11F
:10160000804F11D0104B9A420ED0104B9A420BD003
:101610000F4B9A4208D00F4B9A4205D00E4B9A427C
:1016200002D00E4B9A4204D1496825F08003194339
:10163000916080F83D40002180F83C10084670BD64
:10164000022070BD0000014000040040000800407E
:10165000000C004000040140004001400018004020
:1016600010B5040003D094F83D0010B107E001204C
:1016700010BD002084F83C00204600F00DF8022048
:1016800084F83D00211D206800F0BEFB012084F895
:101690003D00002010BD000008B50068B0F1804F8B
:1016A00012D10A48016841F001010160006800227E
:1016B00000F00100009011461C20FFF761FCBDE81E
:1016C00008401C20FFF74EBC08BD00004038024017
:1016D0000168CA6842F00102CA600068816801F0CE
:1016E0000701062903D0016841F0010101600020D3
:1016F000704770B5044690F83C00012817D00125CA
:1017000084F83C50022084F83D002068826822F072
:10171000770222F47F4282600868502830D00DDCC6
:1017200020284DD005DC98B310283BD148E002209A
:1017300070BD302844D0402834D139E0602828D00A
:10174000702806D0B0F5805F2CD0B0F5005F29D1AD
:101750000AE0CB68D1E90121206800F0B9FB2068DC
:10176000816841F0770109E0CB68D1E90121206867
:1017700000F0AEFB2068816841F48041816011E097
:10178000CA684968206800F0B5FB5021206807E06E
:1017900016E0CA684968206800F0BDFB6021206837
:1017A00000F0A0FB84F83D50002084F83C0070BDA0
:1017B000CA684968206800F09DFB40212068EFE777
:1017C000226801461046EBE7704770B50446006892
:1017D00001694FF00005C943890715D4C168C943A1
:1017E000890711D4E91E01610120207720688069F2
:1017F0008007204602D0FFF7E7FF04E000F098F8EA
:10180000204600F096F8257720680169C94349070A
:1018100017D4C168C943490713D46FF004010161AB
:10182000022020772068806910F4407F204602D093
:10183000FFF7CAFF04E000F07BF8204600F079F8DB
:10184000257720680169C943090716D4C168C943CF
:10185000090712D46FF00801016104202077206885
:10186000C0698007204602D0FFF7AEFF04E000F019
:101870005FF8204600F05DF8257720680169C943CC
:10188000C90617D4C168C943C90613D46FF0100143
:101890000161082020772068C06910F4407F20464D
:1018A00002D0FFF791FF04E000F042F8204600F07C
:1018B00040F8257720680169C943C90708D1C16884
:1018C000C943C90704D1891E0161204600F032F8DE
:1018D00020680169C943090609D4C168C9430906DA
:1018E00005D46FF0800101612046FFF76FFE20688C
:1018F0000169C943490609D4C168C943490605D4E9
:101900006FF040010161204600F015F82068016980
:10191000C94389060BD4C168C943890607D46FF04F
:10192000200101612046BDE87040FFF750BE70BD48
:10193000704770477047704770B5040004D094F842
:101940003900002510B106E0012070BD84F8385040
:10195000204600F023F8242084F839002068C1686C
:1019600021F40051C160204600F0E8FA20680169C6
:1019700021F4904101612068416921F02A0141610F
:101980002068C16841F40051C160E563202084F8FB
:10199000390084F83A00002070BD0000F0B587B02F
:1019A000044614216846FEF763FC1A492068884201
:1019B0002DD11948016841F480110160006800F4DC
:1019C0008010059014481038016841F0040101604E
:1019D000016801F004010591016841F0080101600E
:1019E0000068022400F0080005904FF480500125A3
:1019F000032608278DE8F10069460848FFF772F9C9
:101A000004208DE8F10069460548FFF76BF907B03F
:101A1000F0BD000000500040403802400008024085
:101A2000000C0240FEE7000000B58BB00121002051
:101A3000CDE90601089100901421CDE9040101903F
:101A4000029003901020099069460848FEF708FEAE
:101A50000648FFF701F913210448FEF780FD00282E
:101A600001D0FEF77AFD0BB000BD00007800002029
:101A70000F4810B50D4901600321416000214FF46A
:101A8000C0228160C0E90312120142610176012285
:101A900042768176C17601774177FEF7DAFF00283A
:101AA00003D0BDE81040FEF758BD10BD00680040EF
:101AB000780000202DE9F04387B014216846FEF736
:101AC000D7FB30480024016841F00401016001683F
:101AD00001F004010591016841F080010160016895
:101AE00001F080010591016841F002010160016887
:101AF00001F002010591016841F0010101600168F6
:101B000001F001010591016841F0080101600068E0
:101B10001D4E00F0080046F21105059000222946EE
:101B20003046FFF7BAF900950125CDE90154694621
:101B300030460394FFF7D6F828021226CDE90006B6
:101B400002AA03274FF00408DFF8409082E8A001C2
:101B500069464846FFF7C6F8E803CDE90004694640
:101B600048460294FFF7BEF81020CDE9000602AA0D
:101B7000694682E8A0010648FFF7B4F807B0BDE85F
:101B8000F0830000303802400008024000000240AC
:101B90000004024010B586B0002416480094019459
:101BA0000294039404944FF080410594016041F63F
:101BB0001F41C0E901142821C0E903148461FFF723
:101BC0004FFD08B1FEF7C9FC4FF480500090694604
:101BD0000848FFF78EFD08B1FEF7BFFC049404A986
:101BE00004480594FFF7F4FC002801D0FEF7B5FC8B
:101BF00006B010BDA00000200C4810B50A490160D5
:101C00004FF4E1314160002181600C22C160C0E9E4
:101C100004128161C161FFF78FFE002803D0BDE887
:101C20001040FEF79ABC10BD00500040E0000020BC
:101C3000FEE7000070B5044608880D46164640BA17
:101C40001021DFED170A9FED170A00F09DFA84EDD1
:101C5000010A6888102140BAF3EE0E0ABBEE0E0AA4
:101C600000F092FA84ED020AA888102140BAF2EE40
:101C7000080ABAEE080A00F087FA84ED030AE88839
:101C800040BAFEF772FB9FED081B53EC112BFEF7D9
:101C9000FAFAFEF777FB2061C6F30440A07670BD28
:101CA00000003444000034C49A9999999999B93F35
:101CB000FEE77047704700001CB500781C4B40F0F1
:101CC000905058608DF80010080A8DF8010000202F
:101CD0008DF802008DF80300662A02D0732A13D013
:101CE0001EE010EE100A1349020E030C0A704B702E
:101CF000040A8C70C8708DF804008DF805408DF8CA
:101D000006308DF807200BE0BCEEC00A10EE101A6A
:101D10008DF804108DF805008DF806008DF8070089
:101D2000044B6A46083B02490348FEF72AFC1CBDE7
:101D3000400000200800002078000020FFF7B8B81D
:101D400030B593B034216846FEF792FA14210DA8FD
:101D5000FEF78EFA20480025016841F080510160AD
:101D6000006800F0805012901C48016841F4404126
:101D700001600068022400F44040129001200090AD
:101D8000000401908001CDE9064006200890B420AF
:101D9000CDE909040720CDE90B046846FFF760FA96
:101DA00008B172B6FEE7FFF71DF908B172B6FEE79B
:101DB0000DA90F2081E831004FF4A05010904FF48E
:101DC0008050119005210DA8FFF744F9002801D09B
:101DD00072B6FEE713B030BD4038024000700040DC
:101DE0000548016841F47001016003494FF000604B
:101DF000803908607047000088ED00E00148FFF777
:101E0000E4BC0000A0000020F0B50268254C264D7F
:101E1000264E274F274B4FF0804CA04209D06045FB
:101E200007D0A84205D0B04203D0B84201D09842B2
:101E300004D122F0700E4A6842EA0E02A0421BD082
:101E4000604519D0A84217D0B04215D0B84213D07F
:101E5000984211D0184DA8420ED0184DA8420BD070
:101E6000174DA84208D0174DA84205D0164DA842DC
:101E700002D0164DA84203D122F44075CA682A4305
:101E80004D6922F080022A4302608A68C2620A68B1
:101E90008262A04201D0984201D109690163012107
:101EA0004161F0BD00000140000400400008004016
:101EB000000C00400004014000400140004401408B
:101EC0000048014000180040001C00400020004075
:101ED00010B5846842EA032224F47F440A43224373
:101EE000826010BD826822F070020A4342F007014E
:101EF0008160704710B5036A046A24F0010404622B
:101F0000846924F0F00444EA021423F00A020A432C
:101F10008461026210BD10B5036A23F010030362EE
:101F20008369046A23F4704343EA023224F0A00375
:101F300043EA01118261016210BD00002DE9F04108
:101F4000044600680169E26821F4405111430161CF
:101F50002169A068E2690843616911430843216867
:101F6000CA6849F20C639A430243CA602068416917
:101F7000A26921F4407111434161E0691927642588
:101F80003226B0F5004F354A354920684FF0000839
:101F900006D0884201D0904236D1FFF705F935E0EE
:101FA000884201D0904202D1FFF7FEF801E0FFF72E
:101FB000EBF861684A18A0FB070148EB0803FEF73D
:101FC0001FF90146B0FBF5F00201B1FBF5F06FF02F
:101FD0001803584301EB800006EBC000B0FBF5F09E
:101FE00000F0F80002EB4002B1FBF5F0584301EBC2
:101FF000800006EBC000B0FBF5F000F007002168A0
:1020000010448860BDE8F081FFF7BEF861688B0F6F
:102010008A00A0FB0701FEF7F3F80146B0FBF5F0DC
:102020006FF01802504301EB800006EB0010B0FB8C
:10203000F5F000F0F002B1FBF5F002EB0012B1FB9D
:10204000F5F06FF01803584301EB800006EB001029
:10205000B0FBF5F000F00F00D1E7000000140140E4
:1020600000100140FEE70907090E002804DB00F11B
:10207000E02080F80014704700F00F0000F1E0202D
:1020800080F8141D704702E008C8121F08C1002A1A
:10209000FAD170477047002001E001C1121F002AE9
:1020A000FBD1704770B50D46094904460023042052
:1020B0000B60C1E901300820C1E9033025701146E9
:1020C000204600F041F82046BDE8704000F046B8D8
:1020D00040000020FEF7F4FEFFF732FEFFF7EAFCB7
:1020E000FFF78AFDFFF756FDFFF7C2FC134C0022F5
:1020F00001212046FEF7D1FE0A20FEF7E1FD012274
:1021000010212046FEF7C9FE0A20FEF7D9FDFFF791
:102110008BFC0B48FFF7DCFA41F288342046FEF7CF
:10212000CFFD2046FEF7CCFD00227F210548FFF7BA
:10213000B9FF0A20FEF7C4FDFBE7000000080240DB
:10214000A00000205800002000EE101A732247F271
:102150000501B8EE400AFFF7AFBD00001CB5002135
:10216000009101910078054940F04070044B4860AF
:102170006A460448FEF705FA1CBD00004000002036
:10218000000000207800002001EE100A70EEC00A66
:102190000122B8EE411A8A40521E20EE811A00EE4A
:1021A000902AF8EE601AC1EE210A30EE800A7047DC
:1021B00000000000000000000102030406070809F7
:1021C0000000000001020304E821000800000020D4
:1021D00024000000862000080C22000824000020B3
:1021E000FC0800009620000800000000000000002D
:1021F00000000000000000000000000001000000DE
:0C22000010000000000000000024F400AA
:04000005080001C529
:00000001FF
