:020000040800F2
:10000000D0330020D901000891630008495B000843
:100010008D63000819300008B58300080000000057
:10002000000000000000000000000000A5630008C0
:100030007D30000800000000A1630008056400088E
:10004000F3010008F3010008F3010008F3010008C0
:10005000F3010008F3010008F3010008F3010008B0
:10006000F3010008F3010008F3010008F3010008A0
:10007000F3010008F3010008F3010008F301000890
:10008000F3010008F3010008F3010008F301000880
:10009000F3010008F3010008F3010008F301000870
:1000A000F3010008F3010008F3010008F301000860
:1000B000FD640008F3010008F3010008F3010008E3
:1000C000F3010008F3010008F3010008F301000840
:1000D000F3010008F3010008F3010008F301000830
:1000E000F3010008F3010008F3010008F301000820
:1000F000F3010008F3010008F3010008F301000810
:10010000F3010008F3010008F3010008F3010008FF
:10011000F3010008F3010008F3010008F3010008EF
:10012000F3010008F3010008F3010008F3010008DF
:10013000F30100080000000000000000F3010008C7
:100140001D300008F3010008F30100089563000862
:10015000F3010008F3010008F3010008F3010008AF
:10016000F3010008F3010008F3010008F30100089F
:10017000F3010008F3010008F3010008000000008B
:1001800000000000F3010008000000000000000073
:10019000F30100080000000000000000F301000867
:1001A000000000000000000000000000F301000853
:1001B000F3010008F3010008F3010008F30100084F
:1001C000F3010008DFF80CD002F0D6FE004800472B
:1001D00091A30008D0330020064880470648004716
:1001E000FEE7FEE7FEE7FEE7FEE7FEE7FEE7FEE7E7
:1001F000FEE7FEE7E1640008C501000810B5F94913
:10020000C4074FF040434FF0804205D08B66CB6669
:10021000C1E91C328A67CA67840709D5C1F8003171
:10022000C1F80431C1E94232C1F81021C1F81421EA
:10023000400709D5C1F89831C1F89C31C1E968324D
:10024000C1F8A821C1F8AC2110BD2DE9F14F82B051
:10025000002102988A468946806F00287DD00022BE
:100260000020401C0428FCDB02984FF0000C00EB3F
:10027000C203D3E90010A1FB0167D3E9065400FBD8
:10028000017701FB0077CDE90067A646AE1B64EB62
:100290000704AB460327A6FB075804FB078406FBAD
:1002A0000C44DDE90067AD197C41A5FB016704FB47
:1002B000017405FB0045D3E90C47341B65EB0705CA
:1002C000CDE900455D46A5FB05670324A6FB045860
:1002D0000EFB0B770BFB0E7707FB048406FB0C442D
:1002E000D3E91263761B63EB04034C18A4FB017C77
:1002F00040EB000505FB01C504FB0055A7FB014CC5
:1003000005FB01C507FB0055A4FB017C05FB01C5EE
:1003100004FB0054F6196341DDE90045AD0045EAF0
:100320009475A400A4FB017C05FB01C104FB00142F
:10033000F01B73EB040103D50023404263EB010182
:10034000BAEB000479EB010301DA82468946521CBC
:10035000032A85DB5046494600E010E002F05FFCCE
:10036000A149896B02F064FA02F099FC9D4AD2F827
:100370000C2203B09200BDE8F04F02F07EB90020DD
:1003800003B00146BDE8F08F2DE9F14F0020009A3F
:100390000146926FF2B300240022521C042AFCDBB7
:1003A000009A02EBC405AA46D5E90029A2FB023C4B
:1003B000D5E906769E46FB1A0325A3FB057809FBC3
:1003C00002CC02FB09CB66EB0B0606FB05854FF062
:1003D000000C03FB0C5617EB0E03A3FB027C46EB51
:1003E0000B0606FB02C203FB0923DAE90C25BA1A45
:1003F000AB4103D50025524265EB0303851A71EB2F
:10040000030501DA10461946641C032CC4DB02F014
:1004100006FC00E00EE07449896B02F009FA02F074
:100420003EFC704AD2F80C22BDE8F84F02EB4202C3
:1004300002F023B900200146BDE8F88F2DE9FE4304
:10044000684D80460024D5F810626F4605EBC40164
:100450003246D1E9020102F001F905EB8401B1F85D
:1004600084100904401847F8240004F10104032C07
:10047000ECDB5C489821083002F038F90120FFF7E6
:10048000BDFE95F8E8010199042807D1D5F81802B6
:10049000B0F5201F02DD052085F8E801524C0098D8
:1004A000636AC11A01D40E4600E01E1A0198A26ABE
:1004B000801A01D4074601E0019FD71BBE4206DD2A
:1004C000002901D4084606E00098181A03E0002825
:1004D00001D50198101A029AE16A521A01D4134602
:1004E00001E0029BCB1A834205DB002A01D41046AF
:1004F00001E00298081AD8F8241008F047FFD5F850
:100500001812814206DD0321684609F017FD02201A
:1005100009F0ACFD009860620198A0620298E06268
:10052000BDE8FE83304AC2E9020170472E4AC2E9A3
:10053000060170472C4AC2E904017047294AD2F8E3
:10054000E0310360D2E97402C1E900027047254A34
:10055000D2F8E0310360D2E97602C1E900027047C7
:100560002DE9FE4781460020EA468A6F22B901EB59
:10057000800339F91020DA6701EB800239F9103075
:10058000D46F1D1B4AF82050136E9D4200DD156686
:10059000D36E9D4200DAD5660123002422464FEA3D
:1005A000E578A3FB056704FB057403FB08443346A9
:1005B00002EB420601EBC60606EBC00CDCE9007656
:1005C000FF186641CCE90076521C042AE9DB401C86
:1005D0000328CADB886F401C88670120C1F890009F
:1005E000BDE8FE87D80100203804002030B5002384
:1005F00002EB830550F823405B1CEC66032BF7DB12
:10060000C2F88810916F79B1002102EB810450F893
:100610002130E56F5B1B00D55B42256E9D4200DA01
:100620002366491C0329F0DB906F401C9067012072
:10063000C2F8900030BD10B500210B4600EB8102DE
:10064000491CD46ED46713660329F7DBD0F88810F1
:1006500040F8783FC0E9051310BDD0E92210081A10
:1006600070470146D1E91802824200DB1046896ECC
:10067000814200DB084670472DE9F0478046501E56
:10068000012686408946C2F12007404601F0F5FF69
:1006900004460D46404649463A4601F0DFFF3A46D9
:1006A00001F0EBFFB04203DD641C45F1000505E0FD
:1006B0007142884202DA641E45F1FF352046294620
:1006C000BDE8F087F7490020086248628862C86286
:1006D000086448648864C864086348638863C863BE
:1006E000086548658865C865704730B5EE4AD2F838
:1006F000483223B1D2E990542D1A8C4101DAC2E973
:1007000090015B1CC2F8483230BD30B5E64AD2F8E1
:10071000583223B1D2E994542D1A8C4101DAC2E93E
:1007200094015B1CC2F8583230BD30B5DE4AD2F8B5
:1007300028322BB1D2E98845041B71EB050401DA9C
:10074000C2E988015B1CC2F8283230BD30B5D64AF8
:10075000D2F838322BB1D2E98C45041B71EB050479
:1007600001DAC2E98C015B1CC2F8383230BD2DE9D8
:10077000F0470246CC48012508308046C36E016E22
:10078000046FC91A436E1B1B8B4200DB1946836E34
:10079000D8F87400181A884200DB0146C14F603750
:1007A000F86B884204DA002400F00AFA204687E752
:1007B000108E0124BC4EC0054FF000010ED5D6F8B6
:1007C00080303068834209DBB2F87420D20506D548
:1007D000D6F8B021824201DB052400E00C4674B358
:1007E000600719D5AF48C8388146FFF72EFD000DC8
:1007F00040EA01300915C6E97601D7E904321B1A2F
:100800008A4102DA0025FFF7A1FF9821484601F04E
:100810006DFF0420FFF7F2FCE0070ED04046FFF723
:1008200014FDC6E97C01D7E906340246181A8C414A
:1008300003DA00251046FFF778FF284640E7FFE778
:1008400002203DE71EB5044690F83000C0F3811049
:10085000032804D19449201D0831FFF781FE94F844
:100860007400C0F38110032805D18E4904F14800BB
:10087000C839FFF775FED4F8B8008B4AC0F381136E
:10088000A0326946032B0FD0C0F3411003281AD1C0
:10089000002004EB8003D3F8A0309B1341F82030F4
:1008A000401C0328F5DB09E0002004EB4003B3F90A
:1008B0008C3041F82030401C0328F6DB6846D4F821
:1008C000C010FFF793FE1EBD2DE9F047054600203E
:1008D000296BCA0567D501F05001402900D10120DC
:1008E00095F8741001F05001402900D1012095F8CD
:1008F000B8106D4C01F05001402900D030B100F02B
:100900005FF90020C4F8E00184F8E801654ED4F8EE
:100910000812E86A6036814225D0C4F808020A2825
:10092000306B0ADA40002060716B491CC4F80C126D
:1009300002F067F90CF0FEFB04E02060706BC4F875
:100940000C02B06BC4F81402D4F80C02C0F1100011
:10095000C4F810024FF48040C4F8180296F834101E
:1009600019208840F0632846FFF76CFF94F8E811DF
:10097000DFF8349105274FF0020809F1A009072993
:1009800011D2DFE801F0041127305E7E8500D4F833
:10099000E001411CC4F8E0110A2804DB00F010F962
:1009A000012084F8E80186E0D4F89800012810D1ED
:1009B0002846FFF7DCFE10B1012803D004E084F8DC
:1009C000E87101E084F8E8814846FFF734FEFFF75C
:1009D00079FE70E0032084F8E8012846FFF72EFD39
:1009E00000F0EEF867E02846FFF7C1FEF0B30128FB
:1009F00061D1B5F8B8004FF00403C00515D54846DD
:100A0000FFF72FFE0146C017C4E97410D6E902C2F1
:100A1000BCEB0101824102DA84F8E87108E0484643
:100A2000FFF71BFE316A884202D384F8E83124E0E4
:100A3000F4E97601FFF769FED4E90601FFF755FEF8
:100A400039E0B5F8B800C0050BD54846FFF709FEF8
:100A50000146C017C4E97410D6E90232591A82411E
:100A600008DB2846FFF783FE00B100E002E0012822
:100A700003D020E084F8E8711DE02846FFF7DEFC93
:100A8000D6E7062084F8E801012009F0EFFA0DE02E
:100A90002846FFF76CFE012801D038B10BE084F83E
:100AA000E88108E0D8030020D801002000F088F891
:100AB0004846FFF7C0FD002002E610B500214010B7
:100AC000002802D001F10101F9DC454C4FF0010092
:100AD00001F1010100FA01F0C4E90C0102F091F802
:100AE0000CF028FBA06394F8341019208840E063D0
:100AF00010BD10B54FF418713A4801F0F7FD4021D0
:100B0000374801F0F3FD0720FFF778FB344840F247
:100B1000DC510022C0E906121421C0E902124FF490
:100B20001671C0E9041230492E4C01620120C4F84C
:100B3000E4011920FFF7C1FF0020C4F8080210BD2E
:100B400010B54FF41871274801F0D0FD0720FFF7CA
:100B500055FB244801210022C0F8E41180F8E81177
:100B60000321012009F074FA07226421AFF2A720C3
:100B7000BDE8104008F08EBF10B5012009F076FAEC
:100B8000AFF2BB20BDE8104009F0E4BA10B5FFF7A2
:100B9000B0FF002805D1AFF25700BDE8104009F0C2
:100BA00075B910BD10B5FFF7E7FFAFF26B00BDE8F8
:100BB000104009F089BB0B49D1E97C0170477047AF
:100BC000084810B59821083001F090FD9821074899
:100BD00001F08CFDBDE810400520FFF70FBB0000C1
:100BE00038040020D80100200008AF2F1003002097
:100BF0002DE9FC5F0D460026416B99469246B046B2
:100C0000002904DBD0F8BC00032800D10126FF49ED
:100C10002422081F01F043FDFC4FC03F0024C7F809
:100C2000E05007EB8400D0F8BC10404601F076FDA0
:100C3000641C80460A2CF4DBF54901F0F9FDF54C03
:100C400080464FF0C80BC7F8E400BAF1320F21DB41
:100C50004846C7F81CB101F0D4FF00900190EE495E
:100C6000284601F0E5FD019901F0B0FD214601F0B3
:100C7000DFFD0446BAF57A7F33DBE8492846009C5D
:100C800001F0D6FD214601F0A1FDE24901F0D0FDC1
:100C9000044626E041F2883199FBF1F04042D7F852
:100CA0001C1100EB80004018C7F81C0102D5002081
:100CB000C7F81C01484601F0A4FF8246D8492846DF
:100CC00001F0B6FD514601F081FD214601F0B0FD75
:100CD0000446D7F81C0120B9D7F82801012800D113
:100CE0000024D7F8200100B12C46CE49894500D117
:100CF0002C4614F0FF4F11D04046C7F8E88041461B
:100D000001F05EFD20F00040C74902F041F822D218
:100D1000D7F8B80010F0FF4F03D01CE0D7F8E80078
:100D2000EDE7C6B14846C7F81CB101F08EFF044696
:100D30000E46284601F0F3FF0022BC4B01F0DBFE1B
:100D40002246334601F065FE0022B94B01F0D3FE86
:100D500001F0F8FF04462046BDE8FC9F2DE9F04F66
:100D6000ABB04FF0000AA94FCDF810A0C03FCDF8AE
:100D700014A0CDF818A00446D7F8201102200329AA
:100D80007DD0002620AD07EB8600D0F8A80001F04A
:100D900038FF6FF01D0101F089FD45F82600761C33
:100DA000042EF0DB0FA807F03FFF24A807F094FF04
:100DB000964B24AA183B0FA92046279300F0F4F97C
:100DC000064604F1180007F0F3FF82099548D7F8AA
:100DD0003031834200DB034631462046FFF708FFEF
:100DE000BB4607F1B806D7F8EC1001F0EFFC306015
:100DF0000BA807F019FF13A90BA808F0B7FD83484B
:100E00000FAA3C300BA9064608F01EFB31460BA882
:100E100008F0F8FA00210DF13C080DF14C090DF134
:100E2000100E00221346104601EB410C0CEB00079C
:100E300059F8276008EB8007401C7F680328C6FB31
:100E40000723F3DB900F40EA83004EF82100491C92
:100E50000329E6DBDBF820015F4600287DD0504601
:100E6000CDF818A0404201F0CCFE6FF01D094946B4
:100E700001F01CFD0CF0E4F8D046564600E074E0AA
:100E8000CDE9000A0698CDF808A0404201F0B9FE6D
:100E9000494601F00BFD0CF045F90390D7F83001FD
:100EA00041F2883190FBF1F04FF0804A01F0A9FE49
:100EB00028902990069801F0A4FEDFF878B15946F1
:100EC00001F0B6FC299901F0B3FC514601F0B0FCE9
:100ED00001F0CCFE40000690DDF8A0A001F091FEEC
:100EE000594601F073FC514601F070FC01F0BEFE62
:100EF000069001F086FE494601F0D8FC0CF0A0F8FF
:100F0000CDE907060996069801F07BFE494601F0F7
:100F1000CDFC0CF007F90A901CAA694620A808F03D
:100F200025FB6A4607A91CA808F020FBD4F8BC00E2
:100F3000EA46002810DD00261E215AF8260045F852
:100F4000260001F0B3FC01F091FE07EB8601761C50
:100F5000C1F8A800042EEFDB00E00BE0D4F8BC00E1
:100F60004FF0FF3503280AD106E0C7F820012BB067
:100F7000BDE8F08F069875E701F007FBF0B357F86E
:100F8000A80F01F03EFE4E46494601F08FFC1C9032
:100F9000786801F036FE314601F088FC1D90B86893
:100FA00001F02FFE314601F081FC1E90F86801F03F
:100FB00028FE314601F07AFC1F90B86FA83F002848
:100FC000D5D0D7F8B8002946A83701F06FFC0CF04F
:100FD00037F81E2101F06AFC01F048FEC7E900085D
:100FE000C7F808802946386901F060FC0CF09AF8CF
:100FF0001E2101F05BFC01F039FE00E01CE0F8600E
:10100000D4F8C010A83F279844E00000380500201D
:101010000000204100409C45000048430000484239
:101020000000C84340420F000E2DB23D0000794041
:101030000088B340E10237472946D7F8B80001F0ED
:1010400035FC0BF0FDFFCDE90708CDF824802946DB
:10105000D7F8B80001F02AFC0CF064F80A906A4650
:1010600007A920A808F082FA684608F03BFB002593
:1010700056461E2156F8250001F018FC01F0F6FD39
:1010800007EB85016D1CC1F8A800042DF1DBD4F835
:10109000C010279808F036FFD7F8200100288FD01D
:1010A000401E62E770B590F8B810664ACC064FF063
:1010B00000034FF0030101D4C2E94813B0F8204106
:1010C000E40509D4048EE40503D5B0F87440E405C2
:1010D00002D4C2E948131AE0D2F8341139B1D0E988
:1010E0003013C91A4FF47A73B1FBF3F105E0D0F86D
:1010F000B01044F62064A14202DBC2F830110AE0CD
:10110000D2F82C512944C2F82C11A14201DA002056
:1011100070BDC2E94B31FFF721FEF8E710B54FF47F
:101120009C71484801F0E2FA464C4FF080400021A3
:10113000C4F8FC0044F8A80F4248A83008F0E2FECA
:101140004FF47A7060674FF07E50606410BD3D4987
:10115000C1F8EC00002070473A49C1F8280100208E
:1011600070473849C1F834010020704704224FF419
:101170001671AFF2CF0008F08DBCAFF2D70008F0C7
:10118000E9BF10B5FFF7CAFF2E490020C1F82801BA
:10119000C1F83401AFF22B00BDE8104008F076BE74
:1011A000AFF2370009F090B82DE9FF470C4625490A
:1011B0001546074699463C220C31224801F06FFA49
:1011C000204950225831A1F1100001F068FA1D4E5B
:1011D00095E8070006F13C031B4D83E807001ECC91
:1011E00006F1980080E81E00D6F82401401CC6F8DD
:1011F0002401062802DD0620C6F82401C0F10604F9
:1012000007F1A00818E006EB04116A464846483189
:1012100008F01AF904EB440006EB80016A464046E8
:1012200007F06CFA074625F0004120F0004001F07D
:10123000A5FD00D23D46641C062CE4DB04B0284624
:10124000BDE8F08778040020002474491FB50146EA
:101250001022684601F023FAF6489DE80E0080E867
:101260000E00F5499DF80C0081F8B001002004B093
:1012700010BD1FB5EF490EC98DE80E00EE491022D2
:1012800091F8B0118DF80C10694601F008FA0020B1
:10129000EDE72DE9F04F91B000251821684601F0E7
:1012A00025FA0024182106A801F020FAE249A046F8
:1012B000C14691F8C00101287ED1D1F8B8B1D1F86A
:1012C000B4A10022C2EBC20000EB4001DA4800EBFF
:1012D000810E9EF850000F90002863D000215EE040
:1012E0005EF82130DDE900676D1CD8170E939B195D
:1012F0007841CDE900300EEB8100EDB243690D93EA
:10130000DDE9027CDE17DB1946EB0C06CDE902367F
:10131000836ADDE9047CDE170C93DB1946EB0C06CF
:10132000CDE90436C06B0E9BDDE9067C83FB0063D0
:10133000360C46EA0346F6194CEB2343CDE9066327
:101340000D9BDDE9087C83FB00634FEA164646EA05
:101350000346F6194CEB2343CDE908630C9BDDE90A
:101360000A7C83FB00634FEA164646EA0346F619F9
:101370004CEB2343CDE90A6380FB00634FEA16463A
:1013800046EA034616EB080849EB2349044458454E
:1013900001DA834602E0504500DD8246491C0F9881
:1013A00088429DDC521C052A8CDBA348AAEB0B016A
:1013B000D0F8BC01814200E053E052DBA5FB08728B
:1013C000E01700260F9006FB082005FB09000E9091
:1013D00084FB0410090C41EA00410014CDE90C0122
:1013E00006A800EBC601D1E90002A0FB05BC02FB88
:1013F00005C2002100FB012C684600EBC601D1E9C3
:101400000002A0FB043802FB04820F9900FB0120BC
:10141000190C0CAA41EA00494FEA204A92E80B0055
:1014200087EA010283EA000852EA080212D07A1A17
:1014300063EB0003BBEB09006CEB0A0C4FEA0C41B9
:1014400041EA1041000401F0D8F87B4901EB860124
:10145000C1F8A401761C032EC2DB7748012180F875
:10146000B01111B00020BDE8F08FF8B5724D0E46F6
:101470000446D5E96D01091A052291FBF2F1301AF3
:1014800090FBF1F0C0B28DF80000042801D92020B3
:10149000F8BDC0EBC00000EB400005EB800191F807
:1014A0005000052816D0421C81F850209DF80010ED
:1014B000C1EBC10101EB410105EB810202EB8001AF
:1014C000CE63236842F8203060684861A068886273
:1014D0000020F8BD01F14003181F1022194601F049
:1014E000DEF89DF800001022C0EBC00000EB4000C9
:1014F00005EB8000011D01F0D2F89DF800001022DC
:10150000C0EBC00000EB400005EB800000F11801CB
:10151000143001F0C4F89DF800001022C0EBC000A8
:1015200000EB400005EB800000F12C01283001F0B9
:10153000B6F80420BAE730B585B0044603A968467A
:1015400007F00AFC04A807F0CFFC02282BD0D4F83F
:10155000E4000399401A384991F8B02112B308B356
:10156000D1F8A421009C80FB0232150445EA134205
:1015700022440092D1F8A821019C80FB023215047C
:1015800045EA134222440192D1F8AC11029A80FB41
:101590000110030443EA11401044029003216846FD
:1015A00008F0CCFC0CE0606B032809D107F0EAFBE3
:1015B00030B168460399FFF758FF08B9FFF769FE95
:1015C00005B0002030BD10B54FF4E2711A4801F0AB
:1015D0008DF819481949C0F8B4114FF4AA01C0F8A0
:1015E000B8114FF4A021C0F8BC11012180F8C0113E
:1015F000002010BD1049C1F8B801002070470E4905
:10160000C1F8B401002070470B49C1F8BC010020AB
:10161000704758B10849D1F8A4210260D1F8A82137
:101620004260D1F8AC1181600020704705207047FE
:101630002420704754070020B00500200000D8FF88
:1016400020B12D4981F8C001002070472420704747
:10165000294B93F8B101002818D0D3E96D10401A36
:10166000052190FBF1F00020C0EBC00101EB41012E
:1016700003EB810191F8502022B1002100E0491CC8
:101680008A42FCDC401C0528EEDB00207047082263
:1016900096211A4808F0FEB9184808F05BBD10B54D
:1016A000FFF791FF4FF49A7310221549154808F07F
:1016B000A7FB20B9AFF2290008F0E8FB08B1012030
:1016C00010BD0D49012081F8B101002010BD10B5F9
:1016D000094C94F8B101002808D0084808F03AFDF8
:1016E000AFF2550008F0F0FD08B1012010BD002058
:1016F00084F8B10110BD0000B005002037150008C6
:10170000731200084D1200082DE9F043044699B009
:101710001D4691460E46806801F073FA014601F0BD
:1017200055F88046606801F06CFA014601F04EF809
:101730000746206801F065FA014601F047F839468E
:1017400000F0ECFF414600F0E9FF0BF0F3FC074628
:1017500020F000404FF08D4101F01AFB7ED230683E
:1017600001F04FFA6FF01D08414601F09FF8049018
:10177000706801F046FA414601F098F80590B068AB
:1017800001F03FFA414601F091F80690F06801F04F
:1017900038FA414601F08AF800260C960790206836
:1017A00001F02FFA394601F043F80D90606801F01E
:1017B00028FA394601F03CF80E90A06801F021FAB1
:1017C000394601F035F80F9010AA0CA904A807F0CB
:1017D000CDFE14A904A807F021FE6A4614A910A89A
:1017E00007F0C4FE0199084600F0F0FF0299044694
:1017F000084600F0EBFF214600F090FFFE498842CA
:1018000001DAFE4C0BE0FE49884201DAFD4C06E0AD
:10181000FD49884202DA4FF07A5400E0FB4C48461A
:1018200001F0EFF9FA4901F003F8214600F0CEFF8C
:10183000044608962146029800F0C8FF09900198D6
:10184000214680F0004000F0C1FFCDE90A066A465B
:1018500004A908A807F08AFE6A4600E025E004A96A
:10186000104607F0ADFD684607F002FF1E21009804
:1018700001F01CF801F0FAF928601E21019801F02E
:1018800015F801F0F3F968601E21029801F00EF8D6
:1018900001F0ECF9A8601E21039801F007F801F0AF
:1018A000E5F9E86019B0BDE8F08396E80F0085E837
:1018B0000F00F7E72DE9F05F05460C46806801F060
:1018C000A0F9014600F082FF0746686801F099F927
:1018D000014600F07BFF0646286801F092F90146B8
:1018E00000F074FF314600F019FF394600F016FF92
:1018F0000BF020FC4FF07E59002706464FF0804841
:10190000484505DCC4E90087A760E760BDE8F09FB3
:10191000A86801F076F9314600F08AFF8246014658
:10192000484600F04DFF4FF40006B04200DA0020B8
:101930004FF0FF3100F0BAFF0BF0FCFB8346494645
:10194000504600F0EBFEB04200DA00204FF0FF31CD
:1019500000F0ACFF0BF0EEFB8246686801F051F935
:10196000014600F033FF0646286801F04AF90146B7
:1019700000F02CFF314600F0D1FE0BF0DBFB0646F9
:101980004845BFDD1E21504600F090FF01F06EF982
:101990002060686801F035F9314600F049FF59468A
:1019A00000F014FF1E2100F081FF01F05FF960607C
:1019B000286801F026F9314600F03AFF594600F058
:1019C00005FF944900F002FF01F050F9C4E9020755
:1019D0009CE72DE9F04105460C46C06801F011F97D
:1019E000014600F0F3FE8046A86801F00AF90146BE
:1019F00000F0ECFE0746686801F003F9014600F0CC
:101A0000E5FE0646286801F0FCF8014600F0DEFE1F
:101A1000314600F083FE394600F080FE414600F07A
:101A20007DFEB0F5000F06DA4FF080402060002008
:101A30006060A0602DE00BF07DFB01464FF07E5012
:101A400000F0F6FE1E2100F031FF0646286801F086
:101A5000D8F8314600F0BAFE01F008F92060686855
:101A600001F0CFF8314600F0B1FE01F0FFF8606000
:101A7000A86801F0C6F8314600F0A8FE01F0F6F8BB
:101A8000A060E86801F0BDF8314600F09FFE01F06B
:101A9000EDF8E060BDE8F08170B5044690F83000E4
:101AA00088B0400676D5A069002801DB014600E039
:101AB00041424FF480320026574D91420BDAE169E2
:101AC000002900DA4942914205DA216A002900DA48
:101AD0004942914260DB002800DA40424FF4C801DD
:101AE00088420BDCE069002800DA4042884205DCCD
:101AF000206A002800DA4042884201DD032000E02D
:101B00000220A863696BA06A814219D06863A06A49
:101B100001F077F8414900F08BFE1D2100F0C6FE70
:101B200001F0FDF83E4A3F4B00F073FF082201F040
:101B300051F800223C4B00F0DEFF01F0D1F82863A1
:101B40000496296BA06907F021FC0590296BE069D8
:101B500007F01CFC0690296B206A07F017FC079021
:101B60006A4604A92C4807F06FFC00982A4A8001B5
:101B700000900198694680010190029880010290CE
:101B8000039880010390104607F006FC224908469E
:101B9000FFF71FFF08B070BDAE63FBE72DE9F04310
:101BA0000446D0F820018FB041067CD51A4DD4F8F8
:101BB00010111E4B2A68891AD4F82C215A438A42E4
:101BC00001DA032100E00221A963810504F5887090
:101BD000804601D51049D4E0002104A807F0BCF8E4
:101BE0000D490C223C3104A800F08BFD08BBD4F851
:101BF0002801A96D88421BE017B75139A69BC43B49
:101C00000AD7233C8FC2753DCDCC4C3ECDCCCC3ECB
:101C10000014CD47000080CE7407002000247449D2
:101C2000112D4454FB2109400080664071981C002E
:101C30007ED0208807AB80B204AA616A06F05AFE03
:101C4000099800F0DEFF014600F0C0FD0746089845
:101C500000F0D7FF014600F0B9FD0646079800F0F6
:101C6000D0FF014600F0B2FD314600F057FD394685
:101C700000F054FD0BF05EFA0646E84900F0A6FDC0
:101C8000E74900F0D5FD6FF00F0100F00FFE0746A9
:101C9000D4F8280100F0B5FF394600F097FDE1497E
:101CA00000F0C6FD00E06EE04FF0FF3100F0FEFDF9
:101CB00007460BF0C5F9814638460BF033FA074664
:101CC0004FF08040864204DAA8640020E86428656A
:101CD00033E01E21484600F0E9FD00F0C7FFA8648C
:101CE000079800F08EFF8146CF49384600F06EFD20
:101CF0000746494600F06AFD314600F099FD00F0C4
:101D0000B5FFE864089800F07CFF0146384600F013
:101D10005DFD314600F08CFD00F0A8FF28650998B4
:101D200000F06FFF0146384600F050FD314600E0FC
:101D30000EE000F07DFD00F099FF04AB686593E8CC
:101D4000070005F13C0383E80700D4F82801A865E3
:101D50006A46B649404607F077FBB4480AAA1430F1
:101D60006946044607F070FB2146404607F04AFBEF
:101D7000AE486A460AA9483807F066FBAB49684690
:101D80004839FFF726FE0FB08DE51FB50446A7487A
:101D90006946483807F036FBA44A6946283A204687
:101DA00007F052FBA1491DCC383981E81D001FBD49
:101DB0002DE9F0479D4E0446483E90F8740006F128
:101DC0005C0A06F12008012500F05001103692B09F
:101DD00004F5887904F15C07402906D094F82001C5
:101DE00000F0500040280DD01EE031463846FFF785
:101DF00061FDB4F82001C0050CD55146484607F0F6
:101E000001FB07E05146484607F0FCFAB4F87400BD
:101E1000C00509D585486946483807F0F3FA4246B7
:101E20006946304607F010FBB4F82001C005204693
:101E300002D5FFF7B3FE01E0FFF72EFE7B493246E5
:101E40004839404607F000FB94F87400400671D50D
:101E5000208EB4F820110843C00578D50FAA394662
:101E6000304607F09FFCD4E9172080FB0001C2FB3D
:101E70000201626E6D4FC2FB0201483F4FF080428B
:101E8000801A71F1020014DB04A806F0C7FFDDE937
:101E9000042080FB0001C2FB0201069AC2FB020182
:101EA0004FF08042801A71F1020002DB0420B86317
:101EB0000BE0B86B042808D041F28832022806D023
:101EC000032804D001283AD009E0002507E0E16E9C
:101ED00091FBF2F5012D00DA0125032800D0AD00B9
:101EE000534800244543109807948002294607F080
:101EF0004DFA08900F9829464042800207F046FAB2
:101F0000CDE909040BAA314607A807F09DFA32462D
:101F10000BA9104607F040FA31460846FFF759FD75
:101F200042486946483807F06DFA424669463046ED
:101F300007F08AFA12B00020BDE8F08707E0E06EF3
:101F400090FBF2F0012800DA01204500C7E7334694
:101F500019463846E26EFFF7D7FBE1E770B5044655
:101F6000008EC105D4F8200107D4B4F87410C90557
:101F700003D4C10501D4002070BDC0F301200328A3
:101F800008D02046FFF714FF2848A16B383808F026
:101F9000CDF8F0E704F5887124482EC9383880E878
:101FA0002E00F1E7234808F0D5B8204810B56C2181
:101FB000483800F09BFB1D484FF0804148380161D4
:101FC00001600162C163C165002010BD1D4810B5EC
:101FD000082219A1006800F094FB08B1322010BD5E
:101FE0001322BDE81040C821124807F053BD10B5B8
:101FF000FFF7DBFF002805D1AFF22F00BDE810404E
:1020000007F044BF10BD10B50A4808F0A3F8AFF2BE
:102010004300BDE8104008F057B90000DB0F49400D
:102020000000344300247449000080CEBC07002027
:10203000A69BC4005D1F0008654D504C20352E3115
:1020400000000000A8010020002803DDFE49012255
:10205000C1E920020020704710B5B821FA4800F00D
:1020600045FBF948F949C160F9498160F9490160C6
:10207000F94941604FF0804141664FF4FA61C16710
:10208000F649C0F89C10002010BD2DE9F041EE4C3F
:102090000E4607460025216800F07AFE11D3384627
:1020A000616800F06BFE0CD32069012813D1304623
:1020B000E16800F06DFE04D33046A16800F05EFEDA
:1020C00009D2606F20B9E048A16D183007F01AFFFF
:1020D0000120C4E91D05D4E91E01884204DB606FBC
:1020E000012800D1E5656567BDE8F08170B50C4653
:1020F000054606F0A9FDD44A002110B9D84885420A
:1021000002DD1161516102E01069002808D15069B7
:1021100020445061B0F5FA7F02DD0120C2E90401DC
:1021200070BDF0B58DB00D4614460646694607F001
:102130001DFC09AA3146284607F086F92946304693
:1021400007F060F90021EC460DF1240E00231A4639
:10215000184601EB41073D180EEB80065CF8255050
:102160007668401CC5FB06320328F4DB980F40EA72
:10217000820044F82100491C0329E7DB0DB0F0BDC3
:10218000B1490020C1F88C00704770B504468068E2
:1021900000F037FD014600F019FB0546606800F0CD
:1021A00030FD014600F012FB0646206800F029FDD4
:1021B000014600F00BFB314600F0B0FA294600F072
:1021C000ADFA0AF0B7FFBDE870406FF00F0100F004
:1021D0006DBB70B50E4600259B4C012130B1012826
:1021E0000CD0C4F8981044F88C5F29E0C4F8A060C3
:1021F000C4E92965E4E92415A56070BD3046D4F82A
:10220000A01000F0DDFA20F00040D4F89C1000F09F
:10221000B5FD13D254F8945F31466D1C25602069DA
:1022200000F07CFA2061943C312DE6DD022144F877
:10223000901F8C4900F0FCFAA06170BD44F8905FDB
:10224000656070BD2DE9FF4F8BB000267E4C0546C2
:10225000039604960596D4F88800934637460028DE
:102260007ED006F09DFD10B103A806F063FDD4F802
:102270008000A146002819DD01204C46C9F88400E1
:1022800006F08EFD48B103A806F092FD8009B0F576
:10229000C87F02D2D4F8800004E0D4F88000401B4C
:1022A000C4F88000002801DCC4F8847006F044FF04
:1022B000002855D000240E9850F8240000F0A1FC0E
:1022C00082465BF8240000F09CFC6FF00F0841464A
:1022D00000F0ECFA514600F079FA414600F0E6FAD7
:1022E000314600F01BFA641C0646032CE3DB58461B
:1022F000FFF74BFF01460690304600F099FA4FF089
:102300007E58DFF864A1404501DD404602E05045BB
:1023100000D950460AF08CFE8346D9F88C004E4610
:1023200070B13168069800F029FD09D271680698ED
:1023300000F02EFD04D25946D6F89000FFF749FF71
:10234000684606F0B5FD40490C22AC31684600F005
:10235000D8F918B9D6F8980001286CD13A4800E0AD
:10236000C6E09DE80E00AC3080E80E00009818B979
:10237000019808B9029858B36846FFF706FF04466B
:1023800010F0FF4F57D0DFF8E4902046494600F0A8
:1023900017FA014600F01AFA0AF0CCFE70604946BE
:1023A000204600F0BBF9014600F010FA0AF0C2FE28
:1023B0003060029800F025FC6FF00F0100F076FA13
:1023C000214600F035FA044640451FDD444620E032
:1023D0002048306020487060D6F89800012804D06A
:1023E0001B48B0601948F06025E0D6F89C80D6F80C
:1023F000A8404146204600F0E3F9B060414620463F
:1024000000F08CF9C6F89870F06014E0544500D9DB
:10241000544620460AF00CFED6F89C1000F0D0F985
:10242000B06020460AF004FED6F89C1000F076F961
:10243000C6F88C70F060DFF81080F16D08F1580874
:1024400001BB0120002413E0E00700200000B4429B
:102450000000B4C2000070420000F0417B142E3E28
:1024600000401C4600004842000080BF00002041A0
:10247000F06506EB04104146183006F013FC641CAE
:10248000042CF6DB434907AA0C460C98FFF749FEDB
:1024900021460C9806F0B6FF03A806F089FC00F070
:1024A000B9FB6FF0050100F001FA2946FFF71EFEA7
:1024B00059460698FFF7E9FDD6E91E01884201DA80
:1024C0002844B067706F90B9306E28443066B0F51C
:1024D0007A7F0CDD2F4930223C39A1F1100037669C
:1024E00000F0DDF82B4841461C3806F0DBFB706F2E
:1024F0000FB0BDE8F08F70B588B0044604A806F0B0
:10250000EBFBD4E93001451A684606F08DFB064620
:1025100004AB04F1A00269462846FFF793FE07F0DA
:1025200005FD08B0304670BD04224FF49671AFF23D
:10253000390007F0AFBAAFF2410007F00BBE10B59B
:10254000FFF78AFD00280DD1124800216438C0F839
:102550008C100121C0F88810AFF23300BDE81040A4
:1025600007F094BC10BD10B5AFF2750007F0F2FD96
:10257000AFF27D00BDE8104007F0ECBD0549012039
:102580006439C1F88C000020704702486438406FFD
:1025900070470000440800202DE9F05F0546002048
:1025A00092469B4688460646814640241BE02846C4
:1025B00041464746224600F00BFC53465A46C01A95
:1025C000914110D311461846224600F047F82D1AC3
:1025D00067EB01084F4622460120002100F03EF83B
:1025E00017EB00094E41201EA4F10104DFDC484630
:1025F00031462A464346BDE8F09F2DE9F0410024CC
:10260000061B254671F1000605DA01240027D0EBF0
:10261000070067EB0101161E73F1000605DA0027BB
:10262000D2EB0702012567EB0303FFF7B5FF8646F0
:102630000E4617469C46AC4204D00025D0EB050E52
:1026400065EB010624B10020D2EB000760EB030C20
:10265000704631463A466346BDE8F081202A04DBE5
:10266000203A00FA02F1002070479140C2F12003A5
:1026700020FA03F3194390407047202A06DBCB175A
:10268000203A41FA02F043EAE07306E041FA02F32D
:10269000D040C2F12002914008431946704710B55E
:1026A000431A934209D28318881803E010F8011DD9
:1026B00003F8011D521EF9D210BD40EA01039B0729
:1026C00003D009E008C9121F08C0042AFAD203E0A7
:1026D00011F8013B00F8013B521EF9D210BDD2B2F5
:1026E00001E000F8012B491EFBD270470022F6E7FB
:1026F00010B513460A4604461946FFF7F0FF204678
:1027000010BD30B504460020034600E05B1C934238
:1027100003D2E05CCD5C401BF8D030BDF0B480EA61
:102720000102D40F4200B2EB410F02D2024608462A
:1027300011464A0042D0C30DDDB2C1F3C752AD1AF3
:10274000202D35DAC1F3160141F4000204B15242E2
:10275000C5F1200602FA06F12A411044B3EBD05F1E
:1027600023D0C4B1012DA0EBC35009DCF0BC4FF065
:10277000004202EAC352DBB200F5000000F041BBA8
:10278000400000F1807000EBC350A0F1807040EA7F
:10279000D170490009E0490841EAC071A0EBC3507B
:1027A00000F50000400800EBC350F0BC00F020BB77
:1027B0006142012202EB4101001BF6E7F0BC7047C9
:1027C00081F00041AAE780F00040A7E780EA01021B
:1027D00010B502F00043400022D04A001FD0010E85
:1027E00001EB1261C0F35600C2F3560240F4000040
:1027F00042F40002A0FB022000047F39140400D040
:10280000401C50EA124001D44000491EC2B20C06DE
:1028100004EBD010401C4008802A02D003E00020C6
:1028200010BD20F00100002900DA0020184310BD7F
:1028300030B480EA010202F0004530F0004221F09D
:10284000004013D090B1C30DD40DC2F31601C0F3F4
:102850001600E41A41F4000140F400027D34914274
:1028600001D3641C00E04900002C02DA30BC0020D7
:1028700070474FF400000023914201D3891A0343AB
:1028800040084FEA4101F7D151B1914202D14FF0D6
:10289000004105E002D24FF0010101E06FF00101BB
:1028A00003EBC450284430BC00F0A2BA420005D06B
:1028B000C0F3C7525242914201DC0020704700EB46
:1028C000C15070472DE9FE4F804681EA0300C00FDA
:1028D0000C46009021F0004123F00045B8EB0200C7
:1028E000A94105D24046214690461C460B46024669
:1028F00023F00040104347D0270DC7F30A00C3F36D
:102900000A510290401A019040286BDAC3F3130079
:1029100040F4801B0098924620B10023D2EB030ABA
:1029200063EB0B0B01985946C0F140025046FFF78C
:1029300095FE06460D4650465946019AFFF79DFE04
:1029400010EB08006141002487EA115284EAE77322
:102950001A4340D0009A62B3019A012A4FEA075203
:1029600015DC001B61EB02014FF0004202EA075246
:10297000CDE90042001C41F5801132462B4600F0A3
:102980007DFA03B0BDE8F08F40462146F9E7001B11
:1029900061EB0201001C41F5801300185B41201817
:1029A000A2F5001747EB030140EAD570B6196D4157
:1029B00011E06D084FEA360645EAC0754FEA075246
:1029C000001B61EB0201001C41F5801149084FEA30
:1029D00030000019514132462B4603B0BDE8F04F9C
:1029E00000F03DBA0098012240000023D0EB020223
:1029F00063EBE073009821464FEAE074B8EB000007
:102A000061EB0401E9E783F000435BE781F00041FB
:102A100058E72DE9FE4F81EA030404F0004421F059
:102A2000004100944FF0000B23F0004350EA0104F2
:102A30005ED052EA03045BD0C3F30A54C1F30A55D3
:102A40002C44A4F2F3340194A0FB0254C1F313010B
:102A500041F48011C3F3130343F4801301FB0244D8
:102A600000FB034E840A970A44EA815447EA8357DD
:102A7000A4FB076802958D0A05FB07854FEA932C96
:102A800004FB0C542705029D4FEA065847EA163707
:102A9000B5EB08056EEB070C870E920E47EA81171F
:102AA00042EA8312A7FB0201B6EB0B0164EB0004C0
:102AB0002B0D43EA0C335E1844EB1C50DA465146AA
:102AC000E7FB0201C5F313044FEA0B3343EA145347
:102AD0004FEA0432019C43EA0603A4F10C04029479
:102AE000009CCDE900B400F0C9F903B0BDE8F08F57
:102AF00000200146F9E72DE9F04D81EA030404F0D6
:102B0000004B21F0004514464FF0000A23F000412D
:102B100050EA050220D054EA01021DD0C5F30A573D
:102B20000246C5F31303C1F31300C1F30A5640F480
:102B3000801543F48013A7EB0608101BD64608F255
:102B4000FD3873EB050002D308F1010801E092188B
:102B50005B41B8F1000F03DA00200146BDE8F08DBB
:102B600000204FF48011064684460EE0171B73EBDD
:102B7000050705D3121B63EB050306434CEA010C62
:102B800049084FEA300092185B4150EA0107EDD145
:102B900052EA030012D082EA040083EA05010843E6
:102BA00005D0101BAB4106D20122002306E0002213
:102BB0004FF0004302E06FF0010253101AEB0600E1
:102BC0004CEB085110EB0A0041EB0B01BDE8F04D56
:102BD00000F045B970B521F0004303430CD0C1F3B8
:102BE0000A550024D5EB040564EB0403D617AD1A8F
:102BF000B34102DB0020014670BD201841EB0251B9
:102C000070BDC10F80EAE0700844CA079623002116
:102C100000F0F7B896230022114600F0F2B8F0B4A5
:102C2000CA17CB0F50405140C61841F100054FEA7A
:102C3000C372314628004FF0960303D0B623F0BC90
:102C400000F0DFB830460021F9E70EB5C10F80EA89
:102C5000E0700844CA07002140F233438DE80E00BB
:102C60000A460B4600F00AF903B000BD00F000422E
:102C700020F00040C10DC0F3160040F400007F2991
:102C800001DA00207047962903DCC1F19601C840A3
:102C900001E096398840002AF4D04042704710B5D0
:102CA00000F0004420F00040C20DC0F3160040F4D4
:102CB00000007F2A02DA0020014610BD0021962A7A
:102CC00003DCC2F19602D04002E0963AFFF7C6FC60
:102CD000002CF2D00023D0EB030063EB010110BD08
:102CE00070B5C1F30A5201F000450024C1F313018D
:102CF00040F2FF3341F480119A4201DA002070BDA6
:102D000040F233439A42A2F2334203DC524200F0D3
:102D10005FF800E090402C43F1D0404270BD00F0DD
:102D2000004230F000400AD0C10D01F56071C0F3DF
:102D3000160042EA0151C2084007114370470020C3
:102D40000146704701F0004330B421F0004150EAE1
:102D5000010206D00A0DA2F56072C1F31301002A28
:102D600002DC30BC00207047440F44EAC104C100BB
:102D7000E01830BC00EBC25000F03AB8002801DB8C
:102D8000C0F10040002901DBC1F1004181427047E0
:102D9000002801DBC0F10040002901DBC1F1004146
:102DA0008842704730B50B4601460020202201249E
:102DB00009E021FA02F59D4205D303FA02F5491B09
:102DC00004FA02F52844151EA2F10102F1DC30BD1F
:102DD000202A04DB203A21FA02F00021704721FA70
:102DE00002F3D040C2F120029140084319467047D7
:102DF0000029A8BF7047401C490008BF20F001000F
:102E0000704710B4B0FA80FC00FA0CF050EA0104EC
:102E100004BF10BC704749B1CCF1200421FA04F47E
:102E200011FA0CF118BF012121430843A3EB0C0157
:102E3000CB1D4FEA00614FEA102042BF002010BCBA
:102E4000704700EBC35010440029A4BF10BC70476A
:102E5000401C490008BF20F0010010BC704710B5AD
:102E6000141E73F1000408DA401C41F100019218AD
:102E70005B411A4301D120F0010010BD2DE9F04D56
:102E800092469B4611B1B1FA81F202E0B0FA80F2AB
:102E900020329046FFF7E2FB04460F4640EA0A0064
:102EA00041EA0B0153465A46084313D0114653EAF0
:102EB000010019D0C8F140025046FFF789FF0546CE
:102EC0000E46504659464246FFF7C8FB084305D018
:102ED000012004E020463946BDE8F08D002005437E
:102EE00046EAE0762C4337430A986305E40AA0EBF0
:102EF00008000022FD0A44EA47540A3002D50020A7
:102F00000146E9E7010510196941DDE908450019A5
:102F10006941BDE8F04DA2E7C1F30A52C1F31301C4
:102F200040F2FF3341F480119A4202DA0020014658
:102F3000704740F233439A42A2F2334202DC5242DB
:102F4000FFF746BFFFF78ABB30B5041E71F10004DE
:102F500004DB4FF00044404264EB0101141E73F1A6
:102F6000000405DB1C464FF00043524263EB0403B0
:102F7000994208BF904230BD1CB5094800900948ED
:102F800001900546009C06E0E06840F0010394E8EB
:102F9000070098471034AC42F6D3FDF717F900004C
:102FA000BCD30008DCD300080EB540F233410291D7
:102FB0000021CDE900110A460B46FFF75FFF03B081
:102FC00000BD70B58C1810F8015B15F0070301D136
:102FD00010F8013B2A1106D110F8012B03E010F87C
:102FE000016B01F8016B5B1EF9D12B0705D400239F
:102FF000521E0DD401F8013BFAE710F8013BCB1A41
:10300000921C03E013F8015B01F8015B521EF9D535
:10301000A142D8D3002070BDFEE7000041F68070C9
:10302000C2F2000000F0AAB90020704700207047EB
:1030300010B541F6B044C2F2000441F2F021C2F2F0
:1030400000012046002203F00FFC40F6F021C2F2FE
:103050000001204603F002FC002010BD10B541F62F
:10306000B044C2F200040146204603F0F7FB2046BC
:1030700003F0D6FB002010BD002070477047000011
:10308000EFF3108072B600BFFEE7000090F820203A
:10309000013A012A08D8006800F1140200201368E0
:1030A00019431160704700BF00F1240201204FF462
:1030B00080211368194311607047000010B590F823
:1030C00020E0D0F800C0AEF1010EBEF1010FDCF837
:1030D00008E011D81EF0E05F18D0CEF3016EBEF10B
:1030E000030F1DD100F1240101204FF400020B68F1
:1030F0001A430A6010BD00BF00F1240101204FF403
:1031000080220B681A430A6010BD00BF00F1240141
:1031100001204FF400120B681A430A6010BD00BF73
:10312000012000FA0EF01860886828B14B68CC685E
:1031300044EAC303034303E00868CB6843EA40530F
:103140000CEB0E10C0F880310B69C0F88431097D9A
:10315000012905D100F5C2710B6843F480730B603F
:103160005168C0F88C11126800F5C071C0F8882150
:10317000002001220B681A430A6010BD90F820203D
:10318000013A012A30D8B0B546F20060C4F200001E
:10319000026842F001020260026822F47C5202607E
:1031A000D1F814E0CC694A6A0368012C43EA022290
:1031B00002600EF01F024FF0010303FA02F2C3692E
:1031C0006FEA020C23EA0203C36113D02CBBC3686D
:1031D00003EA0C03C360CB688C8844EA034300EB2A
:1031E000CE0423640B4611E0416A41F48021416220
:1031F00001207047C3681343C3600B688C8844EA9E
:10320000034300EBCE04236401F10C038C681B889C
:1032100043EA044300EBCE04636443688D6943EAE8
:103220000204D1F810E0096A002D08BF03EA0C047B
:1032300044604369BEF1000F43EA020408BF03EA99
:103240000C040129446102D1C1691143C1610168C3
:1032500021F0010101600020B0BD000070470000B6
:1032600010B590F82040013C012C73D8D0F800C074
:1032700000290CBFDCF80C40DCF81040A40773D028
:103280000CEB011CDCF8B0410CF5D87E14F0040402
:103290009460DCF8B04119BFE4085460640D146018
:1032A000DEF80040002904F00204D460DCF8B441E8
:1032B00004F00F041461DCF8B441C4F307249461F2
:1032C000DCF8B4414FEA14445461DCF8B8211A70B8
:1032D000026802EB0112D2F8B8214FEA12225A70AA
:1032E000026802EB0112D2F8B8214FEA12429A703A
:1032F000026802EB0112D2F8B8214FEA1262DA70CA
:10330000026802EB0112D2F8BC211A71026802EBCA
:103310000112D2F8BC214FEA12225A71026802EB64
:103320000112D2F8BC214FEA12429A71026802EBF4
:103330000112D2F8BC214FEA1262DA7100680CBFA8
:1033400000F10C0100F11001002020220B681A434B
:103350000A6010BD00F1240101204FF480220B68A7
:103360001A430A6010BD00BF00F1240101204FF490
:1033700000120B681A430A6010BD00002DE9F04FDF
:1033800081B0044600684669D0F804908768D0F898
:103390000CB0D0F810A0D0F81880F10704D10025A7
:1033A00030071DD424E000BFF90710D00121BA076F
:1033B000816009D4780700F1AF80380700F1B6804A
:1033C000204600F039FA02E0204600F037FA0025E6
:1033D000F80500F18780F80300F1B180300707D5C8
:1033E0001BF0100004D0206845F400751021C16066
:1033F000700708D51BF0080005D020680821C160BF
:10340000204600F0B1F9B00706D52068C0688007F3
:1034100002D0204600F0AAF9700607D51AF0100075
:1034200004D0206845F4806510210161B00608D5FC
:103430001AF0080005D0206808210161204600F03C
:10344000C7F9F00606D520680069800702D020463B
:1034500000F0C0F9B00308D519F0100005D02068BD
:1034600010214160204600F0B7F9F00308D519F0AB
:10347000080005D0206808214160204600F0E8F9E6
:10348000300440F19B805FEA497040F1948006F47B
:10349000807008EA102028435FEA8871014648BF1F
:1034A00041F00201B20558BF01465FEA48700D467F
:1034B00048BF45F00405700558BF0D46300540F182
:1034C0007A8018F0700000F0768010380009052826
:1034D0006CD8DFE800F003595D61656945F00805C7
:1034E00064E000BF20684FF48071BA0581600BD49E
:1034F000780515D438051DD4204600F0A1F9F8034D
:103500007FF56CAF1BE000BF204600F09BF9F8038D
:103510007FF564AF13E000BF4FF4006558E700BFCC
:1035200005F50055F8037FF559AF08E04FF48055D5
:103530004EE700BF05F58045F8037FF54FAF2068E3
:103540004FF48031BA0381600AD4780310D4380371
:1035500014D4204600F078F930073FF541AF47E733
:10356000204600F073F930073FF53AAF40E700BF5F
:1035700005F5004530073FF533AF39E705F58035F0
:1035800030073FF52DAF33E745F010050EE000BFE3
:1035900045F020050AE000BF45F0400506E000BF09
:1035A00045F0800502E000BF45F480752068816920
:1035B00021F07001816120680421416055B1606A89
:1035C00040EA05012046616201B0BDE8F04FFFF717
:1035D00045BE00BF01B0BDE8F08F0000002804BF69
:1035E00001207047B0B5044690F8200010B920467D
:1035F00000F06EF82068016821F00201016000F01F
:1036000029FA054620684168890705D500F022FAA5
:10361000401B0B28F6D310E0016841F00101016066
:1036200000F018FA054600BF20684168C9070DD1AF
:1036300000F010FA401B0B28F6D3606A052140F415
:1036400000306062012084F82010B0BD217E026845
:10365000012922F0800208BF80320260617E026888
:10366000012922F0400208BF40320260A17E0268B8
:10367000012922F0200208BF20320260E17E0268A8
:10368000012922F0100218BF10320260217F026867
:10369000012922F0080208BF08320260617F026837
:1036A000012922F0040208BF04320260D4E901C2F9
:1036B000D4E9033561691A432A431143ACF101028D
:1036C0001143C16100200121606284F82010B0BD67
:1036D000016846F60000C4F20000814218BF70473E
:1036E00080B586B0002143F640020191C4F2020287
:1036F000136800F5CE3043F080631360136803F065
:1037000080630193019B0191136843F00073136080
:10371000136803F000730193019B019152F8103C70
:1037200043F0020342F8103C52F8102C02F002025F
:103730000192019A4FF4405201920222CDE90221F6
:10374000032104910921059101A900F097F8402077
:103750000021002200F044FB402000F02FFB06B0C7
:10376000BDE88040704700007047000070B5044617
:1037700040F60000C4F202000121012500F05CF9CE
:1037800040F69806C2F2000606F12C0206F10C0380
:1037900020460021FFF764FD7068316B0278012A32
:1037A00003D047F6FE7399420FD0052A08D0012AAC
:1037B0000CD147F6FE72914218BF70BD022504E09D
:1037C000062511F47C1F08BF0325057070BD00009D
:1037D000704700007047000070470000B0B5044615
:1037E00090F8200001281DD1022084F820002068D4
:1037F000016821F00101016000F02CF9054600BFCD
:1038000020684068C00713D000F024F9401B0B2843
:10381000F6D3606A40F400306062052084F820002E
:103820000120B0BD606A40F4002060620120B0BD9C
:1038300000206062B0BD00007047000070470000CB
:10384000704700007047000070470000704700009C
:1038500070470000B0B5044600F0FCF8054640F2A1
:103860000C00C2F200000078611C18BF044400BFC5
:1038700000F0F0F8401BA042FAD3B0BD2DE9F04FA4
:1038800082B000F13E4202F1FF72870541F6000668
:1038900047EA9227C4F20206072243F6004EB042DE
:1038A00008BF0622C4F2010E062F38BF3A464FF079
:1038B000010A002600274FF00008009208E000BF30
:1038C000023708F10108202F06F1040600F0AA8053
:1038D0000A680AFA08F412EA0409F1D0D1F804C01F
:1038E000BCF1120F00F298800AFA0CF212F0061FD7
:1038F00000F092800323826803FA07F5CB68AA439D
:10390000BB401A43826042684FEA1C13A24303FA89
:1039100008F34FEA480A6FEA050B1A434260C2688F
:103920008B6802EA0B0203FA0AF31A434CF0100305
:10393000122BC26013D16FF0030202EA5802024454
:1039400006F01C050F23D2F820C003FA05F40B691A
:103950002CEA0404AB4023431362D1F804C002688C
:103960000CF0030302EA0B0203FA0AF31A435FEABC
:10397000CC034FF0010A0260A2D5002243F64403B3
:103980000192C4F202031A684FF6084C42F48042D6
:103990001A601A68CFF6FF7C02F480420192019A05
:1039A00028F00302724452F80C3006F00C050F2484
:1039B000AC40A343009C04FA05F52B4342F80C30BD
:1039C000DEF800204B6842EA0905DC0358BF22EA12
:1039D0000905CEF80050DEF804209C0342EA0905F0
:1039E00058BF22EA0905CEF80450DEF80820DC02B0
:1039F00042EA090543F60C4458BF22EA0905CEF80D
:103A00000850C4F2010422689B0242EA090558BF2B
:103A100022EA0905256053E70322BA406FEA020B48
:103A2000BA467CE702B0BDE8F08F000000690840AC
:103A300018BF01207047000042690A408A4208BF4F
:103A40000904816170470000002A08BF09048161F0
:103A50007047000042F2C870C2F200000068704770
:103A60002DE9F04F85B09B4690460F4602F06EF868
:103A700000284FF0000500F0A48040F60004C4F2D6
:103A8000020440F23409C2F2000920464FF480716A
:103A9000012289F800504FF480764FF0010AFFF7B9
:103AA000D3FF1120CDE9010A69462046009603950F
:103AB000FFF7E4FE20464FF400710122FFF7C4FF38
:103AC000022004F095FC20464FF480710022FFF79D
:103AD000BBFF022004F08CFC20464FF40071002252
:103AE000FFF7B2FF384602F0A5F902F08FFA00287E
:103AF00064D0BBF1000F0DD0A8F10105CBF1000699
:103B0000B6F1FF3018BF012002F05EF8013605F86B
:103B1000010FF5D120464FF4007100220025FFF778
:103B200093FF20464FF4807101224FF480780127E3
:103B3000FFF78AFF112669462046CDF80080CDE9BF
:103B400001670395FFF79AFE022004F051FC20461E
:103B50004FF400710122FFF777FF022004F048FCC8
:103B600020464FF400710022FFF76EFF20464FF40D
:103B700080710022FFF768FF69462046CDE9008684
:103B8000CDE90275FFF77AFE20464FF4007100225E
:103B9000FFF75AFF022004F02BFC20464FF400717F
:103BA0000122FFF751FF20464FF480710122FFF7F9
:103BB0004BFF022004F01CFC01E000BF012589F846
:103BC00000A0284605B0BDE8F08F00002DE9F04FB9
:103BD00085B01D4693460C4601F0B8FF00284FF013
:103BE00000067CD040F60008C4F2020840F2340916
:103BF000C2F2000940464FF48071012289F800604A
:103C00004FF480774FF0010AFFF71EFF1120CDE936
:103C1000010A6946404600970396FFF72FFE40468B
:103C20004FF400710122FFF70FFF022004F0E0FBC8
:103C300040464FF480710022FFF706FF022004F097
:103C4000D7FB40464FF400710022FFF7FDFE2046EF
:103C500002F0F0F802F0DAF900283DD0584602F000
:103C6000E9F802F0D3F9B8B30E9C44B115F8010B92
:103C700002F0E0F802F0CAF970B3013CF6D1404618
:103C80004FF4807100224FF480740026FFF7DCFEB1
:103C9000112001900120CDE90206694640460094BA
:103CA000FFF7ECFD40464FF400710022FFF7CCFE19
:103CB000022004F09DFB40464FF400710122FFF703
:103CC000C3FE40464FF480710122FFF7BDFE022083
:103CD00004F08EFB01E000BF012689F800A0304609
:103CE00005B0BDE8F08F000040F20C0042F2C87150
:103CF000C2F20000C2F2000100780A6810440860B5
:103D00007047000080B543F60040C4F2020001682D
:103D100041F400710160016841F480610160016853
:103D200041F480710160032000F086F8002000F06B
:103D300005F800F027F8002080BD000070B540F2C3
:103D40000C06C2F2000640F238013278C2F20001DD
:103D50004FF47A730968B3FBF2F20446B1FBF2F157
:103D6000084601F09DFC0F2C4FF0010508D838B92A
:103D70004FF0FF3021460022002500F031F874603A
:103D8000284670BD82B0002043F640010190C4F285
:103D900002014A6842F480424A604A6802F4804262
:103DA0000192019A0090086840F08050086008680D
:103DB00000F080500090009802B07047002848BF83
:103DC000704700F01F01012202FA01F11C2202EAF1
:103DD000D0004EF20012CEF2000281507047000077
:103DE00010B54EF60C5CCEF2000CDCF80030C3F3DC
:103DF000022E8EF00704042C28BF0424BEF1030316
:103E00004FF0FF3E0EFA04F438BF0023A14399405F
:103E10000EFA03F39A43114300F00F0200F16043DE
:103E20000901043A03F564436244002848BF02F1E3
:103E30000C03197010BD00004EF60C51CEF20001BB
:103E40000A684FF6FF031A4060F30A2242F08060CE
:103E500040F0FD700860704701220168C0F8FC2343
:103E6000002280F8F423886940F000608861486D82
:103E700040F0805040F0030200204A657047000087
:103E800010B50129044619D079BB206A48B102F067
:103E9000BBFA4EF61050CEF20000016821F0060188
:103EA00001602068D0F8001E21F00101C0F8001E5A
:103EB000D4F80404BDE8104003F0B8B82068D0F886
:103EC000001E41F00101C0F8001ED4F8040403F004
:103ED0002FF9206A002808BF10BD4EF61050CEF210
:103EE0000000016841F00601016010BD0268002079
:103EF000516270472DE9F041D0F80080D8F82430A5
:103F000081B1D8F82870B1F1010E03EB174355D0F9
:103F10005FFA8EF104290EF0030C0BD2002700216A
:103F20002DE000BF43EA02410020C8F82810BDE898
:103F3000F08100BF0EF0FC0408F1F405002108F543
:103F4000827600BF55F8107F41F0020003EB174363
:103F500041F00107FFB256F82770C0B256F82000B2
:103F600003EB174303EB104041F00303DBB256F8B9
:103F700023300431CFB2A74200EB1343E2D1BCF1AE
:103F8000000F1BD008EB8700D0F80401BCF1010F33
:103F900003EB104312D0481CC0B208EB8000D0F8ED
:103FA0000401BCF1020F03EB104307D0881CC0B220
:103FB00008EB8000D0F8040103EB104343EA024011
:103FC00008EB8E01C1F804010020BDE8F08100007B
:103FD000D0F8040402F074BFC1EBC102D0F804347D
:103FE00000EB8200826C184602F0DABEC1EBC1021F
:103FF000D0F8043400EB8200D0F80822184602F012
:1040000025BF0000D0F8040402F05CBF10B50446E0
:1040100048B2B0F1FF3F01F00F00C0EBC00104EB6C
:10402000810205DD02F5FE71002382F8FD3104E016
:10403000012302F13C0182F83D3094F8BC23087062
:10404000012A04BF022010BD2068012284F8BC238D
:1040500003F002FC002084F8BC0310BDB0B5426838
:10406000044601F00F0082423CBF0120B0BD49B2BE
:10407000B1F1FF3F0ADDC0EBC00104EB810202F5A4
:10408000FE71002382F8FD3109E000BFC0EBC001E2
:1040900004EB8102012302F13C0182F83D3094F8E7
:1040A000BC230025012A8D70087004BF0220B0BD1A
:1040B0002068012284F8BC2303F0A8FE284684F877
:1040C000BC53B0BD01F00F01C1EBC10100EB810099
:1040D000D0F814027047000070B5064648B2B0F13F
:1040E000FF3F01F00F00C0EBC00107DD06EB8104CC
:1040F00004F5FE71002584F8FD5106E006EB810C05
:1041000001240CF13C018CF83D404D780870002DE5
:104110008A60CB7018BFC880022B04BF00200871D2
:1041200096F8BC03012804BF022070BD306801224C
:1041300086F8BC2303F0BAFA002086F8BC0370BDF1
:1041400010B501F00F0CCCEBCC0100EB810E00247C
:10415000CEE984340369CEF808228EF8FD41012BA4
:104160008EF8FCC108BFCEF80C2200680EF5FE7177
:10417000DAB2BCF1000F03D003F092FE002010BDB4
:1041800003F098FD002010BDB0B50446406801F072
:104190000F05854284BF0120B0BD48B2B0F1FF3F9A
:1041A0000ADDC1EBC10004EB800000F5FE710022C6
:1041B00080F8FD2109E000BFC5EBC50004EB8000DD
:1041C000012200F13C0180F83D2094F8BC0301225B
:1041D00001288A700D7004BF0220B0BD206884F8E9
:1041E000BC2303F03DFE1DB1002084F8BC03B0BD2C
:1041F0002068217C04F5717203F0DAFD002084F858
:10420000BC03B0BD10B501F00F0CCCEBCC0100EB42
:10421000810E714601F83CCF0024C1E905340369E1
:104220000124CA60012B4C7008BFCEF84C200068F6
:10423000DAB2BCF1000F03D003F032FE002010BD53
:1042400003F038FD002010BD2DE9F04F89B0D0F803
:1042500000B08146584603F049FF18B109B0BDE8E7
:10426000F08F00BFD9F8000003F06EFF0028F5D0F2
:10427000D9F8000003F068FF0146D9F8000089076B
:1042800003D5416901F00201416103F05DFF014680
:10429000D9F80000C9063CD5816921F0100181617F
:1042A000DBF82050C5F34340062805F00F0419D071
:1042B000022828D147F6F07015EA000623D0C4EB97
:1042C000C40009EB8007D7F80812350958462A467A
:1042D00003F03EFFD7F8080200EB1610C7F80802FB
:1042E00008E000BF09F571715846082203F030FF5D
:1042F000C5F30A15C4EBC40009EB8000D0F8141212
:104300002944C0F81412D9F80000816941F0100165
:10431000816103F019FF000340F1D680D9F8000055
:1043200003F0F0FE002800F0CF80064609F571701A
:1043300009F501744FF000084FF4306A08901BE053
:10434000F80642BF0BEB0A0010218160B80642BF9D
:104350000BEB0A0020218160B80442BF0BEB0A007E
:104360004FF40051816008F1010876080AF1200A33
:1043700004F11C0400F0A880F007F4D0D9F8000084
:104380005FFA88F5294603F0D7FE0746C00761D0DB
:104390000BEB0A0001218160D9F800000AEB000C48
:1043A000036CDCF80820D9F81010012922D111077C
:1043B00030D4910600F1808012F0280F4AD143F2E8
:1043C0000B01C4F654718B4202D312F400412AD17E
:1043D000DCF81010D4E900236FF3DF41511A21619A
:1043E0009918B8F1000F616030D1D9F8101269BB8B
:1043F000012128E043F20B01C4F65471FF318B42D6
:104400001AD110040FD4900644BF2020CCF8080025
:104410001CE000BF43F20B00C4F65470834219D372
:1044200012F4004016D04FF40040CCF808003807D2
:104430007FF586AF11E000BFB8F1000F06D1D9F8C3
:10444000101219B90021089A03F0B2FC4846294617
:10445000FFF7CCFD38077FF573AF0BEB0A0008219F
:104460008160D9F8000043F20B02056C504481686A
:10447000C4F65472954209D311F4004106D04FF4AA
:1044800000418160484600F0FBFB09E0484600F02F
:10449000F7FB43F20B00C4F654708542FFF450AFB3
:1044A000D9F8100001287FF44BAFD9F80000089A22
:1044B000012103F07DFC43E72020CCF808003807F9
:1044C0007FF53EAFC9E700BFD9F80000CDF810B0C6
:1044D000CDF8209003F038FE400340F1C5800898E5
:1044E000006803F007FE002800F0BE8083460498B1
:1044F000002400F5106708984FF0010A00F571706C
:104500000290039706E000BF5FEA5B0B04F1010431
:1045100000F0AA805FEACB70F6D0089EE1B2306866
:10452000079103F0F7FD0546C00725D0049A04F073
:104530000F00D2F834180AFA00F021EA0000C2F89D
:10454000340807EB4410C0F808A0306901280FD1E7
:10455000C4EBC40006EB8000D0E911121144816461
:1045600034B9306D20B93068029A012103F020FC83
:1045700007993046FFF730FD280742BF07EB44108C
:1045800008218160E80642BF07EB441010218160DA
:10459000680642BF07EB441040218160A80742BF74
:1045A00007EB4410022181602806ADD50899C4EBC1
:1045B000C40001EB8002914659F8501FC84658F8D4
:1045C000040F8142A0D3089B92461E685AF8447F8C
:1045D0000B1ABB4238BF1F46069606EB4413D3F8AE
:1045E00018C907F1030E1FFA8CF7B7EB9E0F29D3FA
:1045F00003F5106102F14807059100BFD9F80010DA
:1046000081421FD9DAF80050089A081AA84239687E
:10461000167C38BF0546DDE90602ABB2009603F012
:1046200093FE3868D8F80010284438604819059976
:10463000C8F800008969EA1C89B2B1EB920FDDD29B
:10464000D9F80010039F4FF0010A81423FF65CAF9A
:10465000069A04F00F00D2F834180AFA00F021EAA2
:104660000000C2F834084FE7089C206803F06CFD96
:1046700000280BD42068049D03F066FD000525D4B6
:10468000206803F061FD000130D43AE0049DD5F8C4
:10469000040820F00100C5F8040894F8F403012888
:1046A00008D1002084F8F40320460021FFF7E8FB3E
:1046B00003E000BF204600F0C7FA2068416901F01E
:1046C0000041416103F040FD0005D9D5D5F8080847
:1046D000C00702D0204600F0FBFA2068416901F4CF
:1046E0000061416103F030FD00010AD52068416995
:1046F00001F00061416194F8F41349B1204600F0E3
:10470000E7FA206803F020FDC00411D420681FE1FF
:10471000012184F8F413406DC0F38300C4F8F8035A
:104720002046FFF7ADFB206803F00EFDC004EDD579
:10473000D5F80408102120F00100C5F8040820680D
:1047400005F5006803F0ACFC6168002900F0D18039
:10475000042901F0030001D200217AE021F00302D4
:1047600000214FF67F3300BF6F18C7F80839D7F81C
:104770000069043A26F40016C7F80069D7F8006902
:1047800001F1800146F00066C7F80069C7F8083BF0
:10479000D7F8006B26F40016C7F8006BD7F8006B4B
:1047A00046F00066C7F8006BC7F82839D7F82069CB
:1047B00026F40016C7F82069D7F8206946F000668D
:1047C000C7F82069C7F8283BD7F8206B26F40016F5
:1047D000C7F8206BD7F8206B46F00066C7F8206B4F
:1047E000C7F84839D7F8406926F40016C7F8406979
:1047F000D7F8406946F00066C7F84069C7F8483BFB
:10480000D7F8406B26F40016C7F8406BD7F8406B1A
:1048100046F00066C7F8406BC7F86839D7F860699A
:1048200026F40016C7F86069D7F8606946F000669C
:10483000C7F86069C7F8683BD7F8606B26F40016C4
:10484000C7F8606BD7F8606B46F00066C7F8606B1E
:104850008AD100284DD005F5106253184FF67F37E6
:104860009F605358012823F400135350565805F500
:10487000306346F00066565003EB0106B7605E58A1
:1048800026F400165E505E5846F000665E5030D04A
:1048900001F120069519AF609559022825F40015FD
:1048A0009551955945F00065955103EB0605AF60AC
:1048B0009F5927F400179F519F5947F000679F5158
:1048C00017D001F1400011184FF67F378F60115853
:1048D00021F400111150115841F0006111501918C4
:1048E0008F60195821F400111950195841F00061D6
:1048F0001950D8F81C0040F00110C8F81C00206BBB
:1049000040B1D8F8840040F00B00C8F8840008F1EA
:10491000440008E0D8F8140042F22B010843C8F81C
:10492000140008F11000016804F5717241F00B01E8
:104930000160D8F8000020F4FE60C8F8000020688C
:10494000217C03F035FA2068416901F4805141610E
:1049500003F0FAFB01462068890415D502F0E8FE51
:10496000206803F0B5FB2568E06000F09DFC227B29
:104970000146284603F05CFC204600F04FF9206811
:10498000416901F40051416103F0DEFB00072DD4C1
:10499000206803F0D9FBC00234D52046002100F086
:1049A0004FF82068416901F48011416103F0CCFBAC
:1049B00080022CD52046002100F046F8206841698D
:1049C00001F40011416103F0BFFB400024D52046F3
:1049D000FFF7FEFA2068416901F08041416103F070
:1049E000B3FB40077FF53AAC1CE000BF204600F067
:1049F0002FF92068416901F00801416103F0A4FB2F
:104A0000C002CAD4206803F09FFB8002D2D4206881
:104A100003F09AFB4000DAD4206803F095FB4007CE
:104A20007FF51CAC20684568690703D52046FFF771
:104A3000E9FA206841682943416009B0BDE8F08F78
:104A4000D0F8040402F09CBAD0F8040402F09ABA38
:104A5000002804BF012070472DE9F04F8BB00446B9
:104A6000056890F8BD0328B9002084F8BC032046EF
:104A700000F094F8032084F8BD03E86BC0055CBF28
:104A800000202061206803F00DF9206804F11C0A61
:104A90000A90D4E90C5004F1040E9AE8C0079EE88D
:104AA0000E58CDE9085003A880E8C0030A988DE8A5
:104AB0000058CDF81CA002F04BFE002853D120680E
:104AC0000021002503F088FB616869B30120002301
:104AD000002200BFC3EBC30304EB830787F83C202D
:104AE000D3B20132A7F84230D3B2994287F83D00E1
:104AF00087F83F50C7E911553D65EBD800200023EA
:104B0000002200BFC3EBC30304EB830787F8FC213B
:104B10000132D3B2994287F8FD0187F8FF01C7E956
:104B20008100C7F81002EDD8A06822680A90D4E985
:104B30000C5004F1140E04F1240AD4E903379EE862
:104B400040589AE80007CDE9085002A880E80058CC
:104B500010460A9ACDE90076CDE90589CDF81CA06A
:104B600002F0DEFE30B1022084F8BD0301200BB05C
:104B7000BDE8F08F002084F83800012084F8BD03E0
:104B8000606A012802D12046FFF766F9206802F02A
:104B9000B7FE00200BB0BDE8F08F00000068B0F158
:104BA000A04F18BF7047B0B586B0002543F630045B
:104BB0000195C4F20204206801A940F001002060C0
:104BC000206800F00100019001984FF4C05001905E
:104BD0000220CDE90205032004900A200590002060
:104BE000C4F20200FEF74AFE6068002140F0800037
:104BF000606000956069002240F4804060616069F7
:104C000000F48040009000984320FFF7E9F843202B
:104C1000FFF7D4F806B0BDE8B040704710B50446C1
:104C2000C06828B1022801D0FEF72AFA012100E06D
:104C30000021D4F8040402F011FAD4F80404BDE809
:104C4000104002F0C7B90000D0F8040402F0EEB939
:104C5000D0F8040402F0F4B910B5044690F8BC038F
:104C6000012804BF022010BD012084F8BC0384F891
:104C70003810206803F0CAFA002084F8BC0310BD85
:104C8000D0F8042400F57171104602F0FDB900005F
:104C900010B5044690F8BC03012804BF022010BDE3
:104CA000A16A20680122012984F8BC2306D1A169E8
:104CB000012903D0816B41F48031816303F0E8F96D
:104CC000206802F00DFE002084F8BC0310BD000037
:104CD00010B50446D0F8040402F02AFA2068D0F88F
:104CE000001E41F00101C0F8001E206A002808BF24
:104CF00010BD4EF61050CEF20000016841F00601E2
:104D0000016010BD2DE9F04381B00446006843F610
:104D10008C06C107C4F2020604D14FF000098107D6
:104D20000CD415E03168A26B21F0C06111433160F1
:104D3000B2FA82F14FEA5119810709D53168E26B65
:104D400021F0C05111433160002A08BF4FF0010922
:104D5000410705D44FF00008010712D420E000BF3E
:104D60003168226B21F4401111433160B2FA82F1B3
:104D70004FEA5118B2F5801F08BF4FF00109010733
:104D80000ED53168626B21F440011143B2F5800FFA
:104D9000316008BF4FF00109002A08BF4FF0010839
:104DA00081065AD50020009056F84C0C47F20007B7
:104DB00040F0805046F84C0C56F84C0CC4F20007FA
:104DC00000F0805000900098386840F4807038609F
:104DD000FEF740FE054600BF3868C00506D4FEF762
:104DE00039FE401B0228F7D990E100BF56F81C0C91
:104DF00010F4407017D0216C01F44071884212D039
:104E000056F81C0C40F64061C4F24721012220F400
:104E100040700A6000220A6046F81C0C56F81C0C10
:104E2000C00740F07B812068216C56F8842C4FF637
:104E3000FF4701F4407322F4F812C0F6FF770F40E9
:104E4000B3F5407F08BF3A4346F8842C56F81C2C33
:104E50006FF31F31114346F81C1CC10610D4010624
:104E600019D441061FD4C10525D4810530D441058C
:104E700036D4B9F1000F3FD1B0F5006F63D13BE0FC
:104E800094F8580040F64061C4F24721C1F8A003ED
:104E900020680106E5D5B168E26C21F440011143B8
:104EA000B1604106DFD5B168A26C21F08061114389
:104EB000B160C105D9D5B168626D21F000611143BF
:104EC000B160B2F1006F08BF4FF001088105CED587
:104ED000B168626C21F080511143B1604105C8D5C1
:104EE000B268216D22F000520A43B0F5006FB26043
:104EF00018BFB1F1005F23D140F26809C4F247291D
:104F00000020C9F80000FEF7A5FD054656F88C0CF8
:104F1000000105D5FEF79EFD401B0228F6D9F5E0FD
:104F20002068C10702D0A16B00296FD0810702D58C
:104F3000E16B00296AD0410700F17D807FE000BF6E
:104F4000B9F1000FD8D1B8F1000F4FF0000000F018
:104F5000DE806827C4F24727B860FEF77BFD054670
:104F600056F88C0C800005D5FEF774FD401B022816
:104F7000F6D9CBE02068410701D5216B19B10107B3
:104F80001AD5616BC1B956F8041CD4E9062301F4A3
:104F90004031656A114341EA831141EA0561D4F861
:104FA0002CC046F8041C31686FF0FF0221F4F85160
:104FB00002EB0C2211433160C00516D5606DB0F1D3
:104FC000006F12D156F8040C226AD4E9061300F0DF
:104FD0007060D2034FF6FF75AA430843A2F58032F2
:104FE00040EA8310104346F8040C0120B860FEF735
:104FF00031FD044656F88C0C800000F18B80FEF7E2
:1050000029FD001B0328F5D380E000BF56F8081CDB
:1050100056F8082CD4E9013501F4403102F07062F1
:1050200019436769114341EA851141EA077146F85E
:10503000081C410703D5216BB1F5801F05D001077E
:105040001FD5616BB1F5800F1BD156F8081C56F8BF
:10505000082CD4E9013701F4403102F0E042194351
:105060002569114341EA871141EA0561D4F828C056
:1050700046F8081C3168ACF1010221F01F01114310
:10508000316041051FD5216DB1F1005F1BD1271D96
:1050900056F808CC56F8082CA8CFFF034FF6FF713E
:1050A00027EA01014FF0C06702F0E04207EA4C270F
:1050B00007F100771A433A43A1F5803142EA85129D
:1050C000114346F8081C000510D5271D8FCF40EA74
:1050D0008110D1034FF6FF729143A1F5803140EA70
:1050E0000360084340EA077046F8080C0120C9F83D
:1050F0000000FEF7AFFC054656F88C0C00013FF5AA
:1051000022AFFEF7A7FC401B0228F5D9032001B00F
:10511000BDE8F083002001B0BDE8F083FEF79AFC03
:10512000054641F2883700BF56F81C0C80073FF552
:105130007AAEFEF78FFC401BB8424FF00300F3D964
:10514000E5E70000002804BF012070472DE9F04189
:1051500043F60808C4F202080446D8F8F8030D46DE
:1051600000F00F00884207D288F8F853D8F8F80307
:1051700000F00F00A84277D12068810717D54107BA
:1051800005D5D8F8001041F4E051C8F80010010727
:1051900005D5D8F8001041F46041C8F80010D8F8DF
:1051A0000010A26821F0F0011143C8F80010C007F8
:1051B00040D1D8F8F80300F00F00A84207D988F8CA
:1051C000F853D8F8F80300F00F00A8424CD120683B
:1051D000410707D5D8F80010E26821F4E0511143E7
:1051E000C8F80010000708D5D8F80000216920F49D
:1051F000604040EAC100C8F8000000F05BF8D8F851
:1052000000104DF2C022C1F30311C0F60002515C40
:1052100040F2380220FA01F140F21000C2F2000020
:105220000068C2F200021160FEF788FD0020BDE8B0
:10523000F08100BF6068811E022907D258F8081C5F
:1052400089015CBF0120BDE8F08111E0012807D190
:1052500058F8081C89035CBF0120BDE8F08107E015
:1052600058F8081C890703D40120BDE8F08100BF6D
:10527000D8F8001021F003010843C8F80000FEF739
:10528000E9FB064641F28837D8F80000616800F073
:105290000C00B0EB810F8CD0FEF7DCFB801BB8421A
:1052A000F2D90320BDE8F08140F23800C2F20000DC
:1052B0000068704710B543F60404C4F20204606845
:1052C000C0F3810142F20040C0F2F400DFE801F0D7
:1052D0004102082641F60030C0F2B70010BD00BF01
:1052E000206821682368490241F60031C0F2B70105
:1052F00000F03F02C3F388105CBF42F20041C0F2ED
:10530000F401A1FB00010023FDF746F92168022208
:10531000C1F3014102EB410119E000BF206821689F
:105320002368490241F60031C0F2B70100F03F02A4
:10533000C3F388105CBF42F20041C0F2F401A1FB4C
:1053400000010023FDF728F92168C1F30271B0FBC9
:10535000F1F010BD2DE9F04182B00446007843F62B
:105360000006C007C4F202062BD0B06800F00C00A3
:10537000042821D0B06800F00C00082802D1706821
:10538000400219D4B06800F00C000C2802D17068FB
:10539000400211D46068B0F5803F07D0B0F5A02F6F
:1053A00040F00C81306840F480203060306840F478
:1053B000803030600CE100BF3068800301D5606848
:1053C00090B32078800720D5B06810F00C0F0FD074
:1053D000B06800F00C00082802D17068400207D5C0
:1053E000B06800F00C000C286ED1706840026BD4DD
:1053F0003068800702D5E068012815D1306821693E
:1054000020F0F80040EAC1003060207800070FD497
:105410002078400722D4A569002D00F00F81B068E4
:1054200000F00C00082879D1012002B0BDE8F0811D
:10543000606900285ED00020C4F247200121C0F836
:10544000801EFEF707FB0546706F8007E0D4FEF76D
:1054500001FB401B0228F7D9C7E000BF306C5FEAB0
:10546000C0080AD400200190306C40F080503064B5
:10547000306C00F080500190019847F20007C4F2B0
:1054800000073868C00511D4386840F4807038606F
:10549000FEF7E0FA054600BF3868C00506D4FEF7FF
:1054A000D9FA401B0228F7D99FE000BFA068012865
:1054B00005D0052854D1306F40F004003067306FBC
:1054C00040F00100306755E0E068002862D000201D
:1054D000C4F2472001210160FEF7BCFA054600BF77
:1054E000306880073FF58AAFFEF7B4FA401B022808
:1054F000F6D97AE00020C4F247200021C0F8801ECF
:10550000FEF7A8FA054600BF706F80077FF580AFF1
:10551000FEF7A0FA401B0228F6D966E00027C4F285
:10552000472700203866FEF795FA022D05460BD175
:10553000306880015ED5FEF78DFA401B02284FF0DF
:105540000300F5D9A9E000BF3068800176D5FEF7E9
:1055500081FA401B03284FF00300F5D39DE000BF04
:10556000316F002821F001013167316F21F0040112
:10557000316767D0FEF76EFA054641F2883700BF03
:10558000306F800770D4FEF765FA401BB842F7D938
:105590002BE000BF0020C4F2472000210160FEF78D
:1055A00059FA0546306880077FF52FAFFEF752FAAB
:1055B000401B02284FF00300F4D96EE03168002848
:1055C00021F480313160316821F48021316055D07F
:1055D000FEF740FA054600BF306880033FF5F1AEA4
:1055E000FEF738FA401B6428F6D9032002B0BDE864
:1055F000F08100BF04F11C052FCD246B084340EA65
:105600008210D9034FF6FF729143A1F5803140EA31
:105610000560084340EA0470706001203866FEF7B8
:1056200019FA04463068800108D4FEF713FA001B0B
:1056300002284FF00300F5D92FE000BF002002B090
:10564000BDE8F081FEF706FA054641F2883700BF53
:10565000306F800708D5FEF7FDF9401BB8424FF0C8
:105660000300F5D919E000BFB8F1000F3FF5D3AE44
:10567000306C20F080503064CDE600BFFEF7EAF9D0
:10568000054600BF306880037FF59BAEFEF7E2F968
:10569000401B64284FF00300F4D902B0BDE8F0814C
:1056A000411E0020B0EB116F1CBF012070474EF26D
:1056B0001002CEF2000251604EF62351CEF20001EC
:1056C000F0230B7007219060116070477047000055
:1056D0007047000090F83C20012A4FF0020254D09D
:1056E00010B580F83D200268D2F804E0D2F808C076
:1056F0000C682EF07003234341F2FF74C4F20004DF
:10570000A24253600EDC40F2FF73C4F200039A42DF
:1057100016DCB2F1804F2BD040F20043C4F20003FC
:1057200024E000BF40F2FF33C4F201039A4213DCCD
:1057300041F60003C4F200039A4219D0002313E09B
:1057400040F60003C4F200039A4211D040F6004331
:10575000C4F200030AE000BF44F20003C4F20103F4
:105760009A4205D040F20043C4F201039A4204D1A8
:1057700049682CF08003194391600121002280F8D0
:105780003D1080F83C20BDE81040104670470000F6
:10579000002804BF0120704710B5044690F83D0072
:1057A00028B9002084F83C00204600F00DF80220C3
:1057B00084F83D002068211D00F0A6FE012084F839
:1057C0003D00002010BD00000068B0F1804F18BF00
:1057D000704780B582B00020019043F64000C4F2CB
:1057E00002000168002241F001010160006800210F
:1057F00000F00100019001981C20FEF7F1FA1C2036
:1058000002B0BDE88040FEF7D9BA00000068C16868
:1058100041F00101C160816801F00701062903D050
:10582000016841F0010101600020704790F83C20C0
:10583000012A4FF0020200F0C28080B580F83D20BE
:10584000D0F800C04FF67772DCF8083023EA020285
:10585000CCF808200B683F2B1CDD5F2B20DD602B74
:1058600050D0B3F5005F6DD0702B40F0A080D1E92F
:1058700001E3C968DCF8082043EA0E0322F47F4202
:1058800043EA01211143CCF80810DCF8081041F07C
:1058900077018AE01F2B29DC63B3102B2AD086E026
:1058A000402B63D0502B40F08280D1F804E0C968CF
:1058B000DCF82030DCF8202022F00102CCF8202097
:1058C000DCF8182022F0F00242EA011123F00A026B
:1058D00042EA0E02CCF81810CCF82020DCF80810B0
:1058E00041F0570121F020015FE000BF202B01D0E3
:1058F000302B5CD1DCF8081021F07001194341F025
:10590000070152E0D1F804E0C968DCF8203023F048
:105910001003CCF82030DCF81830DCF8202023F419
:10592000704322F0A00243EA013142EA0E12CCF8A1
:105930001810CCF82020DCF8081041F0670121F0A5
:10594000100132E0D1E901E3C968DCF8082043EA3C
:105950000E0322F47F4243EA01211143CCF80810E0
:10596000DCF8081041F480411FE000BFD1F804E0EA
:10597000C968DCF82030DCF8202022F00102CCF8E5
:105980002020DCF8182022F0F00242EA011123F076
:105990000A0242EA0E02CCF81810CCF82020DCF8FB
:1059A000081041F0470121F03001CCF80810012126
:1059B000002280F83D1080F83C20BDE88040104671
:1059C000704700007047000010B501680446086980
:1059D000800744BFC8685FEA807039D4086940070F
:1059E00044BFC8685FEA40703ED40869000744BFFE
:1059F000C8685FEA007045D40869C00644BFC8683B
:105A00005FEAC0604AD40869C0071CBFC8685FEA83
:105A1000C07051D10869000644BFC8685FEA0060E1
:105A200052D40869400644BFC8685FEA406053D456
:105A30000869800646BFC8685FEA806010BD6FF0E5
:105A4000200220460A61BDE81040FFF741BE00BFBA
:105A50006FF002000861012020778869800743D039
:105A60002046FFF7AFFF45E06FF004000861022019
:105A70002077886910F4407F40D02046FFF7A2FFCE
:105A800042E000BF6FF00800086104202077C86979
:105A900080073DD02046FFF795FF3FE06FF01000F4
:105AA000086108202077C86910F4407F3AD020466A
:105AB000FFF788FF3CE000BF6FF00100086120465F
:105AC00000F03EF82168A5E76FF0800008612046ED
:105AD000FFF7FCFD2168A4E76FF040000861204655
