:020000040800F2
:1000000018150020DD01000827440008734000088F
:1000100025440008A12F00082D470008000000001B
:10002000000000000000000000000000A1440008E3
:10003000A32F00080000000029440008CD44000858
:10004000F7010008F7010008F7010008F7010008B0
:10005000F7010008F7010008F7010008F7010008A0
:10006000F7010008F7010008F7010008F701000890
:10007000F7010008F7010008F7010008F701000880
:10008000F7010008F7010008F7010008F701000870
:10009000F7010008F7010008F7010008F701000860
:1000A000F7010008F7010008F7010008F701000850
:1000B000F7010008F7010008F7010008F701000840
:1000C000F7010008F7010008F7010008F701000830
:1000D000F7010008F7010008F7010008F701000820
:1000E000F7010008F7010008F7010008F701000810
:1000F000F7010008F7010008F7010008F701000800
:10010000F7010008F7010008F7010008F7010008EF
:10011000F7010008F7010008F7010008F7010008DF
:10012000F7010008F7010008F7010008F7010008CF
:10013000F70100080000000000000000F7010008BF
:10014000F7010008F7010008F7010008F7010008AF
:10015000F7010008F7010008F7010008F70100089F
:10016000F7010008F7010008F7010008F70100088F
:10017000F7010008F7010008F7010008000000007F
:1001800000000000F701000800000000000000006F
:10019000F70100080000000000000000F70100085F
:1001A000000000000000000000000000F70100084F
:1001B000F7010008F7010008F7010008F70100083F
:1001C000F7010008DFF810D002F0D8FE0048004721
:1001D0007D6D0008AFF300801815002006488047A9
:1001E00006480047FEE7FEE7FEE7FEE7FEE7FEE71C
:1001F000FEE7FEE7FEE7FEE785450008C5010008CB
:1002000010B5F949C4074FF040434FF0804205D084
:100210008B66CB66C1E91C328A67CA67840709D539
:10022000C1F80031C1F80431C1E94232C1F81021EE
:10023000C1F81421400709D5C1F89831C1F89C31A3
:10024000C1E96832C1F8A821C1F8AC2110BD2DE97F
:10025000F14F82B0002102988A468946806F0028BB
:100260007DD000220020401C0428FCDB02984FF0C7
:10027000000C00EBC203D3E90010A1FB0167D3E936
:10028000065400FB017701FB0077CDE90067A64625
:10029000AE1B64EB0704AB460327A6FB075804FB21
:1002A000078406FB0C44DDE90067AD197C41A5FB22
:1002B000016704FB017405FB0045D3E90C47341BBF
:1002C00065EB0705CDE900455D46A5FB0567032401
:1002D000A6FB04580EFB0B770BFB0E7707FB048481
:1002E00006FB0C44D3E91263761B63EB04034C1842
:1002F000A4FB017C40EB000505FB01C504FB005598
:10030000A7FB014C05FB01C507FB0055A4FB017CC5
:1003100005FB01C504FB0054F6196341DDE9004506
:10032000AD0045EA9475A400A4FB017C05FB01C166
:1003300004FB0014F01B73EB040103D500234042BF
:1003400063EB0101BAEB000479EB010301DA8246A9
:100350008946521C032A85DB5046494600E010E0DE
:1003600002F05FFCA149896B02F064FA02F099FC8B
:100370009D4AD2F80C2203B09200BDE8F04F02F083
:100380007EB9002003B00146BDE8F08F2DE9F14FA2
:100390000020009A0146926FF2B300240022521C02
:1003A000042AFCDB009A02EBC405AA46D5E9002921
:1003B000A2FB023CD5E906769E46FB1A0325A3FB69
:1003C000057809FB02CC02FB09CB66EB0B0606FBAA
:1003D00005854FF0000C03FB0C5617EB0E03A3FB37
:1003E000027C46EB0B0606FB02C203FB0923DAE99B
:1003F0000C25BA1AAB4103D50025524265EB030325
:10040000851A71EB030501DA10461946641C032CAA
:10041000C4DB02F006FC00E00EE07449896B02F0D8
:1004200009FA02F03EFC704AD2F80C22BDE8F84FFF
:1004300002EB420202F023B900200146BDE8F88F2A
:100440002DE9FE43684D80460024D5F810626F46C2
:1004500005EBC4013246D1E9020102F001F905EBD6
:100460008401B1F884100904401847F8240004F10D
:100470000104032CECDB5C489821083002F038F9C9
:100480000120FFF7BDFE95F8E8010199042807D186
:10049000D5F81802B0F5201F02DD052085F8E80127
:1004A000524C0098636AC11A01D40E4600E01E1A2D
:1004B0000198A26A801A01D4074601E0019FD71B68
:1004C000BE4206DD002901D4084606E00098181A4D
:1004D00003E0002801D50198101A029AE16A521A25
:1004E00001D4134601E0029BCB1A834205DB002AAC
:1004F00001D4104601E00298081AD8F8241005F03B
:100500009EFFD5F81812814206DD0321684606F0E9
:1005100037FB022006F086FB009860620198A0621B
:100520000298E062BDE8FE83304AC2E902017047EA
:100530002E4AC2E9060170472C4AC2E904017047FD
:10054000294AD2F8E0310360D2E97402C1E900021D
:100550007047254AD2F8E0310360D2E97602C1E95A
:10056000000270472DE9FE4781460020EA468A6F67
:1005700022B901EB800339F91020DA6701EB800220
:1005800039F91030D46F1D1B4AF82050136E9D426C
:1005900000DD1566D36E9D4200DAD5660123002486
:1005A00022464FEAE578A3FB056704FB057403FBCD
:1005B0000844334602EB420601EBC60606EBC00CCC
:1005C000DCE90076FF186641CCE90076521C042A6B
:1005D000E9DB401C0328CADB886F401C88670120C8
:1005E000C1F89000BDE8FE8758060020B80800203A
:1005F00030B5002302EB830550F823405B1CEC660A
:10060000032BF7DBC2F88810916F79B1002102EB60
:10061000810450F82130E56F5B1B00D55B42256EED
:100620009D4200DA2366491C0329F0DB906F401CD1
:1006300090670120C2F8900030BD10B500210B4634
:1006400000EB8102491CD46ED46713660329F7DBE3
:10065000D0F8881040F8783FC0E9051310BDD0E904
:100660002210081A70470146D1E91802824200DBC5
:100670001046896E814200DB084670472DE9F0473D
:100680008046501E012686408946C2F1200740461A
:1006900001F0F5FF04460D46404649463A4601F052
:1006A000DFFF3A4601F0EBFFB04203DD641C45F189
:1006B000000505E07142884202DA641E45F1FF350B
:1006C00020462946BDE8F087F749002008624862C5
:1006D0008862C862086448648864C86408634863C0
:1006E0008863C863086548658865C865704730B524
:1006F000EE4AD2F8483223B1D2E990542D1A8C41F7
:1007000001DAC2E990015B1CC2F8483230BD30B555
:10071000E64AD2F8583223B1D2E994542D1A8C41CA
:1007200001DAC2E994015B1CC2F8583230BD30B521
:10073000DE4AD2F828322BB1D2E98845041B71EB8E
:10074000050401DAC2E988015B1CC2F8283230BD19
:1007500030B5D64AD2F838322BB1D2E98C45041BD9
:1007600071EB050401DAC2E98C015B1CC2F8383276
:1007700030BD2DE9F0470246CC48012508308046BF
:10078000C36E016E046FC91A436E1B1B8B4200DBE4
:100790001946836ED8F87400181A884200DB0146A7
:1007A000C14F6037F86B884204DA002400F00AFA7F
:1007B000204687E7108E0124BC4EC0054FF0000193
:1007C0000ED5D6F880303068834209DBB2F8742049
:1007D000D20506D5D6F8B021824201DB052400E01F
:1007E0000C4674B3600719D5AF48C8388146FFF787
:1007F0002EFD000D40EA01300915C6E97601D7E962
:1008000004321B1A8A4102DA0025FFF7A1FF982162
:10081000484601F06DFF0420FFF7F2FCE0070ED020
:100820004046FFF714FDC6E97C01D7E906340246CD
:10083000181A8C4103DA00251046FFF778FF284686
:1008400040E7FFE702203DE71EB5044690F8300080
:10085000C0F38110032804D19449201D0831FFF70B
:1008600081FE94F87400C0F38110032805D18E49ED
:1008700004F14800C839FFF775FED4F8B8008B4A78
:10088000C0F38113A0326946032B0FD0C0F341108F
:1008900003281AD1002004EB8003D3F8A0309B1367
:1008A00041F82030401C0328F5DB09E0002004EB70
:1008B0004003B3F98C3041F82030401C0328F6DBAC
:1008C0006846D4F8C010FFF793FE1EBD2DE9F0472F
:1008D00005460020296BCA0567D501F05001402963
:1008E00000D1012095F8741001F05001402900D189
:1008F000012095F8B8106D4C01F05001402900D04E
:1009000030B100F05FF90020C4F8E00184F8E8019C
:10091000654ED4F80812E86A6036814225D0C4F8E2
:1009200008020A28306B0ADA40002060716B491C0B
:10093000C4F80C1202F067F907F0B4F804E0206084
:10094000706BC4F80C02B06BC4F81402D4F80C023B
:10095000C0F11000C4F810024FF48040C4F818022F
:1009600096F8341019208840F0632846FFF76CFF92
:1009700094F8E811DFF8349105274FF0020809F1E7
:10098000A009072911D2DFE801F0041127305E7EAB
:100990008500D4F8E001411CC4F8E0110A2804DB0A
:1009A00000F010F9012084F8E80186E0D4F89800FE
:1009B000012810D12846FFF7DCFE10B1012803D032
:1009C00004E084F8E87101E084F8E8814846FFF724
:1009D00034FEFFF779FE70E0032084F8E801284632
:1009E000FFF72EFD00F0EEF867E02846FFF7C1FEA6
:1009F000F0B3012861D1B5F8B8004FF00403C00589
:100A000015D54846FFF72FFE0146C017C4E97410FC
:100A1000D6E902C2BCEB0101824102DA84F8E87136
:100A200008E04846FFF71BFE316A884202D384F88B
:100A3000E83124E0F4E97601FFF769FED4E9060124
:100A4000FFF755FE39E0B5F8B800C0050BD54846AC
:100A5000FFF709FE0146C017C4E97410D6E9023257
:100A6000591A824108DB2846FFF783FE00B100E0F7
:100A700002E0012803D020E084F8E8711DE0284658
:100A8000FFF7DEFCD6E7062084F8E801012006F037
:100A9000C9F80DE02846FFF76CFE012801D038B1F7
:100AA0000BE084F8E88108E0580800205806002090
:100AB00000F088F84846FFF7C0FD002002E610B5B8
:100AC00000214010002802D001F10101F9DC454C61
:100AD0004FF0010001F1010100FA01F0C4E90C013D
:100AE00002F091F806F0DEFFA06394F834101920AC
:100AF0008840E06310BD10B54FF418713A4801F01A
:100B0000F7FD4021374801F0F3FD0720FFF778FBA0
:100B1000344840F2DC510022C0E906121421C0E939
:100B200002124FF41671C0E9041230492E4C0162D2
:100B30000120C4F8E4011920FFF7C1FF0020C4F828
:100B4000080210BD10B54FF41871274801F0D0FD10
:100B50000720FFF755FB244801210022C0F8E411CB
:100B600080F8E8110321012006F052F807226421E1
:100B7000AFF2A720BDE8104005F0A4BE10B50120DB
:100B800006F050F8AFF2BB20BDE8104006F0ACB85C
:100B900010B5FFF7B0FF002805D1AFF25700BDE850
:100BA000104005F017BF10BD10B5FFF7E7FFAFF21B
:100BB0006B00BDE8104006F0BDB80B49D1E97C01DF
:100BC00070477047084810B59821083001F090FD33
:100BD0009821074801F08CFDBDE810400520FFF783
:100BE0000FBB0000B8080020580600200008AF2FF7
:100BF000900700202DE9FC5F0D460026416B9946C9
:100C00009246B046002904DBD0F8BC00032800D18E
:100C10000126FF492422081F01F043FDFC4FC03F7D
:100C20000024C7F8E05007EB8400D0F8BC10404621
:100C300001F076FD641C80460A2CF4DBF54901F0D6
:100C4000F9FDF54C80464FF0C80BC7F8E400BAF147
:100C5000320F21DB4846C7F81CB101F0D4FF0090E9
:100C60000190EE49284601F0E5FD019901F0B0FD43
:100C7000214601F0DFFD0446BAF57A7F33DBE8490F
:100C80002846009C01F0D6FD214601F0A1FDE24975
:100C900001F0D0FD044626E041F2883199FBF1F0E5
:100CA0004042D7F81C1100EB80004018C7F81C0127
:100CB00002D50020C7F81C01484601F0A4FF824677
:100CC000D849284601F0B6FD514601F081FD214684
:100CD00001F0B0FD0446D7F81C0120B9D7F828016F
:100CE000012800D10024D7F8200100B12C46CE49BC
:100CF000894500D12C4614F0FF4F11D04046C7F86B
:100D0000E880414601F05EFD20F00040C74902F056
:100D100059F822D2D7F8B80010F0FF4F03D01CE0EA
:100D2000D7F8E800EDE7C6B14846C7F81CB101F0B6
:100D30008EFF04460E46284601F0F3FF0022BC4B0E
:100D400001F0DBFE2246334601F065FE0022B94B7E
:100D500001F0D3FE02F010F804462046BDE8FC9FE7
:100D60002DE9F04FABB04FF0000AA94FCDF810A01D
:100D7000C03FCDF814A0CDF818A00446D7F8201134
:100D8000022003297DD0002620AD07EB8600D0F895
:100D9000A80001F038FF6FF01D0101F089FD45F852
:100DA0002600761C042EF0DB0FA805F077F824A8A7
:100DB00005F0BAF8964B24AA183B0FA920462793B2
:100DC00000F0F4F9064604F1180005F00BF9820969
:100DD0009548D7F83031834200DB03463146204640
:100DE000FFF708FFBB4607F1B806D7F8EC1001F093
:100DF000EFFC30600BA805F051F813A90BA805F023
:100E0000F4FC83480FAA3C300BA9064605F073FB9F
:100E100031460BA805F04CFB00210DF13C080DF10B
:100E20004C090DF1100E00221346104601EB410C47
:100E30000CEB000759F8276008EB8007401C7F681F
:100E40000328C6FB0723F3DB900F40EA83004EF82C
:100E50002100491C0329E6DBDBF820015F4600285E
:100E60007DD05046CDF818A0404201F0CCFE6FF086
:100E70001D09494601F01CFD04F09CFDD046564674
:100E800000E074E0CDE9000A0698CDF808A04042E1
:100E900001F0B9FE494601F00BFD06F0FBFD0390A1
:100EA000D7F8300141F2883190FBF1F04FF0804AE1
:100EB00001F0A9FE28902990069801F0A4FEDFF821
:100EC00078B1594601F0B6FC299901F0B3FC5146BE
:100ED00001F0B0FC01F0CCFE40000690DDF8A0A0CF
:100EE00001F091FE594601F073FC514601F070FC8F
:100EF00001F0BEFE069001F086FE494601F0D8FCE6
:100F000004F058FDCDE907060996069801F07BFE2E
:100F1000494601F0CDFC06F0BDFD0A901CAA6946C9
:100F200020A805F040FB6A4607A91CA805F03BFB7A
:100F3000D4F8BC00EA46002810DD00261E215AF82D
:100F4000260045F8260001F0B3FC01F091FE07EB06
:100F50008601761CC1F8A800042EEFDB00E00BE050
:100F6000D4F8BC004FF0FF3503280AD106E0C7F8DB
:100F700020012BB0BDE8F08F069875E701F007FB64
:100F8000F0B357F8A80F01F03EFE4E46494601F077
:100F90008FFC1C90786801F036FE314601F088FC29
:100FA0001D90B86801F02FFE314601F081FC1E90C3
:100FB000F86801F028FE314601F07AFC1F90B86F06
:100FC000A83F0028D5D0D7F8B8002946A83701F0A7
:100FD0006FFC04F0EFFC1E2101F06AFC01F048FEFA
:100FE000C7E90008C7F808802946386901F060FCA5
:100FF00006F050FD1E2101F05BFC01F039FE00E01F
:101000001CE0F860D4F8C010A83F279844E0000026
:10101000B80900200000204100409C4500004843E2
:10102000000048420000C84340420F000E2DB23D70
:10103000000079400088B340E10237472946D7F8DD
:10104000B80001F035FC04F0B5FCCDE90708CDF897
:1010500024802946D7F8B80001F02AFC06F01AFDD2
:101060000A906A4607A920A805F09DFA684605F08F
:1010700045FB002556461E2156F8250001F018FCB8
:1010800001F0F6FD07EB85016D1CC1F8A800042DE9
:10109000F1DBD4F8C010279805F01CFDD7F820012B
:1010A00000288FD0401E62E770B590F8B810664AED
:1010B000CC064FF000034FF0030101D4C2E94813FE
:1010C000B0F82041E40509D4048EE40503D5B0F856
:1010D0007440E40502D4C2E948131AE0D2F834118E
:1010E00039B1D0E93013C91A4FF47A73B1FBF3F177
:1010F00005E0D0F8B01044F62064A14202DBC2F84B
:1011000030110AE0D2F82C512944C2F82C11A14226
:1011100001DA002070BDC2E94B31FFF721FEF8E78C
:1011200010B54FF49C71484801F0E2FA464C4FF07C
:1011300080400021C4F8FC0044F8A80F4248A830C1
:1011400005F0C8FC4FF47A7060674FF07E50606421
:1011500010BD3D49C1F8EC00002070473A49C1F884
:101160002801002070473849C1F834010020704739
:1011700004224FF41671AFF2CF0005F0A3BBAFF21B
:10118000D70005F0B1BD10B5FFF7CAFF2E4900200A
:10119000C1F82801C1F83401AFF22B00BDE81040BE
:1011A00005F018BCAFF2370005F0C4BD2DE9FF47CC
:1011B0000C4625491546074699463C220C312248E3
:1011C00001F06FFA204950225831A1F1100001F0CE
:1011D00068FA1D4E95E8070006F13C031B4D83E8B5
:1011E00007001ECC06F1980080E81E00D6F8240106
:1011F000401CC6F82401062802DD0620C6F824019A
:10120000C0F1060407F1A00818E006EB04116A46D5
:101210004846483105F06FF904EB440006EB8001C5
:101220006A46404604F0C2FC074625F0004120F023
:10123000004001F0BDFD00D23D46641C062CE4DBFD
:1012400004B02846BDE8F087F8080020002474495F
:101250001FB501461022684601F023FAF6489DE8C2
:101260000E0080E80E00F5499DF80C0081F8B001F1
:10127000002004B010BD1FB5EF490EC98DE80E0067
:10128000EE49102291F8B0118DF80C10694601F06A
:1012900008FA0020EDE72DE9F04F91B00025182164
:1012A000684601F025FA0024182106A801F020FA6A
:1012B000E249A046C14691F8C00101287ED1D1F88B
:1012C000B8B1D1F8B4A10022C2EBC20000EB4001DA
:1012D000DA4800EB810E9EF850000F90002863D092
:1012E00000215EE05EF82130DDE900676D1CD81753
:1012F0000E939B197841CDE900300EEB8100EDB2E1
:1013000043690D93DDE9027CDE17DB1946EB0C0621
:10131000CDE90236836ADDE9047CDE170C93DB1924
:1013200046EB0C06CDE90436C06B0E9BDDE9067C6E
:1013300083FB0063360C46EA0346F6194CEB234365
:10134000CDE906630D9BDDE9087C83FB00634FEA72
:10135000164646EA0346F6194CEB2343CDE90863EB
:101360000C9BDDE90A7C83FB00634FEA164646EAE4
:101370000346F6194CEB2343CDE90A6380FB006377
:101380004FEA164646EA034616EB080849EB23499E
:101390000444584501DA834602E0504500DD8246A8
:1013A000491C0F9888429DDC521C052A8CDBA348FF
:1013B000AAEB0B01D0F8BC01814200E053E052DB04
:1013C000A5FB0872E01700260F9006FB082005FB1E
:1013D00009000E9084FB0410090C41EA004100143E
:1013E000CDE90C0106A800EBC601D1E90002A0FB83
:1013F00005BC02FB05C2002100FB012C684600EB86
:10140000C601D1E90002A0FB043802FB04820F9957
:1014100000FB0120190C0CAA41EA00494FEA204ABE
:1014200092E80B0087EA010283EA000852EA080208
:1014300012D07A1A63EB0003BBEB09006CEB0A0CC9
:101440004FEA0C4141EA1041000401F0D8F87B4911
:1014500001EB8601C1F8A401761C032EC2DB77489C
:10146000012180F8B01111B00020BDE8F08FF8B56F
:10147000724D0E460446D5E96D01091A052291FB0D
:10148000F2F1301A90FBF1F0C0B28DF800000428A0
:1014900001D92020F8BDC0EBC00000EB400005EBF7
:1014A000800191F85000052816D0421C81F8502088
:1014B0009DF80010C1EBC10101EB410105EB810278
:1014C00002EB8001CE63236842F8203060684861F7
:1014D000A06888620020F8BD01F14003181F1022A7
:1014E000194601F0DEF89DF800001022C0EBC000A4
:1014F00000EB400005EB8000011D01F0D2F89DF8E3
:1015000000001022C0EBC00000EB400005EB8000A3
:1015100000F11801143001F0C4F89DF80000102209
:10152000C0EBC00000EB400005EB800000F12C0197
:10153000283001F0B6F80420BAE730B585B004468B
:1015400003A9684604F028FD04A804F0B1FD0228B0
:101550002BD0D4F8E4000399401A384991F8B0210F
:1015600012B308B3D1F8A421009C80FB0232150409
:1015700045EA134222440092D1F8A821019C80FB45
:101580000232150445EA134222440192D1F8AC110B
:10159000029A80FB0110030443EA114010440290B8
:1015A0000321684605F0ECFA0CE0606B032809D1D2
:1015B00004F004FD30B168460399FFF758FF08B9FD
:1015C000FFF769FE05B0002030BD10B54FF4E271A1
:1015D0001A4801F08DF819481949C0F8B4114FF4B0
:1015E000AA01C0F8B8114FF4A021C0F8BC11012124
:1015F00080F8C011002010BD1049C1F8B8010020CA
:1016000070470E49C1F8B401002070470B49C1F87A
:10161000BC010020704758B10849D1F8A4210260EC
:10162000D1F8A8214260D1F8AC1181600020704748
:101630000520704724207047D40B0020300A00207A
:101640000000D8FF20B12D4981F8C001002070476B
:1016500024207047294B93F8B101002818D0D3E912
:101660006D10401A052190FBF1F00020C0EBC00185
:1016700001EB410103EB810191F8502022B10021DF
:1016800000E0491C8A42FCDC401C0528EEDB0020FF
:101690007047082296211A4805F014B9184805F039
:1016A00023BB10B5FFF791FF4FF49A731022154931
:1016B000154805F059F920B9AFF2290005F08AF96B
:1016C00008B1012010BD0D49012081F8B1010020B1
:1016D00010BD10B5094C94F8B101002808D0084895
:1016E00005F002FBAFF2550005F024FB08B1012024
:1016F00010BD002084F8B10110BD0000300A0020A8
:101700003B15000877120008511200082DE9F0433C
:10171000044699B01D4691460E46806801F073FA62
:10172000014601F055F88046606801F06CFA014608
:1017300001F04EF80746206801F065FA014601F015
:1017400047F8394600F0ECFF414600F0E9FF06F0AB
:10175000A9F9074620F000404FF08D4101F032FB1F
:101760007ED2306801F04FFA6FF01D08414601F05B
:101770009FF80490706801F046FA414601F098F82D
:101780000590B06801F03FFA414601F091F80690EB
:10179000F06801F038FA414601F08AF800260C960C
:1017A0000790206801F02FFA394601F043F80D90B8
:1017B000606801F028FA394601F03CF80E90A06804
:1017C00001F021FA394601F035F80F9010AA0CA962
:1017D00004A804F0E8FE14A904A804F075FE6A4603
:1017E00014A910A804F0DFFE0199084600F0F0FFEC
:1017F00002990446084600F0EBFF214600F090FFF6
:10180000FE49884201DAFE4C0BE0FE49884201DACB
:10181000FD4C06E0FD49884202DA4FF07A5400E0C0
:10182000FB4C484601F0EFF9FA4901F003F8214674
:1018300000F0CEFF044608962146029800F0C8FF4B
:1018400009900198214680F0004000F0C1FFCDE9E9
:101850000A066A4604A908A804F0A5FE6A4600E044
:1018600025E004A9104604F002FE684604F004FFD7
:101870001E21009801F01CF801F0FAF928601E21E1
:10188000019801F015F801F0F3F968601E21029843
:1018900001F00EF801F0ECF9A8601E21039801F0A8
:1018A00007F801F0E5F9E86019B0BDE8F08396E8C3
:1018B0000F0085E80F00F7E72DE9F05F05460C46BD
:1018C000806801F0A0F9014600F082FF07466868D1
:1018D00001F099F9014600F07BFF0646286801F007
:1018E00092F9014600F074FF314600F019FF3946C5
:1018F00000F016FF06F0D6F84FF07E590027064696
:101900004FF08048484505DCC4E90087A760E760E0
:10191000BDE8F09FA86801F076F9314600F08AFF33
:1019200082460146484600F04DFF4FF40006B042A3
:1019300000DA00204FF0FF3100F0BAFF06F0B2F8F5
:1019400083464946504600F0EBFEB04200DA0020E4
:101950004FF0FF3100F0ACFF06F0A4F88246686853
:1019600001F051F9014600F033FF0646286801F006
:101970004AF9014600F02CFF314600F0D1FE06F096
:1019800091F806464845BFDD1E21504600F090FF05
:1019900001F06EF92060686801F035F9314600F019
:1019A00049FF594600F014FF1E2100F081FF01F0AD
:1019B0005FF96060286801F026F9314600F03AFFCF
:1019C000594600F005FF944900F002FF01F050F97C
:1019D000C4E902079CE72DE9F04105460C46C068C2
:1019E00001F011F9014600F0F3FE8046A86801F00D
:1019F0000AF9014600F0ECFE0746686801F003F9B9
:101A0000014600F0E5FE0646286801F0FCF80146B4
:101A100000F0DEFE314600F083FE394600F080FE25
:101A2000414600F07DFEB0F5000F06DA4FF0804031
:101A3000206000206060A0602DE006F033F80146D1
:101A40004FF07E5000F0F6FE1E2100F031FF0646FA
:101A5000286801F0D8F8314600F0BAFE01F008F924
:101A60002060686801F0CFF8314600F0B1FE01F067
:101A7000FFF86060A86801F0C6F8314600F0A8FEE3
:101A800001F0F6F8A060E86801F0BDF8314600F01A
:101A90009FFE01F0EDF8E060BDE8F08170B504460E
:101AA00090F8300088B0400676D5A069002801DBA8
:101AB000014600E041424FF480320026574D9142EA
:101AC0000BDAE169002900DA4942914205DA216A1C
:101AD000002900DA4942914260DB002800DA4042E6
:101AE0004FF4C80188420BDCE069002800DA40426C
:101AF000884205DC206A002800DA4042884201DD85
:101B0000032000E00220A863696BA06A814219D01B
:101B10006863A06A01F077F8414900F08BFE1D214F
:101B200000F0C6FE01F0FDF83E4A3F4B00F073FFA7
:101B3000082201F051F800223C4B00F0DEFF01F0DA
:101B4000D1F828630496296BA06904F078FC05900D
:101B5000296BE06904F073FC0690296B206A04F09D
:101B60006EFC07906A4604A92C4804F0C4FC009857
:101B70002A4A8001009001986946800101900298EC
:101B800080010290039880010390104604F05DFCF0
:101B900022490846FFF71FFF08B070BDAE63FBE7A0
:101BA0002DE9F0430446D0F820018FB041067CD5E2
:101BB0001A4DD4F810111E4B2A68891AD4F82C211A
:101BC0005A438A4201DA032100E00221A963810518
:101BD00004F58870804601D51049D4E0002104A89E
:101BE00004F0DAF90D490C223C3104A800F08BFD19
:101BF00008BBD4F82801A96D88421BE017B75139FA
:101C0000A69BC43B0AD7233C8FC2753DCDCC4C3E2E
:101C1000CDCCCC3E0014CD47000080CEF40B00208C
:101C200000247449112D4454FB2109400080664072
:101C300071981C007ED0208807AB80B204AA616A2C
:101C400004F00AF8099800F0DEFF014600F0C0FD3C
:101C50000746089800F0D7FF014600F0B9FD064698
:101C6000079800F0D0FF014600F0B2FD314600F0C9
:101C700057FD394600F054FD05F014FF0646E849CB
:101C800000F0A6FDE74900F0D5FD6FF00F0100F070
:101C90000FFE0746D4F8280100F0B5FF394600F0E2
:101CA00097FDE14900F0C6FD00E06EE04FF0FF3126
:101CB00000F0FEFD074603F07DFE8146384605F044
:101CC000E9FE07464FF08040864204DAA86400200F
:101CD000E864286533E01E21484600F0E9FD00F085
:101CE000C7FFA864079800F08EFF8146CF493846A9
:101CF00000F06EFD0746494600F06AFD314600F0EF
:101D000099FD00F0B5FFE864089800F07CFF0146FB
:101D1000384600F05DFD314600F08CFD00F0A8FF74
:101D20002865099800F06FFF0146384600F050FD25
:101D3000314600E00EE000F07DFD00F099FF04ABBD
:101D4000686593E8070005F13C0383E80700D4F8D1
:101D50002801A8656A46B649404604F0CCFBB44861
:101D60000AAA14306946044604F0C5FB21464046E1
:101D700004F09EFBAE486A460AA9483804F0BBFB53
:101D8000AB4968464839FFF726FE0FB08DE51FB511
:101D90000446A7486946483804F08AFBA44A6946C5
:101DA000283A204604F0A7FBA1491DCC383981E828
:101DB0001D001FBD2DE9F0479D4E0446483E90F89A
:101DC000740006F15C0A06F12008012500F05001BC
:101DD000103692B004F5887904F15C07402906D0EA
:101DE00094F8200100F0500040280DD01EE031464C
:101DF0003846FFF761FDB4F82001C0050CD5514607
:101E0000484604F055FB07E05146484604F050FBB5
:101E1000B4F87400C00509D585486946483804F00F
:101E200047FB42466946304604F065FBB4F82001A2
:101E3000C005204602D5FFF7B3FE01E0FFF72EFEF6
:101E40007B4932464839404604F055FB94F874000B
:101E5000400671D5208EB4F820110843C00578D50E
:101E60000FAA3946304604F0A1FCD4E9172080FBC4
:101E70000001C2FB0201626E6D4FC2FB0201483FCE
:101E80004FF08042801A71F1020014DB04A804F0C4
:101E9000DBF8DDE9042080FB0001C2FB0201069AA9
:101EA000C2FB02014FF08042801A71F1020002DB96
:101EB0000420B8630BE0B86B042808D041F28832E4
:101EC000022806D0032804D001283AD009E00025D2
:101ED00007E0E16E91FBF2F5012D00DA0125032800
:101EE00000D0AD0053480024454310980794800269
:101EF000294604F0A4FA08900F982946404280022F
:101F000004F09DFACDE909040BAA314607A804F0B4
:101F1000F2FA32460BA9104604F097FA3146084609
:101F2000FFF759FD42486946483804F0C1FA424675
:101F30006946304604F0DFFA12B00020BDE8F087B1
:101F400007E0E06E90FBF2F0012800DA0120450086
:101F5000C7E7334619463846E26EFFF7D7FBE1E79D
:101F600070B50446008EC105D4F8200107D4B4F83A
:101F70007410C90503D4C10501D4002070BDC0F39D
:101F80000120032808D02046FFF714FF2848A16B42
:101F9000383804F099FEF0E704F5887124482EC91A
:101FA000383880E82E00F1E7234804F09DBE204831
:101FB00010B56C21483800F09BFB1D484FF0804164
:101FC0004838016101600162C163C165002010BD34
:101FD0001D4810B5082219A1006800F094FB08B153
:101FE000322010BD1322BDE81040C821124804F071
:101FF00069BC10B5FFF7DBFF002805D1AFF22F0059
:10200000BDE8104004F0E6BC10BD10B50A4804F06D
:102010006BFEAFF24300BDE8104004F08BBE000041
:10202000DB0F49400000344300247449000080CE97
:102030003C0C0020A69BC400611F0008654D504C5D
:1020400020352E310000000030000020002803DD84
:10205000FE490122C1E920020020704710B5B821D5
:10206000FA4800F045FBF948F949C160F949816037
:10207000F9490160F94941604FF0804141664FF4F0
:10208000FA61C167F649C0F89C10002010BD2DE927
:10209000F041EE4C0E4607460025216800F092FE06
:1020A00011D33846616800F083FE0CD32069012803
:1020B00013D13046E16800F085FE04D33046A168B4
:1020C00000F076FE09D2606F20B9E048A16D1830AB
:1020D00004F000FD0120C4E91D05D4E91E01884279
:1020E00004DB606F012800D1E5656567BDE8F0811C
:1020F00070B50C46054603F0DBFED44A002110B94A
:10210000D848854202DD1161516102E01069002862
:1021100008D1506920445061B0F5FA7F02DD0120FA
:10212000C2E9040170BDF0B58DB00D4614460646F7
:10213000694604F05AFB09AA3146284604F0DBF947
:102140002946304604F0B4F90021EC460DF1240E86
:1021500000231A46184601EB41073D180EEB800696
:102160005CF825507668401CC5FB06320328F4DB7A
:10217000980F40EA820044F82100491C0329E7DB5C
:102180000DB0F0BDB1490020C1F88C00704770B5AA
:102190000446806800F037FD014600F019FB054653
:1021A000606800F030FD014600F012FB0646206832
:1021B00000F029FD014600F00BFB314600F0B0FABB
:1021C000294600F0ADFA05F06DFCBDE870406FF0F7
:1021D0000F0100F06DBB70B50E4600259B4C012130
:1021E00030B101280CD0C4F8981044F88C5F29E075
:1021F000C4F8A060C4E92965E4E92415A56070BDB0
:102200003046D4F8A01000F0DDFA20F00040D4F8F9
:102210009C1000F0CDFD13D254F8945F31466D1C34
:102220002560206900F07CFA2061943C312DE6DDC8
:10223000022144F8901F8C4900F0FCFAA06170BDA7
:1022400044F8905F656070BD2DE9FF4F8BB00026AC
:102250007E4C0546039604960596D4F8880093466E
:10226000374600287ED003F0B5FE10B103A803F076
:1022700085FED4F88000A146002819DD01204C46D7
:10228000C9F8840003F0A6FE48B103A803F0AAFE33
:102290008009B0F5C87F02D2D4F8800004E0D4F8F9
:1022A0008000401BC4F88000002801DCC4F8847062
:1022B00004F01AF8002855D000240E9850F8240095
:1022C00000F0A1FC82465BF8240000F09CFC6FF05B
:1022D0000F08414600F0ECFA514600F079FA414609
:1022E00000F0E6FA314600F01BFA641C0646032CA7
:1022F000E3DB5846FFF74BFF01460690304600F0FF
:1023000099FA4FF07E58DFF864A1404501DD404660
:1023100002E0504500D9504603F044FB8346D9F80B
:102320008C004E4670B13168069800F041FD09D22C
:102330007168069800F046FD04D25946D6F8900020
:10234000FFF749FF684603F09DFE40490C22AC317F
:10235000684600F0D8F918B9D6F8980001286CD171
:102360003A4800E0C6E09DE80E00AC3080E80E0080
:10237000009818B9019808B9029858B36846FFF751
:1023800006FF044610F0FF4F57D0DFF8E4902046D8
:10239000494600F017FA014600F01AFA05F082FBF0
:1023A00070604946204600F0BBF9014600F010FA83
:1023B00005F078FB3060029800F025FC6FF00F010B
:1023C00000F076FA214600F035FA044640451FDD5C
:1023D000444620E02048306020487060D6F89800DD
:1023E000012804D01B48B0601948F06025E0D6F8F9
:1023F0009C80D6F8A8404146204600F0E3F9B06042
:102400004146204600F08CF9C6F89870F06014E060
:10241000544500D95446204603F0C4FAD6F89C101F
:1024200000F0D0F9B060204603F0BCFAD6F89C105A
:1024300000F076F9C6F88C70F060DFF81080F16D6E
:1024400008F1580801BB0120002413E0600C0020B3
:102450000000B4420000B4C2000070420000F0412D
:102460007B142E3E00401C4600004842000080BF06
:1024700000002041F06506EB04104146183003F0DF
:102480003FFD641C042CF6DB434907AA0C460C985C
:10249000FFF749FE21460C9804F00AF803A803F060
:1024A000A1FD00F0B9FB6FF0050100F001FA29462B
:1024B000FFF71EFE59460698FFF7E9FDD6E91E0113
:1024C000884201DA2844B067706F90B9306E2844B2
:1024D0003066B0F57A7F0CDD2F4930223C39A1F10E
:1024E0001000376600F0DDF82B4841461C3803F039
:1024F00007FD706F0FB0BDE8F08F70B588B004466F
:1025000004A803F011FDD4E93001451A684603F030
:10251000C5FC064604AB04F1A00269462846FFF755
:1025200093FE04F0E7FA08B0304670BD04224FF481
:102530009671AFF2390004F0C5B9AFF2410004F072
:10254000D3BB10B5FFF78AFD00280DD1124800213A
:102550006438C0F88C100121C0F88810AFF2330045
:10256000BDE8104004F036BA10BD10B5AFF27500EA
:1025700004F0BAFBAFF27D00BDE8104004F0B4BB3C
:10258000054901206439C1F88C00002070470248D9
:102590006438406F70470000C40C00202DE9F05FE4
:1025A0000546002092469B468846064681464024C2
:1025B0001BE0284641464746224600F023FC53468E
:1025C0005A46C01A914110D311461846224600F0CF
:1025D00047F82D1A67EB01084F46224601200021DB
:1025E00000F03EF817EB00094E41201EA4F1010453
:1025F000DFDC484631462A464346BDE8F09F2DE9D8
:10260000F0410024061B254671F1000605DA01247D
:102610000027D0EB070067EB0101161E73F10006DF
:1026200005DA0027D2EB0702012567EB0303FFF76A
:10263000B5FF86460E4617469C46AC4204D00025A0
:10264000D0EB050E65EB010624B10020D2EB0007AC
:1026500060EB030C704631463A466346BDE8F081B4
:10266000202A04DB203A00FA02F100207047914052
:10267000C2F1200320FA03F3194390407047202A47
:1026800006DBCB17203A41FA02F043EAE07306E09A
:1026900041FA02F3D040C2F12002914008431946AA
:1026A000704710B5431A934209D28318881803E083
:1026B00010F8011D03F8011D521EF9D210BD40EAA9
:1026C00001039B0703D009E008C9121F08C0042AB0
:1026D000FAD203E011F8013B00F8013B521EF9D297
:1026E00010BDD2B201E000F8012B491EFBD27047A9
:1026F0000022F6E710B513460A4604461946FFF7CE
:10270000F0FF204610BD30B504460020034600E02F
:102710005B1C934203D2E05CCD5C401BF8D030BD23
:10272000F0B480EA0102D40F4200B2EB410F02D2B2
:102730000246084611464A0042D0C30DDDB2C1F33D
:10274000C752AD1A202D35DAC1F3160141F400024B
:1027500004B15242C5F1200602FA06F12A411044A2
:10276000B3EBD05F23D0C4B1012DA0EBC35009DC83
:10277000F0BC4FF0004202EAC352DBB200F50000A9
:1027800000F059BB400000F1807000EBC350A0F195
:10279000807040EAD170490009E0490841EAC071FF
:1027A000A0EBC35000F50000400800EBC350F0BCA4
:1027B00000F038BB6142012202EB4101001BF6E749
:1027C000F0BC704781F00041AAE780F00040A7E725
:1027D00080EA010210B502F00043400022D04A0016
:1027E0001FD0010E01EB1261C0F35600C2F3560276
:1027F00040F4000042F40002A0FB022000047F39F4
:10280000140400D0401C50EA124001D44000491E7C
:10281000C2B20C0604EBD010401C4008802A02D043
:1028200003E0002010BD20F00100002900DA0020A4
:10283000184310BD30B480EA010202F0004530F0C8
:10284000004221F0004013D090B1C30DD40DC2F36B
:102850001601C0F31600E41A41F4000140F400022E
:102860007D34914201D3641C00E04900002C02DA5F
:1028700030BC002070474FF400000023914201D388
:10288000891A034340084FEA4101F7D151B19142FF
:1028900002D14FF0004105E002D24FF0010101E00A
:1028A0006FF0010103EBC450284430BC00F0BABA09
:1028B000420005D0C0F3C7525242914201DC0020D1
:1028C000704700EBC15070472DE9FE4F804681EA0A
:1028D0000300C00F0C46009021F0004123F000459A
:1028E000B8EB0200A94105D24046214690461C465D
:1028F0000B46024623F00040104347D0270DC7F394
:102900000A00C3F30A510290401A019040286BDA82
:10291000C3F3130040F4801B0098924620B10023BB
:10292000D2EB030A63EB0B0B01985946C0F140024E
:102930005046FFF795FE06460D4650465946019A09
:10294000FFF79DFE10EB08006141002487EA115259
:1029500084EAE7731A4340D0009A62B3019A012ACD
:102960004FEA075215DC001B61EB02014FF00042F9
:1029700002EA0752CDE90042001C41F580113246BF
:102980002B4600F095FA03B0BDE8F08F4046214693
:10299000F9E7001B61EB0201001C41F580130018F0
:1029A0005B412018A2F5001747EB030140EAD57000
:1029B000B6196D4111E06D084FEA360645EAC0755B
:1029C0004FEA0752001B61EB0201001C41F5801128
:1029D00049084FEA30000019514132462B4603B0F6
:1029E000BDE8F04F00F055BA0098012240000023E6
:1029F000D0EB020263EBE073009821464FEAE074EB
:102A0000B8EB000061EB0401E9E783F000435BE70A
:102A100081F0004158E72DE9FE4F81EA030404F0FC
:102A2000004421F0004100944FF0000B23F00043DC
:102A300050EA01045ED052EA03045BD0C3F30A54A7
:102A4000C1F30A552C44A4F2F3340194A0FB0254C0
:102A5000C1F3130141F48011C3F3130343F4801352
:102A600001FB024400FB034E840A970A44EA8154A6
:102A700047EA8357A4FB076802958D0A05FB078583
:102A80004FEA932C04FB0C542705029D4FEA06588D
:102A900047EA1637B5EB08056EEB070C870E920E6A
:102AA00047EA811742EA8312A7FB0201B6EB0B014A
:102AB00064EB00042B0D43EA0C335E1844EB1C500E
:102AC000DA465146E7FB0201C5F313044FEA0B3324
:102AD00043EA14534FEA0432019C43EA0603A4F18B
:102AE0000C040294009CCDE900B400F0E1F903B0BD
:102AF000BDE8F08F00200146F9E72DE9F04D81EAAD
:102B0000030404F0004B21F0004514464FF0000A86
:102B100023F0004150EA050220D054EA01021DD002
:102B2000C5F30A570246C5F31303C1F31300C1F3FB
:102B30000A5640F4801543F48013A7EB0608101BD7
:102B4000D64608F2FD3873EB050002D308F1010800
:102B500001E092185B41B8F1000F03DA0020014652
:102B6000BDE8F08D00204FF48011064684460EE04B
:102B7000171B73EB050705D3121B63EB0503064315
:102B80004CEA010C49084FEA300092185B4150EAC8
:102B90000107EDD152EA030012D082EA040083EA71
:102BA0000501084305D0101BAB4106D201220023CA
:102BB00006E000224FF0004302E06FF001025310E4
:102BC0001AEB06004CEB085110EB0A0041EB0B012D
:102BD000BDE8F04D00F05DB970B521F0004303434E
:102BE0000CD0C1F30A550024D5EB040564EB0403B3
:102BF000D617AD1AB34102DB0020014670BD201884
:102C000041EB025170BDC10F80EAE0700844CA0771
:102C10009623002100F00FB996230022114600F000
:102C20000AB9F0B4CA17CB0F50405140C61841F151
:102C300000054FEAC372314628004FF0960303D0D7
:102C4000B623F0BC00F0F7B830460021F9E70EB526
:102C5000C10F80EAE0700844CA07002140F2334304
:102C60008DE80E000A460B4600F022F903B000BDC5
:102C700000F0004220F00040C10DC0F3160040F407
:102C800000007F2901DA00207047962903DCC1F19A
:102C90009601C84001E096398840002AF4D04042AD
:102CA000704710B500F0004420F00040C20DC0F3A2
:102CB000160040F400007F2A02DA0020014610BD11
:102CC0000021962A03DCC2F19602D04002E0963A37
:102CD000FFF7C6FC002CF2D00023D0EB030063EB1F
:102CE000010110BD70B5C1F30A5201F00045002486
:102CF000C1F3130140F2FF3341F480119A4201DA2B
:102D0000002070BD40F233439A42A2F2334203DC0A
:102D1000524200F077F800E090402C43F1D040425E
:102D200070BD00F0004230F000400AD0C10D01F546
:102D30006071C0F3160042EA0151C2084007114316
:102D4000704700200146704730B5041E71F1000441
:102D500004DB4FF00044404264EB0101141E73F1A8
:102D6000000405DB1C464FF00043524263EB0403B2
:102D7000994208BF904230BD01F0004330B421F0C9
:102D8000004150EA010206D00A0DA2F56072C1F3BB
:102D90001301002A02DC30BC00207047440F44EAD3
:102DA000C104C100E01830BC00EBC25000F03AB8DA
:102DB000002801DBC0F10040002901DBC1F1004126
:102DC00081427047002801DBC0F10040002901DB8F
:102DD000C1F100418842704730B50B4601460020E2
:102DE0002022012409E021FA02F59D4205D303FACD
:102DF00002F5491B04FA02F52844151EA2F101024E
:102E0000F1DC30BD202A04DB203A21FA02F0002157
:102E1000704721FA02F3D040C2F1200291400843EA
:102E2000194670470029A8BF7047401C490008BFD9
:102E300020F00100704710B4B0FA80FC00FA0CF0EA
:102E400050EA010404BF10BC704749B1CCF1200422
:102E500021FA04F411FA0CF118BF012121430843AF
:102E6000A3EB0C01CB1D4FEA00614FEA102042BFDB
:102E7000002010BC704700EBC35010440029A4BFD1
:102E800010BC7047401C490008BF20F0010010BC76
:102E9000704710B5141E73F1000408DA401C41F1AC
:102EA000000192185B411A4301D120F0010010BDCE
:102EB0002DE9F04D92469B4611B1B1FA81F202E044
:102EC000B0FA80F220329046FFF7CAFB04460F4664
:102ED00040EA0A0041EA0B0153465A46084313D020
:102EE000114653EA010019D0C8F140025046FFF7DD
:102EF00089FF05460E46504659464246FFF7B0FB4D
:102F0000084305D0012004E020463946BDE8F08D95
:102F10000020054346EAE0762C4337430A986305D0
:102F2000E40AA0EB08000022FD0A44EA47540A30F4
:102F300002D500200146E9E7010510196941DDE9E4
:102F4000084500196941BDE8F04DA2E7C1F30A52F6
:102F5000C1F3130140F2FF3341F480119A4202DAC7
:102F600000200146704740F233439A42A2F23342B6
:102F700002DC5242FFF746BFFFF772BB064C074D1B
:102F800006E0E06840F0010394E807009847103439
:102F9000AC42F6D3FDF71AF9EC7B00080C7C000874
:102FA000FEE7704772B6FEE770B5040003D094F8F0
:102FB000200010B104E0012070BD204600F082F82E
:102FC0002068016821F00201016000F0B1F90546B6
:102FD000052604E000F0ACF9401B0A2811D820684F
:102FE00040688007F6D42068016841F00101016063
:102FF00000F09EF905460BE000F09AF9401B0A2804
:1030000006D9606A40F40030606284F82060D2E73C
:1030100020684068C007EFD0207E01282068016842
:103020003DD021F080010160607E012820680168A8
:1030300038D021F040010160A07E0128206801689D
:1030400033D021F020010160E07E01282068016872
:103050002ED041F010010160207F01282068016816
:1030600029D021F008010160607F012820680168F3
:1030700024D021F004010160D4E902010843D4E91D
:103080000412114308436168491E08432168C8615E
:1030900000206062012084F82000002070BD41F013
:1030A0008001C0E741F04001C5E741F02001CAE7D7
:1030B00021F01001CFE741F00801D4E741F004010D
:1030C000D9E7000010B586B0044614216846FFF722
:1030D0000FFB18492068884229D11748002102684F
:1030E00042F080620260026802F08062059202682B
:1030F00042F000720260006800F0007005900E4817
:103100001038026842F002020260006800F002001B
:1031100005904FF4405000900220CDE901010320BA
:103120000390092004906946044800F01BF806B09B
:1031300010BD00000068004040380240000402401A
:1031400070B5044600F0F4F80546601C02D004484F
:103150000078044400F0ECF8401BA042FAD370BDA4
:10316000100000202DE9F84F00224FF00108032540
:103170004FF00F0E0B6808FA02F42340A3426ED101
:103180004E68012E05D0022E03D0112E01D0122E32
:1031900012D186684FEA420C05FA0CF7BE43CF689D
:1031A00007FA0CF7374387604668A6430C79C4F3E7
:1031B0000014944034434460C668570005FA07FC85
:1031C0008C6826EA0C06BC403443C4604C68022C70
:1031D00001D0122C13D1D40800EB8404A346D4F8F8
:1031E000209054074FEAD46A0EFA0AF629EA060933
:1031F0000E6906FA0AF646EA0906CBF82060066868
:103200000C7926EA0C0604F00304BC403443046045
:103210004C68E40060D5334C266846F4804626604E
:10322000246822F0030604F4804400942E4C3444B5
:10323000A446D4F808489607370F0EFA07F6B443A9
:103240002A4EB04201D100261FE0294EB04201D1E2
:1032500001261AE0274EB04202D1022615E03BE0DB
:10326000254EB04201D103260FE0244EB04201D1D9
:1032700004260AE0224EB04201D1052605E0214E87
:10328000B04201D1062600E00726BE402643CCF816
:1032900008681D4E34684F689C43FF0300D51C43EB
:1032A0003460194E361D34684F689C43BF0300D507
:1032B0001C433460144E083634684F689C43FF0248
:1032C00000D51C433460104E0C3634684F689C4364
:1032D000BF0200D51C433460521C102AFFF44AAFD1
:1032E000BDE8F88F44380240003001400000024041
:1032F0000004024000080240000C0240001002409E
:103300000014024000180240003C014000690840DF
:1033100000D001207047426931EA020200D109045D
:10332000816170470AB1816170470904FBE70000C1
:103330000148806870470000100000202DE9F04728
:103340001E4691460C4600F095FE002811D0144F01
:103350000020387000F05AFF204600F023FF00F0F4
:103360009FFF4FF0010808B100240FE087F80080AC
:103370000120BDE8F087651CB54201D0012000E0C6
:10338000002000F0BFFE09F80400ACB2B442F2D352
:1033900000F094FE00F05EFF87F800800020E8E770
:1033A0000C0000202DE9F047984691460C46089FF6
:1033B00000F060FE002822D0134D0020287000F09D
:1033C00025FF204600F0EEFE00F06AFF0126C0B1A6
:1033D000484600F0E7FE00F063FF90B1002408E0EB
:1033E00018F8040000F0DEFE00F05AFF48B1641C3B
:1033F000A4B2BC42F4D300F02DFF2E700020BDE833
:10340000F0872E700120FAE70C0000200248816846
:103410000278114481607047100000200B4810B5FD
:10342000016841F400710160016841F4806101604C
:10343000016841F480710160032000F061F8002010
:1034400000F006F800F024F8002010BD003C024017
:1034500070B50D4D04464FF47A712878B1FBF0F049
:103460000A490968B1FBF0F000F01CFD48B9102CC6
:1034700007D200222146501E00F022F800206C6086
:1034800070BD012070BD0000100000201C00002055
:103490000A4808B5016841F480410160006800F401
:1034A000804000900548001F016841F08051016094
:1034B000006800F08050009008BD000044380240D1
:1034C000F0B40E4B1B680C46C3F30223C3F107058F
:1034D000042D00D90425191D072901D2002300E07D
:1034E000DB1E012606FA05F1491E214099409E4047
:1034F000761E16403143F0BC01F09BB90CED00E0A4
:10350000064900F0070208684FF6FF03184040EA3A
:103510000220034A10430860704700000CED00E0F1
:103520000000FA052DE9F84F044600260078F84D12
:103530003746C00708D02868A16B20F0C060084358
:103540002860A06B00B901262078800708D528687C
:10355000E16B20F0C05008432860E06B00B9012601
:10356000207840070ED52868216B20F440100843CE
:103570002860206BB0F5801F01D010B102E0012659
:1035800000E00127207800070ED52868616B20F441
:10359000400008432860606BB0F5800F01D010B187
:1035A00002E0012600E0012720784FF0000A8006A3
:1035B0004FF0010B63D5D6484C38016841F080517B
:1035C00001600068DFF84C9300F080500090D9F85B
:1035D000001041F48071C9F80010FFF7A9FE804681
:1035E00006E000BFFFF7A4FEA0EB080002286FD89A
:1035F000D9F80000C005F5D5DFF81483A8F11C0840
:10360000D8F8000010F4407024D0B4F8401001F451
:10361000407181421ED0D8F80010BF4A21F4407199
:10362000C2F800B0C2F800A0C8F80010D8F8000036
:10363000C0070FD0FFF77CFE814607E0FFF778FE5A
:10364000A0EB090141F288308142D0D8D8F80000BF
:103650008007F3D5216CAE48C1F301228438032AD8
:1036600037D0016821F4F811C0F80010D8F8001024
:10367000B4F84020C2F30B021143C8F800102078C0
:10368000C00604D5A54894F85810C0F8E011207879
:103690000106A34805D50168E26C21F440011143FD
:1036A00001602178490605D50168A26C21F080618E
:1036B000114301602188C90514D50168626D21F0AC
:1036C000006111430160616DB1F1006F09D009E043
:1036D0001DE10268934B22F4F81219400A4302607C
:1036E000C4E701272188890505D50168626C21F0AE
:1036F0008051114301602188DFF82C92490509D5DA
:103700000168226D21F0005111430160206DB0F17C
:10371000005F04D01EB92068B0F5006F7ED18349E8
:10372000C1F868A0FFF704FE794E80468C3E05E0A4
:10373000FFF7FEFDA0EB0800022886D830680001E4
:10374000F6D421687A48CA0701D0A26B1AB189075A
:1037500017D5E16BA9B901680268C1F30141491CA1
:10376000D4E9013C43EA8C1321F0004CC2F303621C
:1037700009EB0C4141EA02610B43217D43EA0171EF
:10378000016021684A0703D5226BB2F5801F05D07E
:10379000090721D5616BB1F5800F1DD10168026861
:1037A000C1F30141491CD4E9013C43EA8C1321F0E7
:1037B000004C09EB0C4194F810C0C2F3027241EACC
:1037C0000C610B4343EA027101602968A26A21F08F
:1037D0001F01521E11432960218849051AD5216D08
:1037E000B1F1005F16D101680268C1F30141491CC3
:1037F000D4E9013C43EA8C13D4F80CC0C2F3027242
:103800004FEA5C0809EB084C4CEA41610B4343EA80
:10381000027101602188090511D500E01FE0D4E99B
:10382000011241EA8211E268530809EB0342237C4A
:1038300042EA03621143227D41EA027101603B4981
:10384000C1F868B0FFF774FD804605E0FFF770FD32
:10385000A0EB0800022874D830680001F6D5EFB359
:10386000DFF8C880C8F870A0FFF762FD304E074649
:10387000843E04E0FFF75CFDC01B022861D830687D
:10388000C0438000F6D521682A484A0701D5226B3B
:103890001AB109071DD5616BD9B90168D4E90623AE
:1038A000C1F30141491C42EA831221F0004309EBB4
:1038B000034194F8243041EA03610A430260296815
:1038C000E26A6FF0FF0321F4F85103EB0222114387
:1038D00029602188C90514D5616D00E038E0B1F197
:1038E000006F0ED10168D4E9062342EA8312236AED
:1038F000C1F303615C0809EB044343EA01610A4335
:103900000260C8F870B0FFF713FD04461CE018E031
:103910008C38024000700040400E47420010474281
:1039200094380240FFFCFF0F0000FFFF00004742F9
:103930008438024088380240FFF7FAFC001B022856
:1039400002D90320BDE8F88F3068C0438000F3D46B
:103950000020F7E72DE9F0470E46050065D0DFF8B7
:103960001481D8F80000F7B200F00F00B04207D27F
:1039700088F80070D8F8000000F00F00B04254D171
:1039800028683D4C810712D5400703D5206840F4D4
:10399000E05020602878000703D5206840F460409C
:1039A00020602068A96820F0F00008432060287893
:1039B000C0072DD0304968680839012812D0022884
:1039C00013D0032811D00968890700292DDA21684E
:1039D00021F0030101432160FFF7AAFC814641F277
:1039E000883A0EE009688903EFE709688901ECE786
:1039F000FFF79EFCA0EB0901514502D90320BDE869
:103A0000F0872068696800F00C00B0EB810FEFD1FF
:103A1000D8F80010404601F00F01B14207D90770F5
:103A2000006800F00F00B04201D00120E7E72878DD
:103A3000400705D52068E96820F4E050084320607D
:103A40002878000706D52068296920F4604040EAFC
:103A5000C100206000F038F82168084AC1F3031162
:103A6000515CC8400649086006480068FFF7F0FC52
:103A70000020C4E7003C024008380240E27A000817
:103A80001C00002014000020044805490068096853
:103A9000044AC1F38221515CC84070471C000020D9
:103AA00008380240F27A00080448054900680968AD
:103AB000044AC1F34231515CC84070471C000020E9
:103AC00008380240F27A0008224810B5006810F069
:103AD0000C02214815D02149042A11D01D4C241F65
:103AE000082A0FD00C2A0CD12268236802F03F026A
:103AF0005B0221D52068C0F38810A0FB010120E003
:103B0000084610BD2268236802F03F025B0205D51B
:103B10002068C0F38810A0FB010104E02168C1F314
:103B20008811A1FB00010023FEF738FD2168C1F3D5
:103B30000141491C49000AE02168C1F38811A1FB39
:103B400000010023FEF72AFD2168C1F30271B0FBDA
:103B5000F1F010BD083802400024F400001BB7004B
:103B60002DE9F84F0546DFF828B30078ABF10407DC
:103B7000C007A7F1040451D0DBF800105846C1F388
:103B8000810101290FD00168C1F38101022902D10D
:103B90003968490207D40068C0F38100032809D1BD
:103BA0003868400206D52068800337D56868002849
:103BB00072D033E06868B0F5803F10D0B0F5A02F28
:103BC000206810D020F480302060206820F480200D
:103BD00020606868A8B1FFF7ABFB06460DE02068DF
:103BE00040F48030F4E740F480202060F7E700BF25
:103BF000FFF79EFB801B642878D820688003F7D5E8
:103C00000CE0FFF795FB064605E000BFFFF790FBD1
:103C1000801B6428F0D820688003F7D42878DFF868
:103C2000749280074FF0000A46D5DBF80010584622
:103C300011F00C0F0FD00168C1F38101022902D1EC
:103C40003968490207D50068C0F38100032809D10B
:103C50003868400206D42068800715D5E868012836
:103C60001AD111E0E868C0B10120C9F80000FFF7DF
:103C70005FFB064605E000BFFFF75AFB801B0228EA
:103C8000BAD820688007F7D52068296920F0F800A5
:103C900040EAC10020600FE0F7E0C9F800A0FFF79C
:103CA00047FB064605E000BFFFF742FB801B0228EA
:103CB0001CD820688007F7D42878000727D5DFF8BC
:103CC000D0817548696908F16C0881B101210160F2
:103CD000FFF72EFB064604E0FFF72AFB801B0228B5
:103CE00004D8D8F800008007F6D510E089E0C0F8C5
:103CF00000A0FFF71DFB064605E000BFFFF718FB1D
:103D0000801B02287DD8D8F800008007F6D42878D8
:103D1000400769D55E484FF0000838300068C000A1
:103D20000BD45B483830016841F080510160006875
:103D30004FF0010800F080500090584E3068C005E8
:103D400011D4306840F480703060FFF7F1FA0090D1
:103D500006E000BFFFF7ECFA0099401A022850D89D
:103D60003068C005F6D54A4EA868683601280FD0DD
:103D70000528306810D020F001003060306820F055
:103D800004003060A868B8B1FFF7D2FA00900FE0E5
:103D9000306840F00100F4E740F004003060F7E7DD
:103DA000FFF7C6FA0099411A41F28830814264D87F
:103DB00030688007F4D50EE0FFF7BAFA009007E00C
:103DC000FFF7B6FA0099411A41F28830814254D87F
:103DD00030688007F4D4B8F1000F05D02C48383093
:103DE000016821F080510160A869A8B3DBF80010D8
:103DF000C1F38101022948D00228C9F860A005D08A
:103E000000E03AE0FFF794FA054639E0FFF790FA50
:103E1000064604E0FFF78CFA801B02282DD82068A4
:103E20008001F7D4F5E907010843E9681C4A49080D
:103E300002EB0141AA6841EA82110843297C40EA69
:103E40000160297D40EA017038600120C9F86000F6
:103E5000FFF76EFA054606E015E000BFFFF768FAC7
:103E6000401B022809D820688001F7D50BE000BF6D
:103E7000FFF75EFA401B022802D90320BDE8F88F45
:103E800020688001F4D40020F8E70120F6E7000064
:103E90000838024000004742800E47420070004050
:103EA0000000FFFF10B5401EB0F1807F01D301205C
:103EB00010BD4FF0E02460610F21601700F0B9FCE5
:103EC0000020A06107202061002010BD70B5040013
:103ED00004D094F83900002510B106E0012070BD2F
:103EE00084F83850204600F023F8242084F8390064
:103EF0002068C16821F40051C160204600F050FBE9
:103F00002068016921F4904101612068416921F034
:103F10002A0141612068C16841F40051C160E56334
:103F2000202084F8390084F83A00002070BD000099
:103F3000F0B587B0044614216846FEF7D9FB1A494C
:103F4000206888422DD11948016841F48011016030
:103F5000006800F48010059014481038016841F0A2
:103F600004010160016801F004010591016841F05C
:103F7000080101600068022400F0080005904FF479
:103F800080500125032608278DE8F100694608487E
:103F9000FFF7E8F804208DE8F10069460548FFF7CF
:103FA000E1F807B0F0BD000000500040403802408A
:103FB00000080240000C02402DE9F843044690F846
:103FC00039001F4616460D46202850D1B5B1AEB176
:103FD00094F8380001284AD0012084F838004FF0C6
:103FE0000008C4F83C80212084F83900FFF7A0F9CC
:103FF000A6848146E68484F8388026E00120BDE866
:10400000F883E08C401EE084A0684B46B0F5805FEA
:104010004FF000024FF080012046009703D000F0DF
:1040200053FBE8B90DE000F04FFBC8B928882168C0
:10403000C0F308004860206908B16D1C05E0AD1CA4
:1040400003E0216815F8010B4860E08C0028D8D106
:104050004B46002240212046009700F035FB08B176
:104060000320CCE7202084F839000020C7E7022095
:10407000C5E7FEE770B586B0002400F0EBF94FF419
:104080000075002001210095CDE901010A4E039041
:1040900069463046FFF766F869103046FFF736F993
:1040A00028B129463046FFF731F900B1012400F06C
:1040B000BDF906B0204670BD0008024070B5104D35
:1040C0004FF40074002221462846FFF72BF9012205
:1040D00011022846FFF726F900F0CEF9022001F080
:1040E00071FC012221462846FFF71CF9022001F04D
:1040F00069FC21462846BDE870400022FFF712B94E
:10410000000802402DE9F0478046002400F0A2F9A3
:10411000234E00254FF400774FF480790022394672
:104120003046FFF7FFF8022001F04CFC012239462F
:104130003046FFF7F7F86006040E49463046FFF7B1
:10414000E5F808B1641CE4B2022001F03BFC6D1CF0
:10415000EDB2082DE2D3B8F1000F1ED0002239468F
:104160003046FFF7DFF8002249463046FFF7DAF81D
:1041700000F082F9022001F025FC01223946304688
:10418000FFF7D0F8022001F01DFC0022394630462E
:10419000FFF7C8F82046BDE8F087FFF78FFFF9E783
:1041A000000802402DE9F041174E05464FF4007714
:1041B000002239463046FFF7B5F84FF480780122E7
:1041C00041463046FFF7AEF800F056F90024EA0900
:1041D00041463046FFF7A6F86806050E022001F0BA
:1041E000F1FB012239463046FFF79CF8022001F02E
:1041F000E9FB002239463046FFF794F8641CE4B22C
:10420000082CE4D3BDE8F0810008024070B501221B
:104210000F4D140221462846FFF784F800F02CF9D0
:104220000122560231462846FFF77CF8022001F0B1
:10423000C9FB002221462846FFF774F8022001F04E
:10424000C1FB31462846BDE870400022FFF76AB83E
:104250000008024070B5114D4FF4807400222146D1
:104260002846FFF75FF800F007F9660000223146A4
:104270002846FFF757F8022001F0A4FB012231463F
:104280002846FFF74FF8012221462846FFF74AF853
:10429000BDE87040022001F095BB0000000802401C
:1042A0002DE9F0410024022001F08CFB0122144D85
:1042B000560231462846FFF735F8012001F082FB0F
:1042C000AF150BE0641CE4B2022C04D9FFF7C2FF67
:1042D0000020BDE8F081012001F074FB394628463A
:1042E000FFF714F80028EDD1C4F1020001F06AFBD9
:1042F000002231462846FFF715F80120E9E70000C3
:10430000000802400F4810B50D49016007214160C7
:1043100000214FF08072C0E90212D21102615201F5
:104320004261017641768176C17601774177FEF769
:104330003BFE002803D0BDE81040FEF733BE10BDA1
:10434000006800406C00002070B586B014216846FB
:10435000FEF7CEF922480024016841F00401016013
:10436000016801F004010591016841F080010160DC
:10437000016801F080010591016841F002010160CE
:10438000016801F002010591016841F0010101603D
:10439000016801F001010591016841F00801016027
:1043A0000068104E00F0080046F21105059000224A
:1043B00029463046FEF7B6FF01200095CDE90104FD
:1043C000694630460394FEF7CDFE4FF40040CDE938
:1043D0000004694604480294FEF7C4FE06B070BDAE
:1043E0003038024000080240000002400C4810B57E
:1043F0000A4901604FF4E1314160002181600C22E3
:10440000C160C0E904128161C161FFF75FFD00284E
:1044100003D0BDE81040FEF7C5BD10BD0050004000
:1044200094000020FEE7FEE77047000000B585B06D
:104430004FF40070009011200190012002900020A4
:10444000039069460248FEF78DFE05B000BD0000EE
:104450000008024000B585B04FF480700090002045
:104460000121CDE90101039069460248FEF77AFE79
:1044700005B000BD0008024000B585B04FF4807063
:1044800000901120019001200290002003906946C5
:104490000248FEF767FE05B000BD000000080240BC
:1044A0007047000010B5084C012251022046FEF76B
:1044B00039FF012211022046FEF734FFFFF7B6FF55
:1044C000BDE81040FFF7D8BF00080240FEF79EBFCE
:1044D00030B5ABB0342117A8FEF70AF9142124A88F
:1044E000FEF706F95C216846FEF702F9234800252D
:1044F000016841F080510160006800F0805029900F
:104500001F48016841F4404101600068022400F442
:104510004040299001201790000418908001CDE9B7
:104520001D4006201F90A820CDE920040720CDE9DA
:10453000220417A8FFF714FB08B172B6FEE724A9FE
:104540000F2081E831004FF4A05027904FF48050A5
:104550002890052124A8FFF7FDF908B172B6FEE7FF
:104560004FF48070009015956846FEF7DBFF002839
:1045700001D072B6FEE72BB030BD000040380240DB
:10458000007000400548016841F470010160034972
:104590004FF00060803908607047000088ED00E04F
:1045A0002DE9F041044600680169E26821F44051B8
:1045B000114301612169A068E269084361691143FF
:1045C00008432168CA6849F20C639A430243CA60EF
:1045D00020684169A26921F4407111434161E06999
:1045E000192764253226B0F5004F354A3549206831
:1045F0004FF0000806D0884201D0904236D1FFF734
:1046000053FA35E0884201D0904202D1FFF74CFACC
:1046100001E0FFF739FA61684A18A0FB070148EB8F
:104620000803FDF7BBFF0146B0FBF5F00201B1FB4B
:10463000F5F06FF01803584301EB800006EBC00063
:10464000B0FBF5F000F0F80002EB4002B1FBF5F032
:10465000584301EB800006EBC000B0FBF5F000F022
:104660000700216810448860BDE8F081FFF70CFA6C
:1046700061688B0F8A00A0FB0701FDF78FFF0146E1
:10468000B0FBF5F06FF01802504301EB800006EB31
:104690000010B0FBF5F000F0F002B1FBF5F002EB1A
:1046A0000012B1FBF5F06FF01803584301EB8000E6
:1046B00006EB0010B0FBF5F000F00F00D1E70000B2
:1046C00000140140001001402DE9F04198461746C2
:1046D0000E460446069D1DE0681C1BD02DB1FEF75A
:1046E00027FEA0EB0800A84214D92068C16821F475
:1046F000D071C1602068416921F001014161202031
:1047000084F8390084F83A00002084F83800032047
:10471000BDE8F0812068006836EA000004D000207F
:10472000B842D9D00020F3E70120F9E7FEE7000006
:104730000FB4F0B50446C9B0092C3ED2DFE804F04E
:10474000050505050505053D050051AA06A8509972
:1047500000F04AF8071E31DD18216846FDF7C8FF52
:1047600024208DF8000001208DF801008DF8024012
:104770000D208DF815000A208DF8160000256C46D6
:1047800019E0781B122800DB1220C6B21221E01CAF
:10479000FDF7AEFF06A841193246E01CFDF781FF88
:1047A0000026A119102301220648FFF705FC761CFC
:1047B000172EF6DB1235BD42E3DB002049B0F0BC1A
:1047C0005DF814FB940000200FB4054B10B503A94D
:1047D000044A029800F05EFD10BC5DF814FB000076
:1047E0001D5A00086400002037B514460846064BE1
:1047F0006A46214600F04EFD04466946002001F05D
:10480000CCF820463EBD00009B590008410008023C
:1048100018BF04200A0E18BF40F001004FF07F427D
:1048200032EA010108BF40F00200012808BF05205C
:1048300070470907090E002804DB00F1E02080F82A
:104840000014704700F00F0000F1E02080F8141D04
:104850007047000010B510EE104A4FF01A402DEDD1
:10486000028B00EB4400B0F1C85F4AD84FF0FC4027
:10487000B0EB440F22D2B0EEC00AF7EE000A30EEE1
:10488000C00AF6EE000A20EE208A18EE100A03F0A5
:1048900009F900EE100A14F0004F1DBF9FED281A11
:1048A000DFED280AB1EE400A9FED271A08BFF0EEAF
:1048B000410AF8EE001A20EE210A05E020EE008AF7
:1048C0009FED221ADFED220ADFED221A9FED222A48
:1048D00070EEC00A20EE080A08EE212ADFED1F1A4A
:1048E00048EE021A9FED1E2A08EE212ADFED1D1A5E
:1048F00048EE021ABDEC028B40EE610A30EE810AEE
:1049000010BD4FF0CC40B0EB440F82BF9FED160AB4
:10491000BDEC028B10BD4FF07F40B0EB440F05D2D1
:10492000BDEC028BBDE8104000F003BB012000F09D
:10493000E9FBBDEC028BBDE8104000F001BB0000BC
:104940000000494022AA7D3A000000000000C93F53
:1049500022AAFD3924FE1C3DC78AD83C1E67383D7B
:104960001B93993DAFAA2A3EDB0FC93F70B54FF0AC
:1049700068422DED048BF0EE408A18EE900AB0EEFE
:10498000608A18EE101A02EB4003B3F1654F3CBF8A
:1049900002EB4102B2F1654F7DD200BFC0F3C753B5
:1049A000C1F3C7529A1A1B2A09DD10F0004F14BF39
:1049B0009FED830A9FED830ABDEC048B70BD12F15D
:1049C0001A0F36DA11F0004F09D010F0004F0CBF6B
:1049D0009FED7D0A9FED7D0ABDEC048B70BD88EED6
:1049E000889A19EE100AFFF711FF042808BF00F09B
:1049F000AFFA18EE900AFFF709FF054618EE100A05
:104A0000FFF704FF044619EE100AFFF7FFFE042D1E
:104A100018BF052D08D1042C18BF052C04D100287F
:104A200004BF022000F06EFBB0EE490ABDEC048B1F
:104A300070BD4200B2EB410F3AD910F0004F19BFE0
:104A4000DFED630A9FED630ADFED630A9FED630A02
:104A5000B0EE481A0A46B1EE688A80F00041F0EEE6
:104A6000418A10460A1A5200B2F1807F34D248407F
:104A700010F0004FDFED5A1A9FED5A2A1DBFBEEE0F
:104A8000001A70EEE10A30EE420AB6EE001A08BFD4
:104A900070EEA10A00E040E008BF30EE020AB0EE7E
:104AA000682A01EE482A08EE818AC2EE081A15E04B
:104AB00011F0004F04BF9FED4C0AF0EE400AD1D038
:104AC00010F0004F19BFDFED490A9FED490ADFEDF5
:104AD000490A9FED490AC5E7C8EE881A21EEA11AD6
:104AE0009FED462ADFED462A41EE022A9FED452A38
:104AF00001EE222ADFED442A41EE022A9FED432AED
:104B0000BDEC048B01EE222A21EE811A01EE020A8D
:104B100030EE210A30EE200A70BD4FF07F42B2EB3A
:104B2000400F28BFB2EB410F09D2F0EE480AB0EEB9
:104B3000680ABDEC048BBDE8704000F0FDB940EAA6
:104B400001035B0008BF41F0FF410BD0B2EB400F07
:104B500008BFB2EB410F08D120F0804008EE900A68
:104B600021F0804108EE101A18E7B2EB400F12BF97
:104B70005FEA410340F0FF4001F000413FF40EAF17
:104B8000B2EB410F12BF5FEA400200F0004041F07B
:104B9000FF413FF403AF4A0092EA40033FF5FEAE07
:104BA000002AACBF9FED1A0A9FED1A0A68EE808AB0
:104BB00028EE008A18EE900A18EE101AEEE60000B1
:104BC000DB0FC9BFDB0FC93FDB0F4940DB0F49C01B
:104BD0000000C9BF22AAFDB90000C93F22AAFD39C1
:104BE0000060ED3EC30ACE3700000000000049C05F
:104BF00022AA7DBA0000494022AA7D3A2DAD65BDAA
:104C00008FB8D53D0FB511BE61C84C3EA8AAAABE4B
:104C10000000804F0000802F10EE101A08B5444AA3
:104C20006846B2EB410F28D94FF0E640B0EB410F98
:104C300094BF00204FF0FF3000900098002861DB07
:104C400060EE000A10F0010F45D010F0020FDFED0A
:104C5000391A9FED391A00EEE11ADFED381A40EEED
:104C6000811A21EEA01AF0EE400A40EE010A08BFB8
:104C7000F1EE600AB0EE600A08BD314B21F000424F
:104C800093423CD911F0004FDFED2E0A20EE201A9E
:104C9000DFED2D0A19BF31EE601A71EE200A31EEF8
:104CA000201A71EE600ABDEEE01A11EE100A9FEDB7
:104CB000271A00F0030000EEC10A9FED251A0090AC
:104CC00000EEC10A9FED231A00EEC10A9FED221AE1
:104CD00000EEC10AB1E79FED211A9FED210A10F005
:104CE000020F00EE810A9FED1F1A00EE801AB7EE48
:104CF000000A00EE810A18BFB1EE400A08BD00F0BC
:104D00002FF99AE710EE100A4000B0F17F4F3CBF38
:104D1000B7EE000A08BD07D14FF0010000F0F2F92C
:104D2000BDE8084000F00CB9BDE8084000F001B94A
:104D3000B61F927E336D4C39DA82083CA0AA2ABE97
:104D4000490E494683F9223F0000004B0000C93F4D
:104D500000A0FD390020A2331A61342CB93AB2BA4E
:104D6000CA9F2A3DDDFFFFBE00B510EE101A2DEDE3
:104D7000028B81B0524A6846B2EB410F2ED94FF0F8
:104D8000E640B0EB410F94BF00204FF0FF300090A1
:104D90000098B0EE408A00286ADB10F0010F4BD07B
:104DA00068EE080A9FED471A9FED470A00EE810A58
:104DB0009FED461A10F0020F00EE801AB7EE000ABF
:104DC00000EE810A02BF01B0BDEC028B00BD00BF46
:104DD00001B0B1EE400ABDEC028B00BD3C4B21F0AE
:104DE0000042934241D911F0004FDFED3A0A20EE24
:104DF000201ADFED390A19BF31EE601A71EE200A70
:104E000031EE201A71EE600ABDEEE01A11EE100AC2
:104E10009FED321A00F0030000EEC10A9FED301A38
:104E2000009000EEC10A9FED2F1A00EEC10A9FED1F
:104E30002E1A00EEC10AABE728EE080A9FED2B1AE6
:104E4000DFED2B0A10F0020F40EE410A9FED291A08
:104E500000EE201A61EE000AB0EE480A08EE200AC1
:104E6000B6D101B0BDEC028B00BD00F079F88FE740
:104E700018EE100A4000B0F17F4F0DD218EE100A64
:104E8000FFF7C4FC042808BF00F062F8B0EE480A3F
:104E900001B0BDEC028B00BD09D1012000F032F958
:104EA00001B0BDEC028B5DF804EB00F049B801B035
:104EB000B0EE480ABDEC028B5DF804EB00F039B8A7
:104EC000B61F927EB93AB2BACA9F2A3DDDFFFFBE35
:104ED000490E494683F9223F0000004B0000C93FBC
:104EE00000A0FD390020A2331A61342C336D4C39F7
:104EF000DA82083CA0AA2ABE10B52DED028BB1EED5
:104F0000C08A18EE100A20F00040C0F1FF40C00F28
:104F10000AD010EE100A20F00040C0F1FF40C00F90
:104F200004BF012000F0EEF8B0EE480ABDEC028BA1
:104F300010BD30EE000A704730EE200A70470000C6
:104F4000DFED020A80EEA00A7047000000000000BA
:104F50009FED020A20EE000A7047000000000010DA
:104F60002DE9F0014FF07F42B2EB410F9FBF4FF0B0
:104F7000FF310160BDE8F00170474FF0004242EAA6
:104F80000123C1F3C752783A551112F01F0C434C5C
:104F9000CCF120067C44C1F3C752A2F178024FEA5B
:104FA000621204EB820254F8254008BFD2E9015690
:104FB00012D0556804FA0CF425FA06F73C439768BA
:104FC00005FA0CF527FA06F8D26807FA0CFCF2404D
:104FD00045EA08054CEA0206A4FB034CA5FB035274
:104FE000A6FB03631D449D4234BF0126002613190E
:104FF000334416B1934202D903E0934201D2012215
:1050000000E00022624402F1200C9206DC0C42EA2D
:10501000443200EE102A5B03DFED210AF8EEC01ADD
:1050200000EE103A4FEA9C1C11F0004FB8EE400A17
:10503000C0F800C020EE201A00EE105ADFED190A69
:10504000B8EE400A20EE200A71EE810A70EE800A66
:1050500010EE902A02F500626FF30B0200EE902A28
:1050600070EEE11A31EEC11ADFED101A30EE411A7E
:105070009FED0D0A20EE800A01EE210A9FED0C1A29
:1050800000EE810A04BFBDE8F0017047CCF1805109
:105090000160BDE8F001B1EE400A7047E42B00006A
:1050A000000000360000802C22AAFD29DB0FC92F4A
:1050B0000000C92F0EB50092CDE901300B4603A2C6
:1050C00000210620FFF734FB0EBD000025737C2570
:1050D000737C25642072657475726E696E67202515
:1050E000640A000002E008C8121F08C1002AFAD1B1
:1050F00070477047002001E001C1121F002AFBD158
:1051000070470000014908607047000068000020F7
:105110002DE9FF5F82B00021DDE90430020DDDF8EA
:1051200040B0034318D044F61050A2F2FF3242437D
:105130001514119801281FD0A5EB0B00401C5FEA45
:10514000000A4FF000064E4FDFF83891B046504647
:1051500015D5CAF1000413E0119801244AA30128CF
:1051600001D16FEA0B010298119AC0E90031C0E940
:10517000024206B0BDE8F09FCBF10000DFE7044635
:105180000021404A491842EB0450CDE9001012E0DA
:10519000E00707D032463B4640464946FDF73BFC18
:1051A0008046894632463B4610461946FDF733FC99
:1051B00006460F466410002CEAD1DDE90401DDE962
:1051C0000023BAF1000F06DAFDF725FC42464B46F4
:1051D000FDF721FC05E0FDF790FC42464B46FDF74C
:1051E0008CFC04460E460022284BFDF7ADFD03D88B
:1051F0004FF0FF30014607E00022254B20463146A4
:10520000FDF762FBFDF7A2FE102409E0002C0ADB8B
:105210000A220023FDF7C2F9039B30321A55641E9F
:1052200050EA0102F2D1641C039AC4F11103144440
:10523000119A012A03D0012208430DD10AE0084344
:1052400004D000204FF0110B119072E7A3EB0B0577
:105250006D1E0DE05B4504DD4FF0000205F1010518
:1052600004E003DA4FF00002A5F10105002AECD0BA
:1052700002981199C0E90231C0E9004579E70000C0
:10528000000014400000F03F300000000000F04338
:105290000000E03F2DE9FF4F95B09A46884606464C
:1052A0000025EEE1252877D100242746F94A01217F
:1052B000039400E0044316F8013F203B01FA03F099
:1052C0001042F7D130782A2811D06FF02F033078B0
:1052D000A0F13002092A16D8039A44F0020402EB26
:1052E000820203EB42021044761C0390EFE758F869
:1052F000042B0392002A03DA504244F40054039032
:1053000044F00204761C30782E2816D116F8010FCE
:1053100044F004042A280DD06FF02F023078A0F159
:105320003003092B09D807EB870302EB4303C718A7
:10533000761CF3E758F8047B761C30786C280FD085
:1053400006DC4C2817D068280DD06A2814D104E058
:10535000742810D07A280FD10DE044F400140AE02C
:1053600044F4801401E044F440147278824202D183
:1053700004F58014761C761C307866280BD013DC7C
:10538000582877D009DC002875D04528F6D0462863
:10539000F4D047281AD193E118E0632835D0642867
:1053A00079D0652812D18BE1702873D008DC67288A
:1053B000F1D069286FD06E280DD06F2806D1ACE0EF
:1053C00073282CD0752874D0782853D0524617995A
:1053D00090476D1C54E1C4F30250022809D0032801
:1053E0000DD0D8F8001004280DD00D6008F1040885
:1053F00046E1D8F80010EA17C1E90052F6E7D8F8FC
:1054000000100D80F2E70D70F0E718F8041B8DF81E
:10541000001000208DF80100EB46012003E058F851
:1054200004BB4FF0FF3061074FF0000102D40DE0E4
:1054300009F101018946B9420FDA8145F8DB1BF811
:1054400009100029F4D108E009F1010189468142DF
:10545000FADB1BF809100029F6D103985346A0EB9C
:10546000090721463846179A00F080FA284400EBD5
:10547000090507E044E008E10DE01BF8010B524686
:1054800017999047B9F10109F7D25346214638469A
:10549000179AF2E039E00A21C4F302524FF0000BF0
:1054A0000091022A06D058F8040BC117032A09D02C
:1054B0000AE023E008F1070020F00702F2E8020109
:1054C000904605E000B2C117042A01D140B2C117CD
:1054D000002906DA0A460021404261EB02012D2232
:1054E00002E0220504D52B228DF80420012203E0DE
:1054F000E20701D02022F7E7914657E00A2100E0B9
:1055000010214FF0000B00910BE010214FF0000B29
:1055100044F004040827009103E008204FF0000B3A
:105520000090C4F30252022A05D058F8040B00215F
:10553000032A08D008E008F1070020F00702F2E88B
:105540000201904603E080B2042A00D1C0B24FF0BD
:10555000000922072AD53278702A07D0DDF800C06A
:105560008CF0100C5CEA0B0C05D00EE040228DF89C
:105570000420012208E050EA010306D030238DF810
:1055800004308DF8052002229146009B83F0080329
:1055900053EA0B030AD150EA010201D1620705D593
:1055A00030228DF804204FF001097F1E3278582AEE
:1055B00004D039A20C920CAA02920BE03BA2F9E7AC
:1055C0005B46009AFCF7EAFF0C9B9B5C029A521E1A
:1055D0000292137050EA0102F2D1029804A9081A4B
:1055E00000F1200B600702D524F4803400E001278D
:1055F0005F4502DDA7EB0B0000E0002000EB0B0194
:10560000009003984944401A0390E00306D453469F
:105610002146179A039800F0A9F90544002706E0EF
:1056200001A85246C05D179990476D1C7F1C4F45DD
:10563000F6DBE0030CD553462146179A039800F099
:1056400095F9054404E030205246179990476D1CA7
:105650000099481E00900029F5DC08E002980299A4
:1056600052460078491C0291179990476D1CBBF176
:105670000001ABF1010BF1DC5BE100F065F90544E1
:10568000761C307800287FF40DAE19B02846BDE8AE
:10569000F08F0000092801003031323334353637BD
:1056A000383961626364656600000000303132336E
:1056B000343536373839414243444546000000000E
:1056C000600700D4062708F1070020F00700F0E883
:1056D0000223804603F0004C5FEA0C0001D097A043
:1056E00009E0200501D596A005E0E00701D095A0CE
:1056F00001E0AFF24C001390307823F000436528AE
:105700000CD006DC452809D046281DD047287FD17B
:105710003BE0662818D067287AD136E00021112FA7
:1057200001DB112000E0781CCDE9000104A90CA8E0
:10573000FFF7EEFCDDE90D010C9A4FF0000B07F1CD
:105740000109109200914EE04FF000400097CDE922
:10575000011004A90CA8FFF7DBFCDDE90D020C9B8E
:105760000F994FF0000B91461093009211B9791CDC
:1057700000EB0109B7EB090003D4C0F1FF3B07F1CF
:105780000109A9EB0700019042E0012F00DA01278F
:105790000021112F01DD112000E03846CDE9000184
:1057A00004A90CA8FFF7B4FCDDE90D010C9A0091E7
:1057B0004FF0000BB946109221070FD4009A4A45CA
:1057C00003DA914601E0A9F10109B9F1010F05DD04
:1057D000109AA9F10101515C3029F4D0B84202DAE3
:1057E00010F1040F03DA0121CDE9011010E00028C7
:1057F00003DC8344A9EB000102E0411C494500DDC4
:105800008946A0EB0B00401C01904FF00040029035
:10581000200705D40198484502DB4FF0FF30019086
:1058200000208DF84B0002980DF14B07B0F1004FAE
:1058300025D002200C902B200D90029800280CDA25
:10584000404202902D200D9007E00A210298FDF7BA
:10585000C3FA3031029007F8011D0C99481E0C90D4
:105860000029F2DC02980028EFD1791E0D9808700B
:10587000307800F0200040F0450007F8020D11A834
:10588000C01BC01D02901398007800B1012000EBEE
:105890000901019801EBE071029801440398401A54
:1058A000401E0390E00306D453462146179A0398FE
:1058B00000F05CF805441398007818B15246179927
:1058C00090476D1CE00323D553462146179A039851
:1058D00000F04CF805441BE0BBF1000F07DB00981B
:1058E000584504DD1098179910F80B0001E017993E
:1058F00030205246904701980BF1010B401E05F1F4
:105900000105019004D12E205246179990476D1C35
:10591000B9F10001A9F10109DEDC05E017F8010B7E
:105920005246179990476D1C0299481E0290002913
:10593000F4DC53462146179A03989EE62D0000009A
:105940002B000000200000002DE9F0410446002556
:105950001E461746880404D405E039462020B04787
:105960006D1C641EF9D52846BDE8F0812DE9F04193
:10597000044600251E469046C80301D5302700E0A6
:105980002027880404D505E041463846B0476D1C01
:10599000641EF9D52846BDE8F0810A68531C0B60E7
:1059A0001070704710B500EE100AFEF753FF10EEAE
:1059B000100A10BD10B500EE100AFFF72DF910EE19
:1059C000100A10BD31B54FF461740098A04210D98F
:1059D000002502E0FFF7F6FF6D1C00992046B1FBA1
:1059E000F0F1A942F6D80098B0FBF4F104FB1100E5
:1059F00000904FF0E0229169404211EBC00005D4C5
:105A000093698B4201DA8342FADA38BD00F5FA5025
:105A100093698B42FCDD8342FADC38BD13B54FF647
:105A2000FF73012269460248FEF7C6FA00981CBDC2
:105A3000940000202DE9FC4104464FF6FF7500203C
:105A4000CDE9000517460A466006010E1E460020F5
:105A5000FDF7A8FC10B10120BDE8FC81012000EB9E
:105A60004400C1B23B46324600200095FDF766FC7B
:105A7000F2E71CB54FF6FF74CDE900244006000E96
:105A80000A4601460020FDF78DFC1CBD3EB50446CC
:105A9000B0F904000D46C0030090B4F9060004F10B
:105AA0000C03C0030190B4F908006A46C0030290D9
:105AB000606A4100208880B200F0CEF80098296822
:105AC00004F11803A0EB61000090019869686A4630
:105AD000A0EB610001900298A968A0EB6100029020
