:020000040800F2
:10000000D8090020DD010008532900087F1F0008DF
:1000100051290008D9080008092E00080000000036
:10002000000000000000000000000000CD290008D2
:10003000E908000800000000552900087D2A000892
:10004000F7010008F7010008F7010008F7010008B0
:10005000F7010008F7010008F7010008F7010008A0
:10006000F7010008F7010008F7010008F701000890
:10007000F7010008F7010008F7010008F701000880
:10008000F7010008F7010008F7010008F701000870
:10009000F7010008F7010008F7010008F701000860
:1000A000F7010008F7010008F7010008F701000850
:1000B0003D2B0008F7010008F7010008F7010008D0
:1000C000F7010008F7010008F7010008F701000830
:1000D000F7010008F7010008F7010008F701000820
:1000E000F7010008F7010008F7010008F701000810
:1000F000F7010008F7010008F7010008F701000800
:10010000F7010008F7010008F7010008F7010008EF
:10011000F7010008F7010008F7010008F7010008DF
:10012000F7010008F7010008F7010008F7010008CF
:10013000F70100080000000000000000F7010008BF
:10014000DD080008F7010008F7010008F7010008C2
:10015000F7010008F7010008F7010008F70100089F
:10016000F7010008F7010008F7010008F70100088F
:10017000F7010008F7010008F7010008000000007F
:1001800000000000F701000800000000000000006F
:10019000F70100080000000000000000F70100085F
:1001A000000000000000000000000000F70100084F
:1001B000F7010008F7010008F7010008F70100083F
:1001C000F7010008DFF810D000F074FB004800478A
:1001D0003D460008AFF30080D8090020064880475C
:1001E00006480047FEE7FEE7FEE7FEE7FEE7FEE71C
:1001F000FEE7FEE7FEE7FEE7212B0008C501000849
:100200002DE9F05F0546002092469B46884606464B
:10021000814640241BE0284641464746224600F0DE
:100220008DFA53465A46C01A914110D311461846CA
:10023000224600F016F82D1A67EB01084F462246B9
:100240000120002100F00DF817EB00094E41201E9F
:10025000A4F10104DFDC484631462A464346BDE8A6
:10026000F09F202A04DB203A00FA02F100207047B8
:100270009140C2F1200320FA03F3194390407047E4
:10028000202A06DBCB17203A41FA02F043EAE0735A
:1002900006E041FA02F3D040C2F120029140084347
:1002A00019467047D2B201E000F8012B491EFBD27B
:1002B00070470022F6E710B513460A460446194671
:1002C000FFF7F0FF204610BD2DE9FE4F804681EA82
:1002D0000300C00F0C46009021F0004123F00045C0
:1002E000B8EB0200A94105D24046214690461C4683
:1002F0000B46024623F00040104347D0270DC7F3BA
:100300000A00C3F30A510290401A019040286BDAA8
:10031000C3F3130040F4801B0098924620B10023E1
:10032000D2EB030A63EB0B0B01985946C0F1400274
:100330005046FFF796FF06460D4650465946019A2D
:10034000FFF79EFF10EB08006141002487EA11527D
:1003500084EAE7731A4340D0009A62B3019A012AF3
:100360004FEA075215DC001B61EB02014FF000421F
:1003700002EA0752CDE90042001C41F580113246E5
:100380002B4600F031FA03B0BDE8F08F404621461D
:10039000F9E7001B61EB0201001C41F58013001816
:1003A0005B412018A2F5001747EB030140EAD57026
:1003B000B6196D4111E06D084FEA360645EAC07581
:1003C0004FEA0752001B61EB0201001C41F580114E
:1003D00049084FEA30000019514132462B4603B01C
:1003E000BDE8F04F00F0F1B9009801224000002371
:1003F000D0EB020263EBE073009821464FEAE07411
:10040000B8EB000061EB0401E9E783F000435BE730
:1004100081F0004158E72DE9FE4F81EA030404F022
:10042000004421F0004100944FF0000B23F0004302
:1004300050EA01045ED052EA03045BD0C3F30A54CD
:10044000C1F30A552C44A4F2F3340194A0FB0254E6
:10045000C1F3130141F48011C3F3130343F4801378
:1004600001FB024400FB034E840A970A44EA8154CC
:1004700047EA8357A4FB076802958D0A05FB0785A9
:100480004FEA932C04FB0C542705029D4FEA0658B3
:1004900047EA1637B5EB08056EEB070C870E920E90
:1004A00047EA811742EA8312A7FB0201B6EB0B0170
:1004B00064EB00042B0D43EA0C335E1844EB1C5034
:1004C000DA465146E7FB0201C5F313044FEA0B334A
:1004D00043EA14534FEA0432019C43EA0603A4F1B1
:1004E0000C040294009CCDE900B400F07DF903B047
:1004F000BDE8F08F00200146F9E72DE9F04D81EAD3
:10050000030404F0004B21F0004514464FF0000AAC
:1005100023F0004150EA050220D054EA01021DD028
:10052000C5F30A570246C5F31303C1F31300C1F321
:100530000A5640F4801543F48013A7EB0608101BFD
:10054000D64608F2FD3873EB050002D308F1010826
:1005500001E092185B41B8F1000F03DA0020014678
:10056000BDE8F08D00204FF48011064684460EE071
:10057000171B73EB050705D3121B63EB050306433B
:100580004CEA010C49084FEA300092185B4150EAEE
:100590000107EDD152EA030012D082EA040083EA97
:1005A0000501084305D0101BAB4106D201220023F0
:1005B00006E000224FF0004302E06FF0010253100A
:1005C0001AEB06004CEB085110EB0A0041EB0B0153
:1005D000BDE8F04D00F0F9B80EB5C10F80EAE0704B
:1005E0000844CA07002140F233438DE80E000A4652
:1005F0000B4600F0F9F803B000BD0EB540F23341F0
:1006000002910021CDE900110A460B4600F0ECF8FA
:1006100003B000BD70B5C1F30A5201F000450024DB
:10062000C1F3130140F2FF3341F480119A4201DA21
:10063000002070BD40F233439A42A2F2334203DC01
:10064000524200F07BF800E090402C43F1D0404251
:1006500070BD00F0004230F000400AD0C10D01F53D
:100660006071C0F3160042EA0151C208400711430D
:10067000704700200146704730B5041E71F1000438
:1006800004DB4FF00044404264EB0101141E73F19F
:10069000000405DB1C464FF00043524263EB0403A9
:1006A0008B4208BF824230BD30B5041E71F1000498
:1006B00004DB4FF00044404264EB0101141E73F16F
:1006C000000405DB1C464FF00043524263EB040379
:1006D000994208BF904230BD01F0004330B421F090
:1006E000004150EA010206D00A0DA2F56072C1F382
:1006F0001301002A02DC30BC00207047440F44EA9A
:10070000C104C100E01830BC00EBC25000F026B8B4
:1007100030B50B46014600202022012409E021FAD1
:1007200002F59D4205D303FA02F5491B04FA02F5CE
:100730002844151EA2F10102F1DC30BD202A04DBA1
:10074000203A21FA02F00021704721FA02F3D0404A
:10075000C2F1200291400843194670470029A8BF02
:100760007047401C490008BF20F00100704710B4DA
:10077000B0FA80FC00FA0CF050EA010404BF10BC8F
:10078000704749B1CCF1200421FA04F411FA0CF1BC
:1007900018BF012121430843A3EB0C01CB1D4FEAF5
:1007A00000614FEA102042BF002010BC704700EBF0
:1007B000C35010440029A4BF10BC7047401C49001E
:1007C00008BF20F0010010BC704710B5141E73F173
:1007D000000408DA401C41F1000192185B411A4301
:1007E00001D120F0010010BD2DE9F04D92469B464D
:1007F00011B1B1FA81F202E0B0FA80F220329046F3
:10080000FFF72FFD04460F4640EA0A0041EA0B01BC
:1008100053465A46084313D0114653EA010019D0F3
:10082000C8F140025046FFF789FF05460E46504684
:1008300059464246FFF715FD084305D0012004E064
:1008400020463946BDE8F08D0020054346EAE076B3
:100850002C4337430A986305E40AA0EB0800002202
:10086000FD0A44EA47540A3002D500200146E9E770
:10087000010510196941DDE9084500196941BDE824
:10088000F04DA2E7C1F30A52C1F3130140F2FF3366
:1008900041F480119A4202DA00200146704740F28A
:1008A00033439A42A2F2334202DC5242FFF746BF80
:1008B000FFF7D7BC064C074D06E0E06840F00103A7
:1008C00094E8070098471034AC42F6D3FFF77EFC5B
:1008D000904B0008B04B0008FEE70000014800F014
:1008E00092B90000D4000020704772B6FEE7000005
:1008F00010B501F0E7FD0548006890ED140B51ECD0
:10090000100BFFF7E9FE00EE100A10BD18000020E2
:1009100090F82020012A07D0022A05D0416A41F42C
:100920008021416201207047006842690A434261A8
:1009300000207047F0B590F820500468A468012D9D
:1009400005D0022D03D0416A41F480215DE014F00E
:10095000406F01D1E50055D5C4F30164022C03D9E1
:10096000416A41F4000150E00125A5401D608D68F9
:100970004FF4C0739DB1CE6835434E6845EAC60555
:10098000066803EB0417F5514FF4C275076805EBD1
:1009900004150E697E51097D012905D009E00E88F4
:1009A000CD6845EA4655EBE701684E5946F4807636
:1009B0004E511179D579567941EA056195792D0421
:1009C00045EA062529434FF4C676056806EB04166A
:1009D000A9511178D57841EA0561957852782D04AE
:1009E00045EA022211434FF4C475026805EB041571
:1009F0005151006803EB0411425842F00102425089
:100A00000020F0BD416A41F4001141620120F0BDB7
:100A100010B590F82020012A07D0022A05D0416A9B
:100A200041F480214162012010BD3B48D0F80022F2
:100A300042F00102C0F80022D0F8002222F47C52D9
:100A4000C0F80022D0F800224B6A42EA0322C0F824
:100A500000220A7D02F01F0301229A40D0F81C32C6
:100A60009343C0F81C32CB69B3B9D0F80C3293432E
:100A7000C0F80C328C894B6864F31F434C6900EB5F
:100A8000C404C4F840320C890B6864F31F434C69FA
:100A900000EBC404C4F84432CB69012B16D1D0F862
:100AA0000C321343C0F80C320C884B6864F31F43BC
:100AB0004C6900EBC404C4F840320C89CB6864F381
:100AC0001F434C6900EBC404C4F844328B69002B0B
:100AD000D0F804320ED01343C0F804320B69002B57
:100AE000D0F8143208D01343C0F81432096A01292F
:100AF00004D008E09343EFE79343F5E7D0F81C12E6
:100B00001143C0F81C12D0F8001221F00101C0F806
:100B10000012002010BD000000640040704730B596
:100B200090F82040012C05D0022C03D0416A41F4FA
:100B300080215DE00468002955D02469A40754D0C1
:100B40004FF4D874056804EB01142D5915F0040511
:100B5000956005682D594ED0ED08556005682C59F3
:100B600004F00204D4604FF4DA74056804EB011455
:100B70002D5905F00F05156105682D59C5F3072599
:100B8000956105682C59240C54614FF4DC7204689B
:100B900002EB0112A4581C700468A458240A5C706B
:100BA0000468A458240C9C700468A258120EDA70D1
:100BB0004FF4DE72046802EB0112A4581C71046841
:100BC000A458240A5C710468A458240C9C7104681D
:100BD000A258120EDA71006881B1016941F020015A
:100BE0000161002030BDE468A8E7416A41F40011CA
:100BF0004162012030BD6D0D1560AFE7C16841F065
:100C00002001C160EDE72DE9F05F05460068002492
:100C10004669D0F804908768D0F80CB0D0F810A0DE
:100C2000D0F81880F10748D0F90714D0012181606D
:100C3000B80703D5284600F01EFA0CE0780702D565
:100C40004FF4006407E0380702D54FF4805402E007
:100C5000284600F00FFAF80516D529684FF4807081
:100C60008860B80503D5284600F007FA0CE078053F
:100C700002D544F4005407E0380502D544F480441A
:100C800002E0284600F0F8F9F80316D529684FF479
:100C900080308860B80303D5284600F0F0F90CE0F6
:100CA000780302D544F4004407E0380302D544F445
:100CB000803402E0284600F0E1F9300707D55FEA0A
:100CC000CB6004D52968102044F40074C860700714
:100CD0004FF0080707D55FEA0B7004D52868C76096
:100CE000284600F061F9B00706D52868C06880077B
:100CF00002D0284600F05AF9700607D55FEACA60AC
:100D000004D52968102044F480640861B00607D532
:100D10005FEA0A7004D528680761284600F07AF96E
:100D2000F00606D528680069800702D0284600F042
:100D300072F9B00308D55FEAC96005D529681020AB
:100D40004860284600F068F9F00307D55FEA0970AB
:100D500004D528684760284600F092F9300446D54B
:100D60005FEA497040D5F00504D55FEAC87001D04C
:100D700044F00104B00504D55FEA887001D544F061
:100D80000204700504D55FEA487001D544F00404FC
:100D9000300529D518F0700F26D008F070004028D3
:100DA00015D006DC102809D020280AD0302816D10A
:100DB0000AE050280ED0602811D10EE044F008045B
:100DC0000DE044F010040AE044F0200407E044F091
:100DD000400404E044F0800401E044F48074286896
:100DE000816921F070018161296804204860002C2C
:100DF00005D0686A204368622846FFF78FFEBDE889
:100E0000F09F70B5040003D094F8200010B104E006
:100E1000012070BD204600F081F82068016821F0B3
:100E20000201016000F026FA0546052604E000F004
:100E300021FA401B0A2811D8206840688007F6D4A0
:100E40002068016841F00101016000F013FA0546D5
:100E50000BE000F00FFA401B0A2806D9606A40F444
:100E60000030606284F82060D2E720684068C007E4
:100E7000EFD0207E0128206801683DD021F080015C
:100E80000160607E01282068016838D021F04001AF
:100E90000160A07E01282068016833D021F0200184
:100EA0000160E07E0128206801682ED041F0100129
:100EB0000160207F01282068016829D021F0080105
:100EC0000160607F01282068016824D021F00401BE
:100ED0000160D4E902010843D4E904121143084334
:100EE0006168491E08432168C861002060620120D2
:100EF00084F82000002070BD41F08001C0E741F07F
:100F00004001C5E741F02001CAE721F01001CFE719
:100F100041F00801D4E741F00401D9E710B586B0EB
:100F2000044614216846FFF7C4F91C49206888422A
:100F300031D11B480021026842F0806202600268E1
:100F400002F080620592026842F00072026000685E
:100F500000F00070059012481038026842F002025A
:100F60000260006800F0020005904FF440500090CD
:100F70000220CDE901010320039009200490694675
:100F8000084800F091F800221146402000F048FA8D
:100F9000402000F037FA06B010BD000000680040A5
:100FA00040380240000402407047000010B504467B
:100FB0000121154800F051F9144B154A0021204633
:100FC000FFF7ADFD114812490C3847F6FE728068F4
:100FD0000378012B04D04C68944201D1012111E027
:100FE000012B09D0042B01D0052B0CD1496811F439
:100FF0007C1F06D0062105E04968914203D10221F9
:1010000000E00421017010BD000802400C00002027
:1010100080000020704770477047000070B504469C
:1010200090F82000012804D0606A40F4002060623B
:1010300018E0022084F820002068016821F00101F6
:10104000016000F017F905460EE000BF00F012F94C
:10105000401B0A2808D9606A40F40030606205200D
:1010600084F82000012070BD20684068C007EDD1E1
:10107000606270BD70477047704770477047704737
:101080007047000070B5044600F0F4F80546601C97
:1010900002D004480078044400F0ECF8401BA04261
:1010A000FAD370BD680000202DE9F84F00224FF000
:1010B000010803254FF00F0E0B6808FA02F42340D5
:1010C000A3426ED14E68012E05D0022E03D0112E00
:1010D00001D0122E12D186684FEA420C05FA0CF7A5
:1010E000BE43CF6807FA0CF7374387604668A643CC
:1010F0000C79C4F30014944034434460C66857002C
:1011000005FA07FC8C6826EA0C06BC403443C46030
:101110004C68022C01D0122C13D1D40800EB8404AB
:10112000A346D4F8209054074FEAD46A0EFA0AF680
:1011300029EA06090E6906FA0AF646EA0906CBF814
:10114000206006680C7926EA0C0604F00304BC4013
:10115000344304604C68E40060D5334C266846F4A0
:1011600080462660246822F0030604F4804400943C
:101170002E4C3444A446D4F808489607370F0EFA8C
:1011800007F6B4432A4EB04201D100261FE0294E93
:10119000B04201D101261AE0274EB04202D1022608
:1011A00015E03BE0254EB04201D103260FE0244E6E
:1011B000B04201D104260AE0224EB04201D10526F8
:1011C00005E0214EB04201D1062600E00726BE40D0
:1011D0002643CCF808681D4E34684F689C43FF03D3
:1011E00000D51C433460194E361D34684F689C434B
:1011F000BF0300D51C433460144E083634684F6872
:101200009C43FF0200D51C433460104E0C363468FA
:101210004F689C43BF0200D51C433460521C102A07
:10122000FFF44AAFBDE8F88F443802400030014077
:10123000000002400004024000080240000C02408E
:10124000001002400014024000180240003C01401F
:101250000069084000D001207047426931EA02026B
:1012600000D10904816170470AB1816170470904A6
:10127000FBE700000148806870470000680000201C
:101280002DE9F0471E4691460C4600F079FE0028F5
:1012900011D0144F0020387000F03EFF204600F0BF
:1012A00007FF00F083FF4FF0010808B100240FE0B2
:1012B00087F800800120BDE8F087651CB54201D0A9
:1012C000012000E0002000F0A3FE09F80400ACB209
:1012D000B442F2D300F078FE00F042FF87F80080BD
:1012E0000020E8E7140000202DE9F04798469146D9
:1012F0000C46089F00F044FE002822D0134D002029
:10130000287000F009FF204600F0D2FE00F04EFFEA
:101310000126C0B1484600F0CBFE00F047FF90B177
:10132000002408E018F8040000F0C2FE00F03EFFC0
:1013300048B1641CA4B2BC42F4D300F011FF2E707B
:101340000020BDE8F0872E700120FAE7140000208D
:10135000024881680278114481607047680000206B
:101360000B4810B5016841F400710160016841F457
:1013700080610160016841F480710160032000F028
:101380006FF8002000F006F800F024F8002010BDEF
:10139000003C024070B50D4D04464FF47A71287838
:1013A000B1FBF0F00A490968B1FBF0F000F04AFB2C
:1013B00048B9102C07D200222146501E00F030F808
:1013C00000206C6070BD012070BD0000680000202E
:1013D000740000200A4808B5016841F480410160AA
:1013E000006800F4804000900548001F016841F04B
:1013F00080510160006800F08050009008BD00003E
:1014000044380240002809DB00F01F02012191400E
:101410004009800000F1E020C0F800117047000092
:10142000F0B40E4B1B680C46C3F30223C3F107054F
:10143000042D00D90425191D072901D2002300E03D
:10144000DB1E012606FA05F1491E214099409E4007
:10145000761E16403143F0BC01F000BD0CED00E0FB
:10146000064900F0070208684FF6FF03184040EAFB
:101470000220034A10430860704700000CED00E0B2
:101480000000FA052DE9F8431748016841F0805142
:1014900001600068154F00F08050012600903E6406
:1014A000FFF7E8FE05464FF47A78114C05E000BFDF
:1014B000FFF7E0FE401B40450DD86068C003F7D53C
:1014C0007E64FFF7D7FE0546464607E0FFF7D2FEEB
:1014D000401BB04202D90320BDE8F8836068800356
:1014E000F4D50020F8E700004038024000000E422A
:1014F000007000402DE9F0470E46050065D0DFF88A
:101500001481D8F80000F7B200F00F00B04207D203
:1015100088F80070D8F8000000F00F00B04254D1F5
:1015200028683D4C810712D5400703D5206840F458
:10153000E05020602878000703D5206840F4604020
:1015400020602068A96820F0F00008432060287817
:10155000C0072DD0304968680839012812D0022808
:1015600013D0032811D00968890700292DDA2168D2
:1015700021F0030101432160FFF77CFE814641F227
:10158000883A0EE009688903EFE709688901ECE70A
:10159000FFF770FEA0EB0901514502D90320BDE819
:1015A000F0872068696800F00C00B0EB810FEFD184
:1015B000D8F80010404601F00F01B14207D907707A
:1015C000006800F00F00B04201D00120E7E7287862
:1015D000400705D52068E96820F4E0500843206002
:1015E0002878000706D52068296920F4604040EA81
:1015F000C100206000F038F82168084AC1F30311E7
:10160000515CC8400649086006480068FFF7C2FE02
:101610000020C4E7003C024008380240B4490008FA
:10162000740000206C000020044805490068096827
:10163000044AC1F38221515CC84070477400002005
:1016400008380240C4490008044805490068096890
:10165000044AC1F34231515CC84070477400002015
:1016600008380240C4490008224810B5006810F04C
:101670000C02214815D02149042A11D01D4C241FE9
:10168000082A0FD00C2A0CD12268236802F03F02EE
:101690005B0221D52068C0F38810A0FB010120E087
:1016A000084610BD2268236802F03F025B0205D5A0
:1016B0002068C0F38810A0FB010104E02168C1F399
:1016C0008811A1FB00010023FEF79AFD2168C1F3F8
:1016D0000141491C49000AE02168C1F38811A1FBBE
:1016E00000010023FEF78CFD2168C1F30271B0FBFD
:1016F000F1F010BD083802400024F400001BB700D0
:101700002DE9F84F0546DFF828B30078ABF1040760
:10171000C007A7F1040451D0DBF800105846C1F30C
:10172000810101290FD00168C1F38101022902D191
:101730003968490207D40068C0F38100032809D141
:101740003868400206D52068800337D568680028CD
:1017500072D033E06868B0F5803F10D0B0F5A02FAC
:10176000206810D020F480302060206820F4802091
:1017700020606868A8B1FFF77DFD06460DE020688F
:1017800040F48030F4E740F480202060F7E700BFA9
:10179000FFF770FD801B642878D820688003F7D598
:1017A0000CE0FFF767FD064605E000BFFFF762FDAE
:1017B000801B6428F0D820688003F7D42878DFF8ED
:1017C000749280074FF0000A46D5DBF800105846A7
:1017D00011F00C0F0FD00168C1F38101022902D171
:1017E0003968490207D50068C0F38100032809D190
:1017F0003868400206D42068800715D5E8680128BB
:101800001AD111E0E868C0B10120C9F80000FFF763
:1018100031FD064605E000BFFFF72CFD801B0228C6
:10182000BAD820688007F7D52068296920F0F80029
:1018300040EAC10020600FE0F7E0C9F800A0FFF720
:1018400019FD064605E000BFFFF714FD801B0228C6
:101850001CD820688007F7D42878000727D5DFF840
:10186000D0817548696908F16C0881B10121016076
:10187000FFF700FD064604E0FFF7FCFC801B022892
:1018800004D8D8F800008007F6D510E089E0C0F849
:1018900000A0FFF7EFFC064605E000BFFFF7EAFCFB
:1018A000801B02287DD8D8F800008007F6D428785D
:1018B000400769D55E484FF0000838300068C00026
:1018C0000BD45B483830016841F0805101600068FA
:1018D0004FF0010800F080500090584E3068C0056D
:1018E00011D4306840F480703060FFF7C3FC009082
:1018F00006E000BFFFF7BEFC0099401A022850D84E
:101900003068C005F6D54A4EA868683601280FD061
:101910000528306810D020F001003060306820F0D9
:1019200004003060A868B8B1FFF7A4FC00900FE095
:10193000306840F00100F4E740F004003060F7E761
:10194000FFF798FC0099411A41F28830814264D82F
:1019500030688007F4D50EE0FFF78CFC009007E0BC
:10196000FFF788FC0099411A41F28830814254D82F
:1019700030688007F4D4B8F1000F05D02C48383017
:10198000016821F080510160A869A8B3DBF800105C
:10199000C1F38101022948D00228C9F860A005D00E
:1019A00000E03AE0FFF766FC054639E0FFF762FC2D
:1019B000064604E0FFF75EFC801B02282DD8206855
:1019C0008001F7D4F5E907010843E9681C4A490892
:1019D00002EB0141AA6841EA82110843297C40EAEE
:1019E0000160297D40EA017038600120C9F860007B
:1019F000FFF740FC054606E015E000BFFFF73AFCA4
:101A0000401B022809D820688001F7D50BE000BFF1
:101A1000FFF730FC401B022802D90320BDE8F88FF5
:101A200020688001F4D40020F8E70120F6E70000E8
:101A30000838024000004742800E474200700040D4
:101A40000000FFFF10B5401EB0F1807F01D30120E0
:101A500010BD4FF0E02460610F21601701F0FEF926
:101A60000020A06107202061002010BD7047704752
:101A700070B590F83C20012A32D0012480F83C4017
:101A8000022280F83D2003685A689D6822F07006A3
:101A90000A6832435A60134B02689A4214D0B2F17A
:101AA000804F11D0104B9A420ED0104B9A420BD05F
:101AB0000F4B9A4208D00F4B9A4205D00E4B9A42D8
:101AC00002D00E4B9A4204D1496825F08003194395
:101AD000916080F83D40002180F83C10084670BDC0
:101AE000022070BD000001400004004000080040DA
:101AF000000C00400004014000400140001800407C
:101B000010B5040003D094F83D0010B107E00120A7
:101B100010BD002084F83C00204600F00DF80220A3
:101B200084F83D00211D206801F00EF8012084F8A2
:101B30003D00002010BD000008B50068B0F1804FE6
:101B400012D10A48016841F00101016000680022D9
:101B500000F00100009011461C20FFF761FCBDE879
:101B600008401C20FFF74EBC08BD00004038024072
:101B70000168CA6842F00102CA600068816801F029
:101B80000701062903D0016841F00101016000202E
:101B9000704770B5044690F83C00012817D0012525
:101BA00084F83C50022084F83D002068826822F0CE
:101BB000770222F47F4282600868502830D00DDC22
:101BC00020284DD005DC98B310283BD148E00220F6
:101BD00070BD302844D0402834D139E0602828D066
:101BE000702806D0B0F5805F2CD0B0F5005F29D109
:101BF0000AE0CB68D1E90121206801F009F82068EA
:101C0000816841F0770109E0CB68D1E901212068C2
:101C100000F0FEFF2068816841F48041816011E09E
:101C2000CA684968206801F005F85021206807E07B
:101C300016E0CA684968206801F00DF86021206844
:101C400000F0F0FF84F83D50002084F83C0070BDA7
:101C5000CA684968206800F0EDFF40212068EFE77E
:101C6000226801461046EBE7704770B504460068ED
:101C700001694FF00005C943890715D4C168C943FC
:101C8000890711D4E91E016101202077206880694D
:101C90008007204602D0FFF7E7FF04E000F098F845
:101CA000204600F096F8257720680169C943490766
:101CB00017D4C168C943490713D46FF00401016107
:101CC000022020772068806910F4407F204602D0EF
:101CD000FFF7CAFF04E000F07BF8204600F079F837
:101CE000257720680169C943090716D4C168C9432B
:101CF000090712D46FF008010161042020772068E1
:101D0000C0698007204602D0FFF7AEFF04E000F074
:101D10005FF8204600F05DF8257720680169C94327
:101D2000C90617D4C168C943C90613D46FF010019E
:101D30000161082020772068C06910F4407F2046A8
:101D400002D0FFF791FF04E000F042F8204600F0D7
:101D500040F8257720680169C943C90708D1C168DF
:101D6000C943C90704D1891E0161204600F032F839
:101D700020680169C943090609D4C168C943090635
:101D800005D46FF0800101612046FFF76FFE2068E7
:101D90000169C943490609D4C168C943490605D444
:101DA0006FF040010161204600F015F820680169DC
:101DB000C94389060BD4C168C943890607D46FF0AB
:101DC000200101612046BDE87040FFF750BE70BDA4
:101DD000704770477047704770B5040004D094F89E
:101DE0003900002510B106E0012070BD84F838509C
:101DF000204600F023F8242084F839002068C168C8
:101E000021F40051C160204600F038FF20680169CC
:101E100021F4904101612068416921F02A0141616A
:101E20002068C16841F40051C160E563202084F856
:101E3000390084F83A00002070BD0000F0B587B08A
:101E4000044614216846FEF734FA1A49206888428D
:101E50002DD11948016841F480110160006800F437
:101E60008010059014481038016841F004010160A9
:101E7000016801F004010591016841F00801016069
:101E80000068022400F0080005904FF480500125FE
:101E9000032608278DE8F10069460848FFF704F992
:101EA00004208DE8F10069460548FFF7FDF807B00A
:101EB000F0BD0000005000404038024000080240E1
:101EC000000C02402DE9F843044690F839001F4603
:101ED00016460D46202850D1B5B1AEB194F8380061
:101EE00001284AD0012084F838004FF00008C4F8D7
:101EF0003C80212084F83900FFF7BCF9A684814694
:101F0000E68484F8388026E00120BDE8F883E08C80
:101F1000401EE084A0684B46B0F5805F4FF00002A1
:101F20004FF080012046009703D000F03BFFE8B956
:101F30000DE000F037FFC8B928882168C0F3080019
:101F40004860206908B16D1C05E0AD1C03E0216804
:101F500015F8010B4860E08C0028D8D14B460022D0
:101F600040212046009700F01DFF08B10320CCE778
:101F7000202084F839000020C7E70220C5E7FEE7EB
:101F800070B586B0002400F0FBFC4FF40075002013
:101F900001210095CDE901010A4E039069463046C2
:101FA000FFF782F869103046FFF752F928B1294649
:101FB0003046FFF74DF900B1012400F0CDFC06B02A
:101FC000204670BD0008024070B5104D4FF40074FB
:101FD000002221462846FFF747F901221102284630
:101FE000FFF742F900F0DEFC052002F099FA012229
:101FF00021462846FFF738F9052002F091FA2146DC
:102000002846BDE870400022FFF72EB900080240C4
:102010002DE9F0478046002400F0B2FC234E002555
:102020004FF400774FF48079002239463046FFF7AD
:102030001BF9052002F074FA012239463046FFF7F9
:1020400013F96006040E49463046FFF701F908B15E
:10205000641CE4B2052002F063FA6D1CEDB2082D99
:10206000E2D3B8F1000F1ED0002239463046FFF708
:10207000FBF8002249463046FFF7F6F800F092FCE4
:10208000052002F04DFA012239463046FFF7ECF800
:10209000052002F045FA002239463046FFF7E4F801
:1020A0002046BDE8F087FFF78FFFF9E70008024000
:1020B0002DE9F041174E05464FF4007700223946CE
:1020C0003046FFF7D1F84FF4807801224146304680
:1020D000FFF7CAF800F066FC0024EA0941463046E2
:1020E000FFF7C2F86806050E052002F019FA012272
:1020F00039463046FFF7B8F8052002F011FA002201
:1021000039463046FFF7B0F8641CE4B2082CE4D33B
:10211000BDE8F0810008024070B501220F4D1402A5
:1021200021462846FFF7A0F800F03CFC01225602A9
:1021300031462846FFF798F8052002F0F1F9002211
:1021400021462846FFF790F8052002F0E9F93146CC
:102150002846BDE870400022FFF786B8000802401C
:1021600070B5114D4FF48074002221462846FFF7C8
:102170007BF800F017FC6600002231462846FFF786
:1021800073F8052002F0CCF9012231462846FFF70A
:102190006BF8012221462846FFF766F8BDE870403B
:1021A000052002F0BDB90000000802402DE9F04111
:1021B0000024052002F0B4F90122144D56023146E4
:1021C0002846FFF751F8012002F0AAF9AF150BE0FD
:1021D000641CE4B2052C04D9FFF7C2FF0020BDE85F
:1021E000F081012002F09CF939462846FFF730F8CB
:1021F0000028EDD1C4F1050002F092F90022314629
:102200002846FFF731F80120E9E700000008024006
:1022100070B504462DED108B82B0B0EE429AF0EE10
:10222000629AB0EE40FAF0EE60FA90ED08EB51ECF5
:10223000110B53EC1E2BFEF7E8F841EC100B51ECA0
:10224000190B53EC102BFEF7E6F894ED061B53EC3C
:10225000112BFEF739F894ED10DB41EC1A0B53EC1F
:102260001D2B51EC190BFEF7D6F80E4646EC100B61
:1022700094ED0CCB054653EC1C2B51EC100BFEF7E8
:10228000C4F894ED0EBB53EC1B2BFEF7BEF894ED97
:10229000001B53EC112BFEF717F853EC192BFEF72C
:1022A000BAF894ED0A1B53EC112BFEF70DF846EC2F
:1022B000105B41EC180B53EC1C2B51EC100BFEF790
:1022C000A7F846EC105B41EC1C0B53EC1B2B51ECBC
:1022D000100BFEF79DF894ED020B41EC1B0B53EC39
:1022E000192B51EC100BFEF796F853EC1D2BFDF754
:1022F000EBFF41EC100B51EC180B8DED000B94ED46
:10230000040B53EC102BFDF7DFFF41EC190B51ECE4
:10231000180B53EC192BFEF7F0F841EC1D0B53ECA6
:10232000192B51EC1B0BFEF7E8F841EC190B53ECA1
:102330001A2B51EC1F0BFEF768F841EC1F0B51EC08
:102340001D0B53EC1F2BFEF766F853EC1A2BFDF711
:10235000BBFF41EC1A0B53EC1F2B84ED06AB51EC89
:10236000190BFEF758F853EC1E2BFDF7ADFFC4E92F
:10237000080153EC182B51EC1D0BFEF74CF853ECF5
:10238000182BFEF745F8C4E90A0153EC1C2B51EC5D
:102390001D0BFEF740F853EC1C2BFEF739F8C4E98F
:1023A0000C0153EC182B51EC190BFEF734F853ECDD
:1023B0001B2BFEF72DF8C4E90E0153EC1C2B51EC3E
:1023C000190BFEF728F89DED000B53EC102BFEF7D0
:1023D0001FF8C4E9100102B0B0EE4A0AF0EE6A0A32
:1023E000BDEC108B70BD752000F052B810B500F038
:1023F00031FB06E00220FEF745FE01216B2000F0D4
:1024000093F96B2000F044F80128F3D106E0022094
:10241000FEF738FE00216C2000F086F96C2000F0F9
:1024200037F80028F3D106E00220FEF72BFE072143
:10243000192000F079F9192000F02AF80728F3D1C3
:1024400006E00220FEF71EFE06211A2000F06CF9BD
:102450001A2000F01DF80628F3D106E00220FEF74E
:1024600011FE00211B2000F05FF91B2000F010F886
:102470000028F3D106E00220FEF704FE00211C2014
:1024800000F052F91C2000F003F80028F3D110BD31
:102490003EB54FF6FF740021CDE90014024602ABB1
:1024A000D0210020FEF720FF08B100203EBD01230F
:1024B00002AAD12100200094FEF7E2FE9DF8080058
:1024C0003EBD000070B52DED088B9FED869B9FED06
:1024D00087BB884D3B20FFF7DBFF04463C20FFF71E
:1024E000D7FF296840EA042008803D20FFF7D0FF8D
:1024F00004463E20FFF7CCFF296840EA04204880CC
:102500003F20FFF7C5FF04464020FFF7C1FF2968C1
:1025100040EA042088804320FFF7BAFF04464420A5
:10252000FFF7B6FF40EA0420BE2101FA80F02968D7
:1025300008844520FFF7ACFF04464620FFF7A8FFBC
:1025400040EA04204FF4CD7101FA80F029684884F4
:102550004720FFF79DFF04464820FFF799FF40EA18
:102560000420B42101FA80F02C6806B2A684B4F9E4
:102570000000FEF731F89FED608B53EC182BFDF750
:102580004AFFC4E90201B4F90200FEF725F853EC52
:10259000182BFDF740FFC4E90401B4F9040000EE74
:1025A000100AB8EEC00ADFED560A20EE200A10EE3F
:1025B000100AFEF74EF8C4E90601B4F92000FEF750
:1025C0000BF89FED508B53EC182BFDF796FFC4E9E9
:1025D0000A01B4F92200FDF7FFFF53EC182BFDF7B9
:1025E0008CFFC4E90C013046FDF7F6FF53EC182BC5
:1025F000FDF783FFC4E90E01FEF73CFE6968401A4F
:10260000FDF7FBFF9FED411B53EC112BFDF775FF11
:1026100041EC1A0BFEF72EFE68602C68B4F900003E
:102620004042FDF7D9FF41EC180BB4F90200FDF769
:10263000D3FF41EC100BB0EE481AF0EE681A00F030
:102640008BFD9FED341B51EC100B53EC112BFDF760
:10265000E2FE41EC180B53EC192BFEF70DF809D2F2
:10266000286853EC1B2B90ED140B51EC100BFEF76C
:102670001BF810D353EC1B2B51EC180BFEF714F87E
:1026800011D2286853EC192B90ED140B51EC100B60
:10269000FDF7F2FF07D21748083080ED068B286857
:1026A00080ED148B11E02868B0EE4A2AF0EE6A2A19
:1026B00090ED0E1B0F48B0EE480AF0EE680A0830A5
:1026C000FFF7A6FD286880ED140B286890ED140B29
:1026D00012A0BDEC088B53EC102BBDE8704000F04D
:1026E00095BB000000000000008056C00000000004
:1026F0000080564018000020000000000000103F3D
:102700000000803800000000006060400000000011
:1027100000408F40F8C1631ADCA54C40302F252EB5
:1027200032662F300D0A000003B583B04FF6FF72FA
:102730000121CDE90012024604ABD0210020FEF7B2
:10274000D3FD05B000BD000000B58BB00121002015
:10275000CDE90601089100901421CDE90401019012
:10276000029003901020099069460848FEF750F93E
:102770000648FEF753FC13210448FEF7C9F8002869
:1027800001D0FEF7B2F80BB000BD0000D40000206D
:102790000F4810B50D4901600321416000214FF43D
:1027A000C0228160C0E90312120142610176012258
:1027B00042768176C17601774177FEF722FB0028C9
:1027C00003D0BDE81040FEF790B810BD006800408F
:1027D000D40000202DE9F04387B014216846FDF7AE
:1027E00068FD30480024016841F00401016001687F
:1027F00001F004010591016841F080010160016868
:1028000001F080010591016841F002010160016859
:1028100001F002010591016841F0010101600168C8
:1028200001F001010591016841F0080101600068B3
:102830001D4E00F0080046F21105059000222946C1
:102840003046FEF711FD00950125CDE9015469469A
:1028500030460394FEF728FC28021226CDE9000634
:1028600002AA03274FF00408DFF8409082E8A00195
:1028700069464846FEF718FCE803CDE900046946BE
:1028800048460294FEF710FC1020CDE9000602AA8B
:10289000694682E8A0010648FEF706FC07B0BDE8DD
:1028A000F08300003038024000080240000002407F
:1028B0000004024010B586B000241648009401942C
:1028C0000294039404944FF080410594016041F612
:1028D0001F41C0E901142821C0E903148461FFF7F6
:1028E0000FF908B1FEF701F84FF4805000906946E7
:1028F0000848FFF74EF908B1FDF7F7FF049404A963
:1029000004480594FFF7B4F8002801D0FDF7EDFF67
:1029100006B010BDFC0000200C4810B50A4901604B
:102920004FF4E1314160002181600C22C160C0E9B7
:1029300004128161C161FFF74FFA002803D0BDE89E
:102940001040FDF7D2BF10BD005000403C010020F8
:10295000FEE7FEE77047000000B585B04FF4007059
:102960000090112001900120029000200390694600
:102970000248FEF799FB05B000BD000000080240C8
:1029800000B585B04FF48070009000200121CDE9A2
:102990000101039069460248FEF786FB05B000BDC1
:1029A0000008024000B585B04FF4807000901120FF
:1029B0000190012002900020039069460248FEF732
:1029C00073FB05B000BD0000000802407047000026
:1029D0001CB500781C4B40F0905058608DF80010EA
:1029E000080A8DF8010000208DF802008DF8030020
:1029F000662A02D0732A13D01EE010EE100A134983
:102A0000020E030C0A704B70040A8C70C8708DF8AB
:102A100004008DF805408DF806308DF807200BE096
:102A2000BCEEC00A10EE101A8DF804108DF80500E7
:102A30008DF806008DF80700044B6A461B1F0249FB
:102A40000348FDF777FF1CBD9C0000200400002018
:102A5000D400002010B5084C012251022046FEF798
:102A600003FC012211022046FEF7FEFBFFF774FF74
:102A7000BDE81040FFF796BF00080240FEF768BCB3
:102A800030B593B034216846FDF713FC14210DA82E
:102A9000FDF70FFC20480025016841F080510160DE
:102AA000006800F0805012901C48016841F44041D9
:102AB00001600068022400F4404012900120009060
:102AC000000401908001CDE9064006200890B42062
:102AD000CDE909040520CDE90B046846FEF710FE98
:102AE00008B172B6FEE7FEF7CDFC08B172B6FEE79C
:102AF0000DA90F2081E831004FF4A05010904FF441
:102B00008050119005210DA8FEF7F4FC002801D09B
:102B100072B6FEE713B030BD40380240007000408E
:102B20000548016841F47001016003494FF00060FD
:102B3000803908607047000088ED00E00148FFF729
:102B400094B80000FC000020F0B50268254C264D2A
:102B5000264E274F274B4FF0804CA04209D06045AE
:102B600007D0A84205D0B04203D0B84201D0984265
:102B700004D122F0700E4A6842EA0E02A0421BD035
:102B8000604519D0A84217D0B04215D0B84213D032
:102B9000984211D0184DA8420ED0184DA8420BD023
:102BA000174DA84208D0174DA84205D0164DA8428F
:102BB00002D0164DA84203D122F44075CA682A43B8
:102BC0004D6922F080022A4302608A68C2620A6864
:102BD0008262A04201D0984201D1096901630121BA
:102BE0004161F0BD000001400004004000080040C9
:102BF000000C00400004014000400140004401403E
:102C00000048014000180040001C00400020004027
:102C100010B5846842EA032224F47F440A43224325
:102C2000826010BD826822F070020A4342F0070100
:102C30008160704710B5036A046A24F001040462DD
:102C4000846924F0F00444EA021423F00A020A43DF
:102C50008461026210BD10B5036A23F010030362A1
:102C60008369046A23F4704343EA023224F0A00328
:102C700043EA01118261016210BD00002DE9F041BB
:102C8000044600680169E26821F440511143016182
:102C90002169A068E269084361691143084321681A
:102CA000CA6849F20C639A430243CA6020684169CA
:102CB000A26921F4407111434161E069192764253B
:102CC0003226B0F5004F354A354920684FF00008EC
:102CD00006D0884201D0904236D1FEF7B5FC35E0EF
:102CE000884201D0904202D1FEF7AEFC01E0FEF72F
:102CF0009BFC61684A18A0FB070148EB0803FDF73D
:102D00007FFA0146B0FBF5F00201B1FBF5F06FF080
:102D10001803584301EB800006EBC000B0FBF5F050
:102D200000F0F80002EB4002B1FBF5F0584301EB74
:102D3000800006EBC000B0FBF5F000F00700216852
:102D400010448860BDE8F081FEF76EFC61688B0F6F
:102D50008A00A0FB0701FDF753FA0146B0FBF5F02E
:102D60006FF01802504301EB800006EB0010B0FB3F
:102D7000F5F000F0F002B1FBF5F002EB0012B1FB50
:102D8000F5F06FF01803584301EB800006EB0010DC
:102D9000B0FBF5F000F00F00D1E700000014014097
:102DA000001001402DE9F041984617460E460446B2
:102DB000069D1DE0681C1BD02DB1FEF75BFAA0EB51
:102DC0000800A84214D92068C16821F4D071C160FC
:102DD0002068416921F001014161202084F8390017
:102DE00084F83A00002084F838000320BDE8F08120
:102DF0002068006836EA000004D00020B842D9D02C
:102E00000020F3E70120F9E7FEE700000FB4054BCF
:102E100010B503A9044A029800F0F6FF10BC5DF853
:102E200014FB0000E94500087800002003B4019875
:102E30004100009850EAC12018BF04204A0D18BF75
:102E400040F0010040F2FF72B2EB515F08BF40F06A
:102E50000200012808BF052002B070470907090ECB
:102E6000002804DB00F1E02080F80014704700F037
:102E70000F0000F1E02080F8141D704700000000F2
:102E800070B59B482DED020B2DED068B079D25F0AF
:102E90000044A04218DC9748844202DC0AD106981C
:102EA00040B19DED060BBDEC068B02B0BDE8704055
:102EB00000F09EBE002DCCBF9FED8F0B9FED900BC1
:102EC000BDEC068B02B070BD8F48A04215DD8F4867
:102ED000A042D8BF4FF0FF3458DD9DED060B51ECFA
:102EE000100BFFF7A3FF042808BF00F0A5FE9DED1F
:102EF000060BBDEC068B02B070BD9DED060B51ECD0
:102F0000100B01F03FFBCDE9060181489FED828B5C
:102F1000A0423CDD8248A0421FDD00249FED82AB31
:102F20009DED060B53EC1A2B51EC100BFDF7CCF971
:102F30009DED060B41EC190B53EC1A2B51EC100BC9
:102F4000FDF769FA53EC182BFDF75FFA53EC192BD8
:102F5000FDF7D3FACDE9060149E09DED060B01240A
:102F600053EC182B51EC100BFDF7AEF99DED060B51
:102F700041EC190B53EC182B51EC100BFDF745FAF3
:102F800053EC192BFDF7B9FACDE906012FE068489B
:102F9000A0421FDD02249FED689B9DED060B53ECC4
:102FA000192B51EC100BFDF736FA53EC182BFDF7EB
:102FB0008BF99DED060B41EC180B53EC192B51ECE2
:102FC000100BFDF722FA53EC182BFDF796FACDE91A
:102FD00006010CE09DED060B032453EC102B9FED36
:102FE000580B51EC100BFDF788FACDE906019DED69
:102FF000060B53EC102B51EC100BFDF70CFA41ECC7
:10300000180B53EC182BFDF706FA41EC190B4E4840
:103010000621B0EE490AF0EE690A784400F0D4FCCB
:1030200053EC182B51EC100BFDF7F5F941EC180B94
:103030004648B0EE490AF0EE690A0521784400F0EE
:10304000C3FC53EC192B51EC100BFDF7E4F941ECE8
:10305000100B51EC180B53EC102B002C0EDAFDF773
:1030600033F99DED061B53EC112BFDF7D4F99DEDC3
:10307000061B53EC112BFDF7CBF935E0FDF724F9D6
:103080009DED061B53EC112BFDF7C5F941EC100B20
:103090002F48784400EBC40090ED001B51EC100B5E
:1030A00053EC112BFDF7B1F99DED061B53EC112BE1
:1030B000FDF7ABF941EC100B2648784400EBC40057
:1030C00090ED001B51EC100B53EC112BFDF7A0F908
:1030D00041EC100B002DA2BFBDEC068B02B070BD01
:1030E00051EC100B81F0004141EC100B01E70000A6
:1030F000000010440000F07F182D4454FB21F93FDC
:10310000182D4454FB21F9BF0000DC3F0000203E95
:103110000000F33F00000000000000000000F03F4E
:103120000000E63F0000000000000000000000403A
:103130000080034000000000000000000000F83F95
:10314000000000000000F0BF1A1A0000D0190000B3
:103150005A1900001219000070B56F4E2DED040BC6
:103160002DED048B82B0DDF824C0DDE907235C423D
:103170002CF000411C4341EAD474069D22F000402B
:10318000B44205D86C422C4340EAD474B4420BD903
:103190009DED081B9DED060B02B0BDEC048B04B049
:1031A000BDE8704000F02EBDACF14054A4F17F6446
:1031B0001C430BD0022404EAAC7444EAD2740543E5
:1031C0009FED578B9FED582B07D015E09DED060B1B
:1031D00051EC100B01F09BF942E0002C11BF012CC7
:1031E0009DED060B02B0BDEC048B04BF04B070BDB6
:1031F000022C38D0032C3BD00B439FED4D1B9FED91
:103200004E0B0AD0B14218D1B04209D121F0804111
:1032100020F08040099107900FE0002A15DA10E0B5
:10322000474B7B44002C08BF93ED000B0DD0012CC5
:1032300010D0022C17D0032C1AD0B0421DD1002A76
:1032400003DAB0EE410AF0EE610A02B0BDEC048B85
:1032500004B070BD93ED000B51EC100B81F00041F8
:1032600041EC100BF1E7B0EE480AF0EE680AECE72B
:10327000B0EE420AF0EE620AE7E7401A00159FED51
:10328000329B3C28C8BF8DED000B17DCBCF1000F52
:10329000BCBF10F13C0F8DED009B0FDB9DED080BCB
:1032A00053EC102B9DED060B51EC100BFDF725F99F
:1032B00001F068F901F02BF9CDE90001B4B1012C5E
:1032C00010D0022C9FED220B53EC102B9DED000B28
:1032D00051EC100B19D0FDF798F853EC182BFDF7B3
:1032E00094F8BDE7019880F0004001909DED000B3F
:1032F00053EC192B51EC100BFDF7BEF904BF022063
:1033000000F0BAFC9DED000B9FE7FDF77EF853EC53
:10331000182BFDF77DF8A3E70000F07F0000000008
:10332000182D4454FB210940182D4454FB2109C099
:10333000182D4454FB21F9BF182D4454FB21F93FAB
:1033400072180000000000000000000000000000F3
:10335000075C143326A6A13C10B52F499FED2C1B0A
:103360002DED020B84B0059820F000408842DCBFB0
:1033700000209DED040B32DD2849884209D10498D4
:1033800040B94FF0010000F077FC00F045FC06B0BA
:1033900010BD05DB9DED040B00F02AFC06B010BD4E
:1033A00068469DED040B00F03BF810F0030011D0CF
:1033B000012818D09DED021B9DED000B02281AD0AC
:1033C00000F04AFA51EC100B81F0004106B041ECDC
:1033D000100B10BD9DED021B9DED000B012000F0B8
:1033E0006FFB06B010BD9DED021B9DED000B00F0C4
:1033F00033FA06B010BD012000F062FB51EC100B57
:1034000081F0004106B041EC100B10BD000000003F
:103410000000000000000000FB21E93F0000F07FF9
:103420002DE9F14F04462DED020B2DED088B8AB0EE
:103430009FEDE70B80ED020B139EE74826F0004559
:1034400085420ADC9DED120B002084ED000B0AB0D2
:10345000BDEC088B03B0BDE8F08FE0489FEDE0AB1A
:103460009FEDE1BBA84247DDE14F9FEDE39B9FED60
:10347000E48B9DED120B53EC1A2B51EC100B002E2C
:103480001CDDFCF7C2FF41EC100BBD4208D053EC31
:103490001B2B51EC100BFCF7B8FFC4E900010BE04B
:1034A00053EC192B51EC100BFCF7AFFF53EC182B1E
:1034B000FCF7ABFFC4E900010120C8E7FCF704FFFB
:1034C00041EC100BBD4208D053EC1B2B51EC100B00
:1034D000FCF7FAFEC4E900010BE053EC192B51ECA8
:1034E000100BFCF7F1FE53EC182BFCF7EDFEC4E9D2
:1034F00000014FF0FF30AAE7C348A84279DB9DEDF9
:10350000120B51EC100B01F03DF841EC180B9FED44
:10351000C00B53EC102BFCF77EFF9FEDBF1B53EC51
:10352000112BFCF7D1FEFDF775F80746FDF754F8AF
:1035300041EC190B53EC1A2BFCF76DFF53EC182BD5
:10354000FCF766FF41EC180B53EC1B2B51EC190BED
:10355000FCF761FFDFF8C8A241EC100B4FEA1558E9
:103560000125FA4453EC102B51EC180BFCF74DFFDE
:10357000032DC4E900013DD0C1F30A5005EB45110C
:10358000A8EB00001139814234DA0AEB051BB0EEDA
:1035900048AA9BED000BF0EE68AA53EC102B51ECFF
:1035A000190BFCF738FF41EC1B0B51EC1A0B53ECD9
:1035B0001B2BFCF72AFF41EC180B51EC1A0B53ECB8
:1035C000182BFCF722FF53EC1B2BFCF71EFF9BED87
:1035D000020B41EC1A0B53EC102B51EC190BFCF7BE
:1035E0001AFF53EC1A2BFCF710FF41EC100B6D1C6B
:1035F000B8E70EE0002EA8BF3846BFF628AF94ED1E
:10360000000B51EC100B81F00041C4E9000178423D
:103610001DE7C6F3130040F4801EC6F30A50A0F263
:10362000F530471100F01F05C5F12000DDF848B066
:1036300008900020069007900520EC467949002D5F
:1036400007EB0002794408BF51F8221009D051F865
:10365000223001EB8201AB404A68089922FA01F15D
:103660001943A1FB0E26A1FB0B131A449A4234BF47
:103670000123002303EB06080CEB8003D3E901A62A
:103680000E448E4234BF0121002192448A4411B17C
:10369000924502D903E0924501D2012100E00021C8
:1036A000C3E901A641444CF82010011EA0F101001D
:1036B000C4DC029800F10050850F0298DDE9036731
:1036C0008000DDF81480FCF787FF41EC1A0B3046D0
:1036D000FCF793FF9FED541B53EC112BFCF79BFE63
:1036E00041EC1B0B3846FCF788FF9FED511B53EC58
:1036F000112BFCF790FE41EC180B4046FCF77DFFC8
:103700009FED4D1B53EC112BFCF785FE41EC190B83
:1037100051EC180B53EC192BFCF7D6FD53EC1B2B7B
:10372000FCF7D2FD53EC1A2BFCF7CEFDCDE90801D6
:10373000002008909DED080B53EC1A2B51EC100B58
:10374000FCF763FE53EC1B2BFCF75FFE53EC182BCE
:10375000FCF75BFE53EC192BFCF75AFE9FED381B70
:1037600053EC112BFCF757FE9FED370B41EC180B78
:1037700053EC102B9DED080B51EC100BFCF74BFE9E
:1037800053EC182BFCF7A0FD9FED310B41EC180B0F
:1037900053EC102B9DED080B51EC100BFCF73BFE8E
:1037A00053EC182BFCF790FD41EC100B139810F024
:1037B000004F06D06D4251EC100B81F0004141ECFE
:1037C000100B284684ED000B41E6000000000000CD
:1037D0000000000000000000FB21E93F7CD902400E
:1037E00000004054FB21F93F3163621A61B4D03DBF
:1037F000FB21F93F000000000000601A61B4D03DD9
:103800007370032E8A19A33BFB213941000000008D
:1038100083C8C96D305FE43F000000000000E03F56
:103820003A15000088140000000000000000103E5F
:10383000000000000000103C000000000000103AF2
:10384000182D4454FB21F93D3326A611460B113C9B
:1038500000000054FB21F93D10B52DED040B2DEDBA
:10386000088B82B0B0EE419AF0EE619A0B9820F08E
:1038700000449FED4BABB4F1795F11DA9DED0A0B7B
:1038800051EC100BFCF7C6FE002801BFB0EE4A0A4F
:10389000F0EE6A0A02B0BDEC088B04BF04B010BDA4
:1038A0009DED0A0B53EC102B51EC100BFCF7B3FD04
:1038B00041EC180B3C480621B0EE480AF0EE680ACD
:1038C000784400F081F853EC182B51EC100BFCF706
:1038D000A2FD9DED0A0B41EC1B0B53EC192B51EC97
:1038E000100BFCF798FD41EC190B53EC1B2B51EC22
:1038F000180BFCF790FD53EC192BFCF786FD9FEDA0
:103900002C0B41EC190B53EC102B51EC180BFCF762
:1039100082FD41EC100B2848844210DA53EC192B3D
:1039200051EC100BFCF771FD53EC1A2BFCF770FDFA
:1039300041EC100B02B0BDEC088B04B010BD1F4869
:10394000A042BCBF9FED1E1B8DED001B06DBA4F546
:1039500000100190002000909DED001B51EC100B19
:1039600053EC112BFCF751FD9DED000B41EC180BB6
:1039700053EC102B51EC1A0BFCF747FD41EC1A0BE2
:1039800053EC192B51EC180BFCF73FFD53EC1A2BA1
:10399000FCF73EFD41EC100BCCE7000000000000FE
:1039A000000000000000F03FA41100000000000033
:1039B000000000000000E03F3333D33F0000E93F48
:1039C000000000000000D23F70B504462DED028BD0
:1039D0004D1E00EBC500B0EE408AF0EE608A90ED1F
:1039E000000B35F0060017D053EC182B51EC100BE0
:1039F000FCF711FD41EC100B6D1E04EBC50090EDC2
:103A0000001B51EC100B53EC112BFCF75DFC41EC4F
:103A1000100B35F00600E7D1022D36D0042D1CD056
:103A2000062D1CBFBDEC028B70BD53EC182B51EC66
:103A3000100BFCF7F0FC94ED0A1B53EC112BFCF778
:103A400043FC53EC182BFCF7E6FC94ED081B53ECFD
:103A5000112BFCF739FC41EC100B53EC182B51ECFB
:103A6000100BFCF7D8FC94ED061B53EC112BFCF764
:103A70002BFC53EC182BFCF7CEFC94ED040B53EC11
:103A8000102BFCF721FC41EC100B53EC182B51ECE4
:103A9000100BFCF7C0FC94ED021B53EC112BFCF750
:103AA00013FC53EC182BFCF7B6FC94ED001B53EC05
:103AB000112BFCF709FCBDEC028B41EC100B70BD27
:103AC00031B504462DED040B2DED0A8BB0EE41BA55
:103AD000F0EE61BA0B989DED0A0B20F00040B0F1BA
:103AE000795F0DDA51EC100BFFF7A0F9042808BF3D
:103AF00000F0A2F89DED0A0BBDEC0A8B05B030BDBD
:103B000053EC102B51EC100BFCF785FC41EC180B1F
:103B10009DED0A0B53EC182B51EC100BFCF77BFCC2
:103B200041EC190B2C48B0EE480AF0EE680A05216A
:103B30007844FFF749FF9FED2ACBB0EE40AAF0EEA4
:103B400060AA9CB353EC1C2B51EC190BFCF763FCE3
:103B500041EC1C0B53EC1A2B51EC190BFCF75BFCE2
:103B60009FED210B41EC190B53EC102B51EC1B0B6F
:103B7000FCF751FC53EC192BFCF747FC53EC182BCA
:103B8000FCF749FC53EC1B2BFCF73FFC53EC1C2BC4
:103B9000FCF73BFC9DED0A1B53EC112BFCF738FCAA
:103BA000BDEC0A8B05B041EC100B30BDFFE753ECC8
:103BB0001A2B51EC180BFCF72EFC53EC1C2BFCF7CA
:103BC00083FB53EC192BFCF726FC9DED0A1B53ECF1
:103BD000112BFCF779FBE3E7341000000000000034
:103BE000495555555555C5BF000000000000E03F40
:103BF00010B553EC102B51EC100BFCF765FB41ECAE
:103C0000100B10BD10B553EC112B51EC100BFCF741
:103C10005BFB41EC100B10BD9FED050B10B553EC99
:103C2000102B51EC100BFCF768FC41EC100B10BD95
:103C300000000000000000009FED050B10B553ECE4
:103C4000102B51EC100BFCF7E6FB41EC100B10BDF8
:103C5000000000000000001002E008C8121F08C1A8
:103C6000002AFAD170477047002001E001C1121FFD
:103C7000002AFBD17047000001490860704700002E
:103C80007C0000202DE9FF5F82B00021DDE90430D7
:103C9000020DDDF840B0034318D044F61050A2F2F4
:103CA000FF3242431514119801281FD0A5EB0B00D9
:103CB000401C5FEA000A4FF000064E4FDFF83891D3
:103CC000B046504615D5CAF1000413E011980124FE
:103CD0004AA3012801D16FEA0B010298119AC0E9A9
:103CE0000031C0E9024206B0BDE8F09FCBF1000010
:103CF000DFE704460021404A491842EB0450CDE971
:103D0000001012E0E00707D032463B4640464946E5
:103D1000FCF781FB8046894632463B4610461946F1
:103D2000FCF779FB06460F466410002CEAD1DDE96A
:103D30000401DDE90023BAF1000F06DAFCF76BFBA2
:103D400042464B46FCF767FB05E0FCF7D6FB4246D4
:103D50004B46FCF7D2FB04460E460022284BFCF7EC
:103D6000A3FC03D84FF0FF30014607E00022254BAB
:103D700020463146FCF7A8FAFCF784FD102409E040
:103D8000002C0ADB0A220023FCF73AFA039B3032AC
:103D90001A55641E50EA0102F2D1641C039AC4F160
:103DA00011031444119A012A03D0012208430DD1B2
:103DB0000AE0084304D000204FF0110B119072E785
:103DC000A3EB0B056D1E0DE05B4504DD4FF000021B
:103DD00005F1010504E003DA4FF00002A5F1010549
:103DE000002AECD002981199C0E90231C0E90045DF
:103DF00079E70000000014400000F03F30000000B0
:103E00000000F0430000E03F2DE9FF4F95B09A46D7
:103E1000884606460025EEE1252877D1002427466E
:103E2000F94A0121039400E0044316F8013F203BC6
:103E300001FA03F01042F7D130782A2811D06FF040
:103E40002F033078A0F13002092A16D8039A44F0E3
:103E5000020402EB820203EB42021044761C039040
:103E6000EFE758F8042B0392002A03DA504244F497
:103E70000054039044F00204761C30782E2816D1AA
:103E800016F8010F44F004042A280DD06FF02F0219
:103E90003078A0F13003092B09D807EB870302EB38
:103EA0004303C718761CF3E758F8047B761C307878
:103EB0006C280FD006DC4C2817D068280DD06A2853
:103EC00014D104E0742810D07A280FD10DE044F406
:103ED00000140AE044F4801401E044F440147278C1
:103EE000824202D104F58014761C761C3078662854
:103EF0000BD013DC582877D009DC002875D0452872
:103F0000F6D04628F4D047281AD193E118E0632868
:103F100035D0642879D0652812D18BE1702873D010
:103F200008DC6728F1D069286FD06E280DD06F2883
:103F300006D1ACE073282CD0752874D0782853D0E3
:103F40005246179990476D1C54E1C4F30250022861
:103F500009D003280DD0D8F8001004280DD00D602A
:103F600008F1040846E1D8F80010EA17C1E9005248
:103F7000F6E7D8F800100D80F2E70D70F0E718F8BA
:103F8000041B8DF8001000208DF80100EB46012085
:103F900003E058F804BB4FF0FF3061074FF0000119
:103FA00002D40DE009F101018946B9420FDA8145D9
:103FB000F8DB1BF809100029F4D108E009F1010130
:103FC00089468142FADB1BF809100029F6D10398D3
:103FD0005346A0EB090721463846179A00F080FAAD
:103FE000284400EB090507E044E008E10DE01BF878
:103FF000010B524617999047B9F10109F7D2534680
:1040000021463846179AF2E039E00A21C4F30252F9
:104010004FF0000B0091022A06D058F8040BC1178C
:10402000032A09D00AE023E008F1070020F0070284
:10403000F2E80201904605E000B2C117042A01D15E
:1040400040B2C117002906DA0A460021404261EB5E
:1040500002012D2202E0220504D52B228DF8042036
:10406000012203E0E20701D02022F7E7914657E062
:104070000A2100E010214FF0000B00910BE010210D
:104080004FF0000B44F004040827009103E00820DF
:104090004FF0000B0090C4F30252022A05D058F8EA
:1040A000040B0021032A08D008E008F1070020F0E3
:1040B0000702F2E80201904603E080B2042A00D130
:1040C000C0B24FF0000922072AD53278702A07D0F3
:1040D000DDF800C08CF0100C5CEA0B0C05D00EE093
:1040E00040228DF80420012208E050EA010306D0A6
:1040F00030238DF804308DF8052002229146009B74
:1041000083F0080353EA0B030AD150EA010201D1FC
:10411000620705D530228DF804204FF001097F1E7B
:104120003278582A04D039A20C920CAA02920BE0E1
:104130003BA2F9E75B46009AFCF762F80C9B9B5C9C
:10414000029A521E0292137050EA0102F2D10298B2
:1041500004A9081A00F1200B600702D524F480346A
:1041600000E001275F4502DDA7EB0B0000E0002027
:1041700000EB0B01009003984944401A0390E003C0
:1041800006D453462146179A039800F0A9F905442E
:10419000002706E001A85246C05D179990476D1CA4
:1041A0007F1C4F45F6DBE0030CD553462146179A9A
:1041B000039800F095F9054404E030205246179921
:1041C00090476D1C0099481E00900029F5DC08E01E
:1041D0000298029952460078491C0291179990471B
:1041E0006D1CBBF10001ABF1010BF1DC5BE100F0F8
:1041F00065F90544761C307800287FF40DAE19B0BF
:104200002846BDE8F08F0000092801003031323324
:104210003435363738396162636465660000000002
:1042200030313233343536373839414243444546EC
:1042300000000000600700D4062708F1070020F006
:104240000700F0E80223804603F0004C5FEA0C0010
:1042500001D097A009E0200501D596A005E0E00770
:1042600001D095A001E0AFF24C001390307823F01C
:10427000004365280CD006DC452809D046281DD00F
:1042800047287FD13BE0662818D067287AD136E0EE
:104290000021112F01DB112000E0781CCDE9000185
:1042A00004A90CA8FFF7EEFCDDE90D010C9A4FF014
:1042B000000B07F10109109200914EE04FF0004011
:1042C0000097CDE9011004A90CA8FFF7DBFCDDE99C
:1042D0000D020C9B0F994FF0000B9146109300922A
:1042E00011B9791C00EB0109B7EB090003D4C0F147
:1042F000FF3B07F10109A9EB0700019042E0012F04
:1043000000DA01270021112F01DD112000E03846DD
:10431000CDE9000104A90CA8FFF7B4FCDDE90D010B
:104320000C9A00914FF0000BB946109221070FD460
:10433000009A4A4503DA914601E0A9F10109B9F171
:10434000010F05DD109AA9F10101515C3029F4D06B
:10435000B84202DA10F1040F03DA0121CDE90110AD
:1043600010E0002803DC8344A9EB000102E0411CBB
:10437000494500DD8946A0EB0B00401C01904FF041
:1043800000400290200705D40198484502DB4FF019
:10439000FF30019000208DF84B0002980DF14B0783
:1043A000B0F1004F25D002200C902B200D900298E8
:1043B00000280CDA404202902D200D9007E00A21DF
:1043C0000298FCF7A5F93031029007F8011D0C990D
:1043D000481E0C900029F2DC02980028EFD1791ECB
:1043E0000D980870307800F0200040F0450007F884
:1043F000020D11A8C01BC01D02901398007800B1D7
:10440000012000EB0901019801EBE07102980144E1
:104410000398401A401E0390E00306D453462146F9
:10442000179A039800F05CF805441398007818B1C7
:104430005246179990476D1CE00323D553462146F9
:10444000179A039800F04CF805441BE0BBF1000FED
:1044500007DB0098584504DD1098179910F80B00F9
:1044600001E0179930205246904701980BF1010B5B
:10447000401E05F10105019004D12E2052461799E6
:1044800090476D1CB9F10001A9F10109DEDC05E0DE
:1044900017F8010B5246179990476D1C0299481E58
:1044A00002900029F4DC53462146179A03989EE6B1
:1044B0002D0000002B000000200000002DE9F0413D
:1044C000044600251E461746880404D405E03946F4
:1044D0002020B0476D1C641EF9D52846BDE8F08148
:1044E0002DE9F041044600251E469046C80301D53B
:1044F000302700E02027880404D505E041463846EF
:10450000B0476D1C641EF9D52846BDE8F08110B592
:1045100041EC100BFEF7B4FC51EC100B10BD000089
:1045200031B54FF461740098A04210D9002502E023
:10453000FFF7F6FF6D1C00992046B1FBF0F1A94290
:10454000F6D80098B0FBF4F104FB110000904FF096
:10455000E0208169009AA2EB021202EB420211EB09
:10456000820205D483698B4201DA9342FADA38BDBC
:10457000034B134482698A42FCDD9A42FADC38BD5F
:1045800020BF020082B0CDE9000121F0004001907F
:104590009DED000B02B051EC100B704771EE601AEC
:1045A000B4EEC10AF1EE10FA02DDB0EE410A08E005
:1045B000B0EE601AB4EEC10AF1EE10FA01D2B0EE1C
:1045C000600A0121814070EE600A491E00EE101A57
:1045D000B8EEC00A20EE800AC0EE210ABDEEE00A65
:1045E00010EE100A7047000013B54FF6FF7301225A
:1045F00069460248FDF766FC00981CBD3C0100209E
:1046000070B50D4609490446002304200B60C1E93A
:1046100001300820C1E9033025701146204600F022
:1046200091F92046BDE8704000F096B99C0000204A
:104630000149886070470000000000202DED048BC8
:1046400082B09FED5F8A0020B6EE009AF1EE008AFC
:104650008DF80000FCF784FE6846FFF7E9FFFEF7DF
:104660000FFAFEF7B7F8FEF725F9FEF791F8FEF717
:1046700053F9544C002201212046FCF7F5FD0A2095
:10468000FCF700FD012291032046FCF7EDFD0A2016
:1046900004E029464CA0FEF7B9FB6420FCF7F2FCCD
:1046A000FDF7A4FEFDF79FFE6828F2D1012210213C
:1046B0002046FCF7D9FD0A20FCF7E4FCFEF744F89D
:1046C0004A48FDF755FA0520FCF7DCFCFCF710F929
:1046D0009DF80000022812D0032817D004281ED00D
:1046E0000628F0D10121424800F04CF94FF4FA605D
:1046F000FCF7C8FC5FF002008DF80000E3E7002241
:104700007F213B48FFF77CFF0320F5E74FF4004192
:104710003848FCF79DFD0028D5D10420ECE7B5EE24
:10472000C00AF1EE10FA07D210EE100A32498842A0
:1047300002D2B0EE490A34E0B5EEC00AF1EE10FA4A
:104740003BDB10EE100A2D49884236DC9FED2C1A17
:10475000C0EE010A10EE900AFBF77BFF9FED291BCC
:1047600053EC112BFBF757FE41EC100BFEF7F4FD59
:104770009FED261B51EC100B53EC112BFBF74BFE5E
:104780009FED241B53EC112BFBF79EFDFBF7A4FFC1
:1047900000EE100A10EE100AB0F1814F01DDB0EE0C
:1047A000680AF0EE480A1248B0EE602AF0EE601A8D
:1047B000B0EE601A00F032F885E706209CE70000B2
:1047C0000000000000080240556E61626C652074B4
:1047D0006F20766572696679204D505536303530D8
:1047E0002049443A2025640A00000000FC00002013
:1047F000B400002000000240000034C20000164354
:10480000000034436E861BF0F921094000000000CF
:1048100000000C40000000000000E03F10B504461E
:104820002DED068BF0EE608AB0EE418AB0EE409A34
:1048300082B0F0EE429AB0EE61AA1020B2EE091AF0
:10484000FAEE090AB0EE680AFFF7A8FE000A8DF832
:1048500000001020B2EE091AFAEE090AB0EE680A5A
:10486000FFF79CFE8DF801001020B3EE0E1AFBEE50
:104870000E0AB0EE480AFFF791FE000A8DF802001A
:104880001020B3EE0E1AFBEE0E0AB0EE480AFFF748
:1048900085FE9FED278ADFED278A8DF80300102023
:1048A000B0EE481AF0EE680AB0EE4A0AFFF776FE5C
:1048B000000A8DF804001020B0EE481AF0EE680AE5
:1048C000B0EE4A0AFFF76AFE8DF805001020B1EE3F
:1048D000041AF0EE680AB0EE690AFFF75FFE000AFC
:1048E0008DF806001020B1EE041AF0EE680AB0EE62
:1048F000690AFFF753FE8DF807001020B2EE081A80
:10490000FAEE080AB0EE490AFFF748FE4FF0807150
:1049100041EA00202178094B084307496A4648606C
:104920000748FCF707F802B0BDEC068B10BD00008D
:104930000000FA43000000009C000020000000205E
:10494000D400002000EE101A732247F20501B8EEE1
:10495000400AFEF73DB800001CB50021009101910E
:104960000078054940F04070044B48606A460448AE
:10497000FBF7E0FF1CBD00009C00002000000020B1
:10498000D40000201CB5002200928DF80010019286
:104990000078054940F08060044B48606A4604484E
:1049A000FBF7C8FF1CBD00009C0000200000002099
:1049B000D4000020000000000000000001020304F9
:1049C00006070809000000000102030400000000BF
:1049D0004FBB610567ACDD3F182D4454FB21E93F17
:1049E0009BF681D20B73EF3F182D4454FB21F93F06
:1049F000E2652F227F2B7A3C075C143326A6813C8C
:104A0000BDCBF07A8807703C075C143326A6913C36
:104A1000C4EB98999999C9BF711623FEC671BCBFA2
:104A20006D9A74AFF2B0B3BF9AFDDE522DDEADBF0A
:104A30002F6C6A2C44B4A2BF0D5555555555D53F22
:104A4000FF8300922449C23F6E204CC5CD45B73F3D
:104A5000513DD0A0660DB13FEB0D76244B7BA93FB5
:104A600011DA22E33AAD903F4C5555555555A53FC7
:104A70007751C1166CC156BF9015CB19A001FA3EF3
:104A8000AD529C804F7E92BEC4B1B4BD9EEE213E1D
:104A9000D43888BEE9FAA8BD00000000000000007C
:104AA00000004054FB21F93F3163621A61B4D03DEC
:104AB0000000601A61B4D03D7370032E8A19A33BC5
:104AC0000000002E8A19A33BC14920259A837B3917
:104AD00000000000000000006E83F9A22915444E7A
:104AE000D15727FCC0DD34F5999562DB4190433CFA
:104AF000AB6351FE61C5BBDE3A6E24B7E0D24D42D6
:104B0000EA2E49061C92D1091CEB1DFE3EA729B1D5
:104B1000F53582E88444BB2E26709CE9417E5FB463
:104B200039D69139F43953838B5F849C3B28F9BD86
:104B3000FF97F81F0F9805DE8B112FEF1F6D0A5A94
:104B4000CF7E366DB709CB27663F464F2DEA5F9E75
:104B5000C7BA27757BF1E5EBF739073DEA92528A30
:104B6000B15FFB6B085D8D1FA6F810111111813F1D
:104B7000D561C119A0012ABF7DFEB157E31DC73E13
:104B8000EB9C2B8AE6E55ABE7CD5CF5A3AD9E53D57
:104B9000B04B00080000002080000000583C0008D6
:104BA000304C00088000002058090000683C0008D4
:104BB00000000000000000000000000000000000F5
:104BC0000000000001000000800100200000000043
:104BD00000000040E17A943F000000C07493683FF9
:104BE000000000E051B89E3F0000000000000000FF
:104BF00000000000000000000000000000000000B5
:104C000000000000000000000000000000000000A4
:104C10000000000000000000010000001000000083
:104C2000000000000024F40000000000000000006C
:04000005080001C529
:00000001FF
