:020000040800F2
:1000000050270020D9010008B9310008052F000849
:10001000B5310008B105000881510008000000005A
:10002000000000000000000000000000CD310008CA
:100030001506000800000000C9310008D131000891
:10004000F3010008F3010008F3010008F3010008C0
:10005000F3010008F3010008F3010008F3010008B0
:10006000F3010008F3010008F3010008F3010008A0
:10007000F3010008F3010008F3010008F301000890
:10008000F3010008F3010008F3010008F301000880
:10009000F3010008F3010008F3010008F301000870
:1000A000F3010008F3010008F3010008F301000860
:1000B000C9320008F3010008F3010008F301000849
:1000C000F3010008F3010008F3010008F301000840
:1000D000F3010008F3010008F3010008F301000830
:1000E000F3010008F3010008F3010008F301000820
:1000F000F3010008F3010008F3010008F301000810
:10010000F3010008F3010008F3010008F3010008FF
:10011000F3010008F3010008F3010008F3010008EF
:10012000F3010008F3010008F3010008F3010008DF
:10013000F30100080000000000000000F3010008C7
:10014000B5050008F3010008F3010008BD310008FF
:10015000F3010008F3010008F3010008F3010008AF
:10016000F3010008F3010008F3010008F30100089F
:10017000F3010008F3010008F3010008000000008B
:1001800000000000F3010008000000000000000073
:10019000F30100080000000000000000F301000867
:1001A000000000000000000000000000F301000853
:1001B000F3010008F3010008F3010008F30100084F
:1001C000F3010008DFF80CD000F0AEF9004800475A
:1001D0000152000850270020064880470648004783
:1001E000FEE7FEE7FEE7FEE7FEE7FEE7FEE7FEE7E7
:1001F000FEE7FEE7AD320008C50100082DE9F05F1B
:100200000546002092469B46884606468146402485
:100210001BE0284641464746224600F0E0F8534698
:100220005A46C01A914110D311461846224600F092
:1002300016F82D1A67EB01084F46224601200021CF
:1002400000F00DF817EB00094E41201EA4F1010447
:10025000DFDC484631462A464346BDE8F09F202A67
:1002600004DB203A00FA02F1002070479140C2F10D
:10027000200320FA03F3194390407047D2B201E003
:1002800000F8012B491EFBD270470022F6E710B59B
:1002900013460A4604461946FFF7F0FF204610BDF4
:1002A0002DE9FE4F81EA030404F0004421F00041EF
:1002B00000944FF0000B23F0004350EA01045ED09D
:1002C00052EA03045BD0C3F30A54C1F30A552C4429
:1002D000A4F2F3340194A0FB0254C1F3130141F4DE
:1002E0008011C3F3130343F4801301FB024400FBAA
:1002F000034E840A970A44EA815447EA8357A4FBD1
:10030000076802958D0A05FB07854FEA932C04FBCD
:100310000C542705029D4FEA065847EA1637B5EBFD
:1003200008056EEB070C870E920E47EA811742EA2A
:100330008312A7FB0201B6EB0B0164EB00042B0D4B
:1003400043EA0C335E1844EB1C50DA465146E7FB97
:100350000201C5F313044FEA0B3343EA14534FEA87
:100360000432019C43EA0603A4F10C040294009CAD
:10037000CDE900B400F089F803B0BDE8F08F0020AB
:100380000146F9E70EB5C10F80EAE0700844CA07DC
:10039000002140F233438DE80E000A460B4600F080
:1003A00074F803B000BD01F0004330B421F0004107
:1003B00050EA010206D00A0DA2F56072C1F31301E2
:1003C000002A02DC30BC00207047440F44EAC1041C
:1003D000C100E01830BC00EBC25000F010B8202A79
:1003E00004DB203A21FA02F00021704721FA02F3DF
:1003F000D040C2F1200291400843194670470029BD
:10040000A8BF7047401C490008BF20F0010070479A
:1004100010B4B0FA80FC00FA0CF050EA010404BFFA
:1004200010BC704749B1CCF1200421FA04F411FA50
:100430000CF118BF012121430843A3EB0C01CB1D94
:100440004FEA00614FEA102042BF002010BC704705
:1004500000EBC35010440029A4BF10BC7047401CDF
:10046000490008BF20F0010010BC704710B5141EF1
:1004700073F1000408DA401C41F1000192185B415D
:100480001A4301D120F0010010BD2DE9F04D924634
:100490009B4611B1B1FA81F202E0B0FA80F220324B
:1004A0009046FFF7DCFE04460F4640EA0A0041EAA8
:1004B0000B0153465A46084313D0114653EA010034
:1004C00019D0C8F140025046FFF789FF05460E4695
:1004D000504659464246FFF7C2FE084305D0012068
:1004E00004E020463946BDE8F08D0020054346EA89
:1004F000E0762C4337430A986305E40AA0EB080032
:100500000022FD0A44EA47540A3002D50020014681
:10051000E9E7010510196941DDE90845001969415C
:10052000BDE8F04DA2E700001CB50948009009485D
:1005300001900546009C06E0E06840F0010394E865
:10054000070098471034AC42F6D3FFF73FFE000097
:100550009C530008BC53000870B58C1810F8015B60
:1005600015F0070301D110F8013B2A1106D110F84C
:10057000012B03E010F8016B01F8016B5B1EF9D150
:100580002B0705D40023521E0DD401F8013BFAE7D6
:1005900010F8013BCB1A921C03E013F8015B01F841
:1005A000015B521EF9D5A142D8D3002070BD0000D6
:1005B000FEE7000041F2DC60C2F2000000F0AAB9E0
:1005C000002070470020704710B541F20C44C2F281
:1005D000000440F60C41C2F200012046002203F064
:1005E00029F840F20C41C2F20001204603F01CF849
:1005F000002010BD10B541F20C44C2F200040146C7
:10060000204603F011F8204602F0F0FF002010BD54
:100610000020704770470000EFF3108072B600BFF3
:10062000FEE7000090F82020013A012A08D800686F
:1006300000F114020020136819431160704700BFD5
:1006400000F1240201204FF4802113681943116046
:100650007047000010B590F820E0D0F800C0AEF16F
:10066000010EBEF1010FDCF808E011D81EF0E05FCA
:1006700018D0CEF3016EBEF1030F1DD100F124019D
:1006800001204FF400020B681A430A6010BD00BF3E
:1006900000F1240101204FF480220B681A430A6004
:1006A00010BD00BF00F1240101204FF400120B68BF
:1006B0001A430A6010BD00BF012000FA0EF0186056
:1006C000886828B14B68CC6844EAC303034303E05D
:1006D0000868CB6843EA40530CEB0E10C0F8803139
:1006E0000B69C0F88431097D012905D100F5C2717B
:1006F0000B6843F480730B605168C0F88C1112686A
:1007000000F5C071C0F88821002001220B681A434F
:100710000A6010BD90F82020013A012A30D8B0B507
:1007200046F20060C4F20000026842F0010202607A
:10073000026822F47C520260D1F814E0CC694A6A63
:100740000368012C43EA022202600EF01F024FF000
:10075000010303FA02F2C3696FEA020C23EA0203FF
:10076000C36113D02CBBC36803EA0C03C360CB681E
:100770008C8844EA034300EBCE0423640B4611E06B
:10078000416A41F48021416201207047C3681343EC
:10079000C3600B688C8844EA034300EBCE042364F7
:1007A00001F10C038C681B8843EA044300EBCE0480
:1007B000636443688D6943EA0204D1F810E0096A72
:1007C000002D08BF03EA0C0444604369BEF1000F2A
:1007D00043EA020408BF03EA0C040129446102D180
:1007E000C1691143C161016821F00101016000206C
:1007F000B0BD00007047000010B590F82040013CEB
:10080000012C73D8D0F800C000290CBFDCF80C40D4
:10081000DCF81040A40773D00CEB011CDCF8B041ED
:100820000CF5D87E14F004049460DCF8B04119BFD4
:10083000E4085460640D1460DEF80040002904F000
:100840000204D460DCF8B44104F00F041461DCF855
:10085000B441C4F307249461DCF8B4414FEA144472
:100860005461DCF8B8211A70026802EB0112D2F868
:10087000B8214FEA12225A70026802EB0112D2F834
:10088000B8214FEA12429A70026802EB0112D2F8C4
:10089000B8214FEA1262DA70026802EB0112D2F854
:1008A000BC211A71026802EB0112D2F8BC214FEA96
:1008B00012225A71026802EB0112D2F8BC214FEAEF
:1008C00012429A71026802EB0112D2F8BC214FEA7F
:1008D0001262DA7100680CBF00F10C0100F1100126
:1008E000002020220B681A430A6010BD00F1240189
:1008F00001204FF480220B681A430A6010BD00BF2C
:1009000000F1240101204FF400120B681A430A6021
:1009100010BD00002DE9F04F81B004460068466923
:10092000D0F804908768D0F80CB0D0F810A0D0F8B8
:100930001880F10704D1002530071DD424E000BF42
:10094000F90710D00121BA07816009D4780700F1B6
:10095000AF80380700F1B680204600F095FA02E03B
:10096000204600F093FA0025F80500F18780F8038F
:1009700000F1B180300707D51BF0100004D02068CB
:1009800045F400751021C160700708D51BF0080000
:1009900005D020680821C160204600F0B1F9B007F9
:1009A00006D52068C068800702D0204600F0ACF968
:1009B000700607D51AF0100004D0206845F4806551
:1009C00010210161B00608D51AF0080005D0206892
:1009D00008210161204600F023FAF00606D52068C0
:1009E0000069800702D0204600F01CFAB00308D549
:1009F00019F0100005D0206810214160204600F059
:100A000013FAF00308D519F0080005D02068082172
:100A10004160204600F044FA300440F19B805FEAD8
:100A2000497040F1948006F4807008EA1020284351
:100A30005FEA8871014648BF41F00201B20558BF24
:100A400001465FEA48700D4648BF45F00405700551
:100A500058BF0D46300540F17A8018F0700000F064
:100A600076801038000905286CD8DFE800F00359BB
:100A70005D61656945F0080564E000BF20684FF4DA
:100A80008071BA0581600BD4780515D438051DD462
:100A9000204600F0FDF9F8037FF56CAF1BE000BFC6
:100AA000204600F0F7F9F8037FF564AF13E000BFCC
:100AB0004FF4006558E700BF05F50055F8037FF5D2
:100AC00059AF08E04FF480554EE700BF05F580456B
:100AD000F8037FF54FAF20684FF48031BA0381608F
:100AE0000AD4780310D4380314D4204600F0D4F983
:100AF00030073FF541AF47E7204600F0CFF9300718
:100B00003FF53AAF40E700BF05F5004530073FF538
:100B100033AF39E705F5803530073FF52DAF33E7C3
:100B200045F010050EE000BF45F020050AE000BFCB
:100B300045F0400506E000BF45F0800502E000BF3B
:100B400045F480752068816921F070018161206819
:100B50000421416055B1606A40EA050120466162A6
:100B600001B0BDE8F04FFFF745BE00BF01B0BDE8E2
:100B7000F08F0000002804BF01207047B0B5044684
:100B800090F8200010B9204600F06EF82068016847
:100B900021F00201016000F07FFA054620684168FB
:100BA000890705D500F078FA401B0B28F6D310E032
:100BB000016841F00101016000F06EFA054600BFD6
:100BC00020684168C9070DD100F066FA401B0B2868
:100BD000F6D3606A052140F400306062012084F899
:100BE0002010B0BD217E0268012922F0800208BFDA
:100BF00080320260617E0268012922F0400208BF53
:100C000040320260A17E0268012922F0200208BF62
:100C100020320260E17E0268012922F0100218BF32
:100C200010320260217F0268012922F0080208BF09
:100C300008320260617F0268012922F0040208BFC5
:100C400004320260D4E901C2D4E9033561691A4370
:100C50002A431143ACF101021143C161002001217B
:100C6000606284F82010B0BD016846F60000C4F24E
:100C70000000814218BF704780B586B0002143F65E
:100C800040020191C4F20202136800F5CE3043F035
:100C900080631360136803F080630193019B0191EB
:100CA000136843F000731360136803F0007301933B
:100CB000019B019152F8103C43F0020342F8103CB2
:100CC00052F8102C02F002020192019A4FF44052A5
:100CD00001920222CDE9022103210491092105910B
:100CE00001A900F0F3F840200021002200F056FA9C
:100CF000402000F041FA06B0BDE880407047000097
:100D00007047000000000000B0B5044640F6000047
:100D1000C4F20200012100F0B1F940F29815C2F2CC
:100D2000000505F1340205F1140320460021FFF708
:100D300063FDAC6BC4F307207F28E86052D1287DA7
:100D4000B4F1807F02D285F851004BE0697D9FEDC0
:100D5000301A41EA002000EE100AE88AB8EE400A94
:100D600000BA000C02EE100A288B20EE010A9FED5B
:100D7000291A9FED2A3A00BA80EE010AB8EE422AFB
:100D8000000C22EE032A03EE100A82EE012AB8EECE
:100D9000433AB3EE084A23EE043A83EE011A9FED7C
:100DA0001E3A688B40BA30EE030A85ED150ABBEE99
:100DB0000E0A32EE000A85ED160ABAEE080A31EE86
:100DC000000A85ED170AFFF7DDFA9FED0F0B53ECD4
:100DD000102BFFF765FAFFF7E6FA2866C4F3044024
:100DE00085F86A0068680178002918BFB0BD47F629
:100DF000FE7201219442A96004D10178002904BF48
:100E000001210170B0BD00BF9A9999999999B93F94
:100E10000000B44400FF7F47000034C4000070426B
:100E2000704700007047000070470000B0B50446EE
:100E300090F8200001281DD1022084F820002068AD
:100E4000016821F00101016000F026F9054600BFAC
:100E500020684068C00713D000F01EF9401B0B2823
:100E6000F6D3606A40F400306062052084F8200008
:100E70000120B0BD606A40F4002060620120B0BD76
:100E800000206062B0BD00007047000070470000A5
:100E90007047000070470000704700007047000076
:100EA00070470000B0B5044600F0F6F8054640F281
:100EB0000800C2F200000078611C18BF044400BFA3
:100EC00000F0EAF8401BA042FAD3B0BD2DE9F04F84
:100ED00082B000F13E4202F1FF72870541F6000642
:100EE00047EA9227C4F20206072243F6004EB042B8
:100EF00008BF0622C4F2010E062F38BF3A464FF053
:100F0000010A002600274FF00008009208E000BF09
:100F1000023708F10108202F06F1040600F0AA802C
:100F20000A680AFA08F412EA0409F1D0D1F804C0F8
:100F3000BCF1120F00F298800AFA0CF212F0061FB0
:100F400000F092800323826803FA07F5CB68AA4376
:100F5000BB401A43826042684FEA1C13A24303FA63
:100F600008F34FEA480A6FEA050B1A434260C26869
:100F70008B6802EA0B0203FA0AF31A434CF01003DF
:100F8000122BC26013D16FF0030202EA580202442E
:100F900006F01C050F23D2F820C003FA05F40B69F4
:100FA0002CEA0404AB4023431362D1F804C0026866
:100FB0000CF0030302EA0B0203FA0AF31A435FEA96
:100FC000CC034FF0010A0260A2D5002243F644038D
:100FD0000192C4F202031A684FF6084C42F48042B0
:100FE0001A601A68CFF6FF7C02F480420192019ADF
:100FF00028F00302724452F80C3006F00C050F245E
:10100000AC40A343009C04FA05F52B4342F80C3096
:10101000DEF800204B6842EA0905DC0358BF22EAEB
:101020000905CEF80050DEF804209C0342EA0905C9
:1010300058BF22EA0905CEF80450DEF80820DC0289
:1010400042EA090543F60C4458BF22EA0905CEF8E6
:101050000850C4F2010422689B0242EA090558BF05
:1010600022EA0905256053E70322BA406FEA020B22
:10107000BA467CE702B0BDE8F08F000042690A4042
:101080008A4208BF0904816170470000002A08BF36
:10109000090481617047000041F64C30C2F2000043
:1010A0000068704740F2080041F64C31C2F200007F
:1010B000C2F2000100780A6810440860704700001E
:1010C00080B543F60040C4F20200016841F40071AB
:1010D0000160016841F480610160016841F4807140
:1010E0000160032000F086F8002000F005F800F011
:1010F00027F8002080BD000070B540F20806C2F25B
:10110000000640F230013278C2F200014FF47A73E7
:101110000968B3FBF2F20446B1FBF2F1084601F0B4
:101120009DFC0F2C4FF0010508D838B94FF0FF3067
:1011300021460022002500F031F87460284670BD79
:1011400082B0002043F640010190C4F202014A68D7
:1011500042F480424A604A6802F480420192019A55
:101160000090086840F080500860086800F08050E7
:101170000090009802B07047002848BF704700F008
:101180001F01012202FA01F11C2202EAD0004EF2F4
:101190000012CEF2000281507047000010B54EF6EA
:1011A0000C5CCEF2000CDCF80030C3F3022E8EF0A3
:1011B0000704042C28BF0424BEF103034FF0FF3EB4
:1011C0000EFA04F438BF0023A14399400EFA03F34A
:1011D0009A43114300F00F0200F160430901043A01
:1011E00003F564436244002848BF02F10C03197000
:1011F00010BD00004EF60C51CEF200010A684FF609
:10120000FF031A4060F30A2242F0806040F0FD7054
:101210000860704701220168C0F8FC23002280F8B2
:10122000F423886940F000608861486D40F0805088
:1012300040F0030200204A657047000010B5012904
:10124000044619D079BB206A48B101F0C3FF4EF6BD
:101250001050CEF20000016821F006010160206804
:10126000D0F8001E21F00101C0F8001ED4F80404DB
:10127000BDE8104002F0C0BD2068D0F8001E41F06B
:101280000101C0F8001ED4F8040402F037FE206A01
:10129000002808BF10BD4EF61050CEF200000168C5
:1012A00041F00601016010BD0268002051627047E4
:1012B0002DE9F041D0F80080D8F8243081B1D8F879
:1012C0002870B1F1010E03EB174355D05FFA8EF190
:1012D00004290EF0030C0BD2002700212DE000BFE3
:1012E00043EA02410020C8F82810BDE8F08100BFA1
:1012F0000EF0FC0408F1F405002108F5827600BF29
:1013000055F8107F41F0020003EB174341F001074D
:10131000FFB256F82770C0B256F8200003EB17430F
:1013200003EB104041F00303DBB256F823300431E5
:10133000CFB2A74200EB1343E2D1BCF1000F1BD0A8
:1013400008EB8700D0F80401BCF1010F03EB104358
:1013500012D0481CC0B208EB8000D0F80401BCF1E8
:10136000020F03EB104307D0881CC0B208EB8000CB
:10137000D0F8040103EB104343EA024008EB8E016E
:10138000C1F804010020BDE8F0810000D0F8040499
:1013900002F07CBCC1EBC102D0F8043400EB820047
:1013A000826C184602F0E2BBC1EBC102D0F80434F3
:1013B00000EB8200D0F80822184602F02DBC000095
:1013C000D0F8040402F064BC10B5044648B2B0F191
:1013D000FF3F01F00F00C0EBC00104EB810205DD0F
:1013E00002F5FE71002382F8FD3104E0012302F1D1
:1013F0003C0182F83D3094F8BC230870012A04BFF8
:10140000022010BD2068012284F8BC2303F00AF9F1
:10141000002084F8BC0310BDB0B54268044601F05A
:101420000F0082423CBF0120B0BD49B2B1F1FF3F85
:101430000ADDC0EBC00104EB810202F5FE7100235E
:1014400082F8FD3109E000BFC0EBC00104EB81026E
:10145000012302F13C0182F83D3094F8BC230025C1
:10146000012A8D70087004BF0220B0BD20680122DF
:1014700084F8BC2303F0B0FB284684F8BC53B0BD0D
:1014800001F00F01C1EBC10100EB8100D0F81402A3
:101490007047000070B5064648B2B0F1FF3F01F05A
:1014A0000F00C0EBC00107DD06EB810404F5FE71FF
:1014B000002584F8FD5106E006EB810C01240CF1B7
:1014C0003C018CF83D404D780870002D8A60CB704F
:1014D00018BFC880022B04BF0020087196F8BC0317
:1014E000012804BF022070BD3068012286F8BC23A9
:1014F00002F0C2FF002086F8BC0370BD10B501F0F9
:101500000F0CCCEBCC0100EB810E0024CEE984342F
:101510000369CEF808228EF8FD41012B8EF8FCC13C
:1015200008BFCEF80C2200680EF5FE71DAB2BCF1ED
:10153000000F03D003F09AFB002010BD03F0A0FAC7
:10154000002010BDB0B50446406801F00F0585428B
:1015500084BF0120B0BD48B2B0F1FF3F0ADDC1EB4E
:10156000C10004EB800000F5FE71002280F8FD212F
:1015700009E000BFC5EBC50004EB8000012200F1CB
:101580003C0180F83D2094F8BC03012201288A70B8
:101590000D7004BF0220B0BD206884F8BC2303F0A6
:1015A00045FB1DB1002084F8BC03B0BD2068217C40
:1015B00004F5717203F0E2FA002084F8BC03B0BDB8
:1015C00010B501F00F0CCCEBCC0100EB810E714695
:1015D00001F83CCF0024C1E9053403690124CA6045
:1015E000012B4C7008BFCEF84C200068DAB2BCF179
:1015F000000F03D003F03AFB002010BD03F040FAC7
:10160000002010BD2DE9F04F89B0D0F800B0814620
:10161000584603F051FC18B109B0BDE8F08F00BF87
:10162000D9F8000003F076FC0028F5D0D9F80000C6
:1016300003F070FC0146D9F80000890703D5416921
:1016400001F00201416103F065FC0146D9F8000098
:10165000C9063CD5816921F010018161DBF8205079
:10166000C5F34340062805F00F0419D0022828D1FD
:1016700047F6F07015EA000623D0C4EBC40009EB6E
:101680008007D7F80812350958462A4603F046FC69
:10169000D7F8080200EB1610C7F8080208E000BFF0
:1016A00009F571715846082203F038FCC5F30A1594
:1016B000C4EBC40009EB8000D0F814122944C0F830
:1016C0001412D9F80000816941F01001816103F022
:1016D00021FC000340F1D680D9F8000003F0F8FBAC
:1016E000002800F0CF80064609F5717009F50174F5
:1016F0004FF000084FF4306A08901BE0F80642BF34
:101700000BEB0A0010218160B80642BF0BEB0A0008
:1017100020218160B80442BF0BEB0A004FF4005156
:10172000816008F1010876080AF1200A04F11C041E
:1017300000F0A880F007F4D0D9F800005FFA88F52F
:10174000294603F0DFFB0746C00761D00BEB0A0018
:1017500001218160D9F800000AEB000C036CDCF871
:101760000820D9F81010012922D1110730D4910690
:1017700000F1808012F0280F4AD143F20B01C4F629
:1017800054718B4202D312F400412AD1DCF81010BC
:10179000D4E900236FF3DF41511A21619918B8F1A0
:1017A000000F616030D1D9F8101269BB012128E027
:1017B00043F20B01C4F65471FF318B421AD110046D
:1017C0000FD4900644BF2020CCF808001CE000BFD6
:1017D00043F20B00C4F65470834219D312F4004054
:1017E00016D04FF40040CCF8080038077FF586AFDC
:1017F00011E000BFB8F1000F06D1D9F8101219B9E5
:101800000021089A03F0BAF948462946FFF7CCFDB3
:1018100038077FF573AF0BEB0A0008218160D9F818
:10182000000043F20B02056C50448168C4F6547208
:10183000954209D311F4004106D04FF40041816074
:10184000484600F0FBFB09E0484600F0F7FB43F296
:101850000B00C4F654708542FFF450AFD9F8100065
:1018600001287FF44BAFD9F80000089A012103F05A
:1018700085F943E72020CCF8080038077FF53EAF14
:10188000C9E700BFD9F80000CDF810B0CDF820901E
:1018900003F040FB400340F1C5800898006803F066
:1018A0000FFB002800F0BE8083460498002400F55A
:1018B000106708984FF0010A00F5717002900397C5
:1018C00006E000BF5FEA5B0B04F1010400F0AA80B0
:1018D0005FEACB70F6D0089EE1B23068079103F062
:1018E000FFFA0546C00725D0049A04F00F00D2F88D
:1018F00034180AFA00F021EA0000C2F8340807EBB5
:101900004410C0F808A0306901280FD1C4EBC4000E
:1019100006EB8000D0E911121144816434B9306DB6
:1019200020B93068029A012103F028F9079930465E
:10193000FFF730FD280742BF07EB44100821816004
:10194000E80642BF07EB441010218160680642BFE1
:1019500007EB441040218160A80742BF07EB441009
:10196000022181602806ADD50899C4EBC40001EBC3
:101970008002914659F8501FC84658F8040F81421A
:10198000A0D3089B92461E685AF8447F0B1ABB42AC
:1019900038BF1F46069606EB4413D3F818C907F163
:1019A000030E1FFA8CF7B7EB9E0F29D303F51061D6
:1019B00002F14807059100BFD9F8001081421FD9F4
:1019C000DAF80050089A081AA8423968167C38BF1D
:1019D0000546DDE90602ABB2009603F09BFB3868D2
:1019E000D8F800102844386048190599C8F8000054
:1019F0008969EA1C89B2B1EB920FDDD2D9F80010E7
:101A0000039F4FF0010A81423FF65CAF069A04F053
:101A10000F00D2F834180AFA00F021EA0000C2F8E8
:101A200034084FE7089C206803F074FA00280BD4B0
:101A30002068049D03F06EFA000525D4206803F0A9
:101A400069FA000130D43AE0049DD5F8040820F08A
:101A50000100C5F8040894F8F403012808D1002017
:101A600084F8F40320460021FFF7E8FB03E000BF01
:101A7000204600F0C7FA2068416901F00041416149
:101A800003F048FA0005D9D5D5F80808C00702D0F8
:101A9000204600F0FBFA2068416901F400614161D1
:101AA00003F038FA00010AD52068416901F00061AD
:101AB000416194F8F41349B1204600F0E7FA206838
:101AC00003F028FAC00411D420681FE1012184F832
:101AD000F413406DC0F38300C4F8F8032046FFF709
:101AE000ADFB206803F016FAC004EDD5D5F8040864
:101AF000102120F00100C5F80408206805F50068F1
:101B000003F0B4F96168002900F0D180042901F0E4
:101B1000030001D200217AE021F0030200214FF6F8
:101B20007F3300BF6F18C7F80839D7F80069043A47
:101B300026F40016C7F80069D7F8006901F18001A2
:101B400046F00066C7F80069C7F8083BD7F8006B95
:101B500026F40016C7F8006BD7F8006B46F0006655
:101B6000C7F8006BC7F82839D7F8206926F40016A3
:101B7000C7F82069D7F8206946F00066C7F82069E1
:101B8000C7F8283BD7F8206B26F40016C7F8206B5F
:101B9000D7F8206B46F00066C7F8206BC7F84839C5
:101BA000D7F8406926F40016C7F84069D7F84069AD
:101BB00046F00066C7F84069C7F8483BD7F8406B65
:101BC00026F40016C7F8406BD7F8406B46F0006665
:101BD000C7F8406BC7F86839D7F8606926F4001673
:101BE000C7F86069D7F8606946F00066C7F86069B1
:101BF000C7F8683BD7F8606B26F40016C7F8606B2F
:101C0000D7F8606B46F00066C7F8606B8AD1002891
:101C10004DD005F5106253184FF67F379F6053582B
:101C2000012823F400135350565805F5306346F04D
:101C30000066565003EB0106B7605E5826F40016A6
:101C40005E505E5846F000665E5030D001F12006CE
:101C50009519AF609559022825F4001595519559AD
:101C600045F00065955103EB0605AF609F5927F4D9
:101C700000179F519F5947F000679F5117D001F1FE
:101C8000400011184FF67F378F60115821F4001172
:101C90001150115841F00061115019188F601958F6
:101CA00021F400111950195841F000611950D8F869
:101CB0001C0040F00110C8F81C00206B40B1D8F89F
:101CC000840040F00B00C8F8840008F1440008E0EC
:101CD000D8F8140042F22B010843C8F8140008F1A8
:101CE0001000016804F5717241F00B010160D8F831
:101CF000000020F4FE60C8F800002068217C02F09B
:101D00003DFF2068416901F48051416103F002F90F
:101D100001462068890415D502F0F0FB206803F025
:101D2000BDF82568E06000F09DFC227B0146284656
:101D300003F064F9204600F04FF92068416901F48E
:101D40000051416103F0E6F800072DD4206803F04C
:101D5000E1F8C00234D52046002100F04FF8206899
:101D6000416901F48011416103F0D4F880022CD55F
:101D70002046002100F046F82068416901F4001176
:101D8000416103F0C7F8400024D52046FFF7FEFA72
:101D90002068416901F08041416103F0BBF84007D0
:101DA0007FF53AAC1CE000BF204600F02FF9206818
:101DB000416901F00801416103F0ACF8C002CAD4E6
:101DC000206803F0A7F88002D2D4206803F0A2F8BC
:101DD0004000DAD4206803F09DF840077FF51CAC82
:101DE00020684568690703D52046FFF7E9FA2068AF
:101DF00041682943416009B0BDE8F08FD0F8040480
:101E000001F0A4BFD0F8040401F0A2BF002804BF71
:101E1000012070472DE9F04F8BB00446056890F81B
:101E2000BD0328B9002084F8BC03204600F094F8D4
:101E3000032084F8BD03E86BC0055CBF002020616F
:101E4000206802F015FE206804F11C0A0A90D4E90B
:101E50000C5004F1040E9AE8C0079EE80E58CDE934
:101E6000085003A880E8C0030A988DE80058CDF810
:101E70001CA002F053FB002853D12068002100254C
:101E800003F090F8616869B301200023002200BFCD
:101E9000C3EBC30304EB830787F83C20D3B20132C2
:101EA000A7F84230D3B2994287F83D0087F83F50F7
:101EB000C7E911553D65EBD800200023002200BF83
:101EC000C3EBC30304EB830787F8FC210132D3B2D1
:101ED000994287F8FD0187F8FF01C7E98100C7F83B
:101EE0001002EDD8A06822680A90D4E90C5004F1E1
:101EF000140E04F1240AD4E903379EE840589AE806
:101F00000007CDE9085002A880E8005810460A9A58
:101F1000CDE90076CDE90589CDF81CA002F0E6FBFD
:101F200030B1022084F8BD0301200BB0BDE8F08F72
:101F3000002084F83800012084F8BD03606A01287D
:101F400002D12046FFF766F9206802F0BFFB0020AF
:101F50000BB0BDE8F08F00000068B0F1A04F18BFD3
:101F60007047B0B586B0002543F630040195C4F241
:101F70000204206801A940F001002060206800F000
:101F80000100019001984FF4C05001900220CDE96A
:101F90000205032004900A2005900020C4F20200EC
:101FA000FEF794FF6068002140F0800060600095BB
:101FB0006069002240F480406061606900F4804004
:101FC000009000984320FFF7E9F84320FFF7D4F88A
:101FD00006B0BDE8B040704710B50446C06828B1EF
:101FE000022801D0FEF718FB012100E00021D4F8FF
:101FF000040401F019FFD4F80404BDE8104001F016
:10200000CFBE0000D0F8040401F0F6BED0F80404FE
:1020100001F0FCBE10B5044690F8BC03012804BFD3
:10202000022010BD012084F8BC0384F83810206819
:1020300002F0D2FF002084F8BC0310BDD0F80424C5
:1020400000F57171104601F005BF000010B504469F
:1020500090F8BC03012804BF022010BDA16A2068CB
:102060000122012984F8BC2306D1A169012903D0EA
:10207000816B41F48031816302F0F0FE206802F050
:1020800015FB002084F8BC0310BD000010B5044609
:10209000D0F8040401F032FF2068D0F8001E41F0AF
:1020A0000101C0F8001E206A002808BF10BD4EF6CE
:1020B0001050CEF20000016841F00601016010BD31
:1020C0002DE9F04381B00446006843F68C06C10751
:1020D000C4F2020604D14FF0000981070CD415E0C8
:1020E0003168A26B21F0C06111433160B2FA82F114
:1020F0004FEA5119810709D53168E26B21F0C051CF
:1021000011433160002A08BF4FF00109410705D48F
:102110004FF00008010712D420E000BF3168226BA5
:1021200021F4401111433160B2FA82F14FEA5118A3
:10213000B2F5801F08BF4FF0010901070ED53168C5
:10214000626B21F440011143B2F5800F316008BF8A
:102150004FF00109002A08BF4FF0010881065AD547
:102160000020009056F84C0C47F2000740F08050D9
:1021700046F84C0C56F84C0CC4F2000700F08050A6
:1021800000900098386840F480703860FEF784FF53
:10219000054600BF3868C00506D4FEF77DFF401B2A
:1021A0000228F7D990E100BF56F81C0C10F44070DB
:1021B00017D0216C01F44071884212D056F81C0CE3
:1021C00040F64061C4F24721012220F440700A60C9
:1021D00000220A6046F81C0C56F81C0CC00740F0A0
:1021E0007B812068216C56F8842C4FF6FF4701F460
:1021F000407322F4F812C0F6FF770F40B3F5407F2A
:1022000008BF3A4346F8842C56F81C2C6FF31F3154
:10221000114346F81C1CC10610D4010619D441060E
:102220001FD4C10525D4810530D4410536D4B9F178
:10223000000F3FD1B0F5006F63D13BE094F8580038
:1022400040F64061C4F24721C1F8A00320680106AE
:10225000E5D5B168E26C21F440011143B16041065B
:10226000DFD5B168A26C21F080611143B160C10576
:10227000D9D5B168626D21F000611143B160B2F14E
:10228000006F08BF4FF001088105CED5B168626CC0
:1022900021F080511143B1604105C8D5B268216D6C
:1022A00022F000520A43B0F5006FB26018BFB1F1DE
:1022B000005F23D140F26809C4F247290020C9F821
:1022C0000000FEF7E9FE054656F88C0C000105D526
:1022D000FEF7E2FE401B0228F6D9F5E02068C107B0
:1022E00002D0A16B00296FD0810702D5E16B0029D4
:1022F0006AD0410700F17D807FE000BFB9F1000F97
:10230000D8D1B8F1000F4FF0000000F0DE80682750
:10231000C4F24727B860FEF7BFFE054656F88C0C9E
:10232000800005D5FEF7B8FE401B0228F6D9CBE0A9
:102330002068410701D5216B19B101071AD5616BDE
:10234000C1B956F8041CD4E9062301F44031656A8A
:10235000114341EA831141EA0561D4F82CC046F8E3
:10236000041C31686FF0FF0221F4F85102EB0C22DB
:1023700011433160C00516D5606DB0F1006F12D108
:1023800056F8040C226AD4E9061300F07060D203F8
:102390004FF6FF75AA430843A2F5803240EA831046
:1023A000104346F8040C0120B860FEF775FE0446A1
:1023B00056F88C0C800000F18B80FEF76DFE001B40
:1023C0000328F5D380E000BF56F8081C56F8082C07
:1023D000D4E9013501F4403102F0706219436769B4
:1023E000114341EA851141EA077146F8081C41078B
:1023F00003D5216BB1F5801F05D001071FD5616B97
:10240000B1F5800F1BD156F8081C56F8082CD4E9FA
:10241000013701F4403102F0E042194325691143CC
:1024200041EA871141EA0561D4F828C046F8081C42
:102430003168ACF1010221F01F0111433160410507
:102440001FD5216DB1F1005F1BD1271D56F808CCB7
:1024500056F8082CA8CFFF034FF6FF7127EA0101B9
:102460004FF0C06702F0E04207EA4C2707F100771F
:102470001A433A43A1F5803142EA8512114346F8E6
:10248000081C000510D5271D8FCF40EA8110D1030D
:102490004FF6FF729143A1F5803140EA0360084393
:1024A00040EA077046F8080C0120C9F80000FEF762
:1024B000F3FD054656F88C0C00013FF522AFFEF700
:1024C000EBFD401B0228F5D9032001B0BDE8F083E5
:1024D000002001B0BDE8F083FEF7DEFD054641F2C5
:1024E000883700BF56F81C0C80073FF57AAEFEF720
:1024F000D3FD401BB8424FF00300F3D9E5E70000DD
:10250000002804BF012070472DE9F04143F6080878
:10251000C4F202080446D8F8F8030D4600F00F0094
:10252000884207D288F8F853D8F8F80300F00F0073
:10253000A84277D12068810717D5410705D5D8F87B
:10254000001041F4E051C8F80010010705D5D8F893
:10255000001041F46041C8F80010D8F80010A268DB
:1025600021F0F0011143C8F80010C00740D1D8F89D
:10257000F80300F00F00A84207D988F8F853D8F8FC
:10258000F80300F00F00A8424CD12068410707D59E
:10259000D8F80010E26821F4E0511143C8F80010A7
:1025A000000708D5D8F80000216920F4604040EA0F
:1025B000C100C8F8000000F05BF8D8F8001045F240
:1025C0008C32C1F30311C0F60002515C40F23002BC
:1025D00020FA01F140F20C00C2F200000068C2F2E1
:1025E00000021160FEF788FD0020BDE8F08100BF09
:1025F0006068811E022907D258F8081C89015CBF57
:102600000120BDE8F08111E0012807D158F8081C2D
:1026100089035CBF0120BDE8F08107E058F8081C81
:10262000890703D40120BDE8F08100BFD8F800106D
:1026300021F003010843C8F80000FEF72DFD06460F
:1026400041F28837D8F80000616800F00C00B0EB68
:10265000810F8CD0FEF720FD801BB842F2D90320F9
:10266000BDE8F08140F23000C2F20000006870471F
:1026700010B543F60404C4F202046068C0F381019B
:1026800042F20040C0F2F400DFE801F04102082607
:1026900041F60030C0F2B70010BD00BF20682168CD
:1026A0002368490241F60031C0F2B70100F03F0251
:1026B000C3F388105CBF42F20041C0F2F401A1FBF9
:1026C00000010023FDF79AFD21680222C1F30141B8
:1026D00002EB410119E000BF20682168236849022C
:1026E00041F60031C0F2B70100F03F02C3F3881099
:1026F0005CBF42F20041C0F2F401A1FB00010023E3
:10270000FDF77CFD2168C1F30271B0FBF1F010BD53
:102710002DE9F04182B00446007843F60006C00778
:10272000C4F202062BD0B06800F00C00042821D0BF
:10273000B06800F00C00082802D17068400219D47B
:10274000B06800F00C000C2802D17068400211D46F
:102750006068B0F5803F07D0B0F5A02F40F00C8145
:10276000306840F480203060306840F48030306061
:102770000CE100BF3068800301D5606890B3207819
:10278000800720D5B06810F00C0F0FD0B06800F0B3
:102790000C00082802D17068400207D5B06800F02C
:1027A0000C000C286ED1706840026BD43068800732
:1027B00002D5E068012815D13068216920F0F800C1
:1027C00040EAC1003060207800070FD4207840072D
:1027D00022D4A569002D00F00F81B06800F00C0034
:1027E000082879D1012002B0BDE8F0816069002895
:1027F0005ED00020C4F247200121C0F8801EFEF701
:102800004BFC0546706F8007E0D4FEF745FC401B8B
:102810000228F7D9C7E000BF306C5FEAC0080AD4CD
:1028200000200190306C40F080503064306C00F03B
:1028300080500190019847F20007C4F20007386801
:10284000C00511D4386840F480703860FEF724FC6D
:10285000054600BF3868C00506D4FEF71DFC401BC6
:102860000228F7D99FE000BFA068012805D00528FD
:1028700054D1306F40F004003067306F40F00100F9
:10288000306755E0E068002862D00020C4F247209D
:1028900001210160FEF700FC054600BF306880079B
:1028A0003FF58AAFFEF7F8FB401B0228F6D97AE025
:1028B0000020C4F247200021C0F8801EFEF7ECFB88
:1028C000054600BF706F80077FF580AFFEF7E4FB21
:1028D000401B0228F6D966E00027C4F247270020F3
:1028E0003866FEF7D9FB022D05460BD13068800112
:1028F0005ED5FEF7D1FB401B02284FF00300F5D94F
:10290000A9E000BF3068800176D5FEF7C5FB401B0B
:1029100003284FF00300F5D39DE000BF316F00287E
:1029200021F001013167316F21F00401316767D077
:10293000FEF7B2FB054641F2883700BF306F8007D3
:1029400070D4FEF7A9FB401BB842F7D92BE000BFBB
:102950000020C4F2472000210160FEF79DFB0546E0
:10296000306880077FF52FAFFEF796FB401B0228EB
:102970004FF00300F4D96EE03168002821F4803173
:102980003160316821F48021316055D0FEF784FB3D
:10299000054600BF306880033FF5F1AEFEF77CFBD3
:1029A000401B6428F6D9032002B0BDE8F08100BFC7
:1029B00004F11C052FCD246B084340EA8210D90393
:1029C0004FF6FF729143A1F5803140EA056008435C
:1029D00040EA0470706001203866FEF75DFB044633
:1029E0003068800108D4FEF757FB001B02284FF027
:1029F0000300F5D92FE000BF002002B0BDE8F08150
:102A0000FEF74AFB054641F2883700BF306F80076A
:102A100008D5FEF741FB401BB8424FF00300F5D943
:102A200019E000BFB8F1000F3FF5D3AE306C20F0D5
:102A300080503064CDE600BFFEF72EFB054600BF98
:102A4000306880037FF59BAEFEF726FB401B6428B1
:102A50004FF00300F4D902B0BDE8F081411E002020
:102A6000B0EB116F1CBF012070474EF21002CEF286
:102A7000000251604EF62351CEF20001F0230B709C
:102A80000721906011607047704700007047000098
:102A900090F83C20012A4FF0020254D010B580F883
:102AA0003D200268D2F804E0D2F808C00C682EF08D
:102AB0007003234341F2FF74C4F20004A242536046
:102AC0000EDC40F2FF73C4F200039A4216DCB2F14E
:102AD000804F2BD040F20043C4F2000324E000BF3B
:102AE00040F2FF33C4F201039A4213DC41F60003C3
:102AF000C4F200039A4219D0002313E040F6000309
:102B0000C4F200039A4211D040F60043C4F200031D
:102B10000AE000BF44F20003C4F201039A4205D068
:102B200040F20043C4F201039A4204D149682CF0F8
:102B30008003194391600121002280F83D1080F844
:102B40003C20BDE81040104670470000002804BF3C
:102B50000120704710B5044690F83D0028B90020C8
:102B600084F83C00204600F00DF8022084F83D0077
:102B70002068211D00F0AEFB012084F83D000020FC
:102B800010BD00000068B0F1804F18BF704780B5DD
:102B900082B00020019043F64000C4F202000168B8
:102BA000002241F0010101600068002100F00100F5
:102BB000019001981C20FEF7F1FA1C2002B0BDE83C
:102BC0008040FEF7D9BA00000068C16841F00101F9
:102BD000C160816801F00701062903D0016841F056
:102BE000010101600020704790F83C20012A4FF05D
:102BF000020200F0C28080B580F83D20D0F800C00D
:102C00004FF67772DCF8083023EA0202CCF808208D
:102C10000B683F2B1CDD5F2B20DD602B50D0B3F504
:102C2000005F6DD0702B40F0A080D1E901E3C9684E
:102C3000DCF8082043EA0E0322F47F4243EA012134
:102C40001143CCF80810DCF8081041F077018AE055
:102C50001F2B29DC63B3102B2AD086E0402B63D0D6
:102C6000502B40F08280D1F804E0C968DCF82030B5
:102C7000DCF8202022F00102CCF82020DCF818201B
:102C800022F0F00242EA011123F00A0242EA0E02A7
:102C9000CCF81810CCF82020DCF8081041F05701CF
:102CA00021F020015FE000BF202B01D0302B5CD150
:102CB000DCF8081021F07001194341F0070152E0DF
:102CC000D1F804E0C968DCF8203023F01003CCF818
:102CD0002030DCF81830DCF8202023F4704322F098
:102CE000A00243EA013142EA0E12CCF81810CCF8E7
:102CF0002020DCF8081041F0670121F0100132E0DB
:102D0000D1E901E3C968DCF8082043EA0E0322F4A4
:102D10007F4243EA01211143CCF80810DCF8081087
:102D200041F480411FE000BFD1F804E0C968DCF83D
:102D30002030DCF8202022F00102CCF82020DCF842
:102D4000182022F0F00242EA011123F00A0242EABE
:102D50000E02CCF81810CCF82020DCF8081041F056
:102D6000470121F03001CCF808100121002280F841
:102D70003D1080F83C20BDE88040104670470000C0
:102D80007047000010B5016804460869800744BF19
:102D9000C8685FEA807039D40869400744BFC868D2
:102DA0005FEA40703ED40869000744BFC8685FEA24
:102DB000007045D40869C00644BFC8685FEAC060B7
:102DC0004AD40869C0071CBFC8685FEAC07051D107
:102DD0000869000644BFC8685FEA006052D4086909
:102DE000400644BFC8685FEA406053D40869800663
:102DF00046BFC8685FEA806010BD6FF020022046C1
:102E00000A61BDE81040FFF741BE00BF6FF002004D
:102E10000861012020778869800743D02046FFF7AA
:102E2000AFFF45E06FF00400086102202077886959
:102E300010F4407F40D02046FFF7A2FF42E000BFE1
:102E40006FF00800086104202077C86980073DD032
:102E50002046FFF795FF3FE06FF010000861082063
:102E60002077C86910F4407F3AD02046FFF788FFEA
:102E70003CE000BF6FF001000861204600F03EF822
:102E80002168A5E76FF0800008612046FFF7FCFD90
:102E90002168A4E76FF040000861204600F030F898
:102EA0002168A3E7204600F025F8204600F024F82A
:102EB0002168002020776FE7204600F01BF82046AD
:102EC00000F01AF82168002020776CE7204600F017
:102ED00011F8204600F010F821680020207769E7FB
:102EE000204600F007F8204600F006F82168002090
:102EF000207766E7704700007047000070470000C9
:102F000070470000FEE7000010B58AB001200021E4
:102F10000890CDE90610142041F2DC64CDE90410DC
:102F20001020C2F20004CDE90011CDE90211099090
:102F300069462046FDF7EEFB2046FDF777FF204669
:102F40001321FDF76FFB002818BFFDF765FB0AB0E2
:102F500010BD000080B541F2DC6046F60001C2F20F
:102F60000000C4F200010322002380E80E0000F1FB
:102F70000C014FF4802C4FF4401E81E808504FF4B0
:102F800080710183C0F81A30FDF7F4FD002808BFF6
:102F900080BDBDE88040FDF73FBB00002DE9F04F4C
:102FA00087B0002743F6300006970197C4F202006D
:102FB000016840F6000441F0040101600168C4F2B8
:102FC000020401F0040101910199019701680022B6
:102FD00041F080010160016846F2110501F08001B5
:102FE000019101990197016841F0020101600168B6
:102FF00001F00201019101990197016841F001017D
:103000000160016801F001010191019901970168D6
:1030100041F008010160006846F2110100F008006B
:10302000019001982046FEF731F8029502AD4FF06D
:10303000010820462946CDE903870597FDF746FF9D
:103040004FF4807002901220A4F50066CDE90308C9
:103050004FF0030A4FF0040B30462946CDF814A078
:10306000CDF818B0FDF732FF4FF40040CDE902076C
:10307000304629460497FDF729FF4FF4805002900F
:10308000022603A880E8C0044FF00809204629461C
:10309000CDF81890FDF71AFF04F580602946CDE9B8
:1030A00002B6CDE9047ACDF81890FDF70FFF102095
:1030B0000290122003A981E8010DA4F58060294641
:1030C000FDF704FF07B0BDE8F08F000080B586B0C3
:1030D00041F60C300021C2F200004FF0804241F670
:1030E0001F434FF0280C0591CDE90311CDE90011E4
:1030F000C0E90023C0E9021C01618161FFF726FDE0
:10310000002818BFFDF788FA4FF48050029041F66E
:103110000C30C2F2000002A9FFF766FD002818BFBC
:10312000FDF77AFA41F60C30C2F200006946FFF76B
:10313000AFFC002818BFFDF76FFA06B080BD000095
:1031400080B541F20C4040F21001C2F20000C2F220
:103150000001002200F0CAFC002818BFFDF75CFA4D
:1031600041F20C4040F23401C2F20000C2F2000110
:1031700000F0ECFE002818BFFDF74EFA41F20C40BB
:1031800040F26411C2F20000C2F2000100F044FA01
:10319000002818BFFDF740FA41F20C40C2F20000CF
:1031A00000F0F2FE002808BF80BDBDE88040FDF7BA
:1031B00033BA0000FEE70000FEE7000041F20470B1
:1031C000C2F20000FEF71EBA704700007047000010
:1031D000FDF768BFB0B5AAB0002401A85C21CDE915
:1031E0002144CDE91F441C94CDE91A44CDE918448B
:1031F000FDF74BF843F640000094C4F2020001686A
:10320000012241F0805101600068022500F08050E9
:103210000090009847F200000094C4F2000001689A
:1032200062F38F310160006800F440400090009824
:103230004FF480301E904FF480002490062025909B
:103240007820CDE926050520CDE928051DA81D9289
:103250002395FFF75DFA28B1EFF3108072B600BF37
:10326000FEE700BF0F20CDE918054FF4A0501B90DA
:103270004FF480501C9018A803211A94FFF740F9CE
:1032800020B1EFF3108072B6FEE700BF4FF48070FC
:1032900001900020169001A8FEF712FF20B1EFF375
:1032A000108072B6FEE700BF2AB0B0BD4EF688505F
:1032B000CEF20000016841F4700101604FF000613E
:1032C00040F8801C7047000041F60C30C2F200004C
:1032D000FFF758BD10B540F6FF3E0368C4F2000E7C
:1032E00040F2004C7045C4F2010C27DCB0F1804F75
:1032F00031D040F20042C4F2000290422BD040F69E
:103300000002C4F20002904225D041F6FF72C4F2DE
:103310000002904229DC70453CDCB0F1804F5FD068
:1033200040F20042C4F20002904259D040F600023E
:10333000C4F20002904253D056E000BF40F6004273
:10334000C4F20002904206D0604504D00022C4F2CC
:1033500001029042D9D14A6823F07003134341F629
:10336000FF72C4F200029042D5DD43F6FF72C4F250
:103370000102904222DC42F20002C4F200029042BA
:103380002ED00022C4F20102904229D0604527D0FD
:103390002AE000BF40F60042C4F2000290421FD073
:1033A00041F60002C4F20002904219D041F60042F8
:1033B000C4F20002904213D016E000BF44F20002B3
:1033C000C4F2010290420BD044F60002C4F20102A2
:1033D000904205D044F20042C4F20102904203D16F
:1033E000CA6823F44073134323F080024B69D1F879
:1033F00000E08C681A430260C46240F48062C0F846
:1034000028E0624504BF096901630121416110BDE3
:1034100010B5D0F8BC321BB38E4601EB810100EB36
:10342000810151F8184F64B1D0F8C4C2CEEBCE027E
:103430000CEB8202D2F844C0B4FBFCF202FB1C424B
:1034400082B10024C3F81442D0F8C00203F504711D
:10345000D0F810C0D3F808027246E047204610BDED
:10346000032010BD00240C6071460022002300F0F0
:103470004FFD204610BD0000B0B5D0F8BC527DB164
:10348000044600F013FCD4F8C02205F50371D3689C
:10349000D5F80422C5F80C02104698470020B0BDAC
:1034A0000320B0BDB0B58121044600F04DFB0025DE
:1034B00020460121258700F047FB20468221A4F801
:1034C000785100F041FBD4F8BC02E56448B1D4F86F
:1034D000C00240688047D4F8BC0201F0F9FEC4F88D
:1034E000BC520020B0BD0000D0F8C01281B110B5B0
:1034F000D0F8BC4294F80002FF2807D08B6894F8FB
:10350000012221469847FF2084F80002BDE81040C0
:1035100000207047014640F2F4000A22C2F2000087
:103520000A807047014640F26C004322C2F200005C
:103530000A807047014640F2B0004322C2F2000008
:103540000A807047014640F200104322C2F2000098
:103550000A807047F0B581B004464FF4077001F05F
:10356000DFFEE8B30546C4F8BC02207C40260028F4
:1035700008BF4FF40076204681210222334600F036
:10358000E9FB01272046012102223346278700F06C
:10359000E1FB1020A4F84E002046822103220823DC
:1035A000A4F8787100F0D6FBD4F8C002A4F84C70EF
:1035B000006880470020C5F81402C5F81802207C76
:1035C000D5F80422002820464FF0010114BF402303
:1035D0004FF4007300F0D2FB002001B0F0BD00BF3B
:1035E0000020C4F8BC02022001B0F0BDD0F8BC122B
:1035F000002904BF0320704780B590F810C0D1F8AF
:10360000042240230121BCF1000F08BF4FF40073D6
:1036100000F0B4FB002080BD00290EBF0320C0F8DD
:10362000C012002070470000D0F8BC220020C2F871
:1036300004127047D0F8BC320020C3F80812C3F857
:103640001022704770B582B00446D0F8BC6291F980
:1036500000000D46002210F060018DF80720ADF843
:10366000042015D0202951D1EA88002A26D0B0F1B3
:10367000FF3F2FDD6878314686F80002204686F845
:10368000012200F071F80026304602B070BD00BF84
:1036900068780B283AD80026DFE800F008063838AA
:1036A0003838383838382634EEE700BF94F89C02B2
:1036B00003282BD101A9204602221DE0D4F8C00224
:1036C000294683686878002200269847304602B071
:1036D00070BD00BFD4F8C00231468368687898474F
:1036E000EA882046314607E094F89C0203280DD171
:1036F0000DF107012046012200F050F80026304667
:1037000002B070BD94F89C020328BDD02046294623
:1037100000F01EF80326304602B070BDD0F8B82283
:1037200022B180B552689047BDE8804000207047C4
:1037300080B513460A46002100F020FB002080BD22
:1037400080B513460A46002100F0E2FB002080BD50
:1037500010B58021044600F0ADFB20460021BDE8F5
:10376000104000F0A7BB000080B513460A460321B5
:10377000C0F894120021C0E9563300F0FFFA00208F
:1037800080BD000080B50521C0F894120021002200
:10379000002300F0F3FA002080BD000080B513463E
:1037A0000A460221C0F894120021C0E9063300F055
:1037B000AFFB002080BD000080B50421C0F894124A
:1037C00000210022002300F0A3FB002080BD0000A8
:1037D00010B540F20C24C2F200040A4602A02146B1
:1037E00000F01AF9204610BD43444320436F6E6633
:1037F0006967000040F250101222C2F200000A80F5
:103800007047000010B540F20C24C2F200040A46D2
:1038100002A0214600F000F9204610BD4344432099
:10382000496E7465726661636500000040F278104D
:103830000422C2F200000A807047000010B540F276
:103840000C24C2F200040A4602A0214600F0E4F86B
:10385000204610BD53544D6963726F656C65637487
:10386000726F6E696373000010B540F20C24C2F2EF
:1038700000040A4602A0214600F0CEF8204610BD02
:1038800053544D3332205669727475616C20436F06
:103890006D506F727400000047F61020C1F6FF7083
:1038A000026883684FF01A0C9B18A1F800C000F062
:1038B000A680B0B54FF0370C1A0F0CEB13714068AF
:1038C000B3F1204F38BF02F1300140F27C12C2F256
:1038D0000002917019014FF0000E0CEB117582F887
:1038E00003E0C3F30364B1F1204F38BF04F13005A6
:1038F000190215710CEB117582F805E0C3F303543E
:10390000B1F1204F38BF04F13005190395710CEB6C
:10391000117582F807E0C3F30344B1F1204F38BFBB
:1039200004F13005190415720CEB117582F809E0E9
:10393000C3F30334B1F1204F38BF04F1300519054A
:1039400095720CEB117582F80BE0C3F30324B1F10F
:10395000204F38BF04F1300519061573C3F3031463
:103960000CEB1175B1F1204F4FEA037103F00F0317
:1039700082F80DE038BF04F1300503F13704957388
:1039800082F80FE0B1F1204F38BF03F13004010F8E
:103990000CEB1073147482F811E0B0F1204F38BFB3
:1039A00001F1300301010CEB1174937482F813E000
:1039B000C0F30363B1F1204F38BF03F130040102BB
:1039C0001475C0F303530CEB1174B1F1204F4FEA9F
:1039D000003182F815E038BF03F130040CEB1173AD
:1039E000947582F817E0C0F30340B1F1204F38BF5F
:1039F00000F13003137682F819E0BDE8B04040F2E0
:103A00007C10C2F20000704740F244100C22C2F257
:103A100000000A8070470000002808BF704710B5FA
:103A20000378ABB100F1020E4FF0000C1EF8013C20
:103A300093B19EF800309BB19EF80130A3B19EF87F
:103A400002300CF1040C002B0EF1040EEED10DE04F
:103A50004FF0000C0AE000BF4CF0010C06E000BF84
:103A60004CF0020C02E000BF4CF0030C5FFA8CFC3F
:103A7000022303EB4C03138003220B704A7090F86F
:103A800000E0BEF1000F2ED0841C02224FF0000C8B
:103A9000D3B201F803E043F0010301F803C014F8C6
:103AA000013C03B3901CC0B20B5440F0010001F87C
:103AB00000C02378BBB1101DC0B20B5440F0010010
:103AC00001F800C0637873B1901DC0B20B5440F090
:103AD000010001F800C094F802E00832BEF1000FC6
:103AE00004F10404D4D1BDE810407047002804BF9D
:103AF00003207047D0F8B832002B1CBF0023C0F859
:103B0000B832D0F8CC32002B1CBF0023C0F8CC3226
:103B1000002918BFC0F8B412012180F89C1202706D
:103B200000F0C8B880B5D0F8C402FDF775FC40F2CB
:103B30000032C100C0F2013222FA01F1032888BF2D
:103B40000321C8B280BD000080B5D0F8C402FDF7E3
:103B50003BFC40F20032C100C0F2013222FA01F116
:103B6000032888BF0321C8B280BD0000B0B5044659
:103B700081B1D4F8B802426952B194F89C0203288A
:103B800006D120469047002808BF0020B0BD00BFE6
:103B90000320B0BDD4F89402022834D1D4E907013F
:103BA00088420DD9431A204611461A46E361FFF7B1
:103BB000C7FD204600210022002300F0DFF822E0AC
:103BC00010D1A16981420DD3D4F89802814209D263
:103BD0002046002100220025FFF7B2FDC4F89852CC
:103BE000E7E700BFD4F8B802C16829B194F89C0295
:103BF000032801D1204688472046802100F05AF949
:103C00002046FFF7BFFD94F8A002012804BF002062
:103C100084F8A0020020B0BD10B5044681B1D4F8EC
:103C2000B802826952B194F89C02032806D120465A
:103C30009047002808BF002010BD00BF032010BD22
:103C4000D4F8940203280ED1D4E9570398420DD931
:103C5000C01AC4F85C01984238BF0346204611469A
:103C60001A46FFF765FD002010BD00BFD4F8B8026A
:103C7000016929B194F89C02032801D120468847A4
:103C80002046FFF799FD002010BD0000002070477E
:103C9000D0F8B812012280F89C2229B180B54A6878
:103CA00001799047BDE8804000207047D0F8C402F9
:103CB000FDF7E6BB017809B10020704710B541F26D
:103CC0000471C2F20001C1F80404C0F8C4124FF03C
:103CD000A0400622C1E9000202200022C1E903023D
:103CE000C1E906020846C1E90822C1E90B22FEF734
:103CF0008DF8002818BFFCF78FFC41F20474C2F263
:103D0000000420468021FDF7CFFA20460021402202
:103D1000FDF7CEFA204601218022FDF7C9FABDE861
:103D200010400020704700004AB2D0F8C40201F0F1
:103D30007F01C1EBC10100EB810000F5FF71002A9A
:103D400048BF00F13E01087870470000002070472E
:103D50000020704780B59446D0F8C4021A466346E6
:103D6000FDF798FB40F20032C100C0F2013222FAA6
:103D700001F1032888BF0321C8B280BD80B5D0F807
:103D8000C402FDF7BBFB40F20032C100C0F20132B9
:103D900022FA01F1032888BF0321C8B280BD0000C8
:103DA00070B50446D0F8BC02012500284FF0000091
:103DB00084F89C52C4F894026060C4F8A40205D050
:103DC000D4F8B802002142682046904720460021DE
:103DD000002240234026FFF7BDFF2046802100221D
:103DE0004023A4F86451C4F86061FFF7B3FF0020DA
:103DF000A584266270BD000090F89C12042904BFBF
:103E000090F89D1280F89C120020704790F89C1248
:103E1000032907D1D0F8B812C96919B180B588470C
:103E2000BDE88040002070470246002011747047B2
:103E300080B5D0F8C402FEF7EDF840F20032C100C0
:103E4000C0F2013222FA01F1032888BF0321C8B26F
:103E500080BD0000B0B500F2AA250446284600F057
:103E600069F894F8AA02B4F8B03200F01F010122F8
:103E70000229C4E9A52309D001290DD091B9204612
:103E80002946BDE8B04000F081B800BF2046294671
:103E9000BDE8B04000F01CBA20462946BDE8B0405D
:103EA00000F0B6BA00F080012046BDE8B04000F056
:103EB00001B8000080B5D0F8C402FDF743FB40F222
:103EC0000032C100C0F2013222FA01F1032888BF9A
:103ED0000321C8B280BD000080B5D0F8C402FEF74F
:103EE000B5F840F20032C100C0F2013222FA01F10D
:103EF000032888BF0321C8B280BD0000014690F8A6
:103F00009C02042281F89D02002081F89C227047C7
:103F100080B5D0F8C402FDF753FB40F20032C10077
:103F2000C0F2013222FA01F1032888BF0321C8B28E
:103F300080BD00000A7802704A7842704A88428048
:103F40008A888280C988C1807047000010B582B01D
:103F500004460020ADF8060051B18A6A0DF1060052
:103F6000C4F8B8129047C4F8CC02002002B010BDCB
:103F7000032002B010BD0000D0F8B822002A04BF10
:103F80000320704712681047FFF7A6BFB0B582B094
:103F90000D460978044611F060010DD0402902D089
:103FA000202940F0C780D4F8B8022946826820460C
:103FB00002B0BDE8B04010476878092800F2BA8026
:103FC000DFE800F0061CB82AB85E7AB8324800BFB5
:103FD00094F89C020138022800F2AC80E88802289C
:103FE00040F0A880D4F8A4020322002808BF0122D0
:103FF000214641F80C2F2046022223E194F89C022E
:104000000138022800F2968068880025012840F0D7
:104010009A80C4F8A45237E16888012840F066808D
:104020000120C4F8A40213E1E888012840F082804E
:1040300094F89C02411E022980F0768000252146DA
:1040400041F8085F20460122FFF7A8FB284602B08E
:10405000B0BD00BF688840F20825C1B2C2F20005B9
:104060000229287046D320468021FFF723FF2046EF
:104070000021FFF71FFF0325284602B0B0BD00BF97
:10408000A888002856D1E888002853D168887F285E
:1040900050D894F89C1203294CD0C5B284F89E02E3
:1040A00020462946FFF7C4FE2046FFF785FB002D7A
:1040B00014BF02200120F1E068884FF0FF3101EBCE
:1040C000102100220E29ADF8062000F2C980DFE899
:1040D00001F0098B73C7C799A3C7C7C7C7C7C7C7AD
:1040E0007F0000BFD4F8B402026876E000252846BD
:1040F00002B0B0BD94F89C02032827D002284BD10F
:10410000002900F0A580012060602046FFF734FF01
:10411000002800F0BF80054620468021FFF7CAFE38
:10412000204600210DE000BF032803D1211D2046B9
:10413000012287E020468021FFF7BCFE20460021B7
:104140000025FFF7B7FE284602B0B0BD002900F0F9
:1041500093806068012800F07B80C1B22046FFF7A1
:10416000DDFA297820466160FFF706FF002800F09D
:104170006F80054620468021FFF79CFE20460021E7
:10418000FFF798FE21792046FFF7C8FA022084F84D
:104190009C02284602B0B0BD20468021FFF78AFE6F
:1041A00020460021FFF786FE29782046FFF7B6FA61
:1041B0000325284602B0B0BDC0B2052850D8DFE8BC
:1041C00000F00373777B7F83D4F8B402426802E087
:1041D000D4F8B402C269002A42D0207C0DF1060155
:1041E0009047014623E000BF217CD4F8B8020029A3
:1041F0000CBF816AC16A0DF10600884701460220A2
:1042000014E000BF207C58BBD4F8B802416B0DF11C
:104210000600884701460AE0207C08BBD4F8B802B3
:10422000016B0DF106008847014607204870EA88B7
:1042300072B1BDF8060098B1904238BF0246ADF8A1
:1042400006202046FFF7AAFA0025284602B0B0BD96
:104250002046FFF7B1FA0025284602B0B0BD00BFE6
:1042600020468021FFF726FE20460021FFF722FE90
:104270000025284602B0B0BD022084F89C0200252B
:1042800020466560FFF74AFA2046FFF795FA284670
:1042900002B0B0BD2046FFF78FFA032084F89C02DD
:1042A0000025284602B0B0BDD4F8B402826892E777
:1042B000D4F8B402C2688EE7D4F8B40202698AE77F
:1042C000D4F8B402426986E7D4F8B402826982E77E
:1042D000B0B50D460978044611F060010CD04029B4
:1042E00001D020296ED1D4F8B80229468268204630
:1042F000BDE8B040104700BF68782979B0B1012807
:104300002CD003285ED194F89C0203282AD1688817
:1043100038B911F07F0004D0E88810B92046FFF7C3
:10432000C9FD2046FFF748FA0020B0BD94F89C0272
:10433000032825D0022808BF5FEA416042D111F06E
:10434000800004F114014FF0140004BF4FF4AA7070
:1043500004F5AA7100222250204653E094F89C02F2
:10436000032839D002282DD148062BD02046FFF74C
:10437000A1FD20468021FFF79DFD0020B0BD00BFBC
:1043800001F00F0000EB8000802904EB80002CBFBF
:10439000808CB0F86401A8B101F07F0000EB8000D0
:1043A00004EB800000F11405802938BF00F5AA75E0
:1043B000480623D02046FFF7B7FC002818BF01208D
:1043C0001DE000BF20468021FFF774FD204600213C
:1043D000FFF770FD0020B0BD6888B0B9480602D074
:1043E0002046FFF79FFB2046FFF7E6F9D4F8B80216
:1043F00029468268204690470020B0BD00202860F2
:10440000204629460222FFF7C9F90020B0BD00006E
:10441000B0B50D460978044611F0600118BF402977
:1044200016D194F89C020138022813D8A88810F0FD
:10443000FE0F0FD1D4F8B802294682682046904773
:10444000E9880546002908BF002D0FD02846B0BDD9
:104450002029E6D020468021FFF72CFD20460021B0
:104460000025FFF727FD2846B0BD00BF2046FFF717
:10447000A3F90020B0BD000010B50A784B78D0F841
:104480001CE802F00F04012B4FEA421C18D1012353
:10449000A34043EA0E03C0F81C386044D0F800394A
:1044A0001B0428D48B6800F51060C97804686FF38A
:1044B000DF2343EA814144EA8252114316E000BF00
:1044C0004FF48032A24042EA0E02C0F81C28604439
:1044D000D0F8002B12040ED48A6800F53060C97839
:1044E0006FF3DF22036842EA8141194341F08051B2
:1044F00041F400410160002010BD00000146D0F8E9
:10450000000940F2FF729043C1F80009D1F8040895
:1045100040F480720020C1F80428704780B50499E7
:10452000DDF808E0012939D1816B4FF6BF7321F422
:1045300080318163C168CFF6BD731940C160C16825
:104540000B9B21F44011012BC16003D1C16841F4E0
:104550008011C16040F64151C0F203010B4600BF1B
:104560000269002A08D40269002A05D4033B3FD01F
:104570000269B2F1FF3FF3DC026942F0010202611D
:104580000269D20707D00269D20704D003392FD0BD
:104590000269D207F4D1002136E000BFC16840F6BD
:1045A0004153DDF820C0C0F2030341F04001C16077
:1045B000194600BF0269002A08D40269002A05D4FE
:1045C000033917D00269B2F1FF3FF3DC016941F012
:1045D000010101610169C9071CBF01695FEAC1717D
:1045E00004D0033B06D00169C907F3D1002102E0E2
:1045F000032109E00321826BBCF1000F22F4803219
:1046000008BF02F580328263BEF1010F07D18268D4
:1046100042F006028260826842F020028260084610
:1046200080BD000080B54A780978012A4FEA41121E
:104630002AD10244D2F8003947F6000CCEF6334CAA
:1046400002F51062B3F1FF3F4FF0010E07DC136873
:1046500043F000631360136843F08043136001F07C
:104660000F01D0F83C380EFA01F18B43C0F83C380A
:10467000D0F81C3823EA0101C0F81C18106800EAC1
:104680000C010020116080BD831803F53062D3F85F
:1046900000EB47F60003CEF6334303F1707CBEF126
:1046A000FF3F4FF4803EDADCD1E700000146D0F84E
:1046B000000E20F00300C1F8000ED1F8040820F02D
:1046C00002020020C1F80428704700000146D0F81B
:1046D000000E20F00300C1F8000ED1F8040840F0ED
:1046E00002020020C1F80428704700002DE9F04FB5
:1046F00081B0DDF844800C9F0022B8F1000FC0F8B3
:104700000421C0F80821C0F80C21C0F81021C0F81D
:104710001421C0F81821C0F81C21C0F82021C0F8CD
:104720002421C0F82821C0F82C21C0F83021C0F87D
:104730003421C0F83821C0F83C2107D0826B00F545
:10474000006B42F40012826314E000BFD0F804282A
:1047500000F5006B42F00202C0F80428826B22F4DC
:1047600000128263026842F040020260066846F06E
:10477000800606600026C0F8006ED0F80068012FA1
:10478000C0F8006806D1DBF80070002B18BF47F0B6
:10479000010703E0DBF8003043F0030740F6415423
:1047A000DDF834E0DDF82890C0F203044FF48463B0
:1047B000C0F80078036123460769BF0644BF076954
:1047C0005FEA876704D5033B12D00769BF06F3D4BD
:1047D0000025102303610369DB0644BF03695FEA18
:1047E000C36308D5033C05D00369DB06F3D402E0BC
:1047F0000125EEE701254FF0000A0029CBF810A0B3
:10480000CBF814A0CBF81CA000F00481D0F800393C
:104810004FF0006707EA13134FF67F324E1EC0F8C1
:104820000039C0F810A9C0F808297BD08B1E032BD3
:1048300006F003097246009504D22024B9F1000F56
:104840003FD165E026F0030400234FF0904E4FF671
:104850007F384FF0000C00BF00EB0C05D5F8207935
:10486000043C0EEAE777C5F82079C5F83039C5F879
:104870002889D5F840790CF1800C0EEAE777C5F865
:104880004079C5F85039C5F84889D5F860790EEAFD
:10489000E777C5F86079C5F87039C5F86889D5F843
:1048A00080790EEAE777C5F88079C5F89039C5F8C0
:1048B0008889D1D1DDF844800CF12004B9F1000FD2
:1048C00026D000F510673D594FF0904C0CEAE57585
:1048D0003B193D5100244FF67F3EB9F1010F1C6199
:1048E000C3F808E014D01D6AB9F1020F0CEAE577AD
:1048F0001F621C63C3F828E00AD01F6C4FF090457C
:1049000005EAE7771F6400271F654FF67F379F642E
:10491000DDF82890009D002996464FF67F324FF033
:10492000006777D0D0F8003B002E07EA1313C0F8D9
:10493000003B4FF00003C0F8103BC0F8082B69D0D3
:104940000239032906F0030C04D22023BCF1000F26
:104950003BD15FE026F003044FF090474FF67F36DF
:10496000002100954518D5F8202B043C07EAE27297
:10497000C5F8202BC5F8303BC5F8286BD5F8402B7F
:1049800001F1800107EAE272C5F8402BC5F8503BFF
:10499000C5F8486BD5F8602B07EAE272C5F8602BC2
:1049A000C5F8703BC5F8686BD5F8802B07EAE27252
:1049B000C5F8802BC5F8903BC5F8886BD2D1009D17
:1049C00001F12003BCF1000F24D000F53062D6586D
:1049D0004FF0904707EAE676D118D65000264FF6FA
:1049E0007F33BCF1010F0E618B6013D00A6ABCF1FA
:1049F000020F07EAE2720A620E638B620AD00A6C47
:104A00004FF0904303EAE2720A6400220A654FF60F
:104A10007F328A64DBF81010B9F1000F21F4807145
:104A2000CBF810106FF08041C0F818A0416103D19D
:104A3000816941F010018161816943F60002C8F289
:104A40003C021143BEF1000F816103D0816941F046
:104A500008018161B8F1010F05D1816941F0804100
:104A600041F004018161284601B0BDE8F08F0000EB
:104A70000146806820F0010200208A607047000033
:104A8000F0B54B7891F800C0012B27D14C6900EBB1
:104A90004C1E00264FF6FF75DEF81079CFF6F8763B
:104AA000CEF20705002C0EF5106349D03E401E6182
:104AB0001E692E401E618E6805F10055B44284BF08
:104AC0004E6134461E69254046F400261E611E696B
:104AD0003543012A1D6141D1086926E000EB4C13E2
:104AE000D3F8100B6FF31200C3F8100BD3F8100BB0
:104AF0006FF3DC40C3F8100B4F6903F53063002FF0
:104B00001CBF8F684F611F694FF6FF7047F4002785
:104B10001F61CEF207008F6800F100501E69384017
:104B20003043012A186103D1C868002818BF5861B2
:104B30004FF004411868084318600020F0BD00BF22
:104B400007EA05041C611C6944F400241C611C690B
:104B500004EA06050024012A1D61BDD0DEF8001913
:104B6000002C41F00441CEF80019E6D00CF00F0102
:104B7000012202FA01F100F63403DBE7D0F840C06D
:104B800043F20B03C4F654739C4503D3D0F8003BA7
:104B9000002B1ED40023C0F8103BD0F8103B012995
:104BA00043F40023C0F8103BD0F8103B43F0180347
:104BB000C0F8103BD0F8103B43F0C043C0F8103BA6
:104BC00007D1C0F8142BD0F8001B41F08021C0F8A9
:104BD000001B0020704700004A780B78012A4FEA3A
:104BE000431210440ED1D0F8002922F40012C0F86C
:104BF0000029C97801F0FE01022914D100F51060E6
:104C00000DE000BFD0F8002B22F40012C0F8002BFA
:104C1000C97801F0FE01022905D100F53060016874
:104C200041F0805101600020704700000A784B7805
:104C30005101012B084407D1D0F80019002900F5D3
:104C4000106107D50BE000BFD0F8001B002900F56C
:104C5000306104D41AB1086820F080400860086808
:104C600040F4001200200A6070470000F0B54B7855
:104C700091F800C0012B31D1D1F814E000EB4C14B5
:104C8000D4F81059BEF1000F04F510634CD06FF347
:104C900012051D611D696FF3DC451D618D681F697B
:104CA0000EEB0506013EB6FBF5F50026C1F6F876DB
:104CB00006EAC5453D431D6175461E696FF3DF4534
:104CC00035431D61CD78012D39D11D6925F0C045D1
:104CD0001D611D6945F0005530E000BF00EB4C132D
:104CE000D3F8107B6FF31207C3F8107BD3F8107B57
:104CF0006FF3DC47C3F8107B4D698C68002D03F51A
:104D0000306379D02F19013FB7FBF4F70026C1F6C5
:104D1000F87606EAC7461D69BFB27C432E436FF39F
:104D2000DF441E616FE000BF6FF3DC451D611D694C
:104D300045F400251D611D696FF312051D61012AEF
:104D400012D10A69002A18BFC4F81429C9780129A8
:104D500071D1D0F80818D4F80009C9054CBF40F04B
:104D6000805040F0005065E000F510634FEA4C14AD
:104D70001D5945F004451D51CD78012D62D1D0F863
:104D80000858E658ED054FF0805558BF4FF00055D4
:104D90003543002AE55053D11FFA8EF2002A4FD036
:104DA000D51C4FF0FF33C96803EB950300F5805025
:104DB0004FEA0C32032BC5F381030FD3AF0827F062
:104DC000030400BF0F68043C17504F6817508F68EA
:104DD0001750CF6801F110011750F3D183B30F685A
:104DE000012B87502CD04F68022B875028D0896820
:104DF00081500020F0BD00BF1F696FF3DF442743DF
:104E00001F614FF400241F69012A47EA04071F614C
:104E100003D1CA68002A18BF5A61C97801290AD18A
:104E2000D0F808081968C0054FF0805058BF4FF0FF
:104E30000050084318604FF0044118680843186098
:104E40000020F0BDBEF1000FFAD00CF00F010122DE
:104E500002FA01F100F63403EFE700000146806832
:104E600040F0010200208A60704700008901203173
:104E7000016140F64151C0F203010269920644BF4C
:104E800002695FEA826206D5033904BF03207047D6
:104E900002699206F1D4002070470000D0F808089B
:104EA00000F0060180074FF0020058BF0F200029D4
:104EB00008BF084670470000406900F001007047D5
:104EC000D0F81818D0F81C08084080B270470000CD
:104ED000D0F81818D0F81C080840000C70470000E3
:104EE000D0F810C8D0F8343801F00F0223FA02F2DB
:104EF000D20100EB4110D2B2D0F8080942EA0C010D
:104F00000840704700EB4111D1F8081BD0F8140895
:104F1000084070474169806908407047002A3ED0C8
:104F200080B503324FF0FF3303EB9203032BC2F340
:104F3000810C15D3920822F003034FF4805E00BF6A
:104F400050F80E20043B0A6050F80E204A6050F8DA
:104F50000E208A6050F80E20CA6001F11001EFD1D6
:104F6000BCF1000F19D04FF4805E50F80E200B46B4
:104F7000BCF1010F43F8042B02D119460DE000BF2C
:104F800050F80E20BCF1020F4A6001D1083104E054
:104F90004FF48052805888600C31BDE8804008464C
:104FA00070470000C268012922F0C042C26007D0E9
:104FB00000291CBF012070474FF0804102E000BF74
:104FC0004FF0005180B5C2681143C1603220FBF739
:104FD00069FF002080BD00000246D0F8000801F003
:104FE0007F0120F4FE60C2F80008D2F8000840EA11
:104FF00001110020C2F8001870470000022A024682
:105000005FD145F24030CFF6277043F20053084499
:10501000C0F20C03984203D24FF4705053E000BF2B
:1050200041F64060CFF61B7044F240230844C0F2C2
:105030000F03984202D24FF4605044E0A1F574008F
:1050400044F68073A0F51050C0F21203984203D2C8
:105050004FF4505037E000BFA1F183704DF2206350
:10506000A0F5E740C0F21303984203D24FF440503A
:1050700029E000BF4BF26060CFF6E5604EF260338E
:105080000844C0F21603984202D24FF430501AE09E
:105090004DF20030CFF6CE6047F240730844C0F2C4
:1050A0001B03984202D24FF420500CE045F6C0306A
:1050B000CFF6B36049F2C0130844C0F2210398420E
:1050C0000AD24FF41050D16821F47051D160D168E8
:1050D00001430020D1607047A1F1B77047F220531F
:1050E000A0F55850C0F23803984203D24FF4005054
:1050F000E9E700BF45F2E040CFF6596049F6E043EA
:105100000144C0F241034FF4C050994238BF4FF4FC
:10511000E050D8E710B5DDF808C0BCF1000F2CD185
:105120005BB303F1030E4FF0FF3303EB9E0300F577
:1051300080541203032BCEF3810C0FD34FEA9E034E
:1051400023F003030868043B105148681051886835
:105150001051C86801F110011051F3D1BCF1000FDA
:105160000BD00868BCF1010FA05006D04868BCF114
:10517000020FA0501CBF8868A050002010BD000086
:10518000FEE700002DE9F04182B040F29814064697
:10519000C2F2000400270420C4E9090708202546BC
:1051A000E06201F1905041F2DC6845F81C7F3170FB
:1051B000206247F20500C2F2000800908DF804203A
:1051C0006A46404629462346ADF805708DF80770BB
:1051D000FBF740FA30786A4600F1407020624046A2
:1051E0002946234601970097FBF734FA02B0BDE841
:1051F000F081000040F29811C2F20001486070474F
:1052000082B000208DF807000DF10700FFF7F2FFD4
:10521000FBF756FFFDF7DEFFFDF7C0FEFDF756FF7B
:10522000FDF798FEFDF78CFF40F60004C4F202047F
:10523000204601210022FBF729FF0A20FBF732FE5E
:1052400020464FF480410122FBF720FF0A20FBF7A4
:1052500029FE204610210122FBF718FF0A20FBF748
:1052600021FEFDF751FE41F60C30C2F20000FDF7C1
:10527000ABFC40F2E81402250326C2F2000401E070
:105280008DF807600A20FBF70DFE9DF80700032844
:105290000CD00228F4D00128F4D120467F2100222E
:1052A000FFF770FF8DF80750ECE700BF8DF807504F
:1052B000E8E702E008C8121F08C1002AFAD17047C7
:1052C0007047002001E001C1121F002AFBD1704786
:1052D00010B5002821D0114B0022001F196803E0EF
:1052E000814203D80A4649680029F9D152B11368AE
:1052F000841A9C4204D1006818441060104602E0F1
:10530000506000E0186039B102680B1A934203D173
:105310000B681A4402604968416010BD000000201B
:10532000F0B50B30154D20F007010024144A0FE0B2
:1053300003688B420BD38B4205D95E1A431847682A
:10534000C3E9006700E04368136002C004E0021D87
:1053500010680028ECD12046002802D1286808B146
:105360000020F0BD064A07481060074A121A22F0D2
:105370000702C0E9002401202860D7E704000020CC
:1053800000000020541B0020501F002000000000DF
:10539000000000000102030406070809C0530008CA
:1053A00000000020980100005805000898540008EB
:1053B00098010020B8250000C2520008000000003B
:1053C000813201321013F53714082D381B083D04C3
:1053D0001A69041A99041AD1141A050813093A1201
:1053E000081324F41355351408A5341C0845361049
:1053F000311AE90C1A11041A7904C11A35281A2530
:10540000041A45041A1504140902431302011DC0AD
:10541000320904711A020B13052416100105240128
:10542000100901042402020524061701070582035E
:1054300008151009040133020A2E0705010240076E
:105440002A810711093744113A02441907112B0A1E
:105450000606112A40F42B0907500A3B04941C0548
:105460000F0C242B1002551B12014512021E408303
:10547000044057591B02036513C9051B08C5041ACC
:10548000C1041AF50413110600081A0804030904DC
:085490001A03000000000000F7
:04000005080001C529
:00000001FF
