:020000040800F2
:1000000060270020DD010008312E0008192B0008B0
:10001000B12D000827090008C549000800000000AC
:10002000000000000000000000000000B12F0008E8
:10003000A909000800000000AF2F000841300008A7
:10004000F7010008F7010008F7010008F7010008B0
:10005000F7010008F7010008F7010008F7010008A0
:10006000F7010008F7010008F7010008F701000890
:10007000F7010008F7010008F7010008F701000880
:10008000F7010008F7010008F7010008F701000870
:10009000F7010008F7010008F7010008F701000860
:1000A000F7010008F7010008F7010008F701000850
:1000B00019310008F7010008F7010008F7010008EE
:1000C000F7010008F7010008F7010008F701000830
:1000D000F7010008F7010008F7010008F701000820
:1000E000F7010008F7010008F7010008F701000810
:1000F000F7010008F7010008F7010008F701000800
:10010000F7010008F7010008F7010008F7010008EF
:10011000F7010008F7010008F7010008F7010008DF
:10012000F7010008F7010008F7010008F7010008CF
:10013000F70100080000000000000000F7010008BF
:1001400029090008F7010008F7010008352E00080A
:10015000F7010008F7010008F7010008F70100089F
:10016000F7010008F7010008F7010008F70100088F
:10017000F7010008F7010008F7010008000000007F
:1001800000000000F701000800000000000000006F
:10019000F70100080000000000000000F70100085F
:1001A000000000000000000000000000F70100084F
:1001B000F7010008F7010008F7010008F70100083F
:1001C000F7010008DFF810D000F05EFB00480047A0
:1001D00039550008AFF300806027002006488047AB
:1001E00006480047FEE7FEE7FEE7FEE7FEE7FEE71C
:1001F000FEE7FEE7FEE7FEE7FD300008C501000868
:100200002DE9F05F0546002092469B46884606464B
:10021000814640241BE0284641464746224600F0DE
:1002200048F953465A46C01A914110D31146184610
:10023000224600F02FF92D1A67EB01084F4622469F
:100240000120002100F026F917EB00094E41201E85
:10025000A4F10104DFDC484631462A464346BDE8A6
:10026000F09F2DE9F0410024061B254671F10006A0
:1002700005DA01240027D0EB070067EB0101161E09
:1002800073F1000605DA0027D2EB0702012567EBC0
:100290000303FFF7B5FF86460E4617469C46AC4261
:1002A00004D00025D0EB050E65EB010624B100203B
:1002B000D2EB000760EB030C704631463A466346CA
:1002C000BDE8F08140EA01039B0703D009E008C9BB
:1002D000121F08C0042AFAD203E011F8013B00F80B
:1002E000013B521EF9D27047D2B201E000F8012B57
:1002F000491EFBD270470022F6E710B513460A46A6
:1003000004461946FFF7F0FF204610BD2DE9FE4FC9
:1003100081EA030404F0004421F0004100944FF00E
:10032000000B23F0004350EA01045ED052EA0304BC
:100330005BD0C3F30A54C1F30A552C44A4F2F3343E
:100340000194A0FB0254C1F3130141F48011C3F3E3
:10035000130343F4801301FB024400FB034E840AA1
:10036000970A44EA815447EA8357A4FB0768029539
:100370008D0A05FB07854FEA932C04FB0C542705D7
:10038000029D4FEA065847EA1637B5EB08056EEBB3
:10039000070C870E920E47EA811742EA8312A7FBE9
:1003A0000201B6EB0B0164EB00042B0D43EA0C33A6
:1003B0005E1844EB1C50DA465146E7FB0201C5F3D8
:1003C00013044FEA0B3343EA14534FEA0432019CFF
:1003D00043EA0603A4F10C040294009CCDE900B4A6
:1003E00000F0BDF803B0BDE8F08F00200146F9E74A
:1003F0000EB540F2334102910021CDE900110A46C9
:100400000B4600F0ACF803B000BD00F0004230F045
:1004100000400AD0C10D01F56071C0F3160042EA38
:100420000151C20840071143704700200146704740
:1004300001F0004330B421F0004150EA010206D03F
:100440000A0DA2F56072C1F31301002A02DC30BC70
:1004500000207047440F44EAC104C100E01830BCDA
:1004600000EBC25000F035B830B50B460146002015
:100470002022012409E021FA02F59D4205D303FA66
:1004800002F5491B04FA02F52844151EA2F10102E7
:10049000F1DC30BD202A04DB203A00FA02F1002012
:1004A00070479140C2F1200320FA03F319439040B2
:1004B0007047202A04DB203A21FA02F0002170471D
:1004C00021FA02F3D040C2F12002914008431946BC
:1004D00070470029A8BF7047401C490008BF20F0A2
:1004E0000100704710B4B0FA80FC00FA0CF050EA3A
:1004F000010404BF10BC704749B1CCF1200421FABB
:1005000004F411FA0CF118BF012121430843A3EBB5
:100510000C01CB1D4FEA00614FEA102042BF0020C2
:1005200010BC704700EBC35010440029A4BF10BC9E
:100530007047401C490008BF20F0010010BC704704
:1005400010B5141E73F1000408DA401C41F10001DB
:1005500092185B411A4301D120F0010010BD2DE932
:10056000F04D92469B4611B1B1FA81F202E0B0FA29
:1005700080F220329046FFF78DFF04460F4640EA96
:100580000A0041EA0B0153465A46084313D011466C
:1005900053EA010019D0C8F140025046FFF789FF25
:1005A00005460E46504659464246FFF773FF08433C
:1005B00005D0012004E020463946BDE8F08D00203A
:1005C000054346EAE0762C4337430A986305E40A7C
:1005D000A0EB08000022FD0A44EA47540A3002D585
:1005E00000200146E9E7010510196941DDE90845E8
:1005F00000196941BDE8F04DA2E72DE9FE4F8046A4
:1006000081EA0300C00F0C46009021F0004123F066
:100610000045B8EB0200A94105D24046214690466C
:100620001C460B46024623F00040104347D0270DDE
:10063000C7F30A00C3F30A510290401A0190402800
:100640006BDAC3F3130040F4801B0098924620B18C
:100650000023D2EB030A63EB0B0B01985946C0F160
:1006600040025046FFF716FF06460D4650465946D3
:10067000019A00F01BF910EB08006141002487EAA1
:10068000115284EAE7731A4340D0009A62B3019A88
:10069000012A4FEA075215DC001B61EB02014FF003
:1006A000004202EA0752CDE90042001C41F58011E8
:1006B00032462B46FFF753FF03B0BDE8F08F4046AC
:1006C0002146F9E7001B61EB0201001C41F5801394
:1006D00000185B412018A2F5001747EB030140EA20
:1006E000D570B6196D4111E06D084FEA360645EA3E
:1006F000C0754FEA0752001B61EB0201001C41F577
:10070000801149084FEA30000019514132462B460A
:1007100003B0BDE8F04FFFF713BF0098012240007F
:100720000023D0EB020263EBE073009821464FEA0E
:10073000E074B8EB000061EB0401E9E783F00043EB
:100740005BE781F0004158E72DE9F04D81EA0304B1
:1007500004F0004B21F0004514464FF0000A23F04E
:10076000004150EA050220D054EA01021DD0C5F331
:100770000A570246C5F31303C1F31300C1F30A5627
:1007800040F4801543F48013A7EB0608101BD646EF
:1007900008F2FD3873EB050002D308F1010801E00F
:1007A00092185B41B8F1000F03DA00200146BDE862
:1007B000F08D00204FF48011064684460EE0171B92
:1007C00073EB050705D3121B63EB050306434CEAE5
:1007D000010C49084FEA300092185B4150EA0107CA
:1007E000EDD152EA030012D082EA040083EA050147
:1007F000084305D0101BAB4106D20122002306E0BE
:1008000000224FF0004302E06FF0010253101AEB98
:1008100006004CEB085110EB0A0041EB0B01BDE860
:10082000F04DFFF78DBEC1F30A52C1F3130140F240
:10083000FF3341F480119A4202DA002001467047EA
:1008400040F233439A42A2F2334202DC5242FFF7B3
:1008500030BEFFF71FBE000030B5041E71F100046A
:1008600004DB4FF00044404264EB0101141E73F1BD
:10087000000405DB1C464FF00043524263EB0403C7
:10088000994208BF904230BD064C074D06E0E06833
:1008900040F0010394E8070098471034AC42F6D3C7
:1008A000FFF794FCF056000810570008202A06DBDA
:1008B000CB17203A41FA02F043EAE07306E041FA2E
:1008C00002F3D040C2F1200291400843194670471C
:1008D00070B58C1810F8015B15F0070301D110F802
:1008E000013B2A1106D110F8012B03E010F8016B2F
:1008F00001F8016B5B1EF9D12B0705D40023521EB2
:100900000DD401F8013BFAE710F8013BCB1A921C19
:1009100003E013F8015B01F8015B521EF9D5A14217
:10092000D8D3002070BDFEE7014800F0BCB900003C
:1009300020020020002070470020704710B50022E0
:100940000449054802F08EFD0449034802F084FD85
:10095000002010BD580F00208802002058070020FA
:1009600010B50146034802F077FD024802F059FD38
:10097000002010BD8802002000207047094A10B5F1
:10098000D2F8BC22D2F814220AB1012010BD0A46C6
:100990000146044802F066FDBDE81040014802F03F
:1009A000C1BD000088020020704772B6FEE790F8D3
:1009B0002020012A07D0022A05D0416A41F4802173
:1009C000416201207047006842690A434261002089
:1009D0007047F0B590F820500468A468012D05D048
:1009E000022D03D0416A41F480215DE014F0406F94
:1009F00001D1E50055D5C4F30164022C03D9416A45
:100A000041F4000150E00125A5401D608D684FF4C0
:100A1000C0739DB1CE6835434E6845EAC605066889
:100A200003EB0417F5514FF4C275076805EB041585
:100A30000E697E51097D012905D009E00E88CD6837
:100A400045EA4655EBE701684E5946F480764E512B
:100A50001179D579567941EA056195792D0445EAF0
:100A6000062529434FF4C676056806EB0416A951FE
:100A70001178D57841EA0561957852782D0445EAD8
:100A8000022211434FF4C475026805EB041551515D
:100A9000006803EB0411425842F00102425000206A
:100AA000F0BD416A41F4001141620120F0BD000037
:100AB00010B590F82020012A07D0022A05D0416AFB
:100AC00041F480214162012010BD3B48D0F8002252
:100AD00042F00102C0F80022D0F8002222F47C5239
:100AE000C0F80022D0F800224B6A42EA0322C0F884
:100AF00000220A7D02F01F0301229A40D0F81C3226
:100B00009343C0F81C32CB69B3B9D0F80C3293438D
:100B1000C0F80C328C894B6864F31F434C6900EBBE
:100B2000C404C4F840320C890B6864F31F434C6959
:100B300000EBC404C4F84432CB69012B16D1D0F8C1
:100B40000C321343C0F80C320C884B6864F31F431B
:100B50004C6900EBC404C4F840320C89CB6864F3E0
:100B60001F434C6900EBC404C4F844328B69002B6A
:100B7000D0F804320ED01343C0F804320B69002BB6
:100B8000D0F8143208D01343C0F81432096A01298E
:100B900004D008E09343EFE79343F5E7D0F81C1245
:100BA0001143C0F81C12D0F8001221F00101C0F866
:100BB0000012002010BD000000640040704730B5F6
:100BC00090F82040012C05D0022C03D0416A41F45A
:100BD00080215DE00468002955D02469A40754D021
:100BE0004FF4D874056804EB01142D5915F0040571
:100BF000956005682D594ED0ED08556005682C5953
:100C000004F00204D4604FF4DA74056804EB0114B4
:100C10002D5905F00F05156105682D59C5F30725F8
:100C2000956105682C59240C54614FF4DC720468FA
:100C300002EB0112A4581C700468A458240A5C70CA
:100C40000468A458240C9C700468A258120EDA7030
:100C50004FF4DE72046802EB0112A4581C710468A0
:100C6000A458240A5C710468A458240C9C7104687C
:100C7000A258120EDA71006881B1016941F02001B9
:100C80000161002030BDE468A8E7416A41F4001129
:100C90004162012030BD6D0D1560AFE7C16841F0C4
:100CA0002001C160EDE72DE9F05F054600680024F2
:100CB0004669D0F804908768D0F80CB0D0F810A03E
:100CC000D0F81880F10748D0F90714D001218160CD
:100CD000B80703D5284600F014FA0CE0780702D5CF
:100CE0004FF4006407E0380702D54FF4805402E067
:100CF000284600F005FAF80516D529684FF48070EB
:100D00008860B80503D5284600F0FDF90CE07805A9
:100D100002D544F4005407E0380502D544F4804479
:100D200002E0284600F0EEF9F80316D529684FF4E2
:100D300080308860B80303D5284600F0E6F90CE05F
:100D4000780302D544F4004407E0380302D544F4A4
:100D5000803402E0284600F0D7F9300707D55FEA73
:100D6000CB6004D52968102044F40074C860700773
:100D70004FF0080707D55FEA0B7004D52868C760F5
:100D8000284600F061F9B00706D52868C0688007DA
:100D900002D0284600F05AF9700607D55FEACA600B
:100DA00004D52968102044F480640861B00607D592
:100DB0005FEA0A7004D528680761284600F070F9D8
:100DC000F00606D528680069800702D0284600F0A2
:100DD00068F9B00308D55FEAC96005D52968102015
:100DE0004860284600F05EF9F00307D55FEA097015
:100DF00004D528684760284600F088F9300446D5B5
:100E00005FEA497040D5F00504D55FEAC87001D0AB
:100E100044F00104B00504D55FEA887001D544F0C0
:100E20000204700504D55FEA487001D544F004045B
:100E3000300529D518F0700F26D008F07000402832
:100E400015D006DC102809D020280AD0302816D169
:100E50000AE050280ED0602811D10EE044F00804BA
:100E60000DE044F010040AE044F0200407E044F0F0
:100E7000400404E044F0800401E044F480742868F5
:100E8000816921F070018161296804204860002C8B
:100E900005D0686A204368622846FFF78FFEBDE8E8
:100EA000F09F70B5040003D094F8200010B104E066
:100EB000012070BD204600F081F82068016821F013
:100EC0000201016000F01CFA0546052604E000F06E
:100ED00017FA401B0A2811D8206840688007F6D40A
:100EE0002068016841F00101016000F009FA05463F
:100EF0000BE000F005FA401B0A2806D9606A40F4AE
:100F00000030606284F82060D2E720684068C00743
:100F1000EFD0207E0128206801683DD021F08001BB
:100F20000160607E01282068016838D021F040010E
:100F30000160A07E01282068016833D021F02001E3
:100F40000160E07E0128206801682ED041F0100188
:100F50000160207F01282068016829D021F0080164
:100F60000160607F01282068016824D021F004011D
:100F70000160D4E902010843D4E904121143084393
:100F80006168491E08432168C86100206062012031
:100F900084F82000002070BD41F08001C0E741F0DE
:100FA0004001C5E741F02001CAE721F01001CFE779
:100FB00041F00801D4E741F00401D9E710B586B04B
:100FC000044614216846FFF796F91C4920688842B8
:100FD00031D11B480021026842F080620260026841
:100FE00002F080620592026842F0007202600068BE
:100FF00000F00070059012481038026842F00202BA
:101000000260006800F0020005904FF4405000902C
:101010000220CDE9010103200390092004906946D4
:10102000084800F087F800221146402000F0D6F969
:10103000402000F0C5F906B010BD00000068004077
:1010400040380240000402407047000010B50446DA
:101050000121104800F047F90F4B104A00212046AB
:10106000FFF7ADFD0D480C4942680C39C2F307206B
:1010700048607F280DD1100E06D008480C31BDE81D
:101080001040343001F096BE0348044934310078F2
:10109000487010BD000802400C000020B401002080
:1010A000704770477047000070B5044690F8200004
:1010B000012804D0606A40F40020606218E0022039
:1010C00084F820002068016821F00101016000F02F
:1010D00017F905460EE000BF00F012F9401B0A2880
:1010E00008D9606A40F400306062052084F820006E
:1010F000012070BD20684068C007EDD1606270BDFE
:1011000070477047704770477047704770470000DE
:1011100070B5044600F0F4F80546601C02D004489F
:101120000078044400F0ECF8401BA042FAD370BDF4
:10113000140000202DE9F84F00224FF0010803258C
:101140004FF00F0E0B6808FA02F42340A3426ED151
:101150004E68012E05D0022E03D0112E01D0122E82
:1011600012D186684FEA420C05FA0CF7BE43CF68ED
:1011700007FA0CF7374387604668A6430C79C4F337
:101180000014944034434460C668570005FA07FCD5
:101190008C6826EA0C06BC403443C4604C68022CC0
:1011A00001D0122C13D1D40800EB8404A346D4F848
:1011B000209054074FEAD46A0EFA0AF629EA060983
:1011C0000E6906FA0AF646EA0906CBF820600668B8
:1011D0000C7926EA0C0604F00304BC403443046096
:1011E0004C68E40060D5334C266846F4804626609F
:1011F000246822F0030604F4804400942E4C344406
:10120000A446D4F808489607370F0EFA07F6B443F9
:101210002A4EB04201D100261FE0294EB04201D132
:1012200001261AE0274EB04202D1022615E03BE02B
:10123000254EB04201D103260FE0244EB04201D129
:1012400004260AE0224EB04201D1052605E0214ED7
:10125000B04201D1062600E00726BE402643CCF866
:1012600008681D4E34684F689C43FF0300D51C433B
:101270003460194E361D34684F689C43BF0300D557
:101280001C433460144E083634684F689C43FF0298
:1012900000D51C433460104E0C3634684F689C43B4
:1012A000BF0200D51C433460521C102AFFF44AAF21
:1012B000BDE8F88F44380240003001400000024091
:1012C0000004024000080240000C024000100240EE
:1012D0000014024000180240003C01400069084030
:1012E00000D001207047426931EA020200D10904AE
:1012F000816170470AB1816170470904FBE7000012
:10130000014880687047000014000020024881688E
:101310000278114481607047140000200B4810B51A
:10132000016841F400710160016841F4806101606D
:10133000016841F480710160032000F06FF8002023
:1013400000F006F800F024F8002010BD003C024038
:1013500070B50D4D04464FF47A712878B1FBF0F06A
:101360000A490968B1FBF0F001F00CFA48B9102CF9
:1013700007D200222146501E00F030F800206C6099
:1013800070BD012070BD000014000020200000206E
:101390000A4808B5016841F480410160006800F422
:1013A000804000900548001F016841F080510160B5
:1013B000006800F08050009008BD000044380240F2
:1013C000002809DB00F01F02012191404009800044
:1013D00000F1E020C0F8001170470000F0B40E4B9F
:1013E0001B680C46C3F30223C3F10705042D00D983
:1013F0000425191D072901D2002300E0DB1E012668
:1014000006FA05F1491E214099409E40761E16407D
:101410003143F0BC03F0ECBA0CED00E0064900F0FB
:10142000070208684FF6FF03184040EA0220034A0B
:1014300010430860704700000CED00E00000FA0562
:1014400001220168C0F8FC23002280F8F423886997
:1014500040F000608861486D024A104348650020F2
:10146000704700000300001070B5164D0446A1B18E
:10147000012911D12068D0F8001E41F00101C0F807
:10148000001ED4F8040402F095FB206A002803D063
:10149000286840F00600286070BD206A28B101F07D
:1014A000D1FD286820F0060028602068D0F8001ED2
:1014B00021F00101C0F8001ED4F80404BDE870401A
:1014C00002F014BB10ED00E000684162002070479C
:1014D000F0B50368586A39B19C6A4FF4827600EB24
:1014E000144400204D1E0AE040EA024098620FE0DA
:1014F00006EB8007DF59401C04EB1744C0B2A8423A
:10150000F6D344EA02404FF4807202EB8101585056
:101510000020F0BDD0F8040402F053BAC1EBC102C0
:1015200000EB8202D0F80404926C02F0BEB9C1EB69
:10153000C10200EB8202D0F80404D2F8082202F0C3
:1015400009BAD0F8040402F03EBA70B504460B069E
:1015500001F00F00C0EBC00104EB81014FF001026C
:101560004FF0000503D581F83D203C3103E081F8C0
:10157000FD5101F5FE71087094F8BC03012808D0F4
:1015800084F8BC23206802F0B7FD84F8BC53002027
:1015900070BD022070BD70B5044601F00F00626896
:1015A000904201D9012070BD0B0601F00F01C1EB83
:1015B000C10104EB81014FF001024FF0000503D59A
:1015C00081F83D203C3103E081F8FD5101F5FE71C9
:1015D0008D70087094F8BC03012808D084F8BC23EF
:1015E000206802F081FF84F8BC53002070BD022007
:1015F00070BD01F00F01C1EBC10100EB8100D0F81B
:10160000140270472DE9F04104460F0601F00F0067
:10161000C0EBC00104EB81014FF001064FF0000563
:1016200003D581F83D603C3103E081F8FD5101F5BF
:10163000FE7108708A60CB704A7802B1C880022BB4
:1016400000D10D7194F8BC03012809D084F8BC6363
:10165000206802F0ADFC284684F8BC53BDE8F08158
:101660000220FBE770B50C4601F00F05C5EBC50184
:1016700000EB8101C1F81032C1F808220023C1F843
:10168000143281F8FD3181F8FC51036901F5FE71D6
:10169000012B00D10A612207027C006803D002F00E
:1016A0007BFF002070BD02F067FEFAE770B50446CC
:1016B0000D4601F00F006168884201D9012070BD1C
:1016C00029064FF000064FF0010207D5C0EBC0011C
:1016D00004EB810181F83D203C3107E0C5EBC501F9
:1016E00004EB810181F8FD6101F5FE718A700870DB
:1016F00094F8BC03012807D084F8BC23206802F0CA
:101700001FFF280702D007E0022070BD217C04F5EE
:101710007172206802F0BCFE84F8BC63002070BDCA
:1017200070B50C4601F00F05C5EBC50100EB81015A
:101730000B658A6400234B65012381F83D3001F875
:101740003C5F0369012B00D10A612207027C00681B
:1017500003D002F021FF002070BD02F00DFEFAE779
:101760002DE9FC5F05680446284603F03EF8002892
:101770007ED1206803F065F8002879D0206803F056
:1017800060F8800704D52068416901F002014161D9
:10179000206803F056F8C10604F57170009034D546
:1017A0002068816921F0100181612F6A07F00F0024
:1017B000C0EBC00004EB8006C7F3434006F5FE769D
:1017C000022802D0062811D01AE047F6F07007422E
:1017D00016D0C7F30A1217462846F16803F035F809
:1017E000F0683844F060B069384408E008222846C0
:1017F000009903F02AF8B169C7F30A100844B061F0
:101800002068816941F010018161206803F019F8B6
:1018100000034FF001094FF0080B5BD5002620684C
:1018200002F0EEFF0746DFF8A4A351E0F8074DD021
:10183000F1B2206802F0FDFF8046C00707D005EB3B
:101840004611C1F8089B3146204601F0F9FA5FEADB
:10185000087022D505EB4611C1F808BB2068026C60
:1018600000EB46100192D0F8081B524507D900E062
:10187000A9E1090403D54FF40041C0F8081B204634
:1018800000F09AFA0198504507D92069012804D13F
:1018900020680121009A02F0FBFD5FEAC86004D5D0
:1018A00005EB46111020C1F8080B5FEA886004D5EB
:1018B00005EB46112020C1F8080B5FEA884005D5EA
:1018C00005EB46114FF40050C1F8080B7F08761C59
:1018D000002FABD1206802F0B4FF40034FF0000AA4
:1018E0005CD5206802F085FF0746002654E0F80723
:1018F00050D0F1B2206802F08AFF8046C00723D0A2
:1019000006F00F0209FA02F0D5F834288243C5F830
:10191000342805EB4610C0F80899206901280FD13A
:10192000C6EBC60004EB8000D0E9112111448164AC
:1019300036B9206D20B920680121009A02F0A8FD77
:10194000F1B22046FFF7EAFD5FEA087003D505EB28
:101950004611C1F808B95FEAC86004D505EB461125
:101960001020C1F808095FEA486004D505EB46116C
:101970004020C1F808095FEA887004D505EB4611DC
:101980000220C1F808095FEA086003D53146204605
:1019900001F0BCFA7F08761C002FA8D1206802F065
:1019A00050FF002811DAD5F8040820F00100C5F82E
:1019B000040894F8F403012839D0204600F0E0F937
:1019C0002068416901F000414161206802F039FF5F
:1019D00000050BD5D5F80808C00702D0204600F056
:1019E00013FA2068416901F400614161206802F046
:1019F00028FF00010AD52068416901F000614161BA
:101A000094F8F403D0B1204600F0FEF9206802F00B
:101A100018FFC00476D5D5F8040820F00100C5F8F9
:101A200004081021206802F0C1FE002135E084F88E
:101A3000F4A300212046FFF717FDC1E784F8F493D3
:101A40002068406D0121C0F38300C4F8F8032046EC
:101A5000FFF70AFDDAE700BF05EB41104FF67F32D2
:101A6000C0F80829D0F8003923F40013C0F8003971
:101A7000D0F8003943F00063C0F80039C0F8082BF3
:101A8000D0F8002B22F40012C0F8002BD0F8002B65
:101A900042F00062C0F8002B491C60688842DBD825
:101AA000D5F81C0840F00110C5F81C08206B60B187
:101AB000D5F8840840F00B00C5F88408D5F8440830
:101AC00040F00B00C5F844080CE0D5F8141842F2B9
:101AD0002B000143C5F81418D5F8100840F00B008E
:101AE000C5F81008D5F8000820F4FE60C5F8000815
:101AF000217C2068009A02F0CBFC2068416901F447
:101B000080514161206802F09CFE800415D5206858
:101B100002F08EFA206802F05BFEE06000F03EFC0E
:101B20000146227B206802F0C7FE204600F012F931
:101B30002068416901F400514161206802F081FE92
:101B4000000707D5204600F01FF92068416901F021
:101B500008014161206802F074FEC00208D500212E
:101B6000204600F035F82068416901F48011416198
:101B7000206802F066FE800208D50021204600F0B1
:101B80002BF82068416901F400114161206802F0DE
:101B900058FE400007D52046FFF7BCFC206841698D
:101BA00001F080414161206802F04BFE40070AD5F8
:101BB00020684568680702D52046FFF7C2FC206808
:101BC000416829434160BDE8FC9F00000A30544F42
:101BD000D0F8040401F048BFD0F8040401F046BF77
:101BE0002DE9F0418AB0040005D094F8BD032668C1
:101BF000002520B108E001200AB0BDE8F08184F89A
:101C0000BC53204600F064F8032084F8BD03F06B59
:101C1000C00500D42561206802F0A8FB04F1100182
:101C2000282288466846FEF74DFB94E80F0002F034
:101C30000DFA0226C8BB0021206802F014FE002025
:101C400001270EE0C0EBC00104EB810181F83D707B
:101C500001F83C0FC880CD708D60CD60401CC0B2D3
:101C60004D6161688142EDD8002011E0C0EBC001F8
:101C700004EB810181F8FD5181F8FC0181F8FF51ED
:101C8000C1F80452C1F80852401CC0B2C1F8105249
:101C900061688142EAD8282241466846FEF712FB75
:101CA00094E80F0002F0AAFA10B184F8BD63A2E72D
:101CB00084F8385084F8BD73606A012802D1204648
:101CC000FFF7BEFB206802F08BFA002094E70000CB
:101CD00010B586B0044614216846FEF70CFB206858
:101CE000B0F1A04F2FD119480021026842F0010243
:101CF0000260006800F0010005904FF4C0500090B1
:101D00000220CDE90101032003900A2004906946D6
:101D10000F48FFF70FFA0D48001D016841F08001E0
:101D200001600A481430016841F480410160006894
:101D3000002200F48040059011464320FFF74EFB3F
:101D40004320FFF73DFB06B010BD000030380240D5
:101D50000000024070B50446C068012570B1022839
:101D600001D0FEF722FE2946D4F8040401F0D4FE87
:101D7000D4F80404BDE8704001F08FBE0025F2E7FE
:101D8000D0F8040401F0B2BED0F8040401F0B8BEEB
:101D900010B5044690F8BC0301280BD0012084F84C
:101DA000BC0384F83810206802F074FD002084F829
:101DB000BC0310BD022010BDD0F8042400F57171E1
:101DC000104601F0B5BE10B50446006894F8BC1387
:101DD000012906D0012184F8BC13A16A012902D08F
:101DE00008E0022010BDA169012903D0816B41F4F4
:101DF00080318163206802F0C3FC206802F0E2F9C0
:101E0000002084F8BC0310BD10B50446D0F80404CB
:101E100001F0D0FE2068D0F8001E41F00101C0F8AA
:101E2000001E206A002804D00248016841F0060123
:101E3000016010BD10ED00E02DE9F84F04460026CA
:101E40000078F84D3746C00708D02868A16B20F00D
:101E5000C06008432860A06B00B901262078800785
:101E600008D52868E16B20F0C05008432860E06B7B
:101E700000B90126207840070ED52868216B20F490
:101E8000401008432860206BB0F5801F01D010B1CE
:101E900002E0012600E00127207800070ED528681F
:101EA000616B20F4400008432860606BB0F5800F40
:101EB00001D010B102E0012600E0012720784FF0A8
:101EC000000A80064FF0010B63D5D6484C380168F4
:101ED00041F0805101600068DFF84C9300F08050C1
:101EE0000090D9F8001041F48071C9F80010FFF794
:101EF00007FA804606E000BFFFF702FAA0EB0800F1
:101F000002286FD8D9F80000C005F5D5DFF8148392
:101F1000A8F11C08D8F8000010F4407024D0B4F8E0
:101F2000401001F4407181421ED0D8F80010BF4A21
:101F300021F44071C2F800B0C2F800A0C8F8001047
:101F4000D8F80000C0070FD0FFF7DAF9814607E0A4
:101F5000FFF7D6F9A0EB090141F288308142D0D8D1
:101F6000D8F800008007F3D5216CAE48C1F30122F8
:101F70008438032A37D0016821F4F811C0F8001022
:101F8000D8F80010B4F84020C2F30B021143C8F88F
:101F900000102078C00604D5A54894F85810C0F861
:101FA000E01120780106A34805D50168E26C21F410
:101FB0004001114301602178490605D50168A26CF2
:101FC00021F08061114301602188C90514D50168A1
:101FD000626D21F0006111430160616DB1F1006F2C
:101FE00009D009E01DE10268934B22F4F812194070
:101FF0000A430260C4E701272188890505D50168E5
:10200000626C21F08051114301602188DFF82C922D
:10201000490509D50168226D21F000511143016085
:10202000206DB0F1005F04D01EB92068B0F5006FDC
:102030007ED18349C1F868A0FFF762F9794E8046E6
:102040008C3E05E0FFF75CF9A0EB0800022886D87B
:1020500030680001F6D421687A48CA0701D0A26B23
:102060001AB1890717D5E16BA9B901680268C1F3F4
:102070000141491CD4E9013C43EA8C1321F0004C96
:10208000C2F3036209EB0C4141EA02610B43217D7B
:1020900043EA0171016021684A0703D5226BB2F55A
:1020A000801F05D0090721D5616BB1F5800F1DD1C7
:1020B00001680268C1F30141491CD4E9013C43EACB
:1020C0008C1321F0004C09EB0C4194F810C0C2F3C2
:1020D000027241EA0C610B4343EA02710160296814
:1020E000A26A21F01F01521E11432960218849056F
:1020F0001AD5216DB1F1005F16D101680268C1F3F4
:102100000141491CD4E9013C43EA8C13D4F80CC0CA
:10211000C2F302724FEA5C0809EB084C4CEA4161D9
:102120000B4343EA027101602188090511D500E0E3
:102130001FE0D4E9011241EA8211E268530809EB79
:102140000342237C42EA03621143227D41EA027189
:1021500001603B49C1F868B0FFF7D2F8804605E05E
:10216000FFF7CEF8A0EB0800022874D83068000111
:10217000F6D5EFB3DFF8C880C8F870A0FFF7C0F855
:10218000304E0746843E04E0FFF7BAF8C01B022831
:1021900061D83068C0438000F6D521682A484A07D4
:1021A00001D5226B1AB109071DD5616BD9B9016838
:1021B000D4E90623C1F30141491C42EA831221F00C
:1021C000004309EB034194F8243041EA03610A43D8
:1021D00002602968E26A6FF0FF0321F4F85103EB13
:1021E0000222114329602188C90514D5616D00E0E0
:1021F00038E0B1F1006F0ED10168D4E9062342EA5C
:102200008312236AC1F303615C0809EB044343EAC8
:1022100001610A430260C8F870B0FFF771F8044624
:102220001CE018E08C38024000700040400E47422D
:102230000010474294380240FFFCFF0F0000FFFFF0
:10224000000047428438024088380240FFF758F8BF
:10225000001B022802D90320BDE8F88F3068C04374
:102260008000F3D40020F7E72DE9F0470E46050083
:1022700065D0DFF81481D8F80000F7B200F00F0045
:10228000B04207D288F80070D8F8000000F00F00C4
:10229000B04254D128683D4C810712D5400703D580
:1022A000206840F4E05020602878000703D52068BB
:1022B00040F4604020602068A96820F0F0000843E6
:1022C00020602878C0072DD0304968680839012877
:1022D00012D0022813D0032811D0096889070029D9
:1022E0002DDA216821F0030101432160FFF708F88E
:1022F000814641F2883A0EE009688903EFE70968F0
:102300008901ECE7FEF7FCFFA0EB0901514502D97A
:102310000320BDE8F0872068696800F00C00B0EB8E
:10232000810FEFD1D8F80010404601F00F01B14203
:1023300007D90770006800F00F00B04201D00120FB
:10234000E7E72878400705D52068E96820F4E050E1
:10235000084320602878000706D52068296920F402
:10236000604040EAC100206000F01EF82168084A81
:10237000C1F30311515CC840064908600648006873
:10238000FEF7E6FF0020C4E7003C024008380240A8
:10239000E0560008200000201800002001480068D6
:1023A0007047000020000020224810B5006810F09F
:1023B0000C02214815D02149042A11D01D4C241F9C
:1023C000082A0FD00C2A0CD12268236802F03F02A1
:1023D0005B0221D52068C0F38810A0FB010120E03A
:1023E000084610BD2268236802F03F025B0205D553
:1023F0002068C0F38810A0FB010104E02168C1F34C
:102400008811A1FB00010023FDF7FAFE2168C1F34A
:102410000141491C49000AE02168C1F38811A1FB70
:1024200000010023FDF7ECFE2168C1F30271B0FB4F
:10243000F1F010BD083802400024F400001BB70082
:102440002DE9F84F0546DFF828B30078ABF1040713
:10245000C007A7F1040451D0DBF800105846C1F3BF
:10246000810101290FD00168C1F38101022902D144
:102470003968490207D40068C0F38100032809D1F4
:102480003868400206D52068800337D56868002880
:1024900072D033E06868B0F5803F10D0B0F5A02F5F
:1024A000206810D020F480302060206820F4802044
:1024B00020606868A8B1FEF723FF06460DE020689B
:1024C00040F48030F4E740F480202060F7E700BF5C
:1024D000FEF716FF801B642878D820688003F7D5A4
:1024E0000CE0FEF70DFF064605E000BFFEF708FF13
:1024F000801B6428F0D820688003F7D42878DFF8A0
:10250000749280074FF0000A46D5DBF80010584659
:1025100011F00C0F0FD00168C1F38101022902D123
:102520003968490207D50068C0F38100032809D142
:102530003868400206D42068800715D5E86801286D
:102540001AD111E0E868C0B10120C9F80000FEF717
:10255000D7FE064605E000BFFEF7D2FE801B02282C
:10256000BAD820688007F7D52068296920F0F800DC
:1025700040EAC10020600FE0F7E0C9F800A0FEF7D4
:10258000BFFE064605E000BFFEF7BAFE801B02282C
:102590001CD820688007F7D42878000727D5DFF8F3
:1025A000D0817548696908F16C0881B10121016029
:1025B000FEF7A6FE064604E0FEF7A2FE801B0228F8
:1025C00004D8D8F800008007F6D510E089E0C0F8FC
:1025D00000A0FEF795FE064605E000BFFEF790FE60
:1025E000801B02287DD8D8F800008007F6D4287810
:1025F000400769D55E484FF0000838300068C000D9
:102600000BD45B483830016841F0805101600068AC
:102610004FF0010800F080500090584E3068C0051F
:1026200011D4306840F480703060FEF769FE00908D
:1026300006E000BFFEF764FE0099401A022850D859
:102640003068C005F6D54A4EA868683601280FD014
:102650000528306810D020F001003060306820F08C
:1026600004003060A868B8B1FEF74AFE00900FE0A1
:10267000306840F00100F4E740F004003060F7E714
:10268000FEF73EFE0099411A41F28830814264D83B
:1026900030688007F4D50EE0FEF732FE009007E0C8
:1026A000FEF72EFE0099411A41F28830814254D83B
:1026B00030688007F4D4B8F1000F05D02C483830CA
:1026C000016821F080510160A869A8B3DBF800100F
:1026D000C1F38101022948D00228C9F860A005D0C1
:1026E00000E03AE0FEF70CFE054639E0FEF708FE92
:1026F000064604E0FEF704FE801B02282DD8206861
:102700008001F7D4F5E907010843E9681C4A490844
:1027100002EB0141AA6841EA82110843297C40EAA0
:102720000160297D40EA017038600120C9F860002D
:10273000FEF7E6FD054606E015E000BFFEF7E0FD0A
:10274000401B022809D820688001F7D50BE000BFA4
:10275000FEF7D6FD401B022802D90320BDE8F88F02
:1027600020688001F4D40020F8E70120F6E700009B
:102770000838024000004742800E47420070004087
:102780000000FFFF10B5401EB0F1807F01D3012093
:1027900010BD4FF0E02460610F21601702F028F9AE
:1027A0000020A06107202061002010BD7047704705
:1027B00070B590F83C20012A32D0012480F83C40CA
:1027C000022280F83D2003685A689D6822F0700656
:1027D0000A6832435A60134B02689A4214D0B2F12D
:1027E000804F11D0104B9A420ED0104B9A420BD012
:1027F0000F4B9A4208D00F4B9A4205D00E4B9A428B
:1028000002D00E4B9A4204D1496825F08003194347
:10281000916080F83D40002180F83C10084670BD72
:10282000022070BD0000014000040040000800408C
:10283000000C00400004014000400140001800402E
:1028400010B5040003D094F83D0010B107E001205A
:1028500010BD002084F83C00204600F00DF8022056
:1028600084F83D00211D206800F05CFC012084F804
:102870003D00002010BD000008B50068B0F1804F99
:1028800012D10A48016841F001010160006800228C
:1028900000F00100009011461C20FEF79FFDBDE8EE
:1028A00008401C20FEF78CBD08BD000040380240E7
:1028B0000168CA6842F00102CA600068816801F0DC
:1028C0000701062903D0016841F0010101600020E1
:1028D000704770B5044690F83C00012817D00125D8
:1028E00084F83C50022084F83D002068826822F081
:1028F000770222F47F4282600868502830D00DDCD5
:1029000020284DD005DC98B310283BD148E00220A8
:1029100070BD302844D0402834D139E0602828D018
:10292000702806D0B0F5805F2CD0B0F5005F29D1BB
:102930000AE0CB68D1E90121206800F057FC20684B
:10294000816841F0770109E0CB68D1E90121206875
:1029500000F04CFC2068816841F48041816011E006
:10296000CA684968206800F053FC5021206807E0DD
:1029700016E0CA684968206800F05BFC60212068A6
:1029800000F03EFC84F83D50002084F83C0070BD0F
:10299000CA684968206800F03BFC40212068EFE7E6
:1029A000226801461046EBE7704770B504460068A0
:1029B00001694FF00005C943890715D4C168C943AF
:1029C000890711D4E91E0161012020772068806900
:1029D0008007204602D0FFF7E7FF04E000F098F8F8
:1029E000204600F096F8257720680169C943490719
:1029F00017D4C168C943490713D46FF004010161BA
:102A0000022020772068806910F4407F204602D0A1
:102A1000FFF7CAFF04E000F07BF8204600F079F8E9
:102A2000257720680169C943090716D4C168C943DD
:102A3000090712D46FF00801016104202077206893
:102A4000C0698007204602D0FFF7AEFF04E000F027
:102A50005FF8204600F05DF8257720680169C943DA
:102A6000C90617D4C168C943C90613D46FF0100151
:102A70000161082020772068C06910F4407F20465B
:102A800002D0FFF791FF04E000F042F8204600F08A
:102A900040F8257720680169C943C90708D1C16892
:102AA000C943C90704D1891E0161204600F032F8EC
:102AB00020680169C943090609D4C168C9430906E8
:102AC00005D46FF0800101612046FFF76FFE20689A
:102AD0000169C943490609D4C168C943490605D4F7
:102AE0006FF040010161204600F015F8206801698F
:102AF000C94389060BD4C168C943890607D46FF05E
:102B0000200101612046BDE87040FFF750BE70BD56
:102B10007047704770477047FEE70000F0B500232C
:102B20000A24302537261F4611E000BFB4EB107F82
:102B300002D905EB107C01E006EB107C01F813C014
:102B400001EB430C00015B1C8CF80170DBB293427B
:102B5000ECD3F0BD00B58BB001210020CDE906011A
:102B6000089100901421CDE9040101900290039096
:102B70001020099069460848FDF79AFF0648FEF7BD
:102B800093FA13210448FDF712FF002801D0FDF746
:102B90000CFF0BB000BD000020020020104810B553
:102BA0000E4901600321416000214FF480228160C1
:102BB000C0E903124FF440124261017601224276CD
:102BC0008176C17601774177FEF76BF9002803D053
:102BD000BDE81040FDF7E9BE10BD000000680040F0
:102BE000200200202DE9F04F87B014216846FDF740
:102BF00082FB3C480024016841F004010160016847
:102C000001F004010591016841F080010160016853
:102C100001F080010591016841F002010160016845
:102C200001F002010591016841F0010101600168B4
:102C300001F001010591016841F00801016000689F
:102C4000DFF8A4B000F0080046F21105059000225C
:102C500029465846FEF74EFB01260095CDE9016452
:102C6000694658460394FEF765FA30024FF0120A9F
:102C70000325CDE9000ADFF87480CDE90265042759
:102C8000694604974046FEF755FAF003CDE9000483
:102C9000694640460294FEF74DFA30034FF00208B1
:102CA000CDE9000802AA4FF0080982E8300269461F
:102CB0005846FEF73FFA02AA694682E83002CDE99B
:102CC00000780B48FEF736FA1020CDE9000ACDE96E
:102CD0000265694604970748FEF72CFA07B0BDE87D
:102CE000F08F00003038024000080240000002402F
:102CF000000C02400004024010B586B000241648C3
:102D0000009401940294039404944FF0804105943C
:102D1000016041F61F41C0E901142821C0E90314F4
:102D20008461FFF78DFD08B1FDF73FFE4FF4805041
:102D3000009069460848FFF7CCFD08B1FDF735FE65
:102D4000049404A904480594FFF732FD002801D03B
:102D5000FDF72BFE06B010BD4802002010B5002282
:102D60000F49104800F075FD08B1FDF71EFE0E4931
:102D70000C4800F047FF08B1FDF717FE0B49094862
:102D800000F063FB08B1FDF710FE064800F0B4FF49
:102D9000002803D0BDE81040FDF707BE10BD0000BD
:102DA00024000020880200207401002084000020FC
:102DB000FEE7000070B5044608880D46164640BA86
:102DC0001021DFED170A9FED170A02F075FC84ED64
:102DD000010A6888102140BAF3EE0E0ABBEE0E0A13
:102DE00002F06AFC84ED020AA888102140BAF2EED3
:102DF000080ABAEE080A02F05FFC84ED030AE888CC
:102E000040BAFDF7F5FA9FED081B53EC112BFDF7C7
:102E10007DFAFDF70DFB2061C6F30440A07670BD7E
:102E200000003444000034C49A9999999999B93FA3
:102E3000FEE700000148FEF793BC00005817002091
:102E40002DE9F04103680D4604461E6C03EB451165
:102E5000D1F8080BD4F810E04FF400474FF0200CE5
:102E600004F57172BEF1010F09D0DFF898E07645E4
:102E700039D1020432D500BFC1F8087B3FE0224BB4
:102E80005FEA007E04D59E4239D90004F4D436E0CE
:102E90005FEA806E02D5C1F808CB30E010F0280F51
:102EA0002DD19E4201D90004E6D4C5EBC50004EB48
:102EB0008000D1F8101BD0F80432C1F31201591A66
:102EC000C0F81412D0F808121944C0F8081295B9C5
:102ED000D4F8100278B9012120680AE080060AD5EA
:102EE000C1F808CB07E035B9D4F8100218B90021B1
:102EF000184601F0CDFAE9B22046FEF718FB002093
:102F0000BDE8F0810A31544F0A30544F2DE9F84F93
:102F10000E46C1EBC60100EB810481460568D4E989
:102F200014103C34884202D90120BDE8F88F081AF9
:102F3000A168814200D20846C01C870805EB4618EC
:102F40001BE000BFA0EB010AA068504500D28246FA
:102F50000AF10300870899F8100000901FFA8AF31D
:102F6000F2B22846E16801F01BFDE16801EB0A00BE
:102F7000E060A16901EB0A00A061D8F8180980B2ED
:102F8000B84205D3D4E90501814201D20028D9D144
:102F9000D4E90501884208D806F00F0101208840D5
:102FA000D5F834188143C5F834180020BDE77047C0
:102FB00070470178407841EA002070471CB50078DE
:102FC0001C4B40F0905058608DF80010080A8DF8A6
:102FD000010000208DF802008DF80300662A02D05F
:102FE000732A13D01EE010EE100A1349020E030CD0
:102FF0000A704B70040A8C70C8708DF804008DF84C
:1030000005408DF806308DF807200BE0BCEEC00AB5
:1030100010EE101A8DF804108DF805008DF80600DA
:103020008DF80700044B6A46083B02490348FDF748
:10303000D0FC1CBDD0010020080000202002002090
:10304000FEF764B930B5ABB0342117A8FDF753F9DA
:10305000142124A8FDF74FF95C216846FDF74BF9D0
:1030600024480025016841F080510160006800F0AB
:10307000805029902048016821F4404141F480416A
:1030800001600068022400F440402990012017905C
:10309000000418908001CDE91D4006201F90782083
:1030A000CDE920040520CDE9220417A8FFF7C8F9CF
:1030B00008B172B6FEE724A90F2081E831004FF471
:1030C000A05027904FF480502890032124A8FFF7A8
:1030D000CBF808B172B6FEE74FF4807000901595FA
:1030E0006846FEF7A9FE002801D072B6FEE72BB0B5
:1030F00030BD0000403802400070004005480168C3
:1031000041F47001016003494FF0006080390860AC
:103110007047000088ED00E00148FFF746BC000062
:1031200048020020F0B50268254C264D264E274F58
:10313000274B4FF0804CA04209D0604507D0A842F1
:1031400005D0B04203D0B84201D0984204D122F059
:10315000700E4A6842EA0E02A0421BD0604519D0A8
:10316000A84217D0B04215D0B84213D0984211D01F
:10317000184DA8420ED0184DA8420BD0174DA842AA
:1031800008D0174DA84205D0164DA84202D0164DC2
:10319000A84203D122F44075CA682A434D6922F03F
:1031A00080022A4302608A68C2620A688262A04280
:1031B00001D0984201D10969016301214161F0BD4B
:1031C000000001400004004000080040000C0040E6
:1031D000000401400040014000440140004801401B
:1031E00000180040001C00400020004010B584681A
:1031F00042EA032224F47F440A432243826010BD42
:10320000826822F070020A4342F007018160704731
:1032100010B5036A046A24F001040462846924F08E
:10322000F00444EA021423F00A020A4384610262B1
:1032300010BD10B5036A23F0100303628369046AAA
:1032400023F4704343EA023224F0A00343EA01115D
:103250008261016210BD2DE9F0410C46D0F8C43204
:10326000D0F8BC12F9B104EB840200EB8202002614
:1032700095694DB1C4EBC40703EB87035B6CB5FBE9
:10328000F3F703FB175383B1C1F81462D0F8C002FF
:10329000D1F8085222460369284601F5047198477F
:1032A0000020BDE8F0810320FBE7002396611A4669
:1032B000214600F088FCF3E770B5D0F8BC42054623
:1032C0006CB100F08CFBC4F80C02D5F8C012D4F835
:1032D0000402CA6804F503719047002070BD032002
:1032E00070BD70B504460026812100F0D5FA002596
:1032F00025870121204600F0CFFAA4F878518221D9
:10330000204600F0C9FAA4F84C50A4F84E50D4F866
:10331000BC0248B1D4F8C00204F52F74406880475D
:10332000206801F0CFFF2560304670BD10B5D0E9B0
:10333000AF4159B194F80002FF2807D08B6894F888
:10334000012221469847FF2084F80002002010BD8A
:103350000A210180004870479C0000204321018021
:1033600000487047EC00002043210180004870476E
:10337000A800002043210180004870473001002050
:103380002DE9F04704464FF4077002F03FF90500BD
:103390004FF0000735D0C4F8BC52207C4FF0100825
:1033A0004FF40079012680B3402302228121204678
:1033B00000F05EFB2687402302220121204600F018
:1033C00057FBA4F87861A4F84E80082303228221D9
:1033D000204600F04DFBA4F84C60D4F8C002006811
:1033E0008047C5F81472C5F81872207CD5F80422FD
:1033F000A8B140230121204600F046FB0020BDE893
:10340000F0870220C4F8BC72F9E7FFE74B460222BE
:103410008121204600F02CFB26874B46CCE74B460B
:10342000E8E710B5D0F8BC1251B1027C002AD1F8FF
:10343000042207D04023012100F026FB002010BD0C
:10344000032010BD4FF40073F5E719B1C0F8C012A6
:103450000020704703207047D0F8BC02C0F8041267
:1034600000207047D0F8BC02C0F81022C0F8081243
:10347000002070472DE9FC410546D0F8BC720020C1
:103480008DF80000ADF80400064608780C4610F0F0
:10349000600121D020293DD1E288AAB100066078E0
:1034A00007D5D5F8C0128B6839469847E288394667
:1034B00028E087F80002A07987F80102E2883946FF
:1034C000284600F06DF82AE0D5F8C0126078002296
:1034D0008B682146984722E0607830B101281ED0E1
:1034E0000A2809D00B2815D110E095F89C02032872
:1034F00010D1022201A905E095F89C02032809D108
:1035000001226946284600F065F808E095F89C021B
:10351000032804D02146284600F037F80326304619
:10352000BDE8FC8110B5D0F8BC12012219B1D1F868
:10353000143213B10FE0032010BD0122C1F8142290
:10354000D1F81022C262D1F81032D1F808228121BC
:1035500000F039FB0022104610BD10B5D0F8B8229B
:103560000AB152689047002010BD134610B50A46B4
:10357000002100F089FA002010BD134610B50A465C
:10358000002100F020FB002010BD10B50446802172
:1035900000F0FEFA2046BDE81040002100F0F8BA25
:1035A00010B50323C0F85821C0F89432C0F85C214C
:1035B00013460A46002100F067FA002010BD10B53E
:1035C00005210023C0F894121A46194600F05CFA4F
:1035D000002010BD10B502238261C0F89432C26190
:1035E00013460A46002100F0EEFA002010BD10B587
:1035F00004210023C0F894121A46194600F0E3FA99
:10360000002010BD10B50A46024903A000F0F1F8F1
:10361000004810BD5805002043444320436F6E66A8
:1036200069670000122008800048704748000020A9
:1036300010B50A46024903A000F0DBF8004810BDAF
:103640005805002043444320496E746572666163E7
:1036500065000000042008800048704744000020F6
:1036600010B50A46024903A000F0C3F8004810BD97
:103670005805002053544D6963726F656C6563741F
:10368000726F6E696373000010B50A46024903A0A9
:1036900000F0AFF8004810BD5805002053544D33DA
:1036A00032205669727475616C20436F6D506F7271
:1036B0007400000010B51A2008800A480168001D37
:1036C0000468001D0068081809D008220649FFF7A1
:1036D00025FA0549042210312046FFF71FFA024857
:1036E000801E10BD107AFF1F6A0000200C20088089
:1036F000004870475C000020F8B504460020ADF893
:10370000000048880D46010A062947D006DC012939
:103710000FD0022912D0032962D11DE0072946D01B
:103720000F295DD1D4F8B402C26920E06946904700
:103730003BE0D4F8B412207C0A68F7E7207C02262C
:103740000028D4F8B80205D0C16A68468847014607
:10375000467036E0816AF8E7C0B2062840D2DFE85A
:1037600000F003090D111519D4F8B4024268B2B380
:10377000207CDBE7D4F8B4028268F8E7D4F8B4021E
:10378000C268F4E7D4F8B4020269F0E7D4F8B402EE
:103790004269ECE7D4F8B4028269E8E7207CF0B92A
:1037A000D4F8B802416B68468847014609E0207C9E
:1037B000A8B9D4F8B802016B6846884701460720CB
:1037C0004870EA888AB1BDF8000040B1824200D951
:1037D0000246ADF800202046FFF7FCFEF8BDFFE7EB
:1037E00029462046FFF7D1FEF8E72046FFF7FFFE07
:1037F000F4E770B5002300281ED00025044602E03F
:103800006D1CEDB2641C2678002EF9D1022404EB65
:10381000450414801278CA545B1C0322CA54002445
:103820005B1C06E0CA545B1CDAB28C54521CD3B247
:10383000401C0278002AF5D170BD01004FF0000055
:1038400004D0012901D0022901D0032070470120B2
:10385000704730B4A0B1D0F8B84200230CB1C0F822
:10386000B832D0F8CC420CB1C0F8CC3209B1C0F8B3
:10387000B412012180F89C12027030BC00F0B4B880
:1038800030BC0320704710B5D0F8C402FDF783FEAA
:10389000BDE81040FFF7D1BF10B5D0F8C402FDF766
:1038A00054FEBDE81040FFF7C8BF70B51646044689
:1038B00049B1D4F8B80242691AB194F89C020328BD
:1038C00042D0032070BDD4F89412002504F11400F6
:1038D000022932D1D0E902318B4206D95A1A8260CC
:1038E00031462046FFF749FE0FE0994214D1406867
:1038F000884211D3D4F8981288420DD20022114682
:103900002046FFF73AFEC4F8985200231A4619469B
:10391000204600F0B9F810E0D4F8B802C16829B127
:1039200094F89C02032801D1204688478021204634
:1039300000F02EF92046FFF742FE94F8A00201287D
:1039400006D184F8A05203E0204690470028B9D160
:10395000002070BD10B51346044649B1D4F8B80232
:1039600082691AB194F89C02032824D0032010BD68
:10397000D4F8941204F5AA70032920D1D0E90212D8
:1039800091420AD98A1A8260C068824200D30246F4
:1039900019462046FFF7E9FD11E0D4F8B8020169A5
:1039A00029B194F89C02032801D12046884720467B
:1039B000FFF71DFE03E0204690470028D7D10020E6
:1039C00010BD0020704710B5012180F89C12D0F87E
:1039D000B82212B1526801799047002010BDD0F88A
:1039E000C402FDF706BE000010B5017839BB1549C9
:1039F0000222C1F80404C0F8C4124FF0A0400860CD
:103A0000062048600020C1E90320C1E906200862C1
:103A10004862C86208630846FEF7E2F808B1FCF79E
:103A2000C4FF80210748FDF74FFD402200210548D3
:103A3000FDF74EFD802201210248FDF749FD0020DF
:103A400010BD0000581700200A0601F07F01D0F8D1
:103A5000C402C1EBC10100EB810002D590F83E0029
:103A6000704790F8FE0170470020704700207047B3
:103A700010B51C461346D0F8C4022246FDF7C2FD1D
:103A8000BDE81040FFF7D9BE10B5D0F8C402FDF76D
:103A9000E9FDBDE81040FFF7D0BE70B50125044632
:103AA00080F89C520020C4F894026060C4F8A4021C
:103AB000D4F8BC0228B1D4F8B802002142682046EC
:103AC00090470022402311462046FFF7D1FF4026B1
:103AD000A4F864513346002280212046C4F8606176
:103AE000FFF7C6FFA5840020266270BD90F89C12E7
:103AF000042903D190F89D1280F89C120020704791
:103B000010B590F89C12032904D1D0F8B812C969F5
:103B100001B18847002010BD01740020704710B526
:103B2000D0F8C402FEF734F9BDE81040FFF785BEB7
:103B300070B5044600F2AA20054600F04DF80120B9
:103B4000C4F89402B4F8B002C4F8980294F8AA0237
:103B500010F01F010AD001290ED0022912D000F066
:103B600080012046BDE8704000F012B8294620468A
:103B7000BDE8704000F0C2B829462046BDE870405C
:103B800000F0ECB929462046BDE8704000F040B98D
:103B900010B5D0F8C402FDF789FDBDE81040FFF76D
:103BA0004CBE10B5D0F8C402FEF70DF9BDE81040C8
:103BB000FFF743BE90F89C1280F89D12042180F814
:103BC0009C120020704710B5D0F8C402FDF7A8FD84
:103BD000BDE81040FFF731BE70B5054611F8010B86
:103BE0002870087868704C1C2046FFF7E2F968805E
:103BF000A41C2046FFF7DDF9A880A01CFFF7D9F927
:103C0000E88070BD38B504460020ADF8000041B131
:103C1000C4F8B812896A68468847C4F8CC02002004
:103C200038BD032038BD02460320D2F8B832002B3D
:103C300002D01B6810461847704700002DE9F0417C
:103C40000F462C4E8978002504463170012906D98B
:103C500039462046FFF799FC0320BDE8F08194F82F
:103C60009C0202280CD003281DD039462046FFF7BD
:103C70008CFC31782046FFF770FC03252846ECE7E2
:103C800099B320466160FFF7CEFF050004D03946A6
:103C90002046FFF77AFCF1E72046FFF7A8FC032057
:103CA00084F89C02EAE74FF00208C1B160688842DC
:103CB0001BD0C1B22046FFF750FC3178204661602E
:103CC000FFF7B1FF050010D039462046FFF75DFC35
:103CD00021792046FFF741FC84F89C82CEE784F8E6
:103CE0009C8220466160FFF738FC2046FFF77FFC8E
:103CF000C4E7000098000020FFF753BF2DE9F04112
:103D00000A78002512F0600208D0202A01D0402A4B
:103D100071D1D0F8B8229268904731E04B780022F8
:103D200001260A2B67D2DFE803F0415E6658660879
:103D300005662D29FFF7E0FC5FE004468888D8B9C6
:103D4000C888C8B94888802816D200F07F0794F840
:103D50009C02032810D084F89E7239462046FFF753
:103D6000DEFE2046FFF743FC1FB1022084F89C02D0
:103D700043E084F89C6240E020463CE0FFF75EFFB1
:103D800005463AE0CB88012B35D190F89C32012BC7
:103D900004D0022B02D0032B2DD104E0826001223B
:103DA00000F1080116E00122011D13E090F89C22A9
:103DB000012A03D0022A01D0032A1CD1CA88022A70
:103DC00019D1C660D0F8A41209B10321C160022242
:103DD00000F10C01FFF7FEFB0FE0498801290CD12F
:103DE000C0F8A46211E090F89C32012B08D0022B9D
:103DF00006D0032B04D0FFF7C8FB2846BDE8F081AE
:103E000049880129F9D1C0F8A422FFF7F0FBF4E7B3
:103E10002DE9F0410D46044628780027097910F075
:103E200060000BD0202801D0402873D1D4F8B8020C
:103E3000294682682046904707468CE06878D8B3C8
:103E4000012822D0032865D194F89C02022802D0D0
:103E500003287CD10BE0002979D0802977D0204637
:103E6000FFF796FE80212046FFF792FE73E06888F8
:103E700038B931B1802904D0E88810B92046FFF75D
:103E800087FE2046FFF7B3FB65E094F89C0202280A
:103E9000E1D003285BD16888D8BB480602D0204611
:103EA000FFF7F1FC2046FFF7A2FBD4F8B802294641
:103EB0008268204690474EE0FFE794F89C02002677
:103EC000022802D0032842D111E009B180293ED155
:103ED000080601F07F0000EB800004EB800101D5B3
:103EE000143101E001F5AA7102220E602BE00806F0
:103EF00001F00F0000EB800004EB80000BD5808CFC
:103F000040B101F07F0000EB800004EB8005143528
:103F10000CE020E01BE0B0F86401C0B101F07F00CC
:103F200000EB800004EB800505F5AA7541B18029FE
:103F300006D02046FFF788FD10B10120286000E080
:103F40002E60022229462046FFF744FB03E0294663
:103F50002046FFF71AFB3846BDE8F08170B50646EB
:103F6000087800240D4610F0600003D0202801D00E
:103F7000402817D196F89C02012803D0022801D0CE
:103F800003280FD1287901280CD8D6F8B802826806
:103F9000304690470446E888204306D13046FFF774
:103FA00026FB02E03046FFF7F0FA204670BD000025
:103FB00070B50A78012302F00F054E78AB401B4C18
:103FC000D0F81C58012E17D045EA0343C0F81C381E
:103FD00000EB4210D0F8002B12040BD4D0F8002BC9
:103FE0000B89C978C3F30A031A4344EA81410A439F
:103FF000C0F8002B002070BD9BB21D43C0F81C58B8
:1040000000EB4210D0F800391B04F3D4D0F800398B
:104010000D89C978C5F30A0589042B4341EA825109
:104020000B432343C0F80039E4E700000080001090
:10403000D0F800196FF30A01C0F80019D0F804187D
:1040400041F48071C0F804180020704770B5044630
:1040500006990A9E049D0D98012916D0E06840F04B
:104060004000E060204600F02BF8A16B1EB321F465
:104070008031A163012D07D1A16841F00601A16043
:10408000A16841F02001A16070BDA16B21F48031D5
:10409000A163E168094A1140E160E16821F440113F
:1040A000E160012803D1E06840F48010E060204620
:1040B00000F006F8DEE741F48031DAE7BFFFBDFF2C
:1040C00001220C4902E0521C8A420BD80369002BE2
:1040D000F9DA026942F001020261012204E0521C95
:1040E0008A4201D9032070470369DB07F7D100201A
:1040F00070470000400D030030B54C780A7801236A
:1041000000EB4212012C2CD0D2F8004B002C0BDA21
:10411000D2F8004B44F00064C2F8004BD2F8004BD8
:1041200044F08044C2F8004BD0F83C580C7804F0BE
:104130000F0403FA04F425EA0444C0F83C48D0F81C
:104140001C48097801F00F018B4024EA0341C0F8B4
:104150001C18D2F8000B19490840C2F8000B0020C7
:1041600030BDD2F80049002C0BDAD2F8004944F0F7
:104170000064C2F80049D2F8004944F08044C2F813
:104180000049D0F83C480D7805F00F0503FA05F515
:10419000ADB2AC43C0F83C48D0F81C48097801F0F7
:1041A0000F018B4099B28C43C0F81C48D2F800092B
:1041B00003490840C2F80009D1E700000078F3EF96
:1041C000007833ECD0F8001E21F00301C0F8001E87
:1041D000D0F8041821F00201C0F80418002070473C
:1041E000D0F8001E21F00301C0F8001ED0F804181A
:1041F00041F00201C0F80418002070472DE9F04F8B
:1042000000250E460446DDF82CC0DDF824B0109FD2
:104210002846294604EB8002C2F80411401C0F28EE
:10422000F8D32046A7B1806B40F40012A263084681
:104230008846C4F8000ED4F800182046C4F80018C8
:10424000BCF1010F17D0D0F8001841F0030117E0BE
:10425000D0F8040840F00202C4F80428A06B20F44F
:104260000012A263206840F040022260206840F003
:1042700080022260DBE7D0F800180BB141F00101A9
:10428000C0F80018102100F091FA00B10125204675
:1042900000F07CFA00B101254046C4F81088C4F84B
:1042A0001488C4F81C8800214FF000694FF0904A30
:1042B0004FF67F3315E000BF04EB4112D2F800C97E
:1042C000BCF1000F06DA11B1C2F800A904E0C4F88D
:1042D000009901E0C2F80009C2F81009C2F80839D3
:1042E000491C8E42E8D8002115E000BF04EB4112C2
:1042F000D2F800CBBCF1000F06DA11B1C2F800AB66
:1043000004E0C4F8009B01E0C2F8000BC2F8100BF7
:10431000C2F8083B491C8E42E8D8D4F8101821F4A2
:104320008072C4F81028A0616FF080406061BBF11A
:10433000000F03D1A06940F01000A061A0690949F5
:104340000843A0610C9818B1A06940F00800A06172
:10435000012F03D1A06904490843A0612846BDE8A4
:10436000F08F000000383C8004000040816821F09C
:10437000010181600020704770B50D784E78434C84
:10438000EBB200EB4313012E1FD0D3F8100B6FF3E9
:104390001200C3F8100BD3F8100B2040C3F8100B19
:1043A000486908B188684861D3F8100B40F40020D0
:1043B000C3F8100BD3F8100B8C68C4F3120420431D
:1043C000C3F8100B012A55D058E04E69002ED3F8DF
:1043D000106932D06FF31206C3F81069D3F8106970
:1043E0002640C3F810694E698C68A64200D94C611A
:1043F000D3F8104944F40024C3F81049D3F8104905
:104400004E69C6F312063443C3F81049012A22D07C
:1044100000EB4512D2F8003943F00443C2F80039EA
:104420004A6932B3D0F83428097801F00F0301212A
:1044300099400A43C0F8342826E02640C3F81069A2
:10444000D3F8104944F40024C3F81049D3F81049B4
:104450006FF31204D8E7096919B100EB4512C2F8ED
:10446000141900EB4510D0F8001941F00441C0F8D0
:10447000001909E0C86808B1C3F8140BD3F8000BA1
:1044800040F00440C3F8000B002070BDFFFF07E0C0
:1044900010B5036C134CA34203D9D0F8003B002B9A
:1044A0001EDB0023C0F8103BD0F8103B43F4002380
:1044B000C0F8103BD0F8103B43F01803C0F8103B95
:1044C000D0F8103B43F0C043C0F8103B012907D19E
:1044D000C0F8142BD0F8001B41F08021C0F8001B5D
:1044E000002010BD0A30544F4A780B78012A00EBA7
:1044F00043100BD0D0F8002B22F40012C0F8002B90
:10450000C978032914D0022912D017E0D0F8002965
:1045100022F40012C0F80029C978032901D0022929
:104520000CD1D0F8001941F08051C0F8001905E015
:10453000D0F8001B41F08051C0F8001B00207047EC
:104540000A784B78D1B200EB4110012B12D0D0F891
:10455000001B002906DB2AB1D0F8001B21F08041A6
:10456000C0F8001BD0F8001B41F40011C0F8001B7C
:1045700000207047D0F80019002906DB2AB1D0F8D6
:10458000001921F08041C0F80019D0F8001941F459
:104590000011C0F80019EBE7F8B50C784F78774DAB
:1045A000E3B26FF0604600EB4313012F26D0D3F83F
:1045B000104B6FF31204C3F8104BD3F8104B2C4080
:1045C000C3F8104B4C69002C74D08D682C44641EC9
:1045D000B4FBF5F4D3F8105BA4B206EAC446354345
:1045E000C3F8105BD3F8105B8E686643C6F3120401
:1045F0002543C3F8105B012A71D0A6E04F691FB3B1
:10460000D3F810796FF31207C3F81079D3F8107943
:104610002F40C3F810794F698D682F447F1EB7FB78
:10462000F5F506EAC545D3F810693543C3F81059C6
:10463000D3F810594E69C6F312063543C3F8105922
:10464000CD78012D10D01BE0D3F810692E40C3F8AF
:104650001069D3F8105945F40025C3F81059D3F860
:1046600010596FF3120509E0D3F8105925F0C04531
:10467000C3F81059D3F8105945F00055C3F8105934
:10468000012A18D000EB4413D3F8004944F0044445
:10469000C3F80049CC78012C2FD04A6962B3D0F816
:1046A0003428097801F00F03012199400A43C0F82A
:1046B000342860E036E00A691AB100EB4413C3F80D
:1046C0001429C97801290FD1D0F80818C90500EBC1
:1046D0004411D1F8002903D442F0005202E030E046
:1046E00042F08052C1F8002900EB4410D0F80019C4
:1046F00041F00441C0F800193DE0D0F80848E40555
:10470000D3F8004902D444F0005401E044F080544E
:10471000C3F8004900928A8A93B20A78C96800F007
:104720003FF928E0D3F8104B8D68C5F312052C43F0
:10473000C3F8104BD3F8104B44F40024C3F8104BCB
:1047400059E7CA680AB1C3F8142BC97801290CD1FA
:10475000D0F80808C005D3F8000B02D440F0005090
:1047600001E040F08050C3F8000BD3F8000B40F09C
:104770000440C3F8000B0020F8BD0000FFFF07E075
:10478000816841F001018160002070470021102202
:104790000261054A491C914201D90320704703690F
:1047A000DB06F7D400207047400D030000222023D1
:1047B00043EA811101610549521C8A4201D9032053
:1047C000704703699B06F7D400207047400D030033
:1047D000D0F8080810F0060004D0022803D00628FC
:1047E00001D00F20704702207047406900F001009F
:1047F0007047D0F81818D0F81C08084080B27047ED
:10480000D0F81818D0F81C080840000C704710B5F4
:10481000D0F81038D0F8342801F00F0400EB411024
:10482000E24002F00102D0F8080943EAC212104047
:1048300010BD00EB4111D1F8081BD0F81408084056
:1048400070474169806908407047D21C10B59308D1
:10485000002200F5805002E00468521C10C19A4208
:10486000FAD3084610BD10B5C26822F0C042C2603B
:10487000012902D029B1012010BDC16841F00051C9
:1048800002E0C16841F08041C1603220FCF740FC89
:10489000002010BDD0F8002822F4FE62C0F80028E5
:1048A000D0F800284FF4FE6303EA01110A43C0F870
:1048B0000028002070470000022A3ED1264A274BDC
:1048C0000A449A4201D20F2138E0254A254B0A4476
:1048D0009A4201D20E2131E0234A244B0A449A42E3
:1048E00001D20D212AE0224A224B0A449A4201D2E7
:1048F0000C2123E0204A214B0A449A4201D20B2189
:104900001CE01F4A1F4B0A449A4201D20A2115E0BB
:104910001D4A1E4B0A449A420FD31D4A1D4B0A449E
:104920009A4201D2082109E01B4A11441B4A9142D4
:1049300001D2072102E0062100E00921C26822F429
:104940007052C260C2684FF4705303EA81210A4377
:10495000C260002070470000405327FF00350C0064
:10496000401E1BFF40420F0000DC0BFF804F120077
:10497000808CF9FE20D6130060B6E5FE60E31600D9
:1049800000D3CEFE40771B00C05BB3FEC091210078
:1049900000CA91FE20753800E05459FEE09C4100A9
:1049A00010B5029C64B9DB1C9C0800EB02300023AC
:1049B00000F5805002E004C902605B1CA342FAD3F8
:1049C000002010BDFEE700000FB4084B10B504A98D
:1049D00002AA039800F0EEF8044602A9002000F0B5
:1049E0006CFC204610BC5DF814FB0000BB520008B4
:1049F0000907090E002804DB00F1E02080F800140C
:104A0000704700F00F0000F1E02080F8141D70479F
:104A100002E008C8121F08C1002AFAD17047704787
:104A2000002001E001C1121F002AFBD170470000E5
:104A30002DE9FF5F82B00021DDE90430020DDDF8D1
:104A400040B0034318D044F61050A2F2FF32424364
:104A50001514119801281FD0A5EB0B00401C5FEA2C
:104A6000000A4FF000064E4FDFF83891B04650462E
:104A700015D5CAF1000413E0119801244AA30128B6
:104A800001D16FEA0B010298119AC0E90031C0E927
:104A9000024206B0BDE8F09FCBF10000DFE704461C
:104AA0000021404A491842EB0450CDE9001012E0C1
:104AB000E00707D032463B4640464946FBF726FC16
:104AC0008046894632463B4610461946FBF71EFC97
:104AD00006460F466410002CEAD1DDE90401DDE949
:104AE0000023BAF1000F06DAFBF710FC42464B46F2
:104AF000FBF70CFC05E0FBF727FE42464B46FBF7B5
:104B000023FE04460E460022284BFBF7A5FE03D8E1
:104B10004FF0FF30014607E00022254B204631468A
:104B2000FBF76BFDFBF77FFE102409E0002C0ADB8E
:104B30000A220023FBF764FB039B30321A55641EE4
:104B400050EA0102F2D1641C039AC4F11103144427
:104B5000119A012A03D0012208430DD10AE008432B
:104B600004D000204FF0110B119072E7A3EB0B055E
:104B70006D1E0DE05B4504DD4FF0000205F10105FF
:104B800004E003DA4FF00002A5F10105002AECD0A1
:104B900002981199C0E90231C0E9004579E70000A7
:104BA000000014400000F03F300000000000F0431F
:104BB0000000E03F2DE9FF4F95B09A468846064633
:104BC0000025EEE1252877D100242746F94A012166
:104BD000039400E0044316F8013F203B01FA03F080
:104BE0001042F7D130782A2811D06FF02F03307897
:104BF000A0F13002092A16D8039A44F0020402EB0D
:104C0000820203EB42021044761C0390EFE758F84F
:104C1000042B0392002A03DA504244F40054039018
:104C200044F00204761C30782E2816D116F8010FB5
:104C300044F004042A280DD06FF02F023078A0F140
:104C40003003092B09D807EB870302EB4303C7188E
:104C5000761CF3E758F8047B761C30786C280FD06C
:104C600006DC4C2817D068280DD06A2814D104E03F
:104C7000742810D07A280FD10DE044F400140AE013
:104C800044F4801401E044F440147278824202D16A
:104C900004F58014761C761C307866280BD013DC63
:104CA000582877D009DC002875D04528F6D046284A
:104CB000F4D047281AD193E118E0632835D064284E
:104CC00079D0652812D18BE1702873D008DC672871
:104CD000F1D069286FD06E280DD06F2806D1ACE0D6
:104CE00073282CD0752874D0782853D05246179941
:104CF00090476D1C54E1C4F30250022809D00328E8
:104D00000DD0D8F8001004280DD00D6008F104086B
:104D100046E1D8F80010EA17C1E90052F6E7D8F8E2
:104D200000100D80F2E70D70F0E718F8041B8DF805
:104D3000001000208DF80100EB46012003E058F838
:104D400004BB4FF0FF3061074FF0000102D40DE0CB
:104D500009F101018946B9420FDA8145F8DB1BF8F8
:104D600009100029F4D108E009F1010189468142C6
:104D7000FADB1BF809100029F6D103985346A0EB83
:104D8000090721463846179A00F080FA284400EBBC
:104D9000090507E044E008E10DE01BF8010B52466D
:104DA00017999047B9F10109F7D253462146384681
:104DB000179AF2E039E00A21C4F302524FF0000BD7
:104DC0000091022A06D058F8040BC117032A09D013
:104DD0000AE023E008F1070020F00702F2E80201F0
:104DE000904605E000B2C117042A01D140B2C117B4
:104DF000002906DA0A460021404261EB02012D2219
:104E000002E0220504D52B228DF80420012203E0C4
:104E1000E20701D02022F7E7914657E00A2100E09F
:104E200010214FF0000B00910BE010214FF0000B10
:104E300044F004040827009103E008204FF0000B21
:104E40000090C4F30252022A05D058F8040B002146
:104E5000032A08D008E008F1070020F00702F2E872
:104E60000201904603E080B2042A00D1C0B24FF0A4
:104E7000000922072AD53278702A07D0DDF800C051
:104E80008CF0100C5CEA0B0C05D00EE040228DF883
:104E90000420012208E050EA010306D030238DF8F7
:104EA00004308DF8052002229146009B83F0080310
:104EB00053EA0B030AD150EA010201D1620705D57A
:104EC00030228DF804204FF001097F1E3278582AD5
:104ED00004D039A20C920CAA02920BE03BA2F9E793
:104EE0005B46009AFBF78CF90C9B9B5C029A521E66
:104EF0000292137050EA0102F2D1029804A9081A32
:104F000000F1200B600702D524F4803400E0012773
:104F10005F4502DDA7EB0B0000E0002000EB0B017A
:104F2000009003984944401A0390E00306D4534686
:104F30002146179A039800F0A9F90544002706E0D6
:104F400001A85246C05D179990476D1C7F1C4F45C4
:104F5000F6DBE0030CD553462146179A039800F080
:104F600095F9054404E030205246179990476D1C8E
:104F70000099481E00900029F5DC08E0029802998B
:104F800052460078491C0291179990476D1CBBF15D
:104F90000001ABF1010BF1DC5BE100F065F90544C8
:104FA000761C307800287FF40DAE19B02846BDE895
:104FB000F08F0000092801003031323334353637A4
:104FC0003839616263646566000000003031323355
:104FD00034353637383941424344454600000000F5
:104FE000600700D4062708F1070020F00700F0E86A
:104FF0000223804603F0004C5FEA0C0001D097A02A
:1050000009E0200501D596A005E0E00701D095A0B4
:1050100001E0AFF24C001390307823F00043652894
:105020000CD006DC452809D046281DD047287FD162
:105030003BE0662818D067287AD136E00021112F8E
:1050400001DB112000E0781CCDE9000104A90CA8C7
:10505000FFF7EEFCDDE90D010C9A4FF0000B07F1B4
:105060000109109200914EE04FF000400097CDE909
:10507000011004A90CA8FFF7DBFCDDE90D020C9B75
:105080000F994FF0000B91461093009211B9791CC3
:1050900000EB0109B7EB090003D4C0F1FF3B07F1B6
:1050A0000109A9EB0700019042E0012F00DA012776
:1050B0000021112F01DD112000E03846CDE900016B
:1050C00004A90CA8FFF7B4FCDDE90D010C9A0091CE
:1050D0004FF0000BB946109221070FD4009A4A45B1
:1050E00003DA914601E0A9F10109B9F1010F05DDEB
:1050F000109AA9F10101515C3029F4D0B84202DACA
:1051000010F1040F03DA0121CDE9011010E00028AD
:1051100003DC8344A9EB000102E0411C494500DDAA
:105120008946A0EB0B00401C01904FF0004002901C
:10513000200705D40198484502DB4FF0FF3001906D
:1051400000208DF84B0002980DF14B07B0F1004F95
:1051500025D002200C902B200D90029800280CDA0C
:10516000404202902D200D9007E00A210298FBF7A3
:105170007BF93031029007F8011D0C99481E0C9004
:105180000029F2DC02980028EFD1791E0D980870F2
:10519000307800F0200040F0450007F8020D11A81B
:1051A000C01BC01D02901398007800B1012000EBD5
:1051B0000901019801EBE071029801440398401A3B
:1051C000401E0390E00306D453462146179A0398E5
:1051D00000F05CF805441398007818B1524617990E
:1051E00090476D1CE00323D553462146179A039838
:1051F00000F04CF805441BE0BBF1000F07DB009802
:10520000584504DD1098179910F80B0001E0179924
:1052100030205246904701980BF1010B401E05F1DA
:105220000105019004D12E205246179990476D1C1C
:10523000B9F10001A9F10109DEDC05E017F8010B65
:105240005246179990476D1C0299481E02900029FA
:10525000F4DC53462146179A03989EE62D00000081
:105260002B000000200000002DE9F041044600253D
:105270001E461746880404D405E039462020B0476E
:105280006D1C641EF9D52846BDE8F0812DE9F0417A
:10529000044600251E469046C80301D5302700E08D
:1052A0002027880404D505E041463846B0476D1CE8
:1052B000641EF9D52846BDE8F0810A68531C0B60CE
:1052C0001070704710B5002821D0114B0022001F2C
:1052D000196803E0814203D80A4649680029F9D1D8
:1052E00052B11368841A9C4204D1006818441060BB
:1052F000104602E0506000E0186039B102680B1AF5
:10530000934203D10B681A4402604968416010BDA2
:10531000AC01002080ED040A70470420401E00BF4D
:1053200000BF00BF00BF0028F8D170472DE9F04F43
:1053300085B09B4616468A4604460E9F00F03AF812
:10534000C4F800A02681C4F804B06781142168461F
:10535000FAF7D1FF4FF002094FF001080025CDF810
:105360000C900096CDE9018569465046FBF7E2FEB8
:1053700001AA009782E8200369465846FBF7DAFE47
:10538000218901222068FBF7B5FF0A20FBF7C0FE48
:10539000218900222068FBF7ADFF0A20FBF7B8FE49
:1053A000204600F039F8204600F036F8257505B0A3
:1053B000BDE8F08F10B5044602E000BFFBF7A8FE81
:1053C000207D00284FF00100F8D1207510BD2DE997
:1053D000F0410F460646FFF7EDFF304600F01CF89F
:1053E00004460A20FBF794FE002509E0304600F051
:1053F00013F8204444080A20FBF78AFE6D1CADB266
:10540000BD42F3D300EE104A0020B8EE400A86ED0C
:10541000030A3075BDE8F08170B504460025FBF73E
:105420006FFF064609E00120FBF772FEFBF768FFFD
:10543000801B962801D9002070BD61896068FBF748
:105440004DFF0128EFD00026218901222068FBF7BB
:1054500051FFFFF762FF218900222068FBF74AFF16
:10546000FFF75BFF6D0061896068FBF737FF01287C
:1054700000D16D1C761C76B2182EE5DB85F4000594
:10548000218901222068FBF735FFFFF746FF2189BC
:1054900000222068FBF72EFFFFF73FFF284670BD74
:1054A0002DE9F04188460746FFF784FF3846FFF7AD
:1054B000B3FFC51704460520FBF72AFE002610E0BF
:1054C0003846FFF7A9FFC1170019694102220023DE
:1054D000FAF7C7FE04460D460520FBF719FE761CB9
:1054E000B6B24645ECD300EE104AD7ED030A97ED6D
:1054F000041AB8EEC00A0020387570EE600A80EE1B
:10550000810ABDE8F081000070B50D4609490446E6
:10551000002304200B60C1E901300820C1E90330F9
:1055200025701146204600F0A7F82046BDE87040DF
:1055300000F0ACB8D00100201FB5FBF7EFFEFDF77F
:1055400081FDFDF74FFBFDF7D7FBFDF727FBFDF7CF
:1055500005FC264C002201212046FBF7CBFE0A2049
:10556000FBF7D6FD012291032046FBF7C3FE0A207C
:10557000FBF7CEFD402023460090802219461C48B0
:10558000FFF7D4FE9FED1B0A1948FFF7C3FE1E214B
:105590001748FFF71CFF012210212046FBF7AAFE47
:1055A0000A20FBF7B5FDFDF7D5FA1348FDF780F9A2
:1055B00000227F211148FFF7A7FF0A20FBF7A8FD73
:1055C0000A210B48FFF76CFF10EE100AFAF71DFFD7
:1055D00041EC100B0AA153EC102B01A8FFF7F4F9D2
:1055E0000F2101A8FBF7CAF9E7E700000008024015
:1055F00008020020CD4CDBC348020020E801002057
:10560000773A20252E32660D0A000000F0B50B30E7
:10561000154D20F007010024144A0FE003688B4267
:105620000BD38B4205D95E1A43184768C3E900675C
:1056300000E04368136002C004E0021D1068002807
:10564000ECD12046002802D1286808B10020F0BD26
:10565000064A07481060074A121A22F00702C0E9FA
:10566000002401202860D7E7B0010020AC01002011
:10567000641B0020601F002000EE101A732247F206
:105680000501B8EE400AFDF799BC00001CB50021E9
:10569000009101910078054940F04070044B48604A
:1056A0006A460448FBF795F91CBD0000D0010020B4
:1056B000000000202002002001EE100A70EEC00A57
:1056C0000122B8EE411A8A40521E20EE811A00EEE5
:1056D000902AF8EE601AC1EE210A30EE800A704777
:1056E0000000000000000000010203040607080992
:1056F0001057000800000020B4010000D008000886
:10570000E4570008B4010020AC250000204A00083E
:105710000114320182101324F41325361B0855049A
:105720001A61041A89041AB5041A05041A31041AF4
:10573000ED04100B040309041201010202021640D9
:10574000830440571D020102034514050F0C1C0180
:1057500007101721031A1A03133D091B0839041AED
:1057600035041A61041A790441130A06293B2A40B8
:10577000901C09024357111DC0320904A11A020BE3
:10578000130524161001052401180901042402023E
:105790000524066C1505820308151009040133025F
:1057A0000A1D07050102432C070581070938442A11
:1057B00040072A8107112B0907440A3B044413813F
:1057C000331408E3324C087534E81A2D101A5710B8
:1057D0001AB904C11A69181A5D041A75041A510419
:0457E0008100000044
:04000005080001C529
:00000001FF
