:020000040800F2
:10000000E0080020DD01000853160008EF14000886
:1000100051160008E9020008B918000800000000A5
:10002000000000000000000000000000571600085B
:10003000EB020008000000005516000859160008E1
:10004000F7010008F7010008F7010008F7010008B0
:10005000F7010008F7010008F7010008F7010008A0
:10006000F7010008F7010008F7010008F701000890
:10007000F7010008F7010008F7010008F701000880
:10008000F7010008F7010008F7010008F701000870
:10009000F7010008F7010008F7010008F701000860
:1000A000F7010008F7010008F7010008F701000850
:1000B000F7010008F7010008F7010008F701000840
:1000C000F7010008F7010008F7010008F701000830
:1000D000F7010008F7010008F7010008F701000820
:1000E000F7010008F7010008F7010008F701000810
:1000F000F7010008F7010008F7010008F701000800
:10010000F7010008F7010008F7010008F7010008EF
:10011000F7010008F7010008F7010008F7010008DF
:10012000F7010008F7010008F7010008F7010008CF
:10013000F70100080000000000000000F7010008BF
:10014000F7010008F7010008F7010008F7010008AF
:10015000F7010008F7010008F7010008F70100089F
:10016000F7010008F7010008F7010008F70100088F
:10017000F7010008F7010008F7010008000000007F
:1001800000000000F701000800000000000000006F
:10019000F70100080000000000000000F70100085F
:1001A000000000000000000000000000F70100084F
:1001B000F7010008F7010008F7010008F70100083F
:1001C000F7010008DFF810D000F07CF80048004785
:1001D000F9180008AFF30080E008002006488047C7
:1001E00006480047FEE7FEE7FEE7FEE7FEE7FEE71C
:1001F000FEE7FEE7FEE7FEE711170008C50100086D
:100200002DE9F05F0546002092469B46884606464B
:10021000814640241BE0284641464746224600F0DE
:1002200041F853465A46C01A914110D31146184618
:10023000224600F028F82D1A67EB01084F462246A7
:100240000120002100F01FF817EB00094E41201E8D
:10025000A4F10104DFDC484631462A464346BDE8A6
:10026000F09FD2B201E000F8012B491EFBD270478B
:100270000022F6E710B513460A4604461946FFF772
:10028000F0FF204610BD202A04DB203A00FA02F1DC
:10029000002070479140C2F1200320FA03F3194374
:1002A00090407047202A04DB203A21FA02F0002116
:1002B000704721FA02F3D040C2F120029140084376
:1002C00019467047064C074D06E0E06840F0010310
:1002D00094E8070098471034AC42F6D3FFF776FF56
:1002E00080190008A0190008FEE7704772B6FEE703
:1002F00070B5040003D094F8200010B104E0012090
:1003000070BD204600F082F82068016821F00201EB
:10031000016000F0ABF90546052604E000F0A6F9FF
:10032000401B0A2811D8206840688007F6D420684E
:10033000016841F00101016000F098F905460BE009
:1003400000F094F9401B0A2806D9606A40F4003096
:10035000606284F82060D2E720684068C007EFD070
:10036000207E0128206801683DD021F080010160D5
:10037000607E01282068016838D021F040010160CA
:10038000A07E01282068016833D021F0200101609F
:10039000E07E0128206801682ED041F01001016044
:1003A000207F01282068016829D021F00801016020
:1003B000607F01282068016824D021F004010160D9
:1003C000D4E902010843D4E90412114308436168E7
:1003D000491E08432168C86100206062012084F83A
:1003E0002000002070BD41F08001C0E741F04001D5
:1003F000C5E741F02001CAE721F01001CFE741F045
:100400000801D4E741F00401D9E7000010B586B037
:10041000044614216846FFF72BFF184920688842DC
:1004200029D117480021026842F080620260026808
:1004300002F080620592026842F000720260006879
:1004400000F0007005900E481038026842F0020279
:100450000260006800F0020005904FF440500090E8
:100460000220CDE901010320039009200490694690
:10047000044800F01BF806B010BD00000068004002
:10048000403802400004024070B5044600F0EEF827
:100490000546601C02D004480078044400F0E6F8E9
:1004A000401BA042FAD370BD100000202DE9F84F88
:1004B00000224FF0010803254FF00F0E0B6808FAD9
:1004C00002F42340A3426ED14E68012E05D0022EC5
:1004D00003D0112E01D0122E12D186684FEA420CA1
:1004E00005FA0CF7BE43CF6807FA0CF7374387606D
:1004F0004668A6430C79C4F3001494403443446026
:10050000C668570005FA07FC8C6826EA0C06BC4052
:100510003443C4604C68022C01D0122C13D1D4088F
:1005200000EB8404A346D4F8209054074FEAD46A21
:100530000EFA0AF629EA06090E6906FA0AF646EAEA
:100540000906CBF8206006680C7926EA0C0604F050
:100550000304BC40344304604C68E40060D5334C71
:10056000266846F480462660246822F0030604F4D8
:10057000804400942E4C3444A446D4F8084896078E
:10058000370F0EFA07F6B4432A4EB04201D10026C7
:100590001FE0294EB04201D101261AE0274EB04299
:1005A00002D1022615E03BE0254EB04201D10326E0
:1005B0000FE0244EB04201D104260AE0224EB042A0
:1005C00001D1052605E0214EB04201D1062600E00A
:1005D0000726BE402643CCF808681D4E34684F6895
:1005E0009C43FF0300D51C433460194E361D34680C
:1005F0004F689C43BF0300D51C433460144E08363B
:1006000034684F689C43FF0200D51C433460104E91
:100610000C3634684F689C43BF0200D51C433460DD
:10062000521C102AFFF44AAFBDE8F88F443802404C
:100630000030014000000240000402400008024077
:10064000000C02400010024000140240001802405A
:10065000003C0140426931EA020200D10904816193
:1006600070470AB1816170470904FBE7014880685F
:10067000704700001000002070B5040025D094F8E9
:100680003D00002520B984F83C50204600F0B8F821
:10069000242084F83D002068016821F001010160F8
:1006A0002068016841F4004101602068016821F47C
:1006B0000041016000F026FC4D4A6168914201D87A
:1006C0004C4900E04C49884201D2012070BD4B49A1
:1006D0002368B0FBF1F15E6826F03F060E435E60D2
:1006E0006368934206D94FF4967359434FF47A7373
:1006F000B1FBF3F12368491C1E6A26F03F06314323
:1007000019626168914210D84900401EB0FBF1F2B5
:10071000521CC2F30B02042A01D2042022E0B0FBD7
:10072000F1F0401CC0F30B001CE0A268F2B301EB37
:10073000C10303EB0116431EB3FBF6F35B1C43F44A
:1007400080431B0549D092B301EBC10202EB0111BA
:10075000401EB0FBF1F0401CC0F30B0040F48040A1
:1007600040F400402168CA694CF6FF739A43104375
:10077000C861D4E9071001432068026822F0C00272
:1007800011430160D4E9030101432068826848F203
:10079000FF339A4311438160D4E90501084321687E
:1007A000CA6822F0FF021043C86001E00EE016E0C4
:1007B0002068016841F0010101602564202084F86F
:1007C0003D00256384F83E50002070BD01EB4106DA
:1007D000431EB3FBF6F35B1CB3E70120C2E701EB5A
:1007E0004101401EB0FBF1F0401CC0F30B00B7E725
:1007F000A086010080841E0000093D0040420F00D9
:10080000F0B587B0044614216846FFF731FD1A4958
:10081000206888422DD11948016841F0010101602A
:10082000016801F001010591016841F002010160D8
:100830000068122400F0020005904FF4807001253A
:10084000032604278DE8F10069460D48FFF72EFEC8
:1008500010208DE8F10069460A48FFF727FE074897
:100860001030016841F400010160006800F40000EC
:10087000059007B0F0BD0000005C00403038024039
:1008800000000240000402400248816802781144DE
:1008900081607047100000200B4810B5016841F4DA
:1008A00000710160016841F480610160016841F4F8
:1008B00080710160032000F061F8002000F006F86C
:1008C00000F024F8002010BD003C024070B50D4D32
:1008D00004464FF47A712878B1FBF0F00A490968B0
:1008E000B1FBF0F000F01CFD48B9102C07D200223B
:1008F0002146501E00F022F800206C6070BD0120DF
:1009000070BD0000100000201C0000200A4808B53F
:10091000016841F480410160006800F4804000906B
:100920000548001F016841F080510160006800F037
:100930008050009008BD000044380240F0B40E4BD7
:100940001B680C46C3F30223C3F10705042D00D92D
:100950000425191D072901D2002300E0DB1E012612
:1009600006FA05F1491E214099409E40761E164028
:100970003143F0BC00F0A1BF0CED00E0064900F0EF
:10098000070208684FF6FF03184040EA0220034AB6
:1009900010430860704700000CED00E00000FA050D
:1009A0002DE9F84F044600260078F84D3746C00779
:1009B00008D02868A16B20F0C06008432860A06BB5
:1009C00000B901262078800708D52868E16B20F05F
:1009D000C05008432860E06B00B90126207840072A
:1009E0000ED52868216B20F4401008432860206B46
:1009F000B0F5801F01D010B102E0012600E0012710
:100A0000207800070ED52868616B20F44000084369
:100A10002860606BB0F5800F01D010B102E00126B4
:100A200000E0012720784FF0000A80064FF0010B0C
:100A300063D5D6484C38016841F0805101600068A8
:100A4000DFF84C9300F080500090D9F8001041F48A
:100A50008071C9F80010FFF709FE804606E000BF6C
:100A6000FFF704FEA0EB080002286FD8D9F80000B9
:100A7000C005F5D5DFF81483A8F11C08D8F80000EC
:100A800010F4407024D0B4F8401001F44071814259
:100A90001ED0D8F80010BF4A21F44071C2F800B04F
:100AA000C2F800A0C8F80010D8F80000C0070FD0A6
:100AB000FFF7DCFD814607E0FFF7D8FDA0EB090159
:100AC00041F288308142D0D8D8F800008007F3D5B1
:100AD000216CAE48C1F301228438032A37D0016863
:100AE00021F4F811C0F80010D8F80010B4F8402034
:100AF000C2F30B021143C8F800102078C00604D5D9
:100B0000A54894F85810C0F8E01120780106A348D1
:100B100005D50168E26C21F44001114301602178A0
:100B2000490605D50168A26C21F08061114301607E
:100B30002188C90514D50168626D21F00061114357
:100B40000160616DB1F1006F09D009E01DE102683B
:100B5000934B22F4F81219400A430260C4E70127BC
:100B60002188890505D50168626C21F08051114307
:100B700001602188DFF82C92490509D50168226DB2
:100B800021F0005111430160206DB0F1005F04D0ED
:100B90001EB92068B0F5006F7ED18349C1F868A006
:100BA000FFF764FD794E80468C3E05E0FFF75EFD61
:100BB000A0EB0800022886D830680001F6D421682E
:100BC0007A48CA0701D0A26B1AB1890717D5E16B21
:100BD000A9B901680268C1F30141491CD4E9013C8B
:100BE00043EA8C1321F0004CC2F3036209EB0C4181
:100BF00041EA02610B43217D43EA017101602168F2
:100C00004A0703D5226BB2F5801F05D0090721D50D
:100C1000616BB1F5800F1DD101680268C1F301411C
:100C2000491CD4E9013C43EA8C1321F0004C09EB48
:100C30000C4194F810C0C2F3027241EA0C610B43FC
:100C400043EA027101602968A26A21F01F01521E65
:100C500011432960218849051AD5216DB1F1005F42
:100C600016D101680268C1F30141491CD4E9013C75
:100C700043EA8C13D4F80CC0C2F302724FEA5C084A
:100C800009EB084C4CEA41610B4343EA02710160F5
:100C90002188090511D500E01FE0D4E9011241EADD
:100CA0008211E268530809EB0342237C42EA0362A3
:100CB0001143227D41EA027101603B49C1F868B0ED
:100CC000FFF7D4FC804605E0FFF7D0FCA0EB08005E
:100CD000022874D830680001F6D5EFB3DFF8C88079
:100CE000C8F870A0FFF7C2FC304E0746843E04E00F
:100CF000FFF7BCFCC01B022861D83068C0438000ED
:100D0000F6D521682A484A0701D5226B1AB109078E
:100D10001DD5616BD9B90168D4E90623C1F301413E
:100D2000491C42EA831221F0004309EB034194F885
:100D3000243041EA03610A4302602968E26A6FF0E5
:100D4000FF0321F4F85103EB0222114329602188AB
:100D5000C90514D5616D00E038E0B1F1006F0ED126
:100D60000168D4E9062342EA8312236AC1F30361CE
:100D70005C0809EB044343EA01610A430260C8F8D6
:100D800070B0FFF773FC04461CE018E08C3802409A
:100D900000700040400E4742001047429438024025
:100DA000FFFCFF0F0000FFFF0000474284380240B5
:100DB00088380240FFF75AFC001B022802D90320A2
:100DC000BDE8F88F3068C0438000F3D40020F7E717
:100DD0002DE9F0470E46050065D0DFF81481D8F8FC
:100DE0000000F7B200F00F00B04207D288F80070A0
:100DF000D8F8000000F00F00B04254D128683D4CF4
:100E0000810712D5400703D5206840F4E0502060E8
:100E10002878000703D5206840F4604020602068EF
:100E2000A96820F0F000084320602878C0072DD082
:100E3000304968680839012812D0022813D00328E5
:100E400011D00968890700292DDA216821F00301F2
:100E500001432160FFF70AFC814641F2883A0EE027
:100E600009688903EFE709688901ECE7FFF7FEFBF2
:100E7000A0EB0901514502D90320BDE8F0872068A5
:100E8000696800F00C00B0EB810FEFD1D8F80010CA
:100E9000404601F00F01B14207D90770006800F029
:100EA0000F00B04201D00120E7E72878400705D5C0
:100EB0002068E96820F4E0500843206028780007A3
:100EC00006D52068296920F4604040EAC10020600E
:100ED00000F038F82168084AC1F30311515CC8409A
:100EE0000649086006480068FFF7F0FC0020C4E7E8
:100EF000003C024008380240681900081C0000202D
:100F0000140000200448054900680968044AC1F338
:100F10008221515CC84070471C0000200838024004
:100F2000781900080448054900680968044AC1F3B3
:100F30004231515CC84070471C0000200838024014
:100F400078190008224810B5006810F00C022148FA
:100F500015D02149042A11D01D4C241F082A0FD076
:100F60000C2A0CD12268236802F03F025B0221D5D3
:100F70002068C0F38810A0FB010120E0084610BDE6
:100F80002268236802F03F025B0205D52068C0F3A7
:100F90008810A0FB010104E02168C1F38811A1FBC6
:100FA00000010023FFF72CF92168C1F30141491C1E
:100FB00049000AE02168C1F38811A1FB0001002368
:100FC000FFF71EF92168C1F30271B0FBF1F010BD0B
:100FD000083802400024F400001BB7002DE9F84F48
:100FE0000546DFF828B30078ABF10407C007A7F186
:100FF000040451D0DBF800105846C1F381010129E7
:101000000FD00168C1F38101022902D13968490278
:1010100007D40068C0F38100032809D13868400272
:1010200006D52068800337D56868002872D033E081
:101030006868B0F5803F10D0B0F5A02F206810D0C0
:1010400020F480302060206820F4802020606868D0
:10105000A8B1FFF70BFB06460DE0206840F4803096
:10106000F4E740F480202060F7E700BFFFF7FEFAC6
:10107000801B642878D820688003F7D50CE0FFF740
:10108000F5FA064605E000BFFFF7F0FA801B64287A
:10109000F0D820688003F7D42878DFF874928007AE
:1010A0004FF0000A46D5DBF80010584611F00C0F3F
:1010B0000FD00168C1F38101022902D139684902C8
:1010C00007D50068C0F38100032809D138684002C1
:1010D00006D42068800715D5E86801281AD111E0E8
:1010E000E868C0B10120C9F80000FFF7BFFA064662
:1010F00005E000BFFFF7BAFA801B0228BAD82068C3
:101100008007F7D52068296920F0F80040EAC1007F
:1011100020600FE0F7E0C9F800A0FFF7A7FA064645
:1011200005E000BFFFF7A2FA801B02281CD8206848
:101130008007F7D42878000727D5DFF8D0817548D5
:10114000696908F16C0881B101210160FFF78EFA2D
:10115000064604E0FFF78AFA801B022804D8D8F874
:1011600000008007F6D510E089E0C0F800A0FFF786
:101170007DFA064605E000BFFFF778FA801B0228DB
:101180007DD8D8F800008007F6D42878400769D5C4
:101190005E484FF0000838300068C0000BD45B4850
:1011A0003830016841F08051016000684FF001085B
:1011B00000F080500090584E3068C00511D430685F
:1011C00040F480703060FFF751FA009006E000BFF5
:1011D000FFF74CFA0099401A022850D83068C00531
:1011E000F6D54A4EA868683601280FD00528306821
:1011F00010D020F001003060306820F00400306032
:10120000A868B8B1FFF732FA00900FE0306840F0FC
:101210000100F4E740F004003060F7E7FFF726FA3A
:101220000099411A41F28830814264D830688007C1
:10123000F4D50EE0FFF71AFA009007E0FFF716FA70
:101240000099411A41F28830814254D830688007B1
:10125000F4D4B8F1000F05D02C483830016821F0E3
:1012600080510160A869A8B3DBF80010C1F38101C7
:10127000022948D00228C9F860A005D000E03AE071
:10128000FFF7F4F9054639E0FFF7F0F9064604E008
:10129000FFF7ECF9801B02282DD820688001F7D4D5
:1012A000F5E907010843E9681C4A490802EB0141D6
:1012B000AA6841EA82110843297C40EA0160297D3D
:1012C00040EA017038600120C9F86000FFF7CEF9EC
:1012D000054606E015E000BFFFF7C8F9401B0228ED
:1012E00009D820688001F7D50BE000BFFFF7BEF9F1
:1012F000401B022802D90320BDE8F88F2068800136
:10130000F4D40020F8E70120F6E700000838024096
:1013100000004742800E4742007000400000FFFF7F
:1013200010B5401EB0F1807F01D3012010BD4FF0F9
:10133000E02460610F21601700F0BFFA0020A06177
:1013400007202061002010BD70B5040004D094F87F
:101350003900002510B106E0012070BD84F8385036
:10136000204600F023F8242084F839002068C16862
:1013700021F40051C160204600F0D8F920680169CD
:1013800021F4904101612068416921F02A01416105
:101390002068C16841F40051C160E563202084F8F1
:1013A000390084F83A00002070BD0000F0B587B025
:1013B000044614216846FEF75BFF1A4920688842FC
:1013C0002DD11948016841F480110160006800F4D2
:1013D0008010059014481038016841F00401016044
:1013E000016801F004010591016841F00801016004
:1013F0000068022400F0080005904FF48050012599
:10140000032608278DE8F10069460848FFF74EF8E3
:1014100004208DE8F10069460548FFF747F807B05A
:10142000F0BD00000050004040380240000802407B
:10143000000C02402DE9F843044690F839001F469D
:1014400016460D46202850D1B5B1AEB194F83800FB
:1014500001284AD0012084F838004FF00008C4F871
:101460003C80212084F83900FFF700F9A6848146EA
:10147000E68484F8388026E00120BDE8F883E08C1B
:10148000401EE084A0684B46B0F5805F4FF000023C
:101490004FF080012046009703D000F0DBF9E8B957
:1014A0000DE000F0D7F9C8B928882168C0F308001A
:1014B0004860206908B16D1C05E0AD1C03E021689F
:1014C00015F8010B4860E08C0028D8D14B4600226B
:1014D00040212046009700F0BDF908B10320CCE779
:1014E000202084F839000020C7E70220C5E7FEE786
:1014F0000F4810B50D4901600721416000214FF0F0
:101500008072C0E90212D211026152014261017679
:1015100041768176C17601774177FEF7E9FE0028B2
:1015200003D0BDE81040FEF7E1BE10BD00680040EA
:101530002000002070B586B014216846FEF798FEA2
:1015400022480024016841F004010160016801F0B3
:1015500004010591016841F080010160016801F01A
:1015600080010591016841F002010160016801F00C
:1015700002010591016841F001010160016801F07B
:1015800001010591016841F0080101600068104EF9
:1015900000F0080046F21105059000222946304669
:1015A000FFF75FF801200095CDE901046946304658
:1015B0000394FEF77BFF4FF40040CDE90004694639
:1015C00004480294FEF772FF06B070BD3038024046
:1015D00000080240000002400D4810B50B490160B0
:1015E0000C49416000214FF480428160C0E9031240
:1015F00041618161C1610162FFF73EF8002803D0BB
:10160000BDE81040FEF772BE10BD0000005C004057
:1016100048000020A08601000C4810B50A4901606E
:101620004FF4E1314160002181600C22C160C0E9CA
:1016300004128161C161FFF787FE002803D0BDE875
:101640001040FEF753BE10BD005000409C0000202B
:10165000FEE7FEE770477047FFF716B930B5ABB04D
:10166000342117A8FEF704FE142124A8FEF700FE7B
:101670005C216846FEF7FCFD23480025016841F027
:1016800080510160006800F0805029901F48016877
:1016900041F4404101600068022400F44040299078
:1016A00001201790000418908001CDE91D4006200C
:1016B0001F90A820CDE920040720CDE9220417A817
:1016C000FFF78CFC08B172B6FEE724A90F2081E871
:1016D00031004FF4A05027904FF4805028900521FE
:1016E00024A8FFF775FB08B172B6FEE74FF48070CF
:1016F000009015956846FFF753F9002801D072B69F
:10170000FEE72BB030BD00004038024000700040C2
:101710000548016841F47001016003494FF0006021
:10172000803908607047000088ED00E02DE9F04145
:10173000044600680169E26821F4405111430161E7
:101740002169A068E269084361691143084321687F
:10175000CA6849F20C639A430243CA60206841692F
:10176000A26921F4407111434161E06919276425A0
:101770003226B0F5004F354A354920684FF0000851
:1017800006D0884201D0904236D1FFF7CBFB35E03E
:10179000884201D0904202D1FFF7C4FB01E0FFF77D
:1017A000B1FB61684A18A0FB070148EB0803FEF78C
:1017B00027FD0146B0FBF5F00201B1FBF5F06FF03B
:1017C0001803584301EB800006EBC000B0FBF5F0B6
:1017D00000F0F80002EB4002B1FBF5F0584301EBDA
:1017E000800006EBC000B0FBF5F000F007002168B8
:1017F00010448860BDE8F081FFF784FB61688B0FBF
:101800008A00A0FB0701FEF7FBFC0146B0FBF5F0E8
:101810006FF01802504301EB800006EB0010B0FBA4
:10182000F5F000F0F002B1FBF5F002EB0012B1FBB5
:10183000F5F06FF01803584301EB800006EB001041
:10184000B0FBF5F000F00F00D1E7000000140140FC
:10185000001001402DE9F041984617460E46044617
:10186000069D1DE0681C1BD02DB1FEF7FFFEA0EB0E
:101870000800A84214D92068C16821F4D071C16061
:101880002068416921F001014161202084F839007C
:1018900084F83A00002084F838000320BDE8F08185
:1018A0002068006836EA000004D00020B842D9D091
:1018B0000020F3E70120F9E7FEE70907090E0028F9
:1018C00004DB00F1E02080F80014704700F00F0006
:1018D00000F1E02080F8141D704702E008C8121FD4
:1018E00008C1002AFAD170477047002001E001C109
:1018F000121F002AFBD17047FEF7CEFFFFF7AEFEA6
:10190000FFF718FEFFF7F4FDFFF786FEFFF764FE12
:101910000E4900200E4C087048808880C8800881DD
:1019200048818881024601212046FEF79AFE0A205E
:10193000FEF7AAFD01212046FEF78CFE64230D224E
:1019400004A10848FFF776FD6420F1E700000020BD
:101950000008024055617274352048656C6C6F2137
:101960000A0000009C0000200000000000000000B1
:101970000102030406070809000000000102030435
:10198000A01900080000002020000000DA1800085C
:10199000C019000820000020C0080000EA18000854
:1019A0000000000000000000000000000000000037
:1019B0000100000010000000000000000024F400FE
:04000005080001C529
:00000001FF
